{
	"verifier.sol": {
		"Verifier": {
			"abi": [
				{
					"inputs": [
						{
							"components": [
								{
									"components": [
										{
											"internalType": "uint256",
											"name": "X",
											"type": "uint256"
										},
										{
											"internalType": "uint256",
											"name": "Y",
											"type": "uint256"
										}
									],
									"internalType": "struct Pairing.G1Point",
									"name": "a",
									"type": "tuple"
								},
								{
									"components": [
										{
											"internalType": "uint256[2]",
											"name": "X",
											"type": "uint256[2]"
										},
										{
											"internalType": "uint256[2]",
											"name": "Y",
											"type": "uint256[2]"
										}
									],
									"internalType": "struct Pairing.G2Point",
									"name": "b",
									"type": "tuple"
								},
								{
									"components": [
										{
											"internalType": "uint256",
											"name": "X",
											"type": "uint256"
										},
										{
											"internalType": "uint256",
											"name": "Y",
											"type": "uint256"
										}
									],
									"internalType": "struct Pairing.G1Point",
									"name": "c",
									"type": "tuple"
								}
							],
							"internalType": "struct Verifier.Proof",
							"name": "proof",
							"type": "tuple"
						},
						{
							"internalType": "uint256[2]",
							"name": "input",
							"type": "uint256[2]"
						}
					],
					"name": "verifyTx",
					"outputs": [
						{
							"internalType": "bool",
							"name": "r",
							"type": "bool"
						}
					],
					"stateMutability": "view",
					"type": "function"
				}
			],
			"devdoc": {
				"kind": "dev",
				"methods": {},
				"version": 1
			},
			"evm": {
				"assembly": "    /* \"verifier.sol\":6205:9836  contract Verifier {... */\n  mstore(0x40, 0x80)\n  callvalue\n  dup1\n  iszero\n  tag_1\n  jumpi\n  0x00\n  dup1\n  revert\ntag_1:\n  pop\n  dataSize(sub_0)\n  dup1\n  dataOffset(sub_0)\n  0x00\n  codecopy\n  0x00\n  return\nstop\n\nsub_0: assembly {\n        /* \"verifier.sol\":6205:9836  contract Verifier {... */\n      mstore(0x40, 0x80)\n      callvalue\n      dup1\n      iszero\n      tag_1\n      jumpi\n      0x00\n      dup1\n      revert\n    tag_1:\n      pop\n      jumpi(tag_2, lt(calldatasize, 0x04))\n      shr(0xe0, calldataload(0x00))\n      dup1\n      0x43cd76fc\n      eq\n      tag_3\n      jumpi\n    tag_2:\n      0x00\n      dup1\n      revert\n        /* \"verifier.sol\":9434:9834  function verifyTx(... */\n    tag_3:\n      tag_4\n      0x04\n      dup1\n      calldatasize\n      sub\n      dup2\n      add\n      swap1\n      tag_5\n      swap2\n      swap1\n      tag_6\n      jump\t// in\n    tag_5:\n      tag_7\n      jump\t// in\n    tag_4:\n      mload(0x40)\n      tag_8\n      swap2\n      swap1\n      tag_9\n      jump\t// in\n    tag_8:\n      mload(0x40)\n      dup1\n      swap2\n      sub\n      swap1\n      return\n    tag_7:\n        /* \"verifier.sol\":9537:9543  bool r */\n      0x00\n        /* \"verifier.sol\":9555:9580  uint[] memory inputValues */\n      dup1\n        /* \"verifier.sol\":9594:9595  2 */\n      0x02\n        /* \"verifier.sol\":9583:9596  new uint[](2) */\n      0xffffffffffffffff\n      dup2\n      gt\n      iszero\n      tag_11\n      jumpi\n      tag_12\n      tag_13\n      jump\t// in\n    tag_12:\n    tag_11:\n      mload(0x40)\n      swap1\n      dup1\n      dup3\n      mstore\n      dup1\n      0x20\n      mul\n      0x20\n      add\n      dup3\n      add\n      0x40\n      mstore\n      dup1\n      iszero\n      tag_14\n      jumpi\n      dup2\n      0x20\n      add\n      0x20\n      dup3\n      mul\n      dup1\n      calldatasize\n      dup4\n      calldatacopy\n      dup1\n      dup3\n      add\n      swap2\n      pop\n      pop\n      swap1\n      pop\n    tag_14:\n      pop\n        /* \"verifier.sol\":9555:9596  uint[] memory inputValues = new uint[](2) */\n      swap1\n      pop\n        /* \"verifier.sol\":9619:9625  uint i */\n      0x00\n        /* \"verifier.sol\":9615:9703  for(uint i = 0; i < input.length; i++){... */\n    tag_15:\n        /* \"verifier.sol\":9635:9647  input.length */\n      0x02\n        /* \"verifier.sol\":9631:9632  i */\n      dup2\n        /* \"verifier.sol\":9631:9647  i < input.length */\n      lt\n        /* \"verifier.sol\":9615:9703  for(uint i = 0; i < input.length; i++){... */\n      iszero\n      tag_16\n      jumpi\n        /* \"verifier.sol\":9684:9689  input */\n      dup4\n        /* \"verifier.sol\":9690:9691  i */\n      dup2\n        /* \"verifier.sol\":9684:9692  input[i] */\n      0x02\n      dup2\n      lt\n      tag_18\n      jumpi\n      tag_19\n      tag_20\n      jump\t// in\n    tag_19:\n    tag_18:\n      0x20\n      mul\n      add\n      mload\n        /* \"verifier.sol\":9667:9678  inputValues */\n      dup3\n        /* \"verifier.sol\":9679:9680  i */\n      dup3\n        /* \"verifier.sol\":9667:9681  inputValues[i] */\n      dup2\n      mload\n      dup2\n      lt\n      tag_21\n      jumpi\n      tag_22\n      tag_20\n      jump\t// in\n    tag_22:\n    tag_21:\n      0x20\n      mul\n      0x20\n      add\n      add\n        /* \"verifier.sol\":9667:9692  inputValues[i] = input[i] */\n      dup2\n      dup2\n      mstore\n      pop\n      pop\n        /* \"verifier.sol\":9649:9652  i++ */\n      dup1\n      dup1\n      0x01\n      add\n      swap2\n      pop\n      pop\n        /* \"verifier.sol\":9615:9703  for(uint i = 0; i < input.length; i++){... */\n      jump(tag_15)\n    tag_16:\n      pop\n        /* \"verifier.sol\":9746:9747  0 */\n      0x00\n        /* \"verifier.sol\":9716:9742  verify(inputValues, proof) */\n      tag_23\n        /* \"verifier.sol\":9723:9734  inputValues */\n      dup3\n        /* \"verifier.sol\":9736:9741  proof */\n      dup7\n        /* \"verifier.sol\":9716:9722  verify */\n      tag_24\n        /* \"verifier.sol\":9716:9742  verify(inputValues, proof) */\n      jump\t// in\n    tag_23:\n        /* \"verifier.sol\":9716:9747  verify(inputValues, proof) == 0 */\n      sub\n        /* \"verifier.sol\":9712:9828  if (verify(inputValues, proof) == 0) {... */\n      tag_25\n      jumpi\n        /* \"verifier.sol\":9770:9774  true */\n      0x01\n        /* \"verifier.sol\":9763:9774  return true */\n      swap2\n      pop\n      pop\n      jump(tag_10)\n        /* \"verifier.sol\":9712:9828  if (verify(inputValues, proof) == 0) {... */\n    tag_25:\n        /* \"verifier.sol\":9812:9817  false */\n      0x00\n        /* \"verifier.sol\":9805:9817  return false */\n      swap2\n      pop\n      pop\n        /* \"verifier.sol\":9434:9834  function verifyTx(... */\n    tag_10:\n      swap3\n      swap2\n      pop\n      pop\n      jump\t// out\n        /* \"verifier.sol\":8508:9429  function verify(uint[] memory input, Proof memory proof) internal view returns (uint) {... */\n    tag_24:\n        /* \"verifier.sol\":8588:8592  uint */\n      0x00\n        /* \"verifier.sol\":8604:8630  uint256 snark_scalar_field */\n      dup1\n        /* \"verifier.sol\":8633:8710  21888242871839275222246405745257275088548364400416034343698204186575808495617 */\n      0x30644e72e131a029b85045b68181585d2833e84879b9709143e1f593f0000001\n        /* \"verifier.sol\":8604:8710  uint256 snark_scalar_field = 21888242871839275222246405745257275088548364400416034343698204186575808495617 */\n      swap1\n      pop\n        /* \"verifier.sol\":8720:8742  VerifyingKey memory vk */\n      0x00\n        /* \"verifier.sol\":8745:8759  verifyingKey() */\n      tag_28\n        /* \"verifier.sol\":8745:8757  verifyingKey */\n      tag_29\n        /* \"verifier.sol\":8745:8759  verifyingKey() */\n      jump\t// in\n    tag_28:\n        /* \"verifier.sol\":8720:8759  VerifyingKey memory vk = verifyingKey() */\n      swap1\n      pop\n        /* \"verifier.sol\":8797:8799  vk */\n      dup1\n        /* \"verifier.sol\":8797:8809  vk.gamma_abc */\n      0x80\n      add\n      mload\n        /* \"verifier.sol\":8797:8816  vk.gamma_abc.length */\n      mload\n        /* \"verifier.sol\":8792:8793  1 */\n      0x01\n        /* \"verifier.sol\":8777:8782  input */\n      dup7\n        /* \"verifier.sol\":8777:8789  input.length */\n      mload\n        /* \"verifier.sol\":8777:8793  input.length + 1 */\n      tag_30\n      swap2\n      swap1\n      tag_31\n      jump\t// in\n    tag_30:\n        /* \"verifier.sol\":8777:8816  input.length + 1 == vk.gamma_abc.length */\n      eq\n        /* \"verifier.sol\":8769:8817  require(input.length + 1 == vk.gamma_abc.length) */\n      tag_32\n      jumpi\n      0x00\n      dup1\n      revert\n    tag_32:\n        /* \"verifier.sol\":8874:8901  Pairing.G1Point memory vk_x */\n      0x00\n        /* \"verifier.sol\":8904:8925  Pairing.G1Point(0, 0) */\n      mload(0x40)\n      dup1\n      0x40\n      add\n      0x40\n      mstore\n      dup1\n        /* \"verifier.sol\":8920:8921  0 */\n      0x00\n        /* \"verifier.sol\":8904:8925  Pairing.G1Point(0, 0) */\n      dup2\n      mstore\n      0x20\n      add\n        /* \"verifier.sol\":8923:8924  0 */\n      0x00\n        /* \"verifier.sol\":8904:8925  Pairing.G1Point(0, 0) */\n      dup2\n      mstore\n      pop\n        /* \"verifier.sol\":8874:8925  Pairing.G1Point memory vk_x = Pairing.G1Point(0, 0) */\n      swap1\n      pop\n        /* \"verifier.sol\":8940:8946  uint i */\n      0x00\n        /* \"verifier.sol\":8935:9132  for (uint i = 0; i < input.length; i++) {... */\n    tag_33:\n        /* \"verifier.sol\":8956:8961  input */\n      dup7\n        /* \"verifier.sol\":8956:8968  input.length */\n      mload\n        /* \"verifier.sol\":8952:8953  i */\n      dup2\n        /* \"verifier.sol\":8952:8968  i < input.length */\n      lt\n        /* \"verifier.sol\":8935:9132  for (uint i = 0; i < input.length; i++) {... */\n      iszero\n      tag_34\n      jumpi\n        /* \"verifier.sol\":9008:9026  snark_scalar_field */\n      dup4\n        /* \"verifier.sol\":8997:9002  input */\n      dup8\n        /* \"verifier.sol\":9003:9004  i */\n      dup3\n        /* \"verifier.sol\":8997:9005  input[i] */\n      dup2\n      mload\n      dup2\n      lt\n      tag_36\n      jumpi\n      tag_37\n      tag_20\n      jump\t// in\n    tag_37:\n    tag_36:\n      0x20\n      mul\n      0x20\n      add\n      add\n      mload\n        /* \"verifier.sol\":8997:9026  input[i] < snark_scalar_field */\n      lt\n        /* \"verifier.sol\":8989:9027  require(input[i] < snark_scalar_field) */\n      tag_38\n      jumpi\n      0x00\n      dup1\n      revert\n    tag_38:\n        /* \"verifier.sol\":9048:9121  Pairing.addition(vk_x, Pairing.scalar_mul(vk.gamma_abc[i + 1], input[i])) */\n      tag_39\n        /* \"verifier.sol\":9065:9069  vk_x */\n      dup3\n        /* \"verifier.sol\":9071:9120  Pairing.scalar_mul(vk.gamma_abc[i + 1], input[i]) */\n      tag_40\n        /* \"verifier.sol\":9090:9092  vk */\n      dup6\n        /* \"verifier.sol\":9090:9102  vk.gamma_abc */\n      0x80\n      add\n      mload\n        /* \"verifier.sol\":9107:9108  1 */\n      0x01\n        /* \"verifier.sol\":9103:9104  i */\n      dup6\n        /* \"verifier.sol\":9103:9108  i + 1 */\n      tag_41\n      swap2\n      swap1\n      tag_31\n      jump\t// in\n    tag_41:\n        /* \"verifier.sol\":9090:9109  vk.gamma_abc[i + 1] */\n      dup2\n      mload\n      dup2\n      lt\n      tag_42\n      jumpi\n      tag_43\n      tag_20\n      jump\t// in\n    tag_43:\n    tag_42:\n      0x20\n      mul\n      0x20\n      add\n      add\n      mload\n        /* \"verifier.sol\":9111:9116  input */\n      dup11\n        /* \"verifier.sol\":9117:9118  i */\n      dup6\n        /* \"verifier.sol\":9111:9119  input[i] */\n      dup2\n      mload\n      dup2\n      lt\n      tag_44\n      jumpi\n      tag_45\n      tag_20\n      jump\t// in\n    tag_45:\n    tag_44:\n      0x20\n      mul\n      0x20\n      add\n      add\n      mload\n        /* \"verifier.sol\":9071:9089  Pairing.scalar_mul */\n      tag_46\n        /* \"verifier.sol\":9071:9120  Pairing.scalar_mul(vk.gamma_abc[i + 1], input[i]) */\n      jump\t// in\n    tag_40:\n        /* \"verifier.sol\":9048:9064  Pairing.addition */\n      tag_47\n        /* \"verifier.sol\":9048:9121  Pairing.addition(vk_x, Pairing.scalar_mul(vk.gamma_abc[i + 1], input[i])) */\n      jump\t// in\n    tag_39:\n        /* \"verifier.sol\":9041:9121  vk_x = Pairing.addition(vk_x, Pairing.scalar_mul(vk.gamma_abc[i + 1], input[i])) */\n      swap2\n      pop\n        /* \"verifier.sol\":8970:8973  i++ */\n      dup1\n      dup1\n      0x01\n      add\n      swap2\n      pop\n      pop\n        /* \"verifier.sol\":8935:9132  for (uint i = 0; i < input.length; i++) {... */\n      jump(tag_33)\n    tag_34:\n      pop\n        /* \"verifier.sol\":9148:9187  Pairing.addition(vk_x, vk.gamma_abc[0]) */\n      tag_48\n        /* \"verifier.sol\":9165:9169  vk_x */\n      dup2\n        /* \"verifier.sol\":9171:9173  vk */\n      dup4\n        /* \"verifier.sol\":9171:9183  vk.gamma_abc */\n      0x80\n      add\n      mload\n        /* \"verifier.sol\":9184:9185  0 */\n      0x00\n        /* \"verifier.sol\":9171:9186  vk.gamma_abc[0] */\n      dup2\n      mload\n      dup2\n      lt\n      tag_49\n      jumpi\n      tag_50\n      tag_20\n      jump\t// in\n    tag_50:\n    tag_49:\n      0x20\n      mul\n      0x20\n      add\n      add\n      mload\n        /* \"verifier.sol\":9148:9164  Pairing.addition */\n      tag_47\n        /* \"verifier.sol\":9148:9187  Pairing.addition(vk_x, vk.gamma_abc[0]) */\n      jump\t// in\n    tag_48:\n        /* \"verifier.sol\":9141:9187  vk_x = Pairing.addition(vk_x, vk.gamma_abc[0]) */\n      swap1\n      pop\n        /* \"verifier.sol\":9201:9394  Pairing.pairingProd4(... */\n      tag_51\n        /* \"verifier.sol\":9236:9241  proof */\n      dup6\n        /* \"verifier.sol\":9236:9243  proof.a */\n      0x00\n      add\n      mload\n        /* \"verifier.sol\":9245:9250  proof */\n      dup7\n        /* \"verifier.sol\":9245:9252  proof.b */\n      0x20\n      add\n      mload\n        /* \"verifier.sol\":9267:9287  Pairing.negate(vk_x) */\n      tag_52\n        /* \"verifier.sol\":9282:9286  vk_x */\n      dup5\n        /* \"verifier.sol\":9267:9281  Pairing.negate */\n      tag_53\n        /* \"verifier.sol\":9267:9287  Pairing.negate(vk_x) */\n      jump\t// in\n    tag_52:\n        /* \"verifier.sol\":9289:9291  vk */\n      dup6\n        /* \"verifier.sol\":9289:9297  vk.gamma */\n      0x40\n      add\n      mload\n        /* \"verifier.sol\":9312:9335  Pairing.negate(proof.c) */\n      tag_54\n        /* \"verifier.sol\":9327:9332  proof */\n      dup11\n        /* \"verifier.sol\":9327:9334  proof.c */\n      0x40\n      add\n      mload\n        /* \"verifier.sol\":9312:9326  Pairing.negate */\n      tag_53\n        /* \"verifier.sol\":9312:9335  Pairing.negate(proof.c) */\n      jump\t// in\n    tag_54:\n        /* \"verifier.sol\":9337:9339  vk */\n      dup8\n        /* \"verifier.sol\":9337:9345  vk.delta */\n      0x60\n      add\n      mload\n        /* \"verifier.sol\":9360:9384  Pairing.negate(vk.alpha) */\n      tag_55\n        /* \"verifier.sol\":9375:9377  vk */\n      dup10\n        /* \"verifier.sol\":9375:9383  vk.alpha */\n      0x00\n      add\n      mload\n        /* \"verifier.sol\":9360:9374  Pairing.negate */\n      tag_53\n        /* \"verifier.sol\":9360:9384  Pairing.negate(vk.alpha) */\n      jump\t// in\n    tag_55:\n        /* \"verifier.sol\":9386:9388  vk */\n      dup10\n        /* \"verifier.sol\":9386:9393  vk.beta */\n      0x20\n      add\n      mload\n        /* \"verifier.sol\":9201:9221  Pairing.pairingProd4 */\n      tag_56\n        /* \"verifier.sol\":9201:9394  Pairing.pairingProd4(... */\n      jump\t// in\n    tag_51:\n        /* \"verifier.sol\":9197:9404  if(!Pairing.pairingProd4(... */\n      tag_57\n      jumpi\n        /* \"verifier.sol\":9403:9404  1 */\n      0x01\n        /* \"verifier.sol\":9396:9404  return 1 */\n      swap4\n      pop\n      pop\n      pop\n      pop\n      jump(tag_27)\n        /* \"verifier.sol\":9197:9404  if(!Pairing.pairingProd4(... */\n    tag_57:\n        /* \"verifier.sol\":9421:9422  0 */\n      0x00\n        /* \"verifier.sol\":9414:9422  return 0 */\n      swap4\n      pop\n      pop\n      pop\n      pop\n        /* \"verifier.sol\":8508:9429  function verify(uint[] memory input, Proof memory proof) internal view returns (uint) {... */\n    tag_27:\n      swap3\n      swap2\n      pop\n      pop\n      jump\t// out\n        /* \"verifier.sol\":6552:8503  function verifyingKey() pure internal returns (VerifyingKey memory vk) {... */\n    tag_29:\n        /* \"verifier.sol\":6599:6621  VerifyingKey memory vk */\n      tag_58\n      tag_59\n      jump\t// in\n    tag_58:\n        /* \"verifier.sol\":6644:6813  Pairing.G1Point(uint256(0x2e23cf962a714c88fe2697b8bd53a81522dc936be85fab3b99ad5a884e78ce27), uint256(0x1efa1467d8858e888e76f3eb614ca106474c1c50380f05935323e9f72d9e5e1b)) */\n      mload(0x40)\n      dup1\n      0x40\n      add\n      0x40\n      mstore\n      dup1\n        /* \"verifier.sol\":6668:6734  0x2e23cf962a714c88fe2697b8bd53a81522dc936be85fab3b99ad5a884e78ce27 */\n      0x2e23cf962a714c88fe2697b8bd53a81522dc936be85fab3b99ad5a884e78ce27\n        /* \"verifier.sol\":6644:6813  Pairing.G1Point(uint256(0x2e23cf962a714c88fe2697b8bd53a81522dc936be85fab3b99ad5a884e78ce27), uint256(0x1efa1467d8858e888e76f3eb614ca106474c1c50380f05935323e9f72d9e5e1b)) */\n      dup2\n      mstore\n      0x20\n      add\n        /* \"verifier.sol\":6745:6811  0x1efa1467d8858e888e76f3eb614ca106474c1c50380f05935323e9f72d9e5e1b */\n      0x1efa1467d8858e888e76f3eb614ca106474c1c50380f05935323e9f72d9e5e1b\n        /* \"verifier.sol\":6644:6813  Pairing.G1Point(uint256(0x2e23cf962a714c88fe2697b8bd53a81522dc936be85fab3b99ad5a884e78ce27), uint256(0x1efa1467d8858e888e76f3eb614ca106474c1c50380f05935323e9f72d9e5e1b)) */\n      dup2\n      mstore\n      pop\n        /* \"verifier.sol\":6633:6635  vk */\n      dup2\n        /* \"verifier.sol\":6633:6641  vk.alpha */\n      0x00\n      add\n        /* \"verifier.sol\":6633:6813  vk.alpha = Pairing.G1Point(uint256(0x2e23cf962a714c88fe2697b8bd53a81522dc936be85fab3b99ad5a884e78ce27), uint256(0x1efa1467d8858e888e76f3eb614ca106474c1c50380f05935323e9f72d9e5e1b)) */\n      dup2\n      swap1\n      mstore\n      pop\n        /* \"verifier.sol\":6833:7160  Pairing.G2Point([uint256(0x005c7f883a61502494e40015f58e17c48094500b04e7941ce9f68ea8c7906978), uint256(0x2d98a4bb8910fc573f810f01786ce6b224e9ccb97d667072d2cb59629a214969)], [uint256(0x1951de5a57308a0b71fefe663facf6be79322dd32ce61b64ec1d8b7f120818e8), uint256(0x1a008832fcc3f5451c789ff1639628044b504cfadc63ec3fa854f586b56d3e4b)]) */\n      mload(0x40)\n      dup1\n      0x40\n      add\n      0x40\n      mstore\n      dup1\n      mload(0x40)\n      dup1\n      0x40\n      add\n      0x40\n      mstore\n      dup1\n        /* \"verifier.sol\":6858:6924  0x005c7f883a61502494e40015f58e17c48094500b04e7941ce9f68ea8c7906978 */\n      0x5c7f883a61502494e40015f58e17c48094500b04e7941ce9f68ea8c7906978\n        /* \"verifier.sol\":6833:7160  Pairing.G2Point([uint256(0x005c7f883a61502494e40015f58e17c48094500b04e7941ce9f68ea8c7906978), uint256(0x2d98a4bb8910fc573f810f01786ce6b224e9ccb97d667072d2cb59629a214969)], [uint256(0x1951de5a57308a0b71fefe663facf6be79322dd32ce61b64ec1d8b7f120818e8), uint256(0x1a008832fcc3f5451c789ff1639628044b504cfadc63ec3fa854f586b56d3e4b)]) */\n      dup2\n      mstore\n      0x20\n      add\n        /* \"verifier.sol\":6935:7001  0x2d98a4bb8910fc573f810f01786ce6b224e9ccb97d667072d2cb59629a214969 */\n      0x2d98a4bb8910fc573f810f01786ce6b224e9ccb97d667072d2cb59629a214969\n        /* \"verifier.sol\":6833:7160  Pairing.G2Point([uint256(0x005c7f883a61502494e40015f58e17c48094500b04e7941ce9f68ea8c7906978), uint256(0x2d98a4bb8910fc573f810f01786ce6b224e9ccb97d667072d2cb59629a214969)], [uint256(0x1951de5a57308a0b71fefe663facf6be79322dd32ce61b64ec1d8b7f120818e8), uint256(0x1a008832fcc3f5451c789ff1639628044b504cfadc63ec3fa854f586b56d3e4b)]) */\n      dup2\n      mstore\n      pop\n      dup2\n      mstore\n      0x20\n      add\n      mload(0x40)\n      dup1\n      0x40\n      add\n      0x40\n      mstore\n      dup1\n        /* \"verifier.sol\":7014:7080  0x1951de5a57308a0b71fefe663facf6be79322dd32ce61b64ec1d8b7f120818e8 */\n      0x1951de5a57308a0b71fefe663facf6be79322dd32ce61b64ec1d8b7f120818e8\n        /* \"verifier.sol\":6833:7160  Pairing.G2Point([uint256(0x005c7f883a61502494e40015f58e17c48094500b04e7941ce9f68ea8c7906978), uint256(0x2d98a4bb8910fc573f810f01786ce6b224e9ccb97d667072d2cb59629a214969)], [uint256(0x1951de5a57308a0b71fefe663facf6be79322dd32ce61b64ec1d8b7f120818e8), uint256(0x1a008832fcc3f5451c789ff1639628044b504cfadc63ec3fa854f586b56d3e4b)]) */\n      dup2\n      mstore\n      0x20\n      add\n        /* \"verifier.sol\":7091:7157  0x1a008832fcc3f5451c789ff1639628044b504cfadc63ec3fa854f586b56d3e4b */\n      0x1a008832fcc3f5451c789ff1639628044b504cfadc63ec3fa854f586b56d3e4b\n        /* \"verifier.sol\":6833:7160  Pairing.G2Point([uint256(0x005c7f883a61502494e40015f58e17c48094500b04e7941ce9f68ea8c7906978), uint256(0x2d98a4bb8910fc573f810f01786ce6b224e9ccb97d667072d2cb59629a214969)], [uint256(0x1951de5a57308a0b71fefe663facf6be79322dd32ce61b64ec1d8b7f120818e8), uint256(0x1a008832fcc3f5451c789ff1639628044b504cfadc63ec3fa854f586b56d3e4b)]) */\n      dup2\n      mstore\n      pop\n      dup2\n      mstore\n      pop\n        /* \"verifier.sol\":6823:6825  vk */\n      dup2\n        /* \"verifier.sol\":6823:6830  vk.beta */\n      0x20\n      add\n        /* \"verifier.sol\":6823:7160  vk.beta = Pairing.G2Point([uint256(0x005c7f883a61502494e40015f58e17c48094500b04e7941ce9f68ea8c7906978), uint256(0x2d98a4bb8910fc573f810f01786ce6b224e9ccb97d667072d2cb59629a214969)], [uint256(0x1951de5a57308a0b71fefe663facf6be79322dd32ce61b64ec1d8b7f120818e8), uint256(0x1a008832fcc3f5451c789ff1639628044b504cfadc63ec3fa854f586b56d3e4b)]) */\n      dup2\n      swap1\n      mstore\n      pop\n        /* \"verifier.sol\":7181:7508  Pairing.G2Point([uint256(0x1361d9d731eeec91751cc369b697b108ced3b1077df9bb182aa0974a0b6ef0f9), uint256(0x07f1c5fdfad661a57c0e641b54545593cf8ba4e8683a6f7e81fe4cd72190077e)], [uint256(0x0db46703dfacf9e83f55ade015689594c8e2275827e7a8a5f157870bbbb04b4a), uint256(0x0b708fa395fa8d90123fa172aa911630a463d17559fb957fa90823bb775e33a8)]) */\n      mload(0x40)\n      dup1\n      0x40\n      add\n      0x40\n      mstore\n      dup1\n      mload(0x40)\n      dup1\n      0x40\n      add\n      0x40\n      mstore\n      dup1\n        /* \"verifier.sol\":7206:7272  0x1361d9d731eeec91751cc369b697b108ced3b1077df9bb182aa0974a0b6ef0f9 */\n      0x1361d9d731eeec91751cc369b697b108ced3b1077df9bb182aa0974a0b6ef0f9\n        /* \"verifier.sol\":7181:7508  Pairing.G2Point([uint256(0x1361d9d731eeec91751cc369b697b108ced3b1077df9bb182aa0974a0b6ef0f9), uint256(0x07f1c5fdfad661a57c0e641b54545593cf8ba4e8683a6f7e81fe4cd72190077e)], [uint256(0x0db46703dfacf9e83f55ade015689594c8e2275827e7a8a5f157870bbbb04b4a), uint256(0x0b708fa395fa8d90123fa172aa911630a463d17559fb957fa90823bb775e33a8)]) */\n      dup2\n      mstore\n      0x20\n      add\n        /* \"verifier.sol\":7283:7349  0x07f1c5fdfad661a57c0e641b54545593cf8ba4e8683a6f7e81fe4cd72190077e */\n      0x07f1c5fdfad661a57c0e641b54545593cf8ba4e8683a6f7e81fe4cd72190077e\n        /* \"verifier.sol\":7181:7508  Pairing.G2Point([uint256(0x1361d9d731eeec91751cc369b697b108ced3b1077df9bb182aa0974a0b6ef0f9), uint256(0x07f1c5fdfad661a57c0e641b54545593cf8ba4e8683a6f7e81fe4cd72190077e)], [uint256(0x0db46703dfacf9e83f55ade015689594c8e2275827e7a8a5f157870bbbb04b4a), uint256(0x0b708fa395fa8d90123fa172aa911630a463d17559fb957fa90823bb775e33a8)]) */\n      dup2\n      mstore\n      pop\n      dup2\n      mstore\n      0x20\n      add\n      mload(0x40)\n      dup1\n      0x40\n      add\n      0x40\n      mstore\n      dup1\n        /* \"verifier.sol\":7362:7428  0x0db46703dfacf9e83f55ade015689594c8e2275827e7a8a5f157870bbbb04b4a */\n      0x0db46703dfacf9e83f55ade015689594c8e2275827e7a8a5f157870bbbb04b4a\n        /* \"verifier.sol\":7181:7508  Pairing.G2Point([uint256(0x1361d9d731eeec91751cc369b697b108ced3b1077df9bb182aa0974a0b6ef0f9), uint256(0x07f1c5fdfad661a57c0e641b54545593cf8ba4e8683a6f7e81fe4cd72190077e)], [uint256(0x0db46703dfacf9e83f55ade015689594c8e2275827e7a8a5f157870bbbb04b4a), uint256(0x0b708fa395fa8d90123fa172aa911630a463d17559fb957fa90823bb775e33a8)]) */\n      dup2\n      mstore\n      0x20\n      add\n        /* \"verifier.sol\":7439:7505  0x0b708fa395fa8d90123fa172aa911630a463d17559fb957fa90823bb775e33a8 */\n      0x0b708fa395fa8d90123fa172aa911630a463d17559fb957fa90823bb775e33a8\n        /* \"verifier.sol\":7181:7508  Pairing.G2Point([uint256(0x1361d9d731eeec91751cc369b697b108ced3b1077df9bb182aa0974a0b6ef0f9), uint256(0x07f1c5fdfad661a57c0e641b54545593cf8ba4e8683a6f7e81fe4cd72190077e)], [uint256(0x0db46703dfacf9e83f55ade015689594c8e2275827e7a8a5f157870bbbb04b4a), uint256(0x0b708fa395fa8d90123fa172aa911630a463d17559fb957fa90823bb775e33a8)]) */\n      dup2\n      mstore\n      pop\n      dup2\n      mstore\n      pop\n        /* \"verifier.sol\":7170:7172  vk */\n      dup2\n        /* \"verifier.sol\":7170:7178  vk.gamma */\n      0x40\n      add\n        /* \"verifier.sol\":7170:7508  vk.gamma = Pairing.G2Point([uint256(0x1361d9d731eeec91751cc369b697b108ced3b1077df9bb182aa0974a0b6ef0f9), uint256(0x07f1c5fdfad661a57c0e641b54545593cf8ba4e8683a6f7e81fe4cd72190077e)], [uint256(0x0db46703dfacf9e83f55ade015689594c8e2275827e7a8a5f157870bbbb04b4a), uint256(0x0b708fa395fa8d90123fa172aa911630a463d17559fb957fa90823bb775e33a8)]) */\n      dup2\n      swap1\n      mstore\n      pop\n        /* \"verifier.sol\":7529:7856  Pairing.G2Point([uint256(0x25af7d14214b3c9dc94bbee803715806e2e50dc56df3a93dba84089e51597253), uint256(0x18e7219decbf0690912c454e1a493d3b69fe9c8e39409c65e7856762b72d6304)], [uint256(0x0bac8a5e3fd8bde6f8d11900bd7163c2f7094903831015212b758932e6298ba0), uint256(0x247f70c8a46acb0be4d1db37027821e7a698028734ba710409ed73375d8c9be4)]) */\n      mload(0x40)\n      dup1\n      0x40\n      add\n      0x40\n      mstore\n      dup1\n      mload(0x40)\n      dup1\n      0x40\n      add\n      0x40\n      mstore\n      dup1\n        /* \"verifier.sol\":7554:7620  0x25af7d14214b3c9dc94bbee803715806e2e50dc56df3a93dba84089e51597253 */\n      0x25af7d14214b3c9dc94bbee803715806e2e50dc56df3a93dba84089e51597253\n        /* \"verifier.sol\":7529:7856  Pairing.G2Point([uint256(0x25af7d14214b3c9dc94bbee803715806e2e50dc56df3a93dba84089e51597253), uint256(0x18e7219decbf0690912c454e1a493d3b69fe9c8e39409c65e7856762b72d6304)], [uint256(0x0bac8a5e3fd8bde6f8d11900bd7163c2f7094903831015212b758932e6298ba0), uint256(0x247f70c8a46acb0be4d1db37027821e7a698028734ba710409ed73375d8c9be4)]) */\n      dup2\n      mstore\n      0x20\n      add\n        /* \"verifier.sol\":7631:7697  0x18e7219decbf0690912c454e1a493d3b69fe9c8e39409c65e7856762b72d6304 */\n      0x18e7219decbf0690912c454e1a493d3b69fe9c8e39409c65e7856762b72d6304\n        /* \"verifier.sol\":7529:7856  Pairing.G2Point([uint256(0x25af7d14214b3c9dc94bbee803715806e2e50dc56df3a93dba84089e51597253), uint256(0x18e7219decbf0690912c454e1a493d3b69fe9c8e39409c65e7856762b72d6304)], [uint256(0x0bac8a5e3fd8bde6f8d11900bd7163c2f7094903831015212b758932e6298ba0), uint256(0x247f70c8a46acb0be4d1db37027821e7a698028734ba710409ed73375d8c9be4)]) */\n      dup2\n      mstore\n      pop\n      dup2\n      mstore\n      0x20\n      add\n      mload(0x40)\n      dup1\n      0x40\n      add\n      0x40\n      mstore\n      dup1\n        /* \"verifier.sol\":7710:7776  0x0bac8a5e3fd8bde6f8d11900bd7163c2f7094903831015212b758932e6298ba0 */\n      0x0bac8a5e3fd8bde6f8d11900bd7163c2f7094903831015212b758932e6298ba0\n        /* \"verifier.sol\":7529:7856  Pairing.G2Point([uint256(0x25af7d14214b3c9dc94bbee803715806e2e50dc56df3a93dba84089e51597253), uint256(0x18e7219decbf0690912c454e1a493d3b69fe9c8e39409c65e7856762b72d6304)], [uint256(0x0bac8a5e3fd8bde6f8d11900bd7163c2f7094903831015212b758932e6298ba0), uint256(0x247f70c8a46acb0be4d1db37027821e7a698028734ba710409ed73375d8c9be4)]) */\n      dup2\n      mstore\n      0x20\n      add\n        /* \"verifier.sol\":7787:7853  0x247f70c8a46acb0be4d1db37027821e7a698028734ba710409ed73375d8c9be4 */\n      0x247f70c8a46acb0be4d1db37027821e7a698028734ba710409ed73375d8c9be4\n        /* \"verifier.sol\":7529:7856  Pairing.G2Point([uint256(0x25af7d14214b3c9dc94bbee803715806e2e50dc56df3a93dba84089e51597253), uint256(0x18e7219decbf0690912c454e1a493d3b69fe9c8e39409c65e7856762b72d6304)], [uint256(0x0bac8a5e3fd8bde6f8d11900bd7163c2f7094903831015212b758932e6298ba0), uint256(0x247f70c8a46acb0be4d1db37027821e7a698028734ba710409ed73375d8c9be4)]) */\n      dup2\n      mstore\n      pop\n      dup2\n      mstore\n      pop\n        /* \"verifier.sol\":7518:7520  vk */\n      dup2\n        /* \"verifier.sol\":7518:7526  vk.delta */\n      0x60\n      add\n        /* \"verifier.sol\":7518:7856  vk.delta = Pairing.G2Point([uint256(0x25af7d14214b3c9dc94bbee803715806e2e50dc56df3a93dba84089e51597253), uint256(0x18e7219decbf0690912c454e1a493d3b69fe9c8e39409c65e7856762b72d6304)], [uint256(0x0bac8a5e3fd8bde6f8d11900bd7163c2f7094903831015212b758932e6298ba0), uint256(0x247f70c8a46acb0be4d1db37027821e7a698028734ba710409ed73375d8c9be4)]) */\n      dup2\n      swap1\n      mstore\n      pop\n        /* \"verifier.sol\":7903:7904  3 */\n      0x03\n        /* \"verifier.sol\":7881:7905  new Pairing.G1Point[](3) */\n      0xffffffffffffffff\n      dup2\n      gt\n      iszero\n      tag_61\n      jumpi\n      tag_62\n      tag_13\n      jump\t// in\n    tag_62:\n    tag_61:\n      mload(0x40)\n      swap1\n      dup1\n      dup3\n      mstore\n      dup1\n      0x20\n      mul\n      0x20\n      add\n      dup3\n      add\n      0x40\n      mstore\n      dup1\n      iszero\n      tag_63\n      jumpi\n      dup2\n      0x20\n      add\n    tag_64:\n      tag_65\n      tag_66\n      jump\t// in\n    tag_65:\n      dup2\n      mstore\n      0x20\n      add\n      swap1\n      0x01\n      swap1\n      sub\n      swap1\n      dup2\n      tag_64\n      jumpi\n      swap1\n      pop\n    tag_63:\n      pop\n        /* \"verifier.sol\":7866:7868  vk */\n      dup2\n        /* \"verifier.sol\":7866:7878  vk.gamma_abc */\n      0x80\n      add\n        /* \"verifier.sol\":7866:7905  vk.gamma_abc = new Pairing.G1Point[](3) */\n      dup2\n      swap1\n      mstore\n      pop\n        /* \"verifier.sol\":7933:8102  Pairing.G1Point(uint256(0x197e5a889ab9337d5d3d61771e19b89dfc1d021d835341190b89b9a94e32b853), uint256(0x1e031975124b84cb5ab3ebb1d64711886f3bd9e0763e7527544bf003892daf9d)) */\n      mload(0x40)\n      dup1\n      0x40\n      add\n      0x40\n      mstore\n      dup1\n        /* \"verifier.sol\":7957:8023  0x197e5a889ab9337d5d3d61771e19b89dfc1d021d835341190b89b9a94e32b853 */\n      0x197e5a889ab9337d5d3d61771e19b89dfc1d021d835341190b89b9a94e32b853\n        /* \"verifier.sol\":7933:8102  Pairing.G1Point(uint256(0x197e5a889ab9337d5d3d61771e19b89dfc1d021d835341190b89b9a94e32b853), uint256(0x1e031975124b84cb5ab3ebb1d64711886f3bd9e0763e7527544bf003892daf9d)) */\n      dup2\n      mstore\n      0x20\n      add\n        /* \"verifier.sol\":8034:8100  0x1e031975124b84cb5ab3ebb1d64711886f3bd9e0763e7527544bf003892daf9d */\n      0x1e031975124b84cb5ab3ebb1d64711886f3bd9e0763e7527544bf003892daf9d\n        /* \"verifier.sol\":7933:8102  Pairing.G1Point(uint256(0x197e5a889ab9337d5d3d61771e19b89dfc1d021d835341190b89b9a94e32b853), uint256(0x1e031975124b84cb5ab3ebb1d64711886f3bd9e0763e7527544bf003892daf9d)) */\n      dup2\n      mstore\n      pop\n        /* \"verifier.sol\":7915:7917  vk */\n      dup2\n        /* \"verifier.sol\":7915:7927  vk.gamma_abc */\n      0x80\n      add\n      mload\n        /* \"verifier.sol\":7928:7929  0 */\n      0x00\n        /* \"verifier.sol\":7915:7930  vk.gamma_abc[0] */\n      dup2\n      mload\n      dup2\n      lt\n      tag_67\n      jumpi\n      tag_68\n      tag_20\n      jump\t// in\n    tag_68:\n    tag_67:\n      0x20\n      mul\n      0x20\n      add\n      add\n        /* \"verifier.sol\":7915:8102  vk.gamma_abc[0] = Pairing.G1Point(uint256(0x197e5a889ab9337d5d3d61771e19b89dfc1d021d835341190b89b9a94e32b853), uint256(0x1e031975124b84cb5ab3ebb1d64711886f3bd9e0763e7527544bf003892daf9d)) */\n      dup2\n      swap1\n      mstore\n      pop\n        /* \"verifier.sol\":8130:8299  Pairing.G1Point(uint256(0x21f785c8d4e5e8e9aaf4c4a928705818da42e3e57b686821d0ac0315e5eaf6aa), uint256(0x2958d19bb5dc2adcc82645a45c29a5bd8561d22b04688f0f782a0d46b3e9dcfa)) */\n      mload(0x40)\n      dup1\n      0x40\n      add\n      0x40\n      mstore\n      dup1\n        /* \"verifier.sol\":8154:8220  0x21f785c8d4e5e8e9aaf4c4a928705818da42e3e57b686821d0ac0315e5eaf6aa */\n      0x21f785c8d4e5e8e9aaf4c4a928705818da42e3e57b686821d0ac0315e5eaf6aa\n        /* \"verifier.sol\":8130:8299  Pairing.G1Point(uint256(0x21f785c8d4e5e8e9aaf4c4a928705818da42e3e57b686821d0ac0315e5eaf6aa), uint256(0x2958d19bb5dc2adcc82645a45c29a5bd8561d22b04688f0f782a0d46b3e9dcfa)) */\n      dup2\n      mstore\n      0x20\n      add\n        /* \"verifier.sol\":8231:8297  0x2958d19bb5dc2adcc82645a45c29a5bd8561d22b04688f0f782a0d46b3e9dcfa */\n      0x2958d19bb5dc2adcc82645a45c29a5bd8561d22b04688f0f782a0d46b3e9dcfa\n        /* \"verifier.sol\":8130:8299  Pairing.G1Point(uint256(0x21f785c8d4e5e8e9aaf4c4a928705818da42e3e57b686821d0ac0315e5eaf6aa), uint256(0x2958d19bb5dc2adcc82645a45c29a5bd8561d22b04688f0f782a0d46b3e9dcfa)) */\n      dup2\n      mstore\n      pop\n        /* \"verifier.sol\":8112:8114  vk */\n      dup2\n        /* \"verifier.sol\":8112:8124  vk.gamma_abc */\n      0x80\n      add\n      mload\n        /* \"verifier.sol\":8125:8126  1 */\n      0x01\n        /* \"verifier.sol\":8112:8127  vk.gamma_abc[1] */\n      dup2\n      mload\n      dup2\n      lt\n      tag_69\n      jumpi\n      tag_70\n      tag_20\n      jump\t// in\n    tag_70:\n    tag_69:\n      0x20\n      mul\n      0x20\n      add\n      add\n        /* \"verifier.sol\":8112:8299  vk.gamma_abc[1] = Pairing.G1Point(uint256(0x21f785c8d4e5e8e9aaf4c4a928705818da42e3e57b686821d0ac0315e5eaf6aa), uint256(0x2958d19bb5dc2adcc82645a45c29a5bd8561d22b04688f0f782a0d46b3e9dcfa)) */\n      dup2\n      swap1\n      mstore\n      pop\n        /* \"verifier.sol\":8327:8496  Pairing.G1Point(uint256(0x1d2ae606edcc168034c5cfaaf2d1620dca2ffee5c2a05eb5df35936bc3af650b), uint256(0x201603903fec7acc62ec945cb29440220bcd80b6a7c6e094d00a27bc595f3e91)) */\n      mload(0x40)\n      dup1\n      0x40\n      add\n      0x40\n      mstore\n      dup1\n        /* \"verifier.sol\":8351:8417  0x1d2ae606edcc168034c5cfaaf2d1620dca2ffee5c2a05eb5df35936bc3af650b */\n      0x1d2ae606edcc168034c5cfaaf2d1620dca2ffee5c2a05eb5df35936bc3af650b\n        /* \"verifier.sol\":8327:8496  Pairing.G1Point(uint256(0x1d2ae606edcc168034c5cfaaf2d1620dca2ffee5c2a05eb5df35936bc3af650b), uint256(0x201603903fec7acc62ec945cb29440220bcd80b6a7c6e094d00a27bc595f3e91)) */\n      dup2\n      mstore\n      0x20\n      add\n        /* \"verifier.sol\":8428:8494  0x201603903fec7acc62ec945cb29440220bcd80b6a7c6e094d00a27bc595f3e91 */\n      0x201603903fec7acc62ec945cb29440220bcd80b6a7c6e094d00a27bc595f3e91\n        /* \"verifier.sol\":8327:8496  Pairing.G1Point(uint256(0x1d2ae606edcc168034c5cfaaf2d1620dca2ffee5c2a05eb5df35936bc3af650b), uint256(0x201603903fec7acc62ec945cb29440220bcd80b6a7c6e094d00a27bc595f3e91)) */\n      dup2\n      mstore\n      pop\n        /* \"verifier.sol\":8309:8311  vk */\n      dup2\n        /* \"verifier.sol\":8309:8321  vk.gamma_abc */\n      0x80\n      add\n      mload\n        /* \"verifier.sol\":8322:8323  2 */\n      0x02\n        /* \"verifier.sol\":8309:8324  vk.gamma_abc[2] */\n      dup2\n      mload\n      dup2\n      lt\n      tag_71\n      jumpi\n      tag_72\n      tag_20\n      jump\t// in\n    tag_72:\n    tag_71:\n      0x20\n      mul\n      0x20\n      add\n      add\n        /* \"verifier.sol\":8309:8496  vk.gamma_abc[2] = Pairing.G1Point(uint256(0x1d2ae606edcc168034c5cfaaf2d1620dca2ffee5c2a05eb5df35936bc3af650b), uint256(0x201603903fec7acc62ec945cb29440220bcd80b6a7c6e094d00a27bc595f3e91)) */\n      dup2\n      swap1\n      mstore\n      pop\n        /* \"verifier.sol\":6552:8503  function verifyingKey() pure internal returns (VerifyingKey memory vk) {... */\n      swap1\n      jump\t// out\n        /* \"verifier.sol\":3053:3507  function scalar_mul(G1Point memory p, uint s) internal view returns (G1Point memory r) {... */\n    tag_46:\n        /* \"verifier.sol\":3122:3138  G1Point memory r */\n      tag_73\n      tag_66\n      jump\t// in\n    tag_73:\n        /* \"verifier.sol\":3150:3170  uint[3] memory input */\n      tag_75\n      tag_76\n      jump\t// in\n    tag_75:\n        /* \"verifier.sol\":3191:3192  p */\n      dup4\n        /* \"verifier.sol\":3191:3194  p.X */\n      0x00\n      add\n      mload\n        /* \"verifier.sol\":3180:3185  input */\n      dup2\n        /* \"verifier.sol\":3186:3187  0 */\n      0x00\n        /* \"verifier.sol\":3180:3188  input[0] */\n      0x03\n      dup2\n      lt\n      tag_77\n      jumpi\n      tag_78\n      tag_20\n      jump\t// in\n    tag_78:\n    tag_77:\n      0x20\n      mul\n      add\n        /* \"verifier.sol\":3180:3194  input[0] = p.X */\n      dup2\n      dup2\n      mstore\n      pop\n      pop\n        /* \"verifier.sol\":3215:3216  p */\n      dup4\n        /* \"verifier.sol\":3215:3218  p.Y */\n      0x20\n      add\n      mload\n        /* \"verifier.sol\":3204:3209  input */\n      dup2\n        /* \"verifier.sol\":3210:3211  1 */\n      0x01\n        /* \"verifier.sol\":3204:3212  input[1] */\n      0x03\n      dup2\n      lt\n      tag_79\n      jumpi\n      tag_80\n      tag_20\n      jump\t// in\n    tag_80:\n    tag_79:\n      0x20\n      mul\n      add\n        /* \"verifier.sol\":3204:3218  input[1] = p.Y */\n      dup2\n      dup2\n      mstore\n      pop\n      pop\n        /* \"verifier.sol\":3239:3240  s */\n      dup3\n        /* \"verifier.sol\":3228:3233  input */\n      dup2\n        /* \"verifier.sol\":3234:3235  2 */\n      0x02\n        /* \"verifier.sol\":3228:3236  input[2] */\n      0x03\n      dup2\n      lt\n      tag_81\n      jumpi\n      tag_82\n      tag_20\n      jump\t// in\n    tag_82:\n    tag_81:\n      0x20\n      mul\n      add\n        /* \"verifier.sol\":3228:3240  input[2] = s */\n      dup2\n      dup2\n      mstore\n      pop\n      pop\n        /* \"verifier.sol\":3250:3262  bool success */\n      0x00\n        /* \"verifier.sol\":3354:3358  0x60 */\n      0x60\n        /* \"verifier.sol\":3351:3352  r */\n      dup4\n        /* \"verifier.sol\":3345:3349  0x80 */\n      0x80\n        /* \"verifier.sol\":3338:3343  input */\n      dup5\n        /* \"verifier.sol\":3335:3336  7 */\n      0x07\n        /* \"verifier.sol\":3328:3332  2000 */\n      0x07d0\n        /* \"verifier.sol\":3321:3326  gas() */\n      gas\n        /* \"verifier.sol\":3317:3333  sub(gas(), 2000) */\n      sub\n        /* \"verifier.sol\":3306:3359  staticcall(sub(gas(), 2000), 7, input, 0x80, r, 0x60) */\n      staticcall\n        /* \"verifier.sol\":3295:3359  success := staticcall(sub(gas(), 2000), 7, input, 0x80, r, 0x60) */\n      swap1\n      pop\n        /* \"verifier.sol\":3436:3443  success */\n      dup1\n        /* \"verifier.sol\":3449:3450  0 */\n      0x00\n        /* \"verifier.sol\":3444:3464  case 0 { invalid() } */\n      dup2\n      sub\n        /* \"verifier.sol\":3429:3464  switch success case 0 { invalid() } */\n      tag_83\n        /* \"verifier.sol\":3444:3464  case 0 { invalid() } */\n      jumpi\n        /* \"verifier.sol\":3453:3462  invalid() */\n      invalid\n        /* \"verifier.sol\":3429:3464  switch success case 0 { invalid() } */\n    tag_83:\n      pop\n        /* \"verifier.sol\":3492:3499  success */\n      dup1\n        /* \"verifier.sol\":3483:3500  require (success) */\n      tag_85\n      jumpi\n      0x00\n      dup1\n      revert\n    tag_85:\n        /* \"verifier.sol\":3140:3507  {... */\n      pop\n      pop\n        /* \"verifier.sol\":3053:3507  function scalar_mul(G1Point memory p, uint s) internal view returns (G1Point memory r) {... */\n      swap3\n      swap2\n      pop\n      pop\n      jump\t// out\n        /* \"verifier.sol\":2403:2896  function addition(G1Point memory p1, G1Point memory p2) internal view returns (G1Point memory r) {... */\n    tag_47:\n        /* \"verifier.sol\":2482:2498  G1Point memory r */\n      tag_86\n      tag_66\n      jump\t// in\n    tag_86:\n        /* \"verifier.sol\":2510:2530  uint[4] memory input */\n      tag_88\n      tag_89\n      jump\t// in\n    tag_88:\n        /* \"verifier.sol\":2551:2553  p1 */\n      dup4\n        /* \"verifier.sol\":2551:2555  p1.X */\n      0x00\n      add\n      mload\n        /* \"verifier.sol\":2540:2545  input */\n      dup2\n        /* \"verifier.sol\":2546:2547  0 */\n      0x00\n        /* \"verifier.sol\":2540:2548  input[0] */\n      0x04\n      dup2\n      lt\n      tag_90\n      jumpi\n      tag_91\n      tag_20\n      jump\t// in\n    tag_91:\n    tag_90:\n      0x20\n      mul\n      add\n        /* \"verifier.sol\":2540:2555  input[0] = p1.X */\n      dup2\n      dup2\n      mstore\n      pop\n      pop\n        /* \"verifier.sol\":2576:2578  p1 */\n      dup4\n        /* \"verifier.sol\":2576:2580  p1.Y */\n      0x20\n      add\n      mload\n        /* \"verifier.sol\":2565:2570  input */\n      dup2\n        /* \"verifier.sol\":2571:2572  1 */\n      0x01\n        /* \"verifier.sol\":2565:2573  input[1] */\n      0x04\n      dup2\n      lt\n      tag_92\n      jumpi\n      tag_93\n      tag_20\n      jump\t// in\n    tag_93:\n    tag_92:\n      0x20\n      mul\n      add\n        /* \"verifier.sol\":2565:2580  input[1] = p1.Y */\n      dup2\n      dup2\n      mstore\n      pop\n      pop\n        /* \"verifier.sol\":2601:2603  p2 */\n      dup3\n        /* \"verifier.sol\":2601:2605  p2.X */\n      0x00\n      add\n      mload\n        /* \"verifier.sol\":2590:2595  input */\n      dup2\n        /* \"verifier.sol\":2596:2597  2 */\n      0x02\n        /* \"verifier.sol\":2590:2598  input[2] */\n      0x04\n      dup2\n      lt\n      tag_94\n      jumpi\n      tag_95\n      tag_20\n      jump\t// in\n    tag_95:\n    tag_94:\n      0x20\n      mul\n      add\n        /* \"verifier.sol\":2590:2605  input[2] = p2.X */\n      dup2\n      dup2\n      mstore\n      pop\n      pop\n        /* \"verifier.sol\":2626:2628  p2 */\n      dup3\n        /* \"verifier.sol\":2626:2630  p2.Y */\n      0x20\n      add\n      mload\n        /* \"verifier.sol\":2615:2620  input */\n      dup2\n        /* \"verifier.sol\":2621:2622  3 */\n      0x03\n        /* \"verifier.sol\":2615:2623  input[3] */\n      0x04\n      dup2\n      lt\n      tag_96\n      jumpi\n      tag_97\n      tag_20\n      jump\t// in\n    tag_97:\n    tag_96:\n      0x20\n      mul\n      add\n        /* \"verifier.sol\":2615:2630  input[3] = p2.Y */\n      dup2\n      dup2\n      mstore\n      pop\n      pop\n        /* \"verifier.sol\":2640:2652  bool success */\n      0x00\n        /* \"verifier.sol\":2744:2748  0x60 */\n      0x60\n        /* \"verifier.sol\":2741:2742  r */\n      dup4\n        /* \"verifier.sol\":2735:2739  0xc0 */\n      0xc0\n        /* \"verifier.sol\":2728:2733  input */\n      dup5\n        /* \"verifier.sol\":2725:2726  6 */\n      0x06\n        /* \"verifier.sol\":2718:2722  2000 */\n      0x07d0\n        /* \"verifier.sol\":2711:2716  gas() */\n      gas\n        /* \"verifier.sol\":2707:2723  sub(gas(), 2000) */\n      sub\n        /* \"verifier.sol\":2696:2749  staticcall(sub(gas(), 2000), 6, input, 0xc0, r, 0x60) */\n      staticcall\n        /* \"verifier.sol\":2685:2749  success := staticcall(sub(gas(), 2000), 6, input, 0xc0, r, 0x60) */\n      swap1\n      pop\n        /* \"verifier.sol\":2826:2833  success */\n      dup1\n        /* \"verifier.sol\":2839:2840  0 */\n      0x00\n        /* \"verifier.sol\":2834:2854  case 0 { invalid() } */\n      dup2\n      sub\n        /* \"verifier.sol\":2819:2854  switch success case 0 { invalid() } */\n      tag_98\n        /* \"verifier.sol\":2834:2854  case 0 { invalid() } */\n      jumpi\n        /* \"verifier.sol\":2843:2852  invalid() */\n      invalid\n        /* \"verifier.sol\":2819:2854  switch success case 0 { invalid() } */\n    tag_98:\n      pop\n        /* \"verifier.sol\":2881:2888  success */\n      dup1\n        /* \"verifier.sol\":2873:2889  require(success) */\n      tag_100\n      jumpi\n      0x00\n      dup1\n      revert\n    tag_100:\n        /* \"verifier.sol\":2500:2896  {... */\n      pop\n      pop\n        /* \"verifier.sol\":2403:2896  function addition(G1Point memory p1, G1Point memory p2) internal view returns (G1Point memory r) {... */\n      swap3\n      swap2\n      pop\n      pop\n      jump\t// out\n        /* \"verifier.sol\":2012:2352  function negate(G1Point memory p) pure internal returns (G1Point memory) {... */\n    tag_53:\n        /* \"verifier.sol\":2069:2083  G1Point memory */\n      tag_101\n      tag_66\n      jump\t// in\n    tag_101:\n        /* \"verifier.sol\":2147:2153  uint q */\n      0x00\n        /* \"verifier.sol\":2156:2233  21888242871839275222246405745257275088696311157297823662689037894645226208583 */\n      0x30644e72e131a029b85045b68181585d97816a916871ca8d3c208c16d87cfd47\n        /* \"verifier.sol\":2147:2233  uint q = 21888242871839275222246405745257275088696311157297823662689037894645226208583 */\n      swap1\n      pop\n        /* \"verifier.sol\":2254:2255  0 */\n      0x00\n        /* \"verifier.sol\":2247:2248  p */\n      dup4\n        /* \"verifier.sol\":2247:2250  p.X */\n      0x00\n      add\n      mload\n        /* \"verifier.sol\":2247:2255  p.X == 0 */\n      eq\n        /* \"verifier.sol\":2247:2267  p.X == 0 && p.Y == 0 */\n      dup1\n      iszero\n      tag_103\n      jumpi\n      pop\n        /* \"verifier.sol\":2266:2267  0 */\n      0x00\n        /* \"verifier.sol\":2259:2260  p */\n      dup4\n        /* \"verifier.sol\":2259:2262  p.Y */\n      0x20\n      add\n      mload\n        /* \"verifier.sol\":2259:2267  p.Y == 0 */\n      eq\n        /* \"verifier.sol\":2247:2267  p.X == 0 && p.Y == 0 */\n    tag_103:\n        /* \"verifier.sol\":2243:2301  if (p.X == 0 && p.Y == 0)... */\n      iszero\n      tag_104\n      jumpi\n        /* \"verifier.sol\":2288:2301  G1Point(0, 0) */\n      mload(0x40)\n      dup1\n      0x40\n      add\n      0x40\n      mstore\n      dup1\n        /* \"verifier.sol\":2296:2297  0 */\n      0x00\n        /* \"verifier.sol\":2288:2301  G1Point(0, 0) */\n      dup2\n      mstore\n      0x20\n      add\n        /* \"verifier.sol\":2299:2300  0 */\n      0x00\n        /* \"verifier.sol\":2288:2301  G1Point(0, 0) */\n      dup2\n      mstore\n      pop\n        /* \"verifier.sol\":2281:2301  return G1Point(0, 0) */\n      swap2\n      pop\n      pop\n      jump(tag_102)\n        /* \"verifier.sol\":2243:2301  if (p.X == 0 && p.Y == 0)... */\n    tag_104:\n        /* \"verifier.sol\":2318:2345  G1Point(p.X, q - (p.Y % q)) */\n      mload(0x40)\n      dup1\n      0x40\n      add\n      0x40\n      mstore\n      dup1\n        /* \"verifier.sol\":2326:2327  p */\n      dup5\n        /* \"verifier.sol\":2326:2329  p.X */\n      0x00\n      add\n      mload\n        /* \"verifier.sol\":2318:2345  G1Point(p.X, q - (p.Y % q)) */\n      dup2\n      mstore\n      0x20\n      add\n        /* \"verifier.sol\":2342:2343  q */\n      dup3\n        /* \"verifier.sol\":2336:2337  p */\n      dup6\n        /* \"verifier.sol\":2336:2339  p.Y */\n      0x20\n      add\n      mload\n        /* \"verifier.sol\":2336:2343  p.Y % q */\n      tag_105\n      swap2\n      swap1\n      tag_106\n      jump\t// in\n    tag_105:\n        /* \"verifier.sol\":2331:2332  q */\n      dup4\n        /* \"verifier.sol\":2331:2344  q - (p.Y % q) */\n      tag_107\n      swap2\n      swap1\n      tag_108\n      jump\t// in\n    tag_107:\n        /* \"verifier.sol\":2318:2345  G1Point(p.X, q - (p.Y % q)) */\n      dup2\n      mstore\n      pop\n        /* \"verifier.sol\":2311:2345  return G1Point(p.X, q - (p.Y % q)) */\n      swap2\n      pop\n      pop\n        /* \"verifier.sol\":2012:2352  function negate(G1Point memory p) pure internal returns (G1Point memory) {... */\n    tag_102:\n      swap2\n      swap1\n      pop\n      jump\t// out\n        /* \"verifier.sol\":5649:6201  function pairingProd4(... */\n    tag_56:\n        /* \"verifier.sol\":5900:5904  bool */\n      0x00\n        /* \"verifier.sol\":5916:5935  G1Point[] memory p1 */\n      dup1\n        /* \"verifier.sol\":5952:5953  4 */\n      0x04\n        /* \"verifier.sol\":5938:5954  new G1Point[](4) */\n      0xffffffffffffffff\n      dup2\n      gt\n      iszero\n      tag_110\n      jumpi\n      tag_111\n      tag_13\n      jump\t// in\n    tag_111:\n    tag_110:\n      mload(0x40)\n      swap1\n      dup1\n      dup3\n      mstore\n      dup1\n      0x20\n      mul\n      0x20\n      add\n      dup3\n      add\n      0x40\n      mstore\n      dup1\n      iszero\n      tag_112\n      jumpi\n      dup2\n      0x20\n      add\n    tag_113:\n      tag_114\n      tag_66\n      jump\t// in\n    tag_114:\n      dup2\n      mstore\n      0x20\n      add\n      swap1\n      0x01\n      swap1\n      sub\n      swap1\n      dup2\n      tag_113\n      jumpi\n      swap1\n      pop\n    tag_112:\n      pop\n        /* \"verifier.sol\":5916:5954  G1Point[] memory p1 = new G1Point[](4) */\n      swap1\n      pop\n        /* \"verifier.sol\":5964:5983  G2Point[] memory p2 */\n      0x00\n        /* \"verifier.sol\":6000:6001  4 */\n      0x04\n        /* \"verifier.sol\":5986:6002  new G2Point[](4) */\n      0xffffffffffffffff\n      dup2\n      gt\n      iszero\n      tag_115\n      jumpi\n      tag_116\n      tag_13\n      jump\t// in\n    tag_116:\n    tag_115:\n      mload(0x40)\n      swap1\n      dup1\n      dup3\n      mstore\n      dup1\n      0x20\n      mul\n      0x20\n      add\n      dup3\n      add\n      0x40\n      mstore\n      dup1\n      iszero\n      tag_117\n      jumpi\n      dup2\n      0x20\n      add\n    tag_118:\n      tag_119\n      tag_120\n      jump\t// in\n    tag_119:\n      dup2\n      mstore\n      0x20\n      add\n      swap1\n      0x01\n      swap1\n      sub\n      swap1\n      dup2\n      tag_118\n      jumpi\n      swap1\n      pop\n    tag_117:\n      pop\n        /* \"verifier.sol\":5964:6002  G2Point[] memory p2 = new G2Point[](4) */\n      swap1\n      pop\n        /* \"verifier.sol\":6020:6022  a1 */\n      dup11\n        /* \"verifier.sol\":6012:6014  p1 */\n      dup3\n        /* \"verifier.sol\":6015:6016  0 */\n      0x00\n        /* \"verifier.sol\":6012:6017  p1[0] */\n      dup2\n      mload\n      dup2\n      lt\n      tag_121\n      jumpi\n      tag_122\n      tag_20\n      jump\t// in\n    tag_122:\n    tag_121:\n      0x20\n      mul\n      0x20\n      add\n      add\n        /* \"verifier.sol\":6012:6022  p1[0] = a1 */\n      dup2\n      swap1\n      mstore\n      pop\n        /* \"verifier.sol\":6040:6042  b1 */\n      dup9\n        /* \"verifier.sol\":6032:6034  p1 */\n      dup3\n        /* \"verifier.sol\":6035:6036  1 */\n      0x01\n        /* \"verifier.sol\":6032:6037  p1[1] */\n      dup2\n      mload\n      dup2\n      lt\n      tag_123\n      jumpi\n      tag_124\n      tag_20\n      jump\t// in\n    tag_124:\n    tag_123:\n      0x20\n      mul\n      0x20\n      add\n      add\n        /* \"verifier.sol\":6032:6042  p1[1] = b1 */\n      dup2\n      swap1\n      mstore\n      pop\n        /* \"verifier.sol\":6060:6062  c1 */\n      dup7\n        /* \"verifier.sol\":6052:6054  p1 */\n      dup3\n        /* \"verifier.sol\":6055:6056  2 */\n      0x02\n        /* \"verifier.sol\":6052:6057  p1[2] */\n      dup2\n      mload\n      dup2\n      lt\n      tag_125\n      jumpi\n      tag_126\n      tag_20\n      jump\t// in\n    tag_126:\n    tag_125:\n      0x20\n      mul\n      0x20\n      add\n      add\n        /* \"verifier.sol\":6052:6062  p1[2] = c1 */\n      dup2\n      swap1\n      mstore\n      pop\n        /* \"verifier.sol\":6080:6082  d1 */\n      dup5\n        /* \"verifier.sol\":6072:6074  p1 */\n      dup3\n        /* \"verifier.sol\":6075:6076  3 */\n      0x03\n        /* \"verifier.sol\":6072:6077  p1[3] */\n      dup2\n      mload\n      dup2\n      lt\n      tag_127\n      jumpi\n      tag_128\n      tag_20\n      jump\t// in\n    tag_128:\n    tag_127:\n      0x20\n      mul\n      0x20\n      add\n      add\n        /* \"verifier.sol\":6072:6082  p1[3] = d1 */\n      dup2\n      swap1\n      mstore\n      pop\n        /* \"verifier.sol\":6100:6102  a2 */\n      dup10\n        /* \"verifier.sol\":6092:6094  p2 */\n      dup2\n        /* \"verifier.sol\":6095:6096  0 */\n      0x00\n        /* \"verifier.sol\":6092:6097  p2[0] */\n      dup2\n      mload\n      dup2\n      lt\n      tag_129\n      jumpi\n      tag_130\n      tag_20\n      jump\t// in\n    tag_130:\n    tag_129:\n      0x20\n      mul\n      0x20\n      add\n      add\n        /* \"verifier.sol\":6092:6102  p2[0] = a2 */\n      dup2\n      swap1\n      mstore\n      pop\n        /* \"verifier.sol\":6120:6122  b2 */\n      dup8\n        /* \"verifier.sol\":6112:6114  p2 */\n      dup2\n        /* \"verifier.sol\":6115:6116  1 */\n      0x01\n        /* \"verifier.sol\":6112:6117  p2[1] */\n      dup2\n      mload\n      dup2\n      lt\n      tag_131\n      jumpi\n      tag_132\n      tag_20\n      jump\t// in\n    tag_132:\n    tag_131:\n      0x20\n      mul\n      0x20\n      add\n      add\n        /* \"verifier.sol\":6112:6122  p2[1] = b2 */\n      dup2\n      swap1\n      mstore\n      pop\n        /* \"verifier.sol\":6140:6142  c2 */\n      dup6\n        /* \"verifier.sol\":6132:6134  p2 */\n      dup2\n        /* \"verifier.sol\":6135:6136  2 */\n      0x02\n        /* \"verifier.sol\":6132:6137  p2[2] */\n      dup2\n      mload\n      dup2\n      lt\n      tag_133\n      jumpi\n      tag_134\n      tag_20\n      jump\t// in\n    tag_134:\n    tag_133:\n      0x20\n      mul\n      0x20\n      add\n      add\n        /* \"verifier.sol\":6132:6142  p2[2] = c2 */\n      dup2\n      swap1\n      mstore\n      pop\n        /* \"verifier.sol\":6160:6162  d2 */\n      dup4\n        /* \"verifier.sol\":6152:6154  p2 */\n      dup2\n        /* \"verifier.sol\":6155:6156  3 */\n      0x03\n        /* \"verifier.sol\":6152:6157  p2[3] */\n      dup2\n      mload\n      dup2\n      lt\n      tag_135\n      jumpi\n      tag_136\n      tag_20\n      jump\t// in\n    tag_136:\n    tag_135:\n      0x20\n      mul\n      0x20\n      add\n      add\n        /* \"verifier.sol\":6152:6162  p2[3] = d2 */\n      dup2\n      swap1\n      mstore\n      pop\n        /* \"verifier.sol\":6179:6194  pairing(p1, p2) */\n      tag_137\n        /* \"verifier.sol\":6187:6189  p1 */\n      dup3\n        /* \"verifier.sol\":6191:6193  p2 */\n      dup3\n        /* \"verifier.sol\":6179:6186  pairing */\n      tag_138\n        /* \"verifier.sol\":6179:6194  pairing(p1, p2) */\n      jump\t// in\n    tag_137:\n        /* \"verifier.sol\":6172:6194  return pairing(p1, p2) */\n      swap3\n      pop\n      pop\n      pop\n        /* \"verifier.sol\":5649:6201  function pairingProd4(... */\n      swap9\n      swap8\n      pop\n      pop\n      pop\n      pop\n      pop\n      pop\n      pop\n      pop\n      jump\t// out\n        /* \"verifier.sol\":3718:4641  function pairing(G1Point[] memory p1, G2Point[] memory p2) internal view returns (bool) {... */\n    tag_138:\n        /* \"verifier.sol\":3800:3804  bool */\n      0x00\n        /* \"verifier.sol\":3837:3839  p2 */\n      dup2\n        /* \"verifier.sol\":3837:3846  p2.length */\n      mload\n        /* \"verifier.sol\":3824:3826  p1 */\n      dup4\n        /* \"verifier.sol\":3824:3833  p1.length */\n      mload\n        /* \"verifier.sol\":3824:3846  p1.length == p2.length */\n      eq\n        /* \"verifier.sol\":3816:3847  require(p1.length == p2.length) */\n      tag_140\n      jumpi\n      0x00\n      dup1\n      revert\n    tag_140:\n        /* \"verifier.sol\":3857:3870  uint elements */\n      0x00\n        /* \"verifier.sol\":3873:3875  p1 */\n      dup4\n        /* \"verifier.sol\":3873:3882  p1.length */\n      mload\n        /* \"verifier.sol\":3857:3882  uint elements = p1.length */\n      swap1\n      pop\n        /* \"verifier.sol\":3892:3906  uint inputSize */\n      0x00\n        /* \"verifier.sol\":3920:3921  6 */\n      0x06\n        /* \"verifier.sol\":3909:3917  elements */\n      dup3\n        /* \"verifier.sol\":3909:3921  elements * 6 */\n      tag_141\n      swap2\n      swap1\n      tag_142\n      jump\t// in\n    tag_141:\n        /* \"verifier.sol\":3892:3921  uint inputSize = elements * 6 */\n      swap1\n      pop\n        /* \"verifier.sol\":3931:3950  uint[] memory input */\n      0x00\n        /* \"verifier.sol\":3964:3973  inputSize */\n      dup2\n        /* \"verifier.sol\":3953:3974  new uint[](inputSize) */\n      0xffffffffffffffff\n      dup2\n      gt\n      iszero\n      tag_143\n      jumpi\n      tag_144\n      tag_13\n      jump\t// in\n    tag_144:\n    tag_143:\n      mload(0x40)\n      swap1\n      dup1\n      dup3\n      mstore\n      dup1\n      0x20\n      mul\n      0x20\n      add\n      dup3\n      add\n      0x40\n      mstore\n      dup1\n      iszero\n      tag_145\n      jumpi\n      dup2\n      0x20\n      add\n      0x20\n      dup3\n      mul\n      dup1\n      calldatasize\n      dup4\n      calldatacopy\n      dup1\n      dup3\n      add\n      swap2\n      pop\n      pop\n      swap1\n      pop\n    tag_145:\n      pop\n        /* \"verifier.sol\":3931:3974  uint[] memory input = new uint[](inputSize) */\n      swap1\n      pop\n        /* \"verifier.sol\":3989:3995  uint i */\n      0x00\n        /* \"verifier.sol\":3984:4291  for (uint i = 0; i < elements; i++)... */\n    tag_146:\n        /* \"verifier.sol\":4005:4013  elements */\n      dup4\n        /* \"verifier.sol\":4001:4002  i */\n      dup2\n        /* \"verifier.sol\":4001:4013  i < elements */\n      lt\n        /* \"verifier.sol\":3984:4291  for (uint i = 0; i < elements; i++)... */\n      iszero\n      tag_147\n      jumpi\n        /* \"verifier.sol\":4061:4063  p1 */\n      dup7\n        /* \"verifier.sol\":4064:4065  i */\n      dup2\n        /* \"verifier.sol\":4061:4066  p1[i] */\n      dup2\n      mload\n      dup2\n      lt\n      tag_149\n      jumpi\n      tag_150\n      tag_20\n      jump\t// in\n    tag_150:\n    tag_149:\n      0x20\n      mul\n      0x20\n      add\n      add\n      mload\n        /* \"verifier.sol\":4061:4068  p1[i].X */\n      0x00\n      add\n      mload\n        /* \"verifier.sol\":4042:4047  input */\n      dup3\n        /* \"verifier.sol\":4056:4057  0 */\n      0x00\n        /* \"verifier.sol\":4052:4053  6 */\n      0x06\n        /* \"verifier.sol\":4048:4049  i */\n      dup5\n        /* \"verifier.sol\":4048:4053  i * 6 */\n      tag_151\n      swap2\n      swap1\n      tag_142\n      jump\t// in\n    tag_151:\n        /* \"verifier.sol\":4048:4057  i * 6 + 0 */\n      tag_152\n      swap2\n      swap1\n      tag_31\n      jump\t// in\n    tag_152:\n        /* \"verifier.sol\":4042:4058  input[i * 6 + 0] */\n      dup2\n      mload\n      dup2\n      lt\n      tag_153\n      jumpi\n      tag_154\n      tag_20\n      jump\t// in\n    tag_154:\n    tag_153:\n      0x20\n      mul\n      0x20\n      add\n      add\n        /* \"verifier.sol\":4042:4068  input[i * 6 + 0] = p1[i].X */\n      dup2\n      dup2\n      mstore\n      pop\n      pop\n        /* \"verifier.sol\":4101:4103  p1 */\n      dup7\n        /* \"verifier.sol\":4104:4105  i */\n      dup2\n        /* \"verifier.sol\":4101:4106  p1[i] */\n      dup2\n      mload\n      dup2\n      lt\n      tag_155\n      jumpi\n      tag_156\n      tag_20\n      jump\t// in\n    tag_156:\n    tag_155:\n      0x20\n      mul\n      0x20\n      add\n      add\n      mload\n        /* \"verifier.sol\":4101:4108  p1[i].Y */\n      0x20\n      add\n      mload\n        /* \"verifier.sol\":4082:4087  input */\n      dup3\n        /* \"verifier.sol\":4096:4097  1 */\n      0x01\n        /* \"verifier.sol\":4092:4093  6 */\n      0x06\n        /* \"verifier.sol\":4088:4089  i */\n      dup5\n        /* \"verifier.sol\":4088:4093  i * 6 */\n      tag_157\n      swap2\n      swap1\n      tag_142\n      jump\t// in\n    tag_157:\n        /* \"verifier.sol\":4088:4097  i * 6 + 1 */\n      tag_158\n      swap2\n      swap1\n      tag_31\n      jump\t// in\n    tag_158:\n        /* \"verifier.sol\":4082:4098  input[i * 6 + 1] */\n      dup2\n      mload\n      dup2\n      lt\n      tag_159\n      jumpi\n      tag_160\n      tag_20\n      jump\t// in\n    tag_160:\n    tag_159:\n      0x20\n      mul\n      0x20\n      add\n      add\n        /* \"verifier.sol\":4082:4108  input[i * 6 + 1] = p1[i].Y */\n      dup2\n      dup2\n      mstore\n      pop\n      pop\n        /* \"verifier.sol\":4141:4143  p2 */\n      dup6\n        /* \"verifier.sol\":4144:4145  i */\n      dup2\n        /* \"verifier.sol\":4141:4146  p2[i] */\n      dup2\n      mload\n      dup2\n      lt\n      tag_161\n      jumpi\n      tag_162\n      tag_20\n      jump\t// in\n    tag_162:\n    tag_161:\n      0x20\n      mul\n      0x20\n      add\n      add\n      mload\n        /* \"verifier.sol\":4141:4148  p2[i].X */\n      0x00\n      add\n      mload\n        /* \"verifier.sol\":4149:4150  1 */\n      0x01\n        /* \"verifier.sol\":4141:4151  p2[i].X[1] */\n      0x02\n      dup2\n      lt\n      tag_163\n      jumpi\n      tag_164\n      tag_20\n      jump\t// in\n    tag_164:\n    tag_163:\n      0x20\n      mul\n      add\n      mload\n        /* \"verifier.sol\":4122:4127  input */\n      dup3\n        /* \"verifier.sol\":4136:4137  2 */\n      0x02\n        /* \"verifier.sol\":4132:4133  6 */\n      0x06\n        /* \"verifier.sol\":4128:4129  i */\n      dup5\n        /* \"verifier.sol\":4128:4133  i * 6 */\n      tag_165\n      swap2\n      swap1\n      tag_142\n      jump\t// in\n    tag_165:\n        /* \"verifier.sol\":4128:4137  i * 6 + 2 */\n      tag_166\n      swap2\n      swap1\n      tag_31\n      jump\t// in\n    tag_166:\n        /* \"verifier.sol\":4122:4138  input[i * 6 + 2] */\n      dup2\n      mload\n      dup2\n      lt\n      tag_167\n      jumpi\n      tag_168\n      tag_20\n      jump\t// in\n    tag_168:\n    tag_167:\n      0x20\n      mul\n      0x20\n      add\n      add\n        /* \"verifier.sol\":4122:4151  input[i * 6 + 2] = p2[i].X[1] */\n      dup2\n      dup2\n      mstore\n      pop\n      pop\n        /* \"verifier.sol\":4184:4186  p2 */\n      dup6\n        /* \"verifier.sol\":4187:4188  i */\n      dup2\n        /* \"verifier.sol\":4184:4189  p2[i] */\n      dup2\n      mload\n      dup2\n      lt\n      tag_169\n      jumpi\n      tag_170\n      tag_20\n      jump\t// in\n    tag_170:\n    tag_169:\n      0x20\n      mul\n      0x20\n      add\n      add\n      mload\n        /* \"verifier.sol\":4184:4191  p2[i].X */\n      0x00\n      add\n      mload\n        /* \"verifier.sol\":4192:4193  0 */\n      0x00\n        /* \"verifier.sol\":4184:4194  p2[i].X[0] */\n      0x02\n      dup2\n      lt\n      tag_171\n      jumpi\n      tag_172\n      tag_20\n      jump\t// in\n    tag_172:\n    tag_171:\n      0x20\n      mul\n      add\n      mload\n        /* \"verifier.sol\":4165:4170  input */\n      dup3\n        /* \"verifier.sol\":4179:4180  3 */\n      0x03\n        /* \"verifier.sol\":4175:4176  6 */\n      0x06\n        /* \"verifier.sol\":4171:4172  i */\n      dup5\n        /* \"verifier.sol\":4171:4176  i * 6 */\n      tag_173\n      swap2\n      swap1\n      tag_142\n      jump\t// in\n    tag_173:\n        /* \"verifier.sol\":4171:4180  i * 6 + 3 */\n      tag_174\n      swap2\n      swap1\n      tag_31\n      jump\t// in\n    tag_174:\n        /* \"verifier.sol\":4165:4181  input[i * 6 + 3] */\n      dup2\n      mload\n      dup2\n      lt\n      tag_175\n      jumpi\n      tag_176\n      tag_20\n      jump\t// in\n    tag_176:\n    tag_175:\n      0x20\n      mul\n      0x20\n      add\n      add\n        /* \"verifier.sol\":4165:4194  input[i * 6 + 3] = p2[i].X[0] */\n      dup2\n      dup2\n      mstore\n      pop\n      pop\n        /* \"verifier.sol\":4227:4229  p2 */\n      dup6\n        /* \"verifier.sol\":4230:4231  i */\n      dup2\n        /* \"verifier.sol\":4227:4232  p2[i] */\n      dup2\n      mload\n      dup2\n      lt\n      tag_177\n      jumpi\n      tag_178\n      tag_20\n      jump\t// in\n    tag_178:\n    tag_177:\n      0x20\n      mul\n      0x20\n      add\n      add\n      mload\n        /* \"verifier.sol\":4227:4234  p2[i].Y */\n      0x20\n      add\n      mload\n        /* \"verifier.sol\":4235:4236  1 */\n      0x01\n        /* \"verifier.sol\":4227:4237  p2[i].Y[1] */\n      0x02\n      dup2\n      lt\n      tag_179\n      jumpi\n      tag_180\n      tag_20\n      jump\t// in\n    tag_180:\n    tag_179:\n      0x20\n      mul\n      add\n      mload\n        /* \"verifier.sol\":4208:4213  input */\n      dup3\n        /* \"verifier.sol\":4222:4223  4 */\n      0x04\n        /* \"verifier.sol\":4218:4219  6 */\n      0x06\n        /* \"verifier.sol\":4214:4215  i */\n      dup5\n        /* \"verifier.sol\":4214:4219  i * 6 */\n      tag_181\n      swap2\n      swap1\n      tag_142\n      jump\t// in\n    tag_181:\n        /* \"verifier.sol\":4214:4223  i * 6 + 4 */\n      tag_182\n      swap2\n      swap1\n      tag_31\n      jump\t// in\n    tag_182:\n        /* \"verifier.sol\":4208:4224  input[i * 6 + 4] */\n      dup2\n      mload\n      dup2\n      lt\n      tag_183\n      jumpi\n      tag_184\n      tag_20\n      jump\t// in\n    tag_184:\n    tag_183:\n      0x20\n      mul\n      0x20\n      add\n      add\n        /* \"verifier.sol\":4208:4237  input[i * 6 + 4] = p2[i].Y[1] */\n      dup2\n      dup2\n      mstore\n      pop\n      pop\n        /* \"verifier.sol\":4270:4272  p2 */\n      dup6\n        /* \"verifier.sol\":4273:4274  i */\n      dup2\n        /* \"verifier.sol\":4270:4275  p2[i] */\n      dup2\n      mload\n      dup2\n      lt\n      tag_185\n      jumpi\n      tag_186\n      tag_20\n      jump\t// in\n    tag_186:\n    tag_185:\n      0x20\n      mul\n      0x20\n      add\n      add\n      mload\n        /* \"verifier.sol\":4270:4277  p2[i].Y */\n      0x20\n      add\n      mload\n        /* \"verifier.sol\":4278:4279  0 */\n      0x00\n        /* \"verifier.sol\":4270:4280  p2[i].Y[0] */\n      0x02\n      dup2\n      lt\n      tag_187\n      jumpi\n      tag_188\n      tag_20\n      jump\t// in\n    tag_188:\n    tag_187:\n      0x20\n      mul\n      add\n      mload\n        /* \"verifier.sol\":4251:4256  input */\n      dup3\n        /* \"verifier.sol\":4265:4266  5 */\n      0x05\n        /* \"verifier.sol\":4261:4262  6 */\n      0x06\n        /* \"verifier.sol\":4257:4258  i */\n      dup5\n        /* \"verifier.sol\":4257:4262  i * 6 */\n      tag_189\n      swap2\n      swap1\n      tag_142\n      jump\t// in\n    tag_189:\n        /* \"verifier.sol\":4257:4266  i * 6 + 5 */\n      tag_190\n      swap2\n      swap1\n      tag_31\n      jump\t// in\n    tag_190:\n        /* \"verifier.sol\":4251:4267  input[i * 6 + 5] */\n      dup2\n      mload\n      dup2\n      lt\n      tag_191\n      jumpi\n      tag_192\n      tag_20\n      jump\t// in\n    tag_192:\n    tag_191:\n      0x20\n      mul\n      0x20\n      add\n      add\n        /* \"verifier.sol\":4251:4280  input[i * 6 + 5] = p2[i].Y[0] */\n      dup2\n      dup2\n      mstore\n      pop\n      pop\n        /* \"verifier.sol\":4015:4018  i++ */\n      dup1\n      dup1\n      0x01\n      add\n      swap2\n      pop\n      pop\n        /* \"verifier.sol\":3984:4291  for (uint i = 0; i < elements; i++)... */\n      jump(tag_146)\n    tag_147:\n      pop\n        /* \"verifier.sol\":4300:4318  uint[1] memory out */\n      tag_193\n      tag_194\n      jump\t// in\n    tag_193:\n        /* \"verifier.sol\":4328:4340  bool success */\n      0x00\n        /* \"verifier.sol\":4461:4465  0x20 */\n      0x20\n        /* \"verifier.sol\":4456:4459  out */\n      dup3\n        /* \"verifier.sol\":4449:4453  0x20 */\n      0x20\n        /* \"verifier.sol\":4438:4447  inputSize */\n      dup7\n        /* \"verifier.sol\":4434:4454  mul(inputSize, 0x20) */\n      mul\n        /* \"verifier.sol\":4427:4431  0x20 */\n      0x20\n        /* \"verifier.sol\":4420:4425  input */\n      dup7\n        /* \"verifier.sol\":4416:4432  add(input, 0x20) */\n      add\n        /* \"verifier.sol\":4413:4414  8 */\n      0x08\n        /* \"verifier.sol\":4406:4410  2000 */\n      0x07d0\n        /* \"verifier.sol\":4399:4404  gas() */\n      gas\n        /* \"verifier.sol\":4395:4411  sub(gas(), 2000) */\n      sub\n        /* \"verifier.sol\":4384:4466  staticcall(sub(gas(), 2000), 8, add(input, 0x20), mul(inputSize, 0x20), out, 0x20) */\n      staticcall\n        /* \"verifier.sol\":4373:4466  success := staticcall(sub(gas(), 2000), 8, add(input, 0x20), mul(inputSize, 0x20), out, 0x20) */\n      swap1\n      pop\n        /* \"verifier.sol\":4543:4550  success */\n      dup1\n        /* \"verifier.sol\":4556:4557  0 */\n      0x00\n        /* \"verifier.sol\":4551:4571  case 0 { invalid() } */\n      dup2\n      sub\n        /* \"verifier.sol\":4536:4571  switch success case 0 { invalid() } */\n      tag_195\n        /* \"verifier.sol\":4551:4571  case 0 { invalid() } */\n      jumpi\n        /* \"verifier.sol\":4560:4569  invalid() */\n      invalid\n        /* \"verifier.sol\":4536:4571  switch success case 0 { invalid() } */\n    tag_195:\n      pop\n        /* \"verifier.sol\":4598:4605  success */\n      dup1\n        /* \"verifier.sol\":4590:4606  require(success) */\n      tag_197\n      jumpi\n      0x00\n      dup1\n      revert\n    tag_197:\n        /* \"verifier.sol\":4633:4634  0 */\n      0x00\n        /* \"verifier.sol\":4623:4626  out */\n      dup3\n        /* \"verifier.sol\":4627:4628  0 */\n      0x00\n        /* \"verifier.sol\":4623:4629  out[0] */\n      0x01\n      dup2\n      lt\n      tag_198\n      jumpi\n      tag_199\n      tag_20\n      jump\t// in\n    tag_199:\n    tag_198:\n      0x20\n      mul\n      add\n      mload\n        /* \"verifier.sol\":4623:4634  out[0] != 0 */\n      eq\n      iszero\n        /* \"verifier.sol\":4616:4634  return out[0] != 0 */\n      swap6\n      pop\n      pop\n      pop\n      pop\n      pop\n      pop\n        /* \"verifier.sol\":3718:4641  function pairing(G1Point[] memory p1, G2Point[] memory p2) internal view returns (bool) {... */\n      swap3\n      swap2\n      pop\n      pop\n      jump\t// out\n    tag_59:\n      mload(0x40)\n      dup1\n      0xa0\n      add\n      0x40\n      mstore\n      dup1\n      tag_200\n      tag_66\n      jump\t// in\n    tag_200:\n      dup2\n      mstore\n      0x20\n      add\n      tag_201\n      tag_120\n      jump\t// in\n    tag_201:\n      dup2\n      mstore\n      0x20\n      add\n      tag_202\n      tag_120\n      jump\t// in\n    tag_202:\n      dup2\n      mstore\n      0x20\n      add\n      tag_203\n      tag_120\n      jump\t// in\n    tag_203:\n      dup2\n      mstore\n      0x20\n      add\n      0x60\n      dup2\n      mstore\n      pop\n      swap1\n      jump\t// out\n    tag_66:\n      mload(0x40)\n      dup1\n      0x40\n      add\n      0x40\n      mstore\n      dup1\n      0x00\n      dup2\n      mstore\n      0x20\n      add\n      0x00\n      dup2\n      mstore\n      pop\n      swap1\n      jump\t// out\n    tag_76:\n      mload(0x40)\n      dup1\n      0x60\n      add\n      0x40\n      mstore\n      dup1\n      0x03\n      swap1\n      0x20\n      dup3\n      mul\n      dup1\n      calldatasize\n      dup4\n      calldatacopy\n      dup1\n      dup3\n      add\n      swap2\n      pop\n      pop\n      swap1\n      pop\n      pop\n      swap1\n      jump\t// out\n    tag_89:\n      mload(0x40)\n      dup1\n      0x80\n      add\n      0x40\n      mstore\n      dup1\n      0x04\n      swap1\n      0x20\n      dup3\n      mul\n      dup1\n      calldatasize\n      dup4\n      calldatacopy\n      dup1\n      dup3\n      add\n      swap2\n      pop\n      pop\n      swap1\n      pop\n      pop\n      swap1\n      jump\t// out\n    tag_120:\n      mload(0x40)\n      dup1\n      0x40\n      add\n      0x40\n      mstore\n      dup1\n      tag_204\n      tag_205\n      jump\t// in\n    tag_204:\n      dup2\n      mstore\n      0x20\n      add\n      tag_206\n      tag_205\n      jump\t// in\n    tag_206:\n      dup2\n      mstore\n      pop\n      swap1\n      jump\t// out\n    tag_194:\n      mload(0x40)\n      dup1\n      0x20\n      add\n      0x40\n      mstore\n      dup1\n      0x01\n      swap1\n      0x20\n      dup3\n      mul\n      dup1\n      calldatasize\n      dup4\n      calldatacopy\n      dup1\n      dup3\n      add\n      swap2\n      pop\n      pop\n      swap1\n      pop\n      pop\n      swap1\n      jump\t// out\n    tag_205:\n      mload(0x40)\n      dup1\n      0x40\n      add\n      0x40\n      mstore\n      dup1\n      0x02\n      swap1\n      0x20\n      dup3\n      mul\n      dup1\n      calldatasize\n      dup4\n      calldatacopy\n      dup1\n      dup3\n      add\n      swap2\n      pop\n      pop\n      swap1\n      pop\n      pop\n      swap1\n      jump\t// out\n        /* \"#utility.yul\":7:82   */\n    tag_207:\n        /* \"#utility.yul\":40:46   */\n      0x00\n        /* \"#utility.yul\":73:75   */\n      0x40\n        /* \"#utility.yul\":67:76   */\n      mload\n        /* \"#utility.yul\":57:76   */\n      swap1\n      pop\n        /* \"#utility.yul\":7:82   */\n      swap1\n      jump\t// out\n        /* \"#utility.yul\":88:205   */\n    tag_208:\n        /* \"#utility.yul\":197:198   */\n      0x00\n        /* \"#utility.yul\":194:195   */\n      dup1\n        /* \"#utility.yul\":187:199   */\n      revert\n        /* \"#utility.yul\":334:451   */\n    tag_210:\n        /* \"#utility.yul\":443:444   */\n      0x00\n        /* \"#utility.yul\":440:441   */\n      dup1\n        /* \"#utility.yul\":433:445   */\n      revert\n        /* \"#utility.yul\":457:559   */\n    tag_211:\n        /* \"#utility.yul\":498:504   */\n      0x00\n        /* \"#utility.yul\":549:551   */\n      0x1f\n        /* \"#utility.yul\":545:552   */\n      not\n        /* \"#utility.yul\":540:542   */\n      0x1f\n        /* \"#utility.yul\":533:538   */\n      dup4\n        /* \"#utility.yul\":529:543   */\n      add\n        /* \"#utility.yul\":525:553   */\n      and\n        /* \"#utility.yul\":515:553   */\n      swap1\n      pop\n        /* \"#utility.yul\":457:559   */\n      swap2\n      swap1\n      pop\n      jump\t// out\n        /* \"#utility.yul\":565:745   */\n    tag_13:\n        /* \"#utility.yul\":613:690   */\n      0x4e487b7100000000000000000000000000000000000000000000000000000000\n        /* \"#utility.yul\":610:611   */\n      0x00\n        /* \"#utility.yul\":603:691   */\n      mstore\n        /* \"#utility.yul\":710:714   */\n      0x41\n        /* \"#utility.yul\":707:708   */\n      0x04\n        /* \"#utility.yul\":700:715   */\n      mstore\n        /* \"#utility.yul\":734:738   */\n      0x24\n        /* \"#utility.yul\":731:732   */\n      0x00\n        /* \"#utility.yul\":724:739   */\n      revert\n        /* \"#utility.yul\":751:1032   */\n    tag_212:\n        /* \"#utility.yul\":834:861   */\n      tag_238\n        /* \"#utility.yul\":856:860   */\n      dup3\n        /* \"#utility.yul\":834:861   */\n      tag_211\n      jump\t// in\n    tag_238:\n        /* \"#utility.yul\":826:832   */\n      dup2\n        /* \"#utility.yul\":822:862   */\n      add\n        /* \"#utility.yul\":964:970   */\n      dup2\n        /* \"#utility.yul\":952:962   */\n      dup2\n        /* \"#utility.yul\":949:971   */\n      lt\n        /* \"#utility.yul\":928:946   */\n      0xffffffffffffffff\n        /* \"#utility.yul\":916:926   */\n      dup3\n        /* \"#utility.yul\":913:947   */\n      gt\n        /* \"#utility.yul\":910:972   */\n      or\n        /* \"#utility.yul\":907:995   */\n      iszero\n      tag_239\n      jumpi\n        /* \"#utility.yul\":975:993   */\n      tag_240\n      tag_13\n      jump\t// in\n    tag_240:\n        /* \"#utility.yul\":907:995   */\n    tag_239:\n        /* \"#utility.yul\":1015:1025   */\n      dup1\n        /* \"#utility.yul\":1011:1013   */\n      0x40\n        /* \"#utility.yul\":1004:1026   */\n      mstore\n        /* \"#utility.yul\":794:1032   */\n      pop\n        /* \"#utility.yul\":751:1032   */\n      pop\n      pop\n      jump\t// out\n        /* \"#utility.yul\":1038:1167   */\n    tag_213:\n        /* \"#utility.yul\":1072:1078   */\n      0x00\n        /* \"#utility.yul\":1099:1119   */\n      tag_242\n      tag_207\n      jump\t// in\n    tag_242:\n        /* \"#utility.yul\":1089:1119   */\n      swap1\n      pop\n        /* \"#utility.yul\":1128:1161   */\n      tag_243\n        /* \"#utility.yul\":1156:1160   */\n      dup3\n        /* \"#utility.yul\":1148:1154   */\n      dup3\n        /* \"#utility.yul\":1128:1161   */\n      tag_212\n      jump\t// in\n    tag_243:\n        /* \"#utility.yul\":1038:1167   */\n      swap2\n      swap1\n      pop\n      jump\t// out\n        /* \"#utility.yul\":1296:1373   */\n    tag_215:\n        /* \"#utility.yul\":1333:1340   */\n      0x00\n        /* \"#utility.yul\":1362:1367   */\n      dup2\n        /* \"#utility.yul\":1351:1367   */\n      swap1\n      pop\n        /* \"#utility.yul\":1296:1373   */\n      swap2\n      swap1\n      pop\n      jump\t// out\n        /* \"#utility.yul\":1379:1501   */\n    tag_216:\n        /* \"#utility.yul\":1452:1476   */\n      tag_247\n        /* \"#utility.yul\":1470:1475   */\n      dup2\n        /* \"#utility.yul\":1452:1476   */\n      tag_215\n      jump\t// in\n    tag_247:\n        /* \"#utility.yul\":1445:1450   */\n      dup2\n        /* \"#utility.yul\":1442:1477   */\n      eq\n        /* \"#utility.yul\":1432:1495   */\n      tag_248\n      jumpi\n        /* \"#utility.yul\":1491:1492   */\n      0x00\n        /* \"#utility.yul\":1488:1489   */\n      dup1\n        /* \"#utility.yul\":1481:1493   */\n      revert\n        /* \"#utility.yul\":1432:1495   */\n    tag_248:\n        /* \"#utility.yul\":1379:1501   */\n      pop\n      jump\t// out\n        /* \"#utility.yul\":1507:1646   */\n    tag_217:\n        /* \"#utility.yul\":1553:1558   */\n      0x00\n        /* \"#utility.yul\":1591:1597   */\n      dup2\n        /* \"#utility.yul\":1578:1598   */\n      calldataload\n        /* \"#utility.yul\":1569:1598   */\n      swap1\n      pop\n        /* \"#utility.yul\":1607:1640   */\n      tag_250\n        /* \"#utility.yul\":1634:1639   */\n      dup2\n        /* \"#utility.yul\":1607:1640   */\n      tag_216\n      jump\t// in\n    tag_250:\n        /* \"#utility.yul\":1507:1646   */\n      swap3\n      swap2\n      pop\n      pop\n      jump\t// out\n        /* \"#utility.yul\":1682:2247   */\n    tag_218:\n        /* \"#utility.yul\":1753:1758   */\n      0x00\n        /* \"#utility.yul\":1797:1801   */\n      0x40\n        /* \"#utility.yul\":1785:1794   */\n      dup3\n        /* \"#utility.yul\":1780:1783   */\n      dup5\n        /* \"#utility.yul\":1776:1795   */\n      sub\n        /* \"#utility.yul\":1772:1802   */\n      slt\n        /* \"#utility.yul\":1769:1886   */\n      iszero\n      tag_252\n      jumpi\n        /* \"#utility.yul\":1805:1884   */\n      tag_253\n      tag_210\n      jump\t// in\n    tag_253:\n        /* \"#utility.yul\":1769:1886   */\n    tag_252:\n        /* \"#utility.yul\":1904:1925   */\n      tag_254\n        /* \"#utility.yul\":1920:1924   */\n      0x40\n        /* \"#utility.yul\":1904:1925   */\n      tag_213\n      jump\t// in\n    tag_254:\n        /* \"#utility.yul\":1895:1925   */\n      swap1\n      pop\n        /* \"#utility.yul\":1981:1982   */\n      0x00\n        /* \"#utility.yul\":2021:2070   */\n      tag_255\n        /* \"#utility.yul\":2066:2069   */\n      dup5\n        /* \"#utility.yul\":2057:2063   */\n      dup3\n        /* \"#utility.yul\":2046:2055   */\n      dup6\n        /* \"#utility.yul\":2042:2064   */\n      add\n        /* \"#utility.yul\":2021:2070   */\n      tag_217\n      jump\t// in\n    tag_255:\n        /* \"#utility.yul\":2014:2018   */\n      0x00\n        /* \"#utility.yul\":2007:2012   */\n      dup4\n        /* \"#utility.yul\":2003:2019   */\n      add\n        /* \"#utility.yul\":1996:2071   */\n      mstore\n        /* \"#utility.yul\":1935:2082   */\n      pop\n        /* \"#utility.yul\":2138:2140   */\n      0x20\n        /* \"#utility.yul\":2179:2228   */\n      tag_256\n        /* \"#utility.yul\":2224:2227   */\n      dup5\n        /* \"#utility.yul\":2215:2221   */\n      dup3\n        /* \"#utility.yul\":2204:2213   */\n      dup6\n        /* \"#utility.yul\":2200:2222   */\n      add\n        /* \"#utility.yul\":2179:2228   */\n      tag_217\n      jump\t// in\n    tag_256:\n        /* \"#utility.yul\":2172:2176   */\n      0x20\n        /* \"#utility.yul\":2165:2170   */\n      dup4\n        /* \"#utility.yul\":2161:2177   */\n      add\n        /* \"#utility.yul\":2154:2229   */\n      mstore\n        /* \"#utility.yul\":2092:2240   */\n      pop\n        /* \"#utility.yul\":1682:2247   */\n      swap3\n      swap2\n      pop\n      pop\n      jump\t// out\n        /* \"#utility.yul\":2253:2370   */\n    tag_219:\n        /* \"#utility.yul\":2362:2363   */\n      0x00\n        /* \"#utility.yul\":2359:2360   */\n      dup1\n        /* \"#utility.yul\":2352:2364   */\n      revert\n        /* \"#utility.yul\":2376:2625   */\n    tag_220:\n        /* \"#utility.yul\":2451:2455   */\n      0x00\n        /* \"#utility.yul\":2541:2559   */\n      0xffffffffffffffff\n        /* \"#utility.yul\":2533:2539   */\n      dup3\n        /* \"#utility.yul\":2530:2560   */\n      gt\n        /* \"#utility.yul\":2527:2583   */\n      iszero\n      tag_259\n      jumpi\n        /* \"#utility.yul\":2563:2581   */\n      tag_260\n      tag_13\n      jump\t// in\n    tag_260:\n        /* \"#utility.yul\":2527:2583   */\n    tag_259:\n        /* \"#utility.yul\":2613:2617   */\n      0x20\n        /* \"#utility.yul\":2605:2611   */\n      dup3\n        /* \"#utility.yul\":2601:2618   */\n      mul\n        /* \"#utility.yul\":2593:2618   */\n      swap1\n      pop\n        /* \"#utility.yul\":2376:2625   */\n      swap2\n      swap1\n      pop\n      jump\t// out\n        /* \"#utility.yul\":2631:2748   */\n    tag_221:\n        /* \"#utility.yul\":2740:2741   */\n      0x00\n        /* \"#utility.yul\":2737:2738   */\n      dup1\n        /* \"#utility.yul\":2730:2742   */\n      revert\n        /* \"#utility.yul\":2772:3415   */\n    tag_222:\n        /* \"#utility.yul\":2866:2871   */\n      0x00\n        /* \"#utility.yul\":2891:2970   */\n      tag_263\n        /* \"#utility.yul\":2907:2969   */\n      tag_264\n        /* \"#utility.yul\":2962:2968   */\n      dup5\n        /* \"#utility.yul\":2907:2969   */\n      tag_220\n      jump\t// in\n    tag_264:\n        /* \"#utility.yul\":2891:2970   */\n      tag_213\n      jump\t// in\n    tag_263:\n        /* \"#utility.yul\":2882:2970   */\n      swap1\n      pop\n        /* \"#utility.yul\":2990:2995   */\n      dup1\n        /* \"#utility.yul\":3043:3047   */\n      0x20\n        /* \"#utility.yul\":3035:3041   */\n      dup5\n        /* \"#utility.yul\":3031:3048   */\n      mul\n        /* \"#utility.yul\":3023:3029   */\n      dup4\n        /* \"#utility.yul\":3019:3049   */\n      add\n        /* \"#utility.yul\":3072:3075   */\n      dup6\n        /* \"#utility.yul\":3064:3070   */\n      dup2\n        /* \"#utility.yul\":3061:3076   */\n      gt\n        /* \"#utility.yul\":3058:3180   */\n      iszero\n      tag_265\n      jumpi\n        /* \"#utility.yul\":3091:3170   */\n      tag_266\n      tag_221\n      jump\t// in\n    tag_266:\n        /* \"#utility.yul\":3058:3180   */\n    tag_265:\n        /* \"#utility.yul\":3206:3212   */\n      dup4\n        /* \"#utility.yul\":3189:3409   */\n    tag_267:\n        /* \"#utility.yul\":3223:3229   */\n      dup2\n        /* \"#utility.yul\":3218:3221   */\n      dup2\n        /* \"#utility.yul\":3215:3230   */\n      lt\n        /* \"#utility.yul\":3189:3409   */\n      iszero\n      tag_269\n      jumpi\n        /* \"#utility.yul\":3298:3301   */\n      dup1\n        /* \"#utility.yul\":3327:3364   */\n      tag_270\n        /* \"#utility.yul\":3360:3363   */\n      dup9\n        /* \"#utility.yul\":3348:3358   */\n      dup3\n        /* \"#utility.yul\":3327:3364   */\n      tag_217\n      jump\t// in\n    tag_270:\n        /* \"#utility.yul\":3322:3325   */\n      dup5\n        /* \"#utility.yul\":3315:3365   */\n      mstore\n        /* \"#utility.yul\":3394:3398   */\n      0x20\n        /* \"#utility.yul\":3389:3392   */\n      dup5\n        /* \"#utility.yul\":3385:3399   */\n      add\n        /* \"#utility.yul\":3378:3399   */\n      swap4\n      pop\n        /* \"#utility.yul\":3265:3409   */\n      pop\n        /* \"#utility.yul\":3249:3253   */\n      0x20\n        /* \"#utility.yul\":3244:3247   */\n      dup2\n        /* \"#utility.yul\":3240:3254   */\n      add\n        /* \"#utility.yul\":3233:3254   */\n      swap1\n      pop\n        /* \"#utility.yul\":3189:3409   */\n      jump(tag_267)\n    tag_269:\n        /* \"#utility.yul\":3193:3214   */\n      pop\n        /* \"#utility.yul\":2872:3415   */\n      pop\n      pop\n        /* \"#utility.yul\":2772:3415   */\n      swap4\n      swap3\n      pop\n      pop\n      pop\n      jump\t// out\n        /* \"#utility.yul\":3439:3778   */\n    tag_223:\n        /* \"#utility.yul\":3508:3513   */\n      0x00\n        /* \"#utility.yul\":3557:3560   */\n      dup3\n        /* \"#utility.yul\":3550:3554   */\n      0x1f\n        /* \"#utility.yul\":3542:3548   */\n      dup4\n        /* \"#utility.yul\":3538:3555   */\n      add\n        /* \"#utility.yul\":3534:3561   */\n      slt\n        /* \"#utility.yul\":3524:3646   */\n      tag_272\n      jumpi\n        /* \"#utility.yul\":3565:3644   */\n      tag_273\n      tag_219\n      jump\t// in\n    tag_273:\n        /* \"#utility.yul\":3524:3646   */\n    tag_272:\n        /* \"#utility.yul\":3669:3673   */\n      0x02\n        /* \"#utility.yul\":3691:3772   */\n      tag_274\n        /* \"#utility.yul\":3768:3771   */\n      dup5\n        /* \"#utility.yul\":3760:3766   */\n      dup3\n        /* \"#utility.yul\":3752:3758   */\n      dup6\n        /* \"#utility.yul\":3691:3772   */\n      tag_222\n      jump\t// in\n    tag_274:\n        /* \"#utility.yul\":3682:3772   */\n      swap2\n      pop\n        /* \"#utility.yul\":3514:3778   */\n      pop\n        /* \"#utility.yul\":3439:3778   */\n      swap3\n      swap2\n      pop\n      pop\n      jump\t// out\n        /* \"#utility.yul\":3814:4426   */\n    tag_224:\n        /* \"#utility.yul\":3886:3891   */\n      0x00\n        /* \"#utility.yul\":3930:3934   */\n      0x80\n        /* \"#utility.yul\":3918:3927   */\n      dup3\n        /* \"#utility.yul\":3913:3916   */\n      dup5\n        /* \"#utility.yul\":3909:3928   */\n      sub\n        /* \"#utility.yul\":3905:3935   */\n      slt\n        /* \"#utility.yul\":3902:4019   */\n      iszero\n      tag_276\n      jumpi\n        /* \"#utility.yul\":3938:4017   */\n      tag_277\n      tag_210\n      jump\t// in\n    tag_277:\n        /* \"#utility.yul\":3902:4019   */\n    tag_276:\n        /* \"#utility.yul\":4037:4058   */\n      tag_278\n        /* \"#utility.yul\":4053:4057   */\n      0x40\n        /* \"#utility.yul\":4037:4058   */\n      tag_213\n      jump\t// in\n    tag_278:\n        /* \"#utility.yul\":4028:4058   */\n      swap1\n      pop\n        /* \"#utility.yul\":4114:4115   */\n      0x00\n        /* \"#utility.yul\":4154:4226   */\n      tag_279\n        /* \"#utility.yul\":4222:4225   */\n      dup5\n        /* \"#utility.yul\":4213:4219   */\n      dup3\n        /* \"#utility.yul\":4202:4211   */\n      dup6\n        /* \"#utility.yul\":4198:4220   */\n      add\n        /* \"#utility.yul\":4154:4226   */\n      tag_223\n      jump\t// in\n    tag_279:\n        /* \"#utility.yul\":4147:4151   */\n      0x00\n        /* \"#utility.yul\":4140:4145   */\n      dup4\n        /* \"#utility.yul\":4136:4152   */\n      add\n        /* \"#utility.yul\":4129:4227   */\n      mstore\n        /* \"#utility.yul\":4068:4238   */\n      pop\n        /* \"#utility.yul\":4294:4296   */\n      0x40\n        /* \"#utility.yul\":4335:4407   */\n      tag_280\n        /* \"#utility.yul\":4403:4406   */\n      dup5\n        /* \"#utility.yul\":4394:4400   */\n      dup3\n        /* \"#utility.yul\":4383:4392   */\n      dup6\n        /* \"#utility.yul\":4379:4401   */\n      add\n        /* \"#utility.yul\":4335:4407   */\n      tag_223\n      jump\t// in\n    tag_280:\n        /* \"#utility.yul\":4328:4332   */\n      0x20\n        /* \"#utility.yul\":4321:4326   */\n      dup4\n        /* \"#utility.yul\":4317:4333   */\n      add\n        /* \"#utility.yul\":4310:4408   */\n      mstore\n        /* \"#utility.yul\":4248:4419   */\n      pop\n        /* \"#utility.yul\":3814:4426   */\n      swap3\n      swap2\n      pop\n      pop\n      jump\t// out\n        /* \"#utility.yul\":4461:5254   */\n    tag_225:\n        /* \"#utility.yul\":4532:4537   */\n      0x00\n        /* \"#utility.yul\":4576:4582   */\n      0x0100\n        /* \"#utility.yul\":4564:4573   */\n      dup3\n        /* \"#utility.yul\":4559:4562   */\n      dup5\n        /* \"#utility.yul\":4555:4574   */\n      sub\n        /* \"#utility.yul\":4551:4583   */\n      slt\n        /* \"#utility.yul\":4548:4667   */\n      iszero\n      tag_282\n      jumpi\n        /* \"#utility.yul\":4586:4665   */\n      tag_283\n      tag_210\n      jump\t// in\n    tag_283:\n        /* \"#utility.yul\":4548:4667   */\n    tag_282:\n        /* \"#utility.yul\":4685:4706   */\n      tag_284\n        /* \"#utility.yul\":4701:4705   */\n      0x60\n        /* \"#utility.yul\":4685:4706   */\n      tag_213\n      jump\t// in\n    tag_284:\n        /* \"#utility.yul\":4676:4706   */\n      swap1\n      pop\n        /* \"#utility.yul\":4762:4763   */\n      0x00\n        /* \"#utility.yul\":4802:4873   */\n      tag_285\n        /* \"#utility.yul\":4869:4872   */\n      dup5\n        /* \"#utility.yul\":4860:4866   */\n      dup3\n        /* \"#utility.yul\":4849:4858   */\n      dup6\n        /* \"#utility.yul\":4845:4867   */\n      add\n        /* \"#utility.yul\":4802:4873   */\n      tag_218\n      jump\t// in\n    tag_285:\n        /* \"#utility.yul\":4795:4799   */\n      0x00\n        /* \"#utility.yul\":4788:4793   */\n      dup4\n        /* \"#utility.yul\":4784:4800   */\n      add\n        /* \"#utility.yul\":4777:4874   */\n      mstore\n        /* \"#utility.yul\":4716:4885   */\n      pop\n        /* \"#utility.yul\":4941:4943   */\n      0x40\n        /* \"#utility.yul\":4982:5054   */\n      tag_286\n        /* \"#utility.yul\":5050:5053   */\n      dup5\n        /* \"#utility.yul\":5041:5047   */\n      dup3\n        /* \"#utility.yul\":5030:5039   */\n      dup6\n        /* \"#utility.yul\":5026:5048   */\n      add\n        /* \"#utility.yul\":4982:5054   */\n      tag_224\n      jump\t// in\n    tag_286:\n        /* \"#utility.yul\":4975:4979   */\n      0x20\n        /* \"#utility.yul\":4968:4973   */\n      dup4\n        /* \"#utility.yul\":4964:4980   */\n      add\n        /* \"#utility.yul\":4957:5055   */\n      mstore\n        /* \"#utility.yul\":4895:5066   */\n      pop\n        /* \"#utility.yul\":5122:5125   */\n      0xc0\n        /* \"#utility.yul\":5164:5235   */\n      tag_287\n        /* \"#utility.yul\":5231:5234   */\n      dup5\n        /* \"#utility.yul\":5222:5228   */\n      dup3\n        /* \"#utility.yul\":5211:5220   */\n      dup6\n        /* \"#utility.yul\":5207:5229   */\n      add\n        /* \"#utility.yul\":5164:5235   */\n      tag_218\n      jump\t// in\n    tag_287:\n        /* \"#utility.yul\":5157:5161   */\n      0x40\n        /* \"#utility.yul\":5150:5155   */\n      dup4\n        /* \"#utility.yul\":5146:5162   */\n      add\n        /* \"#utility.yul\":5139:5236   */\n      mstore\n        /* \"#utility.yul\":5076:5247   */\n      pop\n        /* \"#utility.yul\":4461:5254   */\n      swap3\n      swap2\n      pop\n      pop\n      jump\t// out\n        /* \"#utility.yul\":5260:5826   */\n    tag_6:\n        /* \"#utility.yul\":5373:5379   */\n      0x00\n        /* \"#utility.yul\":5381:5387   */\n      dup1\n        /* \"#utility.yul\":5430:5433   */\n      0x0140\n        /* \"#utility.yul\":5418:5427   */\n      dup4\n        /* \"#utility.yul\":5409:5416   */\n      dup6\n        /* \"#utility.yul\":5405:5428   */\n      sub\n        /* \"#utility.yul\":5401:5434   */\n      slt\n        /* \"#utility.yul\":5398:5518   */\n      iszero\n      tag_289\n      jumpi\n        /* \"#utility.yul\":5437:5516   */\n      tag_290\n      tag_208\n      jump\t// in\n    tag_290:\n        /* \"#utility.yul\":5398:5518   */\n    tag_289:\n        /* \"#utility.yul\":5557:5558   */\n      0x00\n        /* \"#utility.yul\":5582:5657   */\n      tag_291\n        /* \"#utility.yul\":5649:5656   */\n      dup6\n        /* \"#utility.yul\":5640:5646   */\n      dup3\n        /* \"#utility.yul\":5629:5638   */\n      dup7\n        /* \"#utility.yul\":5625:5647   */\n      add\n        /* \"#utility.yul\":5582:5657   */\n      tag_225\n      jump\t// in\n    tag_291:\n        /* \"#utility.yul\":5572:5657   */\n      swap3\n      pop\n        /* \"#utility.yul\":5528:5667   */\n      pop\n        /* \"#utility.yul\":5706:5709   */\n      0x0100\n        /* \"#utility.yul\":5733:5809   */\n      tag_292\n        /* \"#utility.yul\":5801:5808   */\n      dup6\n        /* \"#utility.yul\":5792:5798   */\n      dup3\n        /* \"#utility.yul\":5781:5790   */\n      dup7\n        /* \"#utility.yul\":5777:5799   */\n      add\n        /* \"#utility.yul\":5733:5809   */\n      tag_223\n      jump\t// in\n    tag_292:\n        /* \"#utility.yul\":5723:5809   */\n      swap2\n      pop\n        /* \"#utility.yul\":5677:5819   */\n      pop\n        /* \"#utility.yul\":5260:5826   */\n      swap3\n      pop\n      swap3\n      swap1\n      pop\n      jump\t// out\n        /* \"#utility.yul\":5832:5922   */\n    tag_226:\n        /* \"#utility.yul\":5866:5873   */\n      0x00\n        /* \"#utility.yul\":5909:5914   */\n      dup2\n        /* \"#utility.yul\":5902:5915   */\n      iszero\n        /* \"#utility.yul\":5895:5916   */\n      iszero\n        /* \"#utility.yul\":5884:5916   */\n      swap1\n      pop\n        /* \"#utility.yul\":5832:5922   */\n      swap2\n      swap1\n      pop\n      jump\t// out\n        /* \"#utility.yul\":5928:6037   */\n    tag_227:\n        /* \"#utility.yul\":6009:6030   */\n      tag_295\n        /* \"#utility.yul\":6024:6029   */\n      dup2\n        /* \"#utility.yul\":6009:6030   */\n      tag_226\n      jump\t// in\n    tag_295:\n        /* \"#utility.yul\":6004:6007   */\n      dup3\n        /* \"#utility.yul\":5997:6031   */\n      mstore\n        /* \"#utility.yul\":5928:6037   */\n      pop\n      pop\n      jump\t// out\n        /* \"#utility.yul\":6043:6253   */\n    tag_9:\n        /* \"#utility.yul\":6130:6134   */\n      0x00\n        /* \"#utility.yul\":6168:6170   */\n      0x20\n        /* \"#utility.yul\":6157:6166   */\n      dup3\n        /* \"#utility.yul\":6153:6171   */\n      add\n        /* \"#utility.yul\":6145:6171   */\n      swap1\n      pop\n        /* \"#utility.yul\":6181:6246   */\n      tag_297\n        /* \"#utility.yul\":6243:6244   */\n      0x00\n        /* \"#utility.yul\":6232:6241   */\n      dup4\n        /* \"#utility.yul\":6228:6245   */\n      add\n        /* \"#utility.yul\":6219:6225   */\n      dup5\n        /* \"#utility.yul\":6181:6246   */\n      tag_227\n      jump\t// in\n    tag_297:\n        /* \"#utility.yul\":6043:6253   */\n      swap3\n      swap2\n      pop\n      pop\n      jump\t// out\n        /* \"#utility.yul\":6259:6439   */\n    tag_20:\n        /* \"#utility.yul\":6307:6384   */\n      0x4e487b7100000000000000000000000000000000000000000000000000000000\n        /* \"#utility.yul\":6304:6305   */\n      0x00\n        /* \"#utility.yul\":6297:6385   */\n      mstore\n        /* \"#utility.yul\":6404:6408   */\n      0x32\n        /* \"#utility.yul\":6401:6402   */\n      0x04\n        /* \"#utility.yul\":6394:6409   */\n      mstore\n        /* \"#utility.yul\":6428:6432   */\n      0x24\n        /* \"#utility.yul\":6425:6426   */\n      0x00\n        /* \"#utility.yul\":6418:6433   */\n      revert\n        /* \"#utility.yul\":6445:6625   */\n    tag_228:\n        /* \"#utility.yul\":6493:6570   */\n      0x4e487b7100000000000000000000000000000000000000000000000000000000\n        /* \"#utility.yul\":6490:6491   */\n      0x00\n        /* \"#utility.yul\":6483:6571   */\n      mstore\n        /* \"#utility.yul\":6590:6594   */\n      0x11\n        /* \"#utility.yul\":6587:6588   */\n      0x04\n        /* \"#utility.yul\":6580:6595   */\n      mstore\n        /* \"#utility.yul\":6614:6618   */\n      0x24\n        /* \"#utility.yul\":6611:6612   */\n      0x00\n        /* \"#utility.yul\":6604:6619   */\n      revert\n        /* \"#utility.yul\":6631:6822   */\n    tag_31:\n        /* \"#utility.yul\":6671:6674   */\n      0x00\n        /* \"#utility.yul\":6690:6710   */\n      tag_301\n        /* \"#utility.yul\":6708:6709   */\n      dup3\n        /* \"#utility.yul\":6690:6710   */\n      tag_215\n      jump\t// in\n    tag_301:\n        /* \"#utility.yul\":6685:6710   */\n      swap2\n      pop\n        /* \"#utility.yul\":6724:6744   */\n      tag_302\n        /* \"#utility.yul\":6742:6743   */\n      dup4\n        /* \"#utility.yul\":6724:6744   */\n      tag_215\n      jump\t// in\n    tag_302:\n        /* \"#utility.yul\":6719:6744   */\n      swap3\n      pop\n        /* \"#utility.yul\":6767:6768   */\n      dup3\n        /* \"#utility.yul\":6764:6765   */\n      dup3\n        /* \"#utility.yul\":6760:6769   */\n      add\n        /* \"#utility.yul\":6753:6769   */\n      swap1\n      pop\n        /* \"#utility.yul\":6788:6791   */\n      dup1\n        /* \"#utility.yul\":6785:6786   */\n      dup3\n        /* \"#utility.yul\":6782:6792   */\n      gt\n        /* \"#utility.yul\":6779:6815   */\n      iszero\n      tag_303\n      jumpi\n        /* \"#utility.yul\":6795:6813   */\n      tag_304\n      tag_228\n      jump\t// in\n    tag_304:\n        /* \"#utility.yul\":6779:6815   */\n    tag_303:\n        /* \"#utility.yul\":6631:6822   */\n      swap3\n      swap2\n      pop\n      pop\n      jump\t// out\n        /* \"#utility.yul\":6828:7008   */\n    tag_229:\n        /* \"#utility.yul\":6876:6953   */\n      0x4e487b7100000000000000000000000000000000000000000000000000000000\n        /* \"#utility.yul\":6873:6874   */\n      0x00\n        /* \"#utility.yul\":6866:6954   */\n      mstore\n        /* \"#utility.yul\":6973:6977   */\n      0x12\n        /* \"#utility.yul\":6970:6971   */\n      0x04\n        /* \"#utility.yul\":6963:6978   */\n      mstore\n        /* \"#utility.yul\":6997:7001   */\n      0x24\n        /* \"#utility.yul\":6994:6995   */\n      0x00\n        /* \"#utility.yul\":6987:7002   */\n      revert\n        /* \"#utility.yul\":7014:7190   */\n    tag_106:\n        /* \"#utility.yul\":7046:7047   */\n      0x00\n        /* \"#utility.yul\":7063:7083   */\n      tag_307\n        /* \"#utility.yul\":7081:7082   */\n      dup3\n        /* \"#utility.yul\":7063:7083   */\n      tag_215\n      jump\t// in\n    tag_307:\n        /* \"#utility.yul\":7058:7083   */\n      swap2\n      pop\n        /* \"#utility.yul\":7097:7117   */\n      tag_308\n        /* \"#utility.yul\":7115:7116   */\n      dup4\n        /* \"#utility.yul\":7097:7117   */\n      tag_215\n      jump\t// in\n    tag_308:\n        /* \"#utility.yul\":7092:7117   */\n      swap3\n      pop\n        /* \"#utility.yul\":7136:7137   */\n      dup3\n        /* \"#utility.yul\":7126:7161   */\n      tag_309\n      jumpi\n        /* \"#utility.yul\":7141:7159   */\n      tag_310\n      tag_229\n      jump\t// in\n    tag_310:\n        /* \"#utility.yul\":7126:7161   */\n    tag_309:\n        /* \"#utility.yul\":7182:7183   */\n      dup3\n        /* \"#utility.yul\":7179:7180   */\n      dup3\n        /* \"#utility.yul\":7175:7184   */\n      mod\n        /* \"#utility.yul\":7170:7184   */\n      swap1\n      pop\n        /* \"#utility.yul\":7014:7190   */\n      swap3\n      swap2\n      pop\n      pop\n      jump\t// out\n        /* \"#utility.yul\":7196:7390   */\n    tag_108:\n        /* \"#utility.yul\":7236:7240   */\n      0x00\n        /* \"#utility.yul\":7256:7276   */\n      tag_312\n        /* \"#utility.yul\":7274:7275   */\n      dup3\n        /* \"#utility.yul\":7256:7276   */\n      tag_215\n      jump\t// in\n    tag_312:\n        /* \"#utility.yul\":7251:7276   */\n      swap2\n      pop\n        /* \"#utility.yul\":7290:7310   */\n      tag_313\n        /* \"#utility.yul\":7308:7309   */\n      dup4\n        /* \"#utility.yul\":7290:7310   */\n      tag_215\n      jump\t// in\n    tag_313:\n        /* \"#utility.yul\":7285:7310   */\n      swap3\n      pop\n        /* \"#utility.yul\":7334:7335   */\n      dup3\n        /* \"#utility.yul\":7331:7332   */\n      dup3\n        /* \"#utility.yul\":7327:7336   */\n      sub\n        /* \"#utility.yul\":7319:7336   */\n      swap1\n      pop\n        /* \"#utility.yul\":7358:7359   */\n      dup2\n        /* \"#utility.yul\":7352:7356   */\n      dup2\n        /* \"#utility.yul\":7349:7360   */\n      gt\n        /* \"#utility.yul\":7346:7383   */\n      iszero\n      tag_314\n      jumpi\n        /* \"#utility.yul\":7363:7381   */\n      tag_315\n      tag_228\n      jump\t// in\n    tag_315:\n        /* \"#utility.yul\":7346:7383   */\n    tag_314:\n        /* \"#utility.yul\":7196:7390   */\n      swap3\n      swap2\n      pop\n      pop\n      jump\t// out\n        /* \"#utility.yul\":7396:7806   */\n    tag_142:\n        /* \"#utility.yul\":7436:7443   */\n      0x00\n        /* \"#utility.yul\":7459:7479   */\n      tag_317\n        /* \"#utility.yul\":7477:7478   */\n      dup3\n        /* \"#utility.yul\":7459:7479   */\n      tag_215\n      jump\t// in\n    tag_317:\n        /* \"#utility.yul\":7454:7479   */\n      swap2\n      pop\n        /* \"#utility.yul\":7493:7513   */\n      tag_318\n        /* \"#utility.yul\":7511:7512   */\n      dup4\n        /* \"#utility.yul\":7493:7513   */\n      tag_215\n      jump\t// in\n    tag_318:\n        /* \"#utility.yul\":7488:7513   */\n      swap3\n      pop\n        /* \"#utility.yul\":7548:7549   */\n      dup3\n        /* \"#utility.yul\":7545:7546   */\n      dup3\n        /* \"#utility.yul\":7541:7550   */\n      mul\n        /* \"#utility.yul\":7570:7600   */\n      tag_319\n        /* \"#utility.yul\":7588:7599   */\n      dup2\n        /* \"#utility.yul\":7570:7600   */\n      tag_215\n      jump\t// in\n    tag_319:\n        /* \"#utility.yul\":7559:7600   */\n      swap2\n      pop\n        /* \"#utility.yul\":7749:7750   */\n      dup3\n        /* \"#utility.yul\":7740:7747   */\n      dup3\n        /* \"#utility.yul\":7736:7751   */\n      div\n        /* \"#utility.yul\":7733:7734   */\n      dup5\n        /* \"#utility.yul\":7730:7752   */\n      eq\n        /* \"#utility.yul\":7710:7711   */\n      dup4\n        /* \"#utility.yul\":7703:7712   */\n      iszero\n        /* \"#utility.yul\":7683:7766   */\n      or\n        /* \"#utility.yul\":7660:7799   */\n      tag_320\n      jumpi\n        /* \"#utility.yul\":7779:7797   */\n      tag_321\n      tag_228\n      jump\t// in\n    tag_321:\n        /* \"#utility.yul\":7660:7799   */\n    tag_320:\n        /* \"#utility.yul\":7444:7806   */\n      pop\n        /* \"#utility.yul\":7396:7806   */\n      swap3\n      swap2\n      pop\n      pop\n      jump\t// out\n\n    auxdata: 0xa264697066735822122083783c3094fdbc3c22517a08a062e0fcce4e3fc53f16150758618b4afd88149764736f6c634300081a0033\n}\n",
				"bytecode": {
					"linkReferences": {},
					"object": "6080604052348015600e575f80fd5b506113b58061001c5f395ff3fe608060405234801561000f575f80fd5b5060043610610029575f3560e01c806343cd76fc1461002d575b5f80fd5b610047600480360381019061004291906111ae565b61005d565b6040516100549190611208565b60405180910390f35b5f80600267ffffffffffffffff81111561007a57610079610f51565b5b6040519080825280602002602001820160405280156100a85781602001602082028036833780820191505090505b5090505f5b60028110156100fa578381600281106100c9576100c8611221565b5b60200201518282815181106100e1576100e0611221565b5b60200260200101818152505080806001019150506100ad565b505f6101068286610120565b0361011557600191505061011a565b5f9150505b92915050565b5f807f30644e72e131a029b85045b68181585d2833e84879b9709143e1f593f000000190505f61014e6102a5565b905080608001515160018651610164919061127b565b1461016d575f80fd5b5f60405180604001604052805f81526020015f81525090505f5b865181101561021b57838782815181106101a4576101a3611221565b5b6020026020010151106101b5575f80fd5b61020c8261020785608001516001856101ce919061127b565b815181106101df576101de611221565b5b60200260200101518a85815181106101fa576101f9611221565b5b602002602001015161071e565b6107bb565b91508080600101915050610187565b506102448183608001515f8151811061023757610236611221565b5b60200260200101516107bb565b9050610288855f0151866020015161025b8461087d565b856040015161026d8a6040015161087d565b876060015161027e895f015161087d565b896020015161091b565b610298576001935050505061029f565b5f93505050505b92915050565b6102ad610e23565b60405180604001604052807f2e23cf962a714c88fe2697b8bd53a81522dc936be85fab3b99ad5a884e78ce2781526020017f1efa1467d8858e888e76f3eb614ca106474c1c50380f05935323e9f72d9e5e1b815250815f0181905250604051806040016040528060405180604001604052807e5c7f883a61502494e40015f58e17c48094500b04e7941ce9f68ea8c790697881526020017f2d98a4bb8910fc573f810f01786ce6b224e9ccb97d667072d2cb59629a214969815250815260200160405180604001604052807f1951de5a57308a0b71fefe663facf6be79322dd32ce61b64ec1d8b7f120818e881526020017f1a008832fcc3f5451c789ff1639628044b504cfadc63ec3fa854f586b56d3e4b8152508152508160200181905250604051806040016040528060405180604001604052807f1361d9d731eeec91751cc369b697b108ced3b1077df9bb182aa0974a0b6ef0f981526020017f07f1c5fdfad661a57c0e641b54545593cf8ba4e8683a6f7e81fe4cd72190077e815250815260200160405180604001604052807f0db46703dfacf9e83f55ade015689594c8e2275827e7a8a5f157870bbbb04b4a81526020017f0b708fa395fa8d90123fa172aa911630a463d17559fb957fa90823bb775e33a88152508152508160400181905250604051806040016040528060405180604001604052807f25af7d14214b3c9dc94bbee803715806e2e50dc56df3a93dba84089e5159725381526020017f18e7219decbf0690912c454e1a493d3b69fe9c8e39409c65e7856762b72d6304815250815260200160405180604001604052807f0bac8a5e3fd8bde6f8d11900bd7163c2f7094903831015212b758932e6298ba081526020017f247f70c8a46acb0be4d1db37027821e7a698028734ba710409ed73375d8c9be48152508152508160600181905250600367ffffffffffffffff81111561057257610571610f51565b5b6040519080825280602002602001820160405280156105ab57816020015b610598610e6a565b8152602001906001900390816105905790505b50816080018190525060405180604001604052807f197e5a889ab9337d5d3d61771e19b89dfc1d021d835341190b89b9a94e32b85381526020017f1e031975124b84cb5ab3ebb1d64711886f3bd9e0763e7527544bf003892daf9d81525081608001515f815181106106205761061f611221565b5b602002602001018190525060405180604001604052807f21f785c8d4e5e8e9aaf4c4a928705818da42e3e57b686821d0ac0315e5eaf6aa81526020017f2958d19bb5dc2adcc82645a45c29a5bd8561d22b04688f0f782a0d46b3e9dcfa815250816080015160018151811061069857610697611221565b5b602002602001018190525060405180604001604052807f1d2ae606edcc168034c5cfaaf2d1620dca2ffee5c2a05eb5df35936bc3af650b81526020017f201603903fec7acc62ec945cb29440220bcd80b6a7c6e094d00a27bc595f3e9181525081608001516002815181106107105761070f611221565b5b602002602001018190525090565b610726610e6a565b61072e610e82565b835f0151815f6003811061074557610744611221565b5b60200201818152505083602001518160016003811061076757610766611221565b5b602002018181525050828160026003811061078557610784611221565b5b6020020181815250505f60608360808460076107d05a03fa9050805f81036107a957fe5b50806107b3575f80fd5b505092915050565b6107c3610e6a565b6107cb610ea4565b835f0151815f600481106107e2576107e1611221565b5b60200201818152505083602001518160016004811061080457610803611221565b5b602002018181525050825f01518160026004811061082557610824611221565b5b60200201818152505082602001518160036004811061084757610846611221565b5b6020020181815250505f60608360c08460066107d05a03fa9050805f810361086b57fe5b5080610875575f80fd5b505092915050565b610885610e6a565b5f7f30644e72e131a029b85045b68181585d97816a916871ca8d3c208c16d87cfd4790505f835f01511480156108be57505f8360200151145b156108e05760405180604001604052805f81526020015f815250915050610916565b6040518060400160405280845f0151815260200182856020015161090491906112db565b8361090f919061130b565b8152509150505b919050565b5f80600467ffffffffffffffff81111561093857610937610f51565b5b60405190808252806020026020018201604052801561097157816020015b61095e610e6a565b8152602001906001900390816109565790505b5090505f600467ffffffffffffffff8111156109905761098f610f51565b5b6040519080825280602002602001820160405280156109c957816020015b6109b6610ec6565b8152602001906001900390816109ae5790505b5090508a825f815181106109e0576109df611221565b5b60200260200101819052508882600181518110610a00576109ff611221565b5b60200260200101819052508682600281518110610a2057610a1f611221565b5b60200260200101819052508482600381518110610a4057610a3f611221565b5b602002602001018190525089815f81518110610a5f57610a5e611221565b5b60200260200101819052508781600181518110610a7f57610a7e611221565b5b60200260200101819052508581600281518110610a9f57610a9e611221565b5b60200260200101819052508381600381518110610abf57610abe611221565b5b6020026020010181905250610ad48282610ae4565b9250505098975050505050505050565b5f8151835114610af2575f80fd5b5f835190505f600682610b05919061133e565b90505f8167ffffffffffffffff811115610b2257610b21610f51565b5b604051908082528060200260200182016040528015610b505781602001602082028036833780820191505090505b5090505f5b83811015610dc857868181518110610b7057610b6f611221565b5b60200260200101515f0151825f600684610b8a919061133e565b610b94919061127b565b81518110610ba557610ba4611221565b5b602002602001018181525050868181518110610bc457610bc3611221565b5b602002602001015160200151826001600684610be0919061133e565b610bea919061127b565b81518110610bfb57610bfa611221565b5b602002602001018181525050858181518110610c1a57610c19611221565b5b60200260200101515f0151600160028110610c3857610c37611221565b5b6020020151826002600684610c4d919061133e565b610c57919061127b565b81518110610c6857610c67611221565b5b602002602001018181525050858181518110610c8757610c86611221565b5b60200260200101515f01515f60028110610ca457610ca3611221565b5b6020020151826003600684610cb9919061133e565b610cc3919061127b565b81518110610cd457610cd3611221565b5b602002602001018181525050858181518110610cf357610cf2611221565b5b602002602001015160200151600160028110610d1257610d11611221565b5b6020020151826004600684610d27919061133e565b610d31919061127b565b81518110610d4257610d41611221565b5b602002602001018181525050858181518110610d6157610d60611221565b5b6020026020010151602001515f60028110610d7f57610d7e611221565b5b6020020151826005600684610d94919061133e565b610d9e919061127b565b81518110610daf57610dae611221565b5b6020026020010181815250508080600101915050610b55565b50610dd1610eec565b5f602082602086026020860160086107d05a03fa9050805f8103610df157fe5b5080610dfb575f80fd5b5f825f60018110610e0f57610e0e611221565b5b602002015114159550505050505092915050565b6040518060a00160405280610e36610e6a565b8152602001610e43610ec6565b8152602001610e50610ec6565b8152602001610e5d610ec6565b8152602001606081525090565b60405180604001604052805f81526020015f81525090565b6040518060600160405280600390602082028036833780820191505090505090565b6040518060800160405280600490602082028036833780820191505090505090565b6040518060400160405280610ed9610f0e565b8152602001610ee6610f0e565b81525090565b6040518060200160405280600190602082028036833780820191505090505090565b6040518060400160405280600290602082028036833780820191505090505090565b5f604051905090565b5f80fd5b5f80fd5b5f601f19601f8301169050919050565b7f4e487b71000000000000000000000000000000000000000000000000000000005f52604160045260245ffd5b610f8782610f41565b810181811067ffffffffffffffff82111715610fa657610fa5610f51565b5b80604052505050565b5f610fb8610f30565b9050610fc48282610f7e565b919050565b5f819050919050565b610fdb81610fc9565b8114610fe5575f80fd5b50565b5f81359050610ff681610fd2565b92915050565b5f6040828403121561101157611010610f3d565b5b61101b6040610faf565b90505f61102a84828501610fe8565b5f83015250602061103d84828501610fe8565b60208301525092915050565b5f80fd5b5f67ffffffffffffffff82111561106757611066610f51565b5b602082029050919050565b5f80fd5b5f6110886110838461104d565b610faf565b905080602084028301858111156110a2576110a1611072565b5b835b818110156110cb57806110b78882610fe8565b8452602084019350506020810190506110a4565b5050509392505050565b5f82601f8301126110e9576110e8611049565b5b60026110f6848285611076565b91505092915050565b5f6080828403121561111457611113610f3d565b5b61111e6040610faf565b90505f61112d848285016110d5565b5f830152506040611140848285016110d5565b60208301525092915050565b5f610100828403121561116257611161610f3d565b5b61116c6060610faf565b90505f61117b84828501610ffc565b5f83015250604061118e848285016110ff565b60208301525060c06111a284828501610ffc565b60408301525092915050565b5f8061014083850312156111c5576111c4610f39565b5b5f6111d28582860161114c565b9250506101006111e4858286016110d5565b9150509250929050565b5f8115159050919050565b611202816111ee565b82525050565b5f60208201905061121b5f8301846111f9565b92915050565b7f4e487b71000000000000000000000000000000000000000000000000000000005f52603260045260245ffd5b7f4e487b71000000000000000000000000000000000000000000000000000000005f52601160045260245ffd5b5f61128582610fc9565b915061129083610fc9565b92508282019050808211156112a8576112a761124e565b5b92915050565b7f4e487b71000000000000000000000000000000000000000000000000000000005f52601260045260245ffd5b5f6112e582610fc9565b91506112f083610fc9565b925082611300576112ff6112ae565b5b828206905092915050565b5f61131582610fc9565b915061132083610fc9565b92508282039050818111156113385761133761124e565b5b92915050565b5f61134882610fc9565b915061135383610fc9565b925082820261136181610fc9565b915082820484148315176113785761137761124e565b5b509291505056fea264697066735822122083783c3094fdbc3c22517a08a062e0fcce4e3fc53f16150758618b4afd88149764736f6c634300081a0033",
					"opcodes": "PUSH1 0x80 PUSH1 0x40 MSTORE CALLVALUE DUP1 ISZERO PUSH1 0xE JUMPI PUSH0 DUP1 REVERT JUMPDEST POP PUSH2 0x13B5 DUP1 PUSH2 0x1C PUSH0 CODECOPY PUSH0 RETURN INVALID PUSH1 0x80 PUSH1 0x40 MSTORE CALLVALUE DUP1 ISZERO PUSH2 0xF JUMPI PUSH0 DUP1 REVERT JUMPDEST POP PUSH1 0x4 CALLDATASIZE LT PUSH2 0x29 JUMPI PUSH0 CALLDATALOAD PUSH1 0xE0 SHR DUP1 PUSH4 0x43CD76FC EQ PUSH2 0x2D JUMPI JUMPDEST PUSH0 DUP1 REVERT JUMPDEST PUSH2 0x47 PUSH1 0x4 DUP1 CALLDATASIZE SUB DUP2 ADD SWAP1 PUSH2 0x42 SWAP2 SWAP1 PUSH2 0x11AE JUMP JUMPDEST PUSH2 0x5D JUMP JUMPDEST PUSH1 0x40 MLOAD PUSH2 0x54 SWAP2 SWAP1 PUSH2 0x1208 JUMP JUMPDEST PUSH1 0x40 MLOAD DUP1 SWAP2 SUB SWAP1 RETURN JUMPDEST PUSH0 DUP1 PUSH1 0x2 PUSH8 0xFFFFFFFFFFFFFFFF DUP2 GT ISZERO PUSH2 0x7A JUMPI PUSH2 0x79 PUSH2 0xF51 JUMP JUMPDEST JUMPDEST PUSH1 0x40 MLOAD SWAP1 DUP1 DUP3 MSTORE DUP1 PUSH1 0x20 MUL PUSH1 0x20 ADD DUP3 ADD PUSH1 0x40 MSTORE DUP1 ISZERO PUSH2 0xA8 JUMPI DUP2 PUSH1 0x20 ADD PUSH1 0x20 DUP3 MUL DUP1 CALLDATASIZE DUP4 CALLDATACOPY DUP1 DUP3 ADD SWAP2 POP POP SWAP1 POP JUMPDEST POP SWAP1 POP PUSH0 JUMPDEST PUSH1 0x2 DUP2 LT ISZERO PUSH2 0xFA JUMPI DUP4 DUP2 PUSH1 0x2 DUP2 LT PUSH2 0xC9 JUMPI PUSH2 0xC8 PUSH2 0x1221 JUMP JUMPDEST JUMPDEST PUSH1 0x20 MUL ADD MLOAD DUP3 DUP3 DUP2 MLOAD DUP2 LT PUSH2 0xE1 JUMPI PUSH2 0xE0 PUSH2 0x1221 JUMP JUMPDEST JUMPDEST PUSH1 0x20 MUL PUSH1 0x20 ADD ADD DUP2 DUP2 MSTORE POP POP DUP1 DUP1 PUSH1 0x1 ADD SWAP2 POP POP PUSH2 0xAD JUMP JUMPDEST POP PUSH0 PUSH2 0x106 DUP3 DUP7 PUSH2 0x120 JUMP JUMPDEST SUB PUSH2 0x115 JUMPI PUSH1 0x1 SWAP2 POP POP PUSH2 0x11A JUMP JUMPDEST PUSH0 SWAP2 POP POP JUMPDEST SWAP3 SWAP2 POP POP JUMP JUMPDEST PUSH0 DUP1 PUSH32 0x30644E72E131A029B85045B68181585D2833E84879B9709143E1F593F0000001 SWAP1 POP PUSH0 PUSH2 0x14E PUSH2 0x2A5 JUMP JUMPDEST SWAP1 POP DUP1 PUSH1 0x80 ADD MLOAD MLOAD PUSH1 0x1 DUP7 MLOAD PUSH2 0x164 SWAP2 SWAP1 PUSH2 0x127B JUMP JUMPDEST EQ PUSH2 0x16D JUMPI PUSH0 DUP1 REVERT JUMPDEST PUSH0 PUSH1 0x40 MLOAD DUP1 PUSH1 0x40 ADD PUSH1 0x40 MSTORE DUP1 PUSH0 DUP2 MSTORE PUSH1 0x20 ADD PUSH0 DUP2 MSTORE POP SWAP1 POP PUSH0 JUMPDEST DUP7 MLOAD DUP2 LT ISZERO PUSH2 0x21B JUMPI DUP4 DUP8 DUP3 DUP2 MLOAD DUP2 LT PUSH2 0x1A4 JUMPI PUSH2 0x1A3 PUSH2 0x1221 JUMP JUMPDEST JUMPDEST PUSH1 0x20 MUL PUSH1 0x20 ADD ADD MLOAD LT PUSH2 0x1B5 JUMPI PUSH0 DUP1 REVERT JUMPDEST PUSH2 0x20C DUP3 PUSH2 0x207 DUP6 PUSH1 0x80 ADD MLOAD PUSH1 0x1 DUP6 PUSH2 0x1CE SWAP2 SWAP1 PUSH2 0x127B JUMP JUMPDEST DUP2 MLOAD DUP2 LT PUSH2 0x1DF JUMPI PUSH2 0x1DE PUSH2 0x1221 JUMP JUMPDEST JUMPDEST PUSH1 0x20 MUL PUSH1 0x20 ADD ADD MLOAD DUP11 DUP6 DUP2 MLOAD DUP2 LT PUSH2 0x1FA JUMPI PUSH2 0x1F9 PUSH2 0x1221 JUMP JUMPDEST JUMPDEST PUSH1 0x20 MUL PUSH1 0x20 ADD ADD MLOAD PUSH2 0x71E JUMP JUMPDEST PUSH2 0x7BB JUMP JUMPDEST SWAP2 POP DUP1 DUP1 PUSH1 0x1 ADD SWAP2 POP POP PUSH2 0x187 JUMP JUMPDEST POP PUSH2 0x244 DUP2 DUP4 PUSH1 0x80 ADD MLOAD PUSH0 DUP2 MLOAD DUP2 LT PUSH2 0x237 JUMPI PUSH2 0x236 PUSH2 0x1221 JUMP JUMPDEST JUMPDEST PUSH1 0x20 MUL PUSH1 0x20 ADD ADD MLOAD PUSH2 0x7BB JUMP JUMPDEST SWAP1 POP PUSH2 0x288 DUP6 PUSH0 ADD MLOAD DUP7 PUSH1 0x20 ADD MLOAD PUSH2 0x25B DUP5 PUSH2 0x87D JUMP JUMPDEST DUP6 PUSH1 0x40 ADD MLOAD PUSH2 0x26D DUP11 PUSH1 0x40 ADD MLOAD PUSH2 0x87D JUMP JUMPDEST DUP8 PUSH1 0x60 ADD MLOAD PUSH2 0x27E DUP10 PUSH0 ADD MLOAD PUSH2 0x87D JUMP JUMPDEST DUP10 PUSH1 0x20 ADD MLOAD PUSH2 0x91B JUMP JUMPDEST PUSH2 0x298 JUMPI PUSH1 0x1 SWAP4 POP POP POP POP PUSH2 0x29F JUMP JUMPDEST PUSH0 SWAP4 POP POP POP POP JUMPDEST SWAP3 SWAP2 POP POP JUMP JUMPDEST PUSH2 0x2AD PUSH2 0xE23 JUMP JUMPDEST PUSH1 0x40 MLOAD DUP1 PUSH1 0x40 ADD PUSH1 0x40 MSTORE DUP1 PUSH32 0x2E23CF962A714C88FE2697B8BD53A81522DC936BE85FAB3B99AD5A884E78CE27 DUP2 MSTORE PUSH1 0x20 ADD PUSH32 0x1EFA1467D8858E888E76F3EB614CA106474C1C50380F05935323E9F72D9E5E1B DUP2 MSTORE POP DUP2 PUSH0 ADD DUP2 SWAP1 MSTORE POP PUSH1 0x40 MLOAD DUP1 PUSH1 0x40 ADD PUSH1 0x40 MSTORE DUP1 PUSH1 0x40 MLOAD DUP1 PUSH1 0x40 ADD PUSH1 0x40 MSTORE DUP1 PUSH31 0x5C7F883A61502494E40015F58E17C48094500B04E7941CE9F68EA8C7906978 DUP2 MSTORE PUSH1 0x20 ADD PUSH32 0x2D98A4BB8910FC573F810F01786CE6B224E9CCB97D667072D2CB59629A214969 DUP2 MSTORE POP DUP2 MSTORE PUSH1 0x20 ADD PUSH1 0x40 MLOAD DUP1 PUSH1 0x40 ADD PUSH1 0x40 MSTORE DUP1 PUSH32 0x1951DE5A57308A0B71FEFE663FACF6BE79322DD32CE61B64EC1D8B7F120818E8 DUP2 MSTORE PUSH1 0x20 ADD PUSH32 0x1A008832FCC3F5451C789FF1639628044B504CFADC63EC3FA854F586B56D3E4B DUP2 MSTORE POP DUP2 MSTORE POP DUP2 PUSH1 0x20 ADD DUP2 SWAP1 MSTORE POP PUSH1 0x40 MLOAD DUP1 PUSH1 0x40 ADD PUSH1 0x40 MSTORE DUP1 PUSH1 0x40 MLOAD DUP1 PUSH1 0x40 ADD PUSH1 0x40 MSTORE DUP1 PUSH32 0x1361D9D731EEEC91751CC369B697B108CED3B1077DF9BB182AA0974A0B6EF0F9 DUP2 MSTORE PUSH1 0x20 ADD PUSH32 0x7F1C5FDFAD661A57C0E641B54545593CF8BA4E8683A6F7E81FE4CD72190077E DUP2 MSTORE POP DUP2 MSTORE PUSH1 0x20 ADD PUSH1 0x40 MLOAD DUP1 PUSH1 0x40 ADD PUSH1 0x40 MSTORE DUP1 PUSH32 0xDB46703DFACF9E83F55ADE015689594C8E2275827E7A8A5F157870BBBB04B4A DUP2 MSTORE PUSH1 0x20 ADD PUSH32 0xB708FA395FA8D90123FA172AA911630A463D17559FB957FA90823BB775E33A8 DUP2 MSTORE POP DUP2 MSTORE POP DUP2 PUSH1 0x40 ADD DUP2 SWAP1 MSTORE POP PUSH1 0x40 MLOAD DUP1 PUSH1 0x40 ADD PUSH1 0x40 MSTORE DUP1 PUSH1 0x40 MLOAD DUP1 PUSH1 0x40 ADD PUSH1 0x40 MSTORE DUP1 PUSH32 0x25AF7D14214B3C9DC94BBEE803715806E2E50DC56DF3A93DBA84089E51597253 DUP2 MSTORE PUSH1 0x20 ADD PUSH32 0x18E7219DECBF0690912C454E1A493D3B69FE9C8E39409C65E7856762B72D6304 DUP2 MSTORE POP DUP2 MSTORE PUSH1 0x20 ADD PUSH1 0x40 MLOAD DUP1 PUSH1 0x40 ADD PUSH1 0x40 MSTORE DUP1 PUSH32 0xBAC8A5E3FD8BDE6F8D11900BD7163C2F7094903831015212B758932E6298BA0 DUP2 MSTORE PUSH1 0x20 ADD PUSH32 0x247F70C8A46ACB0BE4D1DB37027821E7A698028734BA710409ED73375D8C9BE4 DUP2 MSTORE POP DUP2 MSTORE POP DUP2 PUSH1 0x60 ADD DUP2 SWAP1 MSTORE POP PUSH1 0x3 PUSH8 0xFFFFFFFFFFFFFFFF DUP2 GT ISZERO PUSH2 0x572 JUMPI PUSH2 0x571 PUSH2 0xF51 JUMP JUMPDEST JUMPDEST PUSH1 0x40 MLOAD SWAP1 DUP1 DUP3 MSTORE DUP1 PUSH1 0x20 MUL PUSH1 0x20 ADD DUP3 ADD PUSH1 0x40 MSTORE DUP1 ISZERO PUSH2 0x5AB JUMPI DUP2 PUSH1 0x20 ADD JUMPDEST PUSH2 0x598 PUSH2 0xE6A JUMP JUMPDEST DUP2 MSTORE PUSH1 0x20 ADD SWAP1 PUSH1 0x1 SWAP1 SUB SWAP1 DUP2 PUSH2 0x590 JUMPI SWAP1 POP JUMPDEST POP DUP2 PUSH1 0x80 ADD DUP2 SWAP1 MSTORE POP PUSH1 0x40 MLOAD DUP1 PUSH1 0x40 ADD PUSH1 0x40 MSTORE DUP1 PUSH32 0x197E5A889AB9337D5D3D61771E19B89DFC1D021D835341190B89B9A94E32B853 DUP2 MSTORE PUSH1 0x20 ADD PUSH32 0x1E031975124B84CB5AB3EBB1D64711886F3BD9E0763E7527544BF003892DAF9D DUP2 MSTORE POP DUP2 PUSH1 0x80 ADD MLOAD PUSH0 DUP2 MLOAD DUP2 LT PUSH2 0x620 JUMPI PUSH2 0x61F PUSH2 0x1221 JUMP JUMPDEST JUMPDEST PUSH1 0x20 MUL PUSH1 0x20 ADD ADD DUP2 SWAP1 MSTORE POP PUSH1 0x40 MLOAD DUP1 PUSH1 0x40 ADD PUSH1 0x40 MSTORE DUP1 PUSH32 0x21F785C8D4E5E8E9AAF4C4A928705818DA42E3E57B686821D0AC0315E5EAF6AA DUP2 MSTORE PUSH1 0x20 ADD PUSH32 0x2958D19BB5DC2ADCC82645A45C29A5BD8561D22B04688F0F782A0D46B3E9DCFA DUP2 MSTORE POP DUP2 PUSH1 0x80 ADD MLOAD PUSH1 0x1 DUP2 MLOAD DUP2 LT PUSH2 0x698 JUMPI PUSH2 0x697 PUSH2 0x1221 JUMP JUMPDEST JUMPDEST PUSH1 0x20 MUL PUSH1 0x20 ADD ADD DUP2 SWAP1 MSTORE POP PUSH1 0x40 MLOAD DUP1 PUSH1 0x40 ADD PUSH1 0x40 MSTORE DUP1 PUSH32 0x1D2AE606EDCC168034C5CFAAF2D1620DCA2FFEE5C2A05EB5DF35936BC3AF650B DUP2 MSTORE PUSH1 0x20 ADD PUSH32 0x201603903FEC7ACC62EC945CB29440220BCD80B6A7C6E094D00A27BC595F3E91 DUP2 MSTORE POP DUP2 PUSH1 0x80 ADD MLOAD PUSH1 0x2 DUP2 MLOAD DUP2 LT PUSH2 0x710 JUMPI PUSH2 0x70F PUSH2 0x1221 JUMP JUMPDEST JUMPDEST PUSH1 0x20 MUL PUSH1 0x20 ADD ADD DUP2 SWAP1 MSTORE POP SWAP1 JUMP JUMPDEST PUSH2 0x726 PUSH2 0xE6A JUMP JUMPDEST PUSH2 0x72E PUSH2 0xE82 JUMP JUMPDEST DUP4 PUSH0 ADD MLOAD DUP2 PUSH0 PUSH1 0x3 DUP2 LT PUSH2 0x745 JUMPI PUSH2 0x744 PUSH2 0x1221 JUMP JUMPDEST JUMPDEST PUSH1 0x20 MUL ADD DUP2 DUP2 MSTORE POP POP DUP4 PUSH1 0x20 ADD MLOAD DUP2 PUSH1 0x1 PUSH1 0x3 DUP2 LT PUSH2 0x767 JUMPI PUSH2 0x766 PUSH2 0x1221 JUMP JUMPDEST JUMPDEST PUSH1 0x20 MUL ADD DUP2 DUP2 MSTORE POP POP DUP3 DUP2 PUSH1 0x2 PUSH1 0x3 DUP2 LT PUSH2 0x785 JUMPI PUSH2 0x784 PUSH2 0x1221 JUMP JUMPDEST JUMPDEST PUSH1 0x20 MUL ADD DUP2 DUP2 MSTORE POP POP PUSH0 PUSH1 0x60 DUP4 PUSH1 0x80 DUP5 PUSH1 0x7 PUSH2 0x7D0 GAS SUB STATICCALL SWAP1 POP DUP1 PUSH0 DUP2 SUB PUSH2 0x7A9 JUMPI INVALID JUMPDEST POP DUP1 PUSH2 0x7B3 JUMPI PUSH0 DUP1 REVERT JUMPDEST POP POP SWAP3 SWAP2 POP POP JUMP JUMPDEST PUSH2 0x7C3 PUSH2 0xE6A JUMP JUMPDEST PUSH2 0x7CB PUSH2 0xEA4 JUMP JUMPDEST DUP4 PUSH0 ADD MLOAD DUP2 PUSH0 PUSH1 0x4 DUP2 LT PUSH2 0x7E2 JUMPI PUSH2 0x7E1 PUSH2 0x1221 JUMP JUMPDEST JUMPDEST PUSH1 0x20 MUL ADD DUP2 DUP2 MSTORE POP POP DUP4 PUSH1 0x20 ADD MLOAD DUP2 PUSH1 0x1 PUSH1 0x4 DUP2 LT PUSH2 0x804 JUMPI PUSH2 0x803 PUSH2 0x1221 JUMP JUMPDEST JUMPDEST PUSH1 0x20 MUL ADD DUP2 DUP2 MSTORE POP POP DUP3 PUSH0 ADD MLOAD DUP2 PUSH1 0x2 PUSH1 0x4 DUP2 LT PUSH2 0x825 JUMPI PUSH2 0x824 PUSH2 0x1221 JUMP JUMPDEST JUMPDEST PUSH1 0x20 MUL ADD DUP2 DUP2 MSTORE POP POP DUP3 PUSH1 0x20 ADD MLOAD DUP2 PUSH1 0x3 PUSH1 0x4 DUP2 LT PUSH2 0x847 JUMPI PUSH2 0x846 PUSH2 0x1221 JUMP JUMPDEST JUMPDEST PUSH1 0x20 MUL ADD DUP2 DUP2 MSTORE POP POP PUSH0 PUSH1 0x60 DUP4 PUSH1 0xC0 DUP5 PUSH1 0x6 PUSH2 0x7D0 GAS SUB STATICCALL SWAP1 POP DUP1 PUSH0 DUP2 SUB PUSH2 0x86B JUMPI INVALID JUMPDEST POP DUP1 PUSH2 0x875 JUMPI PUSH0 DUP1 REVERT JUMPDEST POP POP SWAP3 SWAP2 POP POP JUMP JUMPDEST PUSH2 0x885 PUSH2 0xE6A JUMP JUMPDEST PUSH0 PUSH32 0x30644E72E131A029B85045B68181585D97816A916871CA8D3C208C16D87CFD47 SWAP1 POP PUSH0 DUP4 PUSH0 ADD MLOAD EQ DUP1 ISZERO PUSH2 0x8BE JUMPI POP PUSH0 DUP4 PUSH1 0x20 ADD MLOAD EQ JUMPDEST ISZERO PUSH2 0x8E0 JUMPI PUSH1 0x40 MLOAD DUP1 PUSH1 0x40 ADD PUSH1 0x40 MSTORE DUP1 PUSH0 DUP2 MSTORE PUSH1 0x20 ADD PUSH0 DUP2 MSTORE POP SWAP2 POP POP PUSH2 0x916 JUMP JUMPDEST PUSH1 0x40 MLOAD DUP1 PUSH1 0x40 ADD PUSH1 0x40 MSTORE DUP1 DUP5 PUSH0 ADD MLOAD DUP2 MSTORE PUSH1 0x20 ADD DUP3 DUP6 PUSH1 0x20 ADD MLOAD PUSH2 0x904 SWAP2 SWAP1 PUSH2 0x12DB JUMP JUMPDEST DUP4 PUSH2 0x90F SWAP2 SWAP1 PUSH2 0x130B JUMP JUMPDEST DUP2 MSTORE POP SWAP2 POP POP JUMPDEST SWAP2 SWAP1 POP JUMP JUMPDEST PUSH0 DUP1 PUSH1 0x4 PUSH8 0xFFFFFFFFFFFFFFFF DUP2 GT ISZERO PUSH2 0x938 JUMPI PUSH2 0x937 PUSH2 0xF51 JUMP JUMPDEST JUMPDEST PUSH1 0x40 MLOAD SWAP1 DUP1 DUP3 MSTORE DUP1 PUSH1 0x20 MUL PUSH1 0x20 ADD DUP3 ADD PUSH1 0x40 MSTORE DUP1 ISZERO PUSH2 0x971 JUMPI DUP2 PUSH1 0x20 ADD JUMPDEST PUSH2 0x95E PUSH2 0xE6A JUMP JUMPDEST DUP2 MSTORE PUSH1 0x20 ADD SWAP1 PUSH1 0x1 SWAP1 SUB SWAP1 DUP2 PUSH2 0x956 JUMPI SWAP1 POP JUMPDEST POP SWAP1 POP PUSH0 PUSH1 0x4 PUSH8 0xFFFFFFFFFFFFFFFF DUP2 GT ISZERO PUSH2 0x990 JUMPI PUSH2 0x98F PUSH2 0xF51 JUMP JUMPDEST JUMPDEST PUSH1 0x40 MLOAD SWAP1 DUP1 DUP3 MSTORE DUP1 PUSH1 0x20 MUL PUSH1 0x20 ADD DUP3 ADD PUSH1 0x40 MSTORE DUP1 ISZERO PUSH2 0x9C9 JUMPI DUP2 PUSH1 0x20 ADD JUMPDEST PUSH2 0x9B6 PUSH2 0xEC6 JUMP JUMPDEST DUP2 MSTORE PUSH1 0x20 ADD SWAP1 PUSH1 0x1 SWAP1 SUB SWAP1 DUP2 PUSH2 0x9AE JUMPI SWAP1 POP JUMPDEST POP SWAP1 POP DUP11 DUP3 PUSH0 DUP2 MLOAD DUP2 LT PUSH2 0x9E0 JUMPI PUSH2 0x9DF PUSH2 0x1221 JUMP JUMPDEST JUMPDEST PUSH1 0x20 MUL PUSH1 0x20 ADD ADD DUP2 SWAP1 MSTORE POP DUP9 DUP3 PUSH1 0x1 DUP2 MLOAD DUP2 LT PUSH2 0xA00 JUMPI PUSH2 0x9FF PUSH2 0x1221 JUMP JUMPDEST JUMPDEST PUSH1 0x20 MUL PUSH1 0x20 ADD ADD DUP2 SWAP1 MSTORE POP DUP7 DUP3 PUSH1 0x2 DUP2 MLOAD DUP2 LT PUSH2 0xA20 JUMPI PUSH2 0xA1F PUSH2 0x1221 JUMP JUMPDEST JUMPDEST PUSH1 0x20 MUL PUSH1 0x20 ADD ADD DUP2 SWAP1 MSTORE POP DUP5 DUP3 PUSH1 0x3 DUP2 MLOAD DUP2 LT PUSH2 0xA40 JUMPI PUSH2 0xA3F PUSH2 0x1221 JUMP JUMPDEST JUMPDEST PUSH1 0x20 MUL PUSH1 0x20 ADD ADD DUP2 SWAP1 MSTORE POP DUP10 DUP2 PUSH0 DUP2 MLOAD DUP2 LT PUSH2 0xA5F JUMPI PUSH2 0xA5E PUSH2 0x1221 JUMP JUMPDEST JUMPDEST PUSH1 0x20 MUL PUSH1 0x20 ADD ADD DUP2 SWAP1 MSTORE POP DUP8 DUP2 PUSH1 0x1 DUP2 MLOAD DUP2 LT PUSH2 0xA7F JUMPI PUSH2 0xA7E PUSH2 0x1221 JUMP JUMPDEST JUMPDEST PUSH1 0x20 MUL PUSH1 0x20 ADD ADD DUP2 SWAP1 MSTORE POP DUP6 DUP2 PUSH1 0x2 DUP2 MLOAD DUP2 LT PUSH2 0xA9F JUMPI PUSH2 0xA9E PUSH2 0x1221 JUMP JUMPDEST JUMPDEST PUSH1 0x20 MUL PUSH1 0x20 ADD ADD DUP2 SWAP1 MSTORE POP DUP4 DUP2 PUSH1 0x3 DUP2 MLOAD DUP2 LT PUSH2 0xABF JUMPI PUSH2 0xABE PUSH2 0x1221 JUMP JUMPDEST JUMPDEST PUSH1 0x20 MUL PUSH1 0x20 ADD ADD DUP2 SWAP1 MSTORE POP PUSH2 0xAD4 DUP3 DUP3 PUSH2 0xAE4 JUMP JUMPDEST SWAP3 POP POP POP SWAP9 SWAP8 POP POP POP POP POP POP POP POP JUMP JUMPDEST PUSH0 DUP2 MLOAD DUP4 MLOAD EQ PUSH2 0xAF2 JUMPI PUSH0 DUP1 REVERT JUMPDEST PUSH0 DUP4 MLOAD SWAP1 POP PUSH0 PUSH1 0x6 DUP3 PUSH2 0xB05 SWAP2 SWAP1 PUSH2 0x133E JUMP JUMPDEST SWAP1 POP PUSH0 DUP2 PUSH8 0xFFFFFFFFFFFFFFFF DUP2 GT ISZERO PUSH2 0xB22 JUMPI PUSH2 0xB21 PUSH2 0xF51 JUMP JUMPDEST JUMPDEST PUSH1 0x40 MLOAD SWAP1 DUP1 DUP3 MSTORE DUP1 PUSH1 0x20 MUL PUSH1 0x20 ADD DUP3 ADD PUSH1 0x40 MSTORE DUP1 ISZERO PUSH2 0xB50 JUMPI DUP2 PUSH1 0x20 ADD PUSH1 0x20 DUP3 MUL DUP1 CALLDATASIZE DUP4 CALLDATACOPY DUP1 DUP3 ADD SWAP2 POP POP SWAP1 POP JUMPDEST POP SWAP1 POP PUSH0 JUMPDEST DUP4 DUP2 LT ISZERO PUSH2 0xDC8 JUMPI DUP7 DUP2 DUP2 MLOAD DUP2 LT PUSH2 0xB70 JUMPI PUSH2 0xB6F PUSH2 0x1221 JUMP JUMPDEST JUMPDEST PUSH1 0x20 MUL PUSH1 0x20 ADD ADD MLOAD PUSH0 ADD MLOAD DUP3 PUSH0 PUSH1 0x6 DUP5 PUSH2 0xB8A SWAP2 SWAP1 PUSH2 0x133E JUMP JUMPDEST PUSH2 0xB94 SWAP2 SWAP1 PUSH2 0x127B JUMP JUMPDEST DUP2 MLOAD DUP2 LT PUSH2 0xBA5 JUMPI PUSH2 0xBA4 PUSH2 0x1221 JUMP JUMPDEST JUMPDEST PUSH1 0x20 MUL PUSH1 0x20 ADD ADD DUP2 DUP2 MSTORE POP POP DUP7 DUP2 DUP2 MLOAD DUP2 LT PUSH2 0xBC4 JUMPI PUSH2 0xBC3 PUSH2 0x1221 JUMP JUMPDEST JUMPDEST PUSH1 0x20 MUL PUSH1 0x20 ADD ADD MLOAD PUSH1 0x20 ADD MLOAD DUP3 PUSH1 0x1 PUSH1 0x6 DUP5 PUSH2 0xBE0 SWAP2 SWAP1 PUSH2 0x133E JUMP JUMPDEST PUSH2 0xBEA SWAP2 SWAP1 PUSH2 0x127B JUMP JUMPDEST DUP2 MLOAD DUP2 LT PUSH2 0xBFB JUMPI PUSH2 0xBFA PUSH2 0x1221 JUMP JUMPDEST JUMPDEST PUSH1 0x20 MUL PUSH1 0x20 ADD ADD DUP2 DUP2 MSTORE POP POP DUP6 DUP2 DUP2 MLOAD DUP2 LT PUSH2 0xC1A JUMPI PUSH2 0xC19 PUSH2 0x1221 JUMP JUMPDEST JUMPDEST PUSH1 0x20 MUL PUSH1 0x20 ADD ADD MLOAD PUSH0 ADD MLOAD PUSH1 0x1 PUSH1 0x2 DUP2 LT PUSH2 0xC38 JUMPI PUSH2 0xC37 PUSH2 0x1221 JUMP JUMPDEST JUMPDEST PUSH1 0x20 MUL ADD MLOAD DUP3 PUSH1 0x2 PUSH1 0x6 DUP5 PUSH2 0xC4D SWAP2 SWAP1 PUSH2 0x133E JUMP JUMPDEST PUSH2 0xC57 SWAP2 SWAP1 PUSH2 0x127B JUMP JUMPDEST DUP2 MLOAD DUP2 LT PUSH2 0xC68 JUMPI PUSH2 0xC67 PUSH2 0x1221 JUMP JUMPDEST JUMPDEST PUSH1 0x20 MUL PUSH1 0x20 ADD ADD DUP2 DUP2 MSTORE POP POP DUP6 DUP2 DUP2 MLOAD DUP2 LT PUSH2 0xC87 JUMPI PUSH2 0xC86 PUSH2 0x1221 JUMP JUMPDEST JUMPDEST PUSH1 0x20 MUL PUSH1 0x20 ADD ADD MLOAD PUSH0 ADD MLOAD PUSH0 PUSH1 0x2 DUP2 LT PUSH2 0xCA4 JUMPI PUSH2 0xCA3 PUSH2 0x1221 JUMP JUMPDEST JUMPDEST PUSH1 0x20 MUL ADD MLOAD DUP3 PUSH1 0x3 PUSH1 0x6 DUP5 PUSH2 0xCB9 SWAP2 SWAP1 PUSH2 0x133E JUMP JUMPDEST PUSH2 0xCC3 SWAP2 SWAP1 PUSH2 0x127B JUMP JUMPDEST DUP2 MLOAD DUP2 LT PUSH2 0xCD4 JUMPI PUSH2 0xCD3 PUSH2 0x1221 JUMP JUMPDEST JUMPDEST PUSH1 0x20 MUL PUSH1 0x20 ADD ADD DUP2 DUP2 MSTORE POP POP DUP6 DUP2 DUP2 MLOAD DUP2 LT PUSH2 0xCF3 JUMPI PUSH2 0xCF2 PUSH2 0x1221 JUMP JUMPDEST JUMPDEST PUSH1 0x20 MUL PUSH1 0x20 ADD ADD MLOAD PUSH1 0x20 ADD MLOAD PUSH1 0x1 PUSH1 0x2 DUP2 LT PUSH2 0xD12 JUMPI PUSH2 0xD11 PUSH2 0x1221 JUMP JUMPDEST JUMPDEST PUSH1 0x20 MUL ADD MLOAD DUP3 PUSH1 0x4 PUSH1 0x6 DUP5 PUSH2 0xD27 SWAP2 SWAP1 PUSH2 0x133E JUMP JUMPDEST PUSH2 0xD31 SWAP2 SWAP1 PUSH2 0x127B JUMP JUMPDEST DUP2 MLOAD DUP2 LT PUSH2 0xD42 JUMPI PUSH2 0xD41 PUSH2 0x1221 JUMP JUMPDEST JUMPDEST PUSH1 0x20 MUL PUSH1 0x20 ADD ADD DUP2 DUP2 MSTORE POP POP DUP6 DUP2 DUP2 MLOAD DUP2 LT PUSH2 0xD61 JUMPI PUSH2 0xD60 PUSH2 0x1221 JUMP JUMPDEST JUMPDEST PUSH1 0x20 MUL PUSH1 0x20 ADD ADD MLOAD PUSH1 0x20 ADD MLOAD PUSH0 PUSH1 0x2 DUP2 LT PUSH2 0xD7F JUMPI PUSH2 0xD7E PUSH2 0x1221 JUMP JUMPDEST JUMPDEST PUSH1 0x20 MUL ADD MLOAD DUP3 PUSH1 0x5 PUSH1 0x6 DUP5 PUSH2 0xD94 SWAP2 SWAP1 PUSH2 0x133E JUMP JUMPDEST PUSH2 0xD9E SWAP2 SWAP1 PUSH2 0x127B JUMP JUMPDEST DUP2 MLOAD DUP2 LT PUSH2 0xDAF JUMPI PUSH2 0xDAE PUSH2 0x1221 JUMP JUMPDEST JUMPDEST PUSH1 0x20 MUL PUSH1 0x20 ADD ADD DUP2 DUP2 MSTORE POP POP DUP1 DUP1 PUSH1 0x1 ADD SWAP2 POP POP PUSH2 0xB55 JUMP JUMPDEST POP PUSH2 0xDD1 PUSH2 0xEEC JUMP JUMPDEST PUSH0 PUSH1 0x20 DUP3 PUSH1 0x20 DUP7 MUL PUSH1 0x20 DUP7 ADD PUSH1 0x8 PUSH2 0x7D0 GAS SUB STATICCALL SWAP1 POP DUP1 PUSH0 DUP2 SUB PUSH2 0xDF1 JUMPI INVALID JUMPDEST POP DUP1 PUSH2 0xDFB JUMPI PUSH0 DUP1 REVERT JUMPDEST PUSH0 DUP3 PUSH0 PUSH1 0x1 DUP2 LT PUSH2 0xE0F JUMPI PUSH2 0xE0E PUSH2 0x1221 JUMP JUMPDEST JUMPDEST PUSH1 0x20 MUL ADD MLOAD EQ ISZERO SWAP6 POP POP POP POP POP POP SWAP3 SWAP2 POP POP JUMP JUMPDEST PUSH1 0x40 MLOAD DUP1 PUSH1 0xA0 ADD PUSH1 0x40 MSTORE DUP1 PUSH2 0xE36 PUSH2 0xE6A JUMP JUMPDEST DUP2 MSTORE PUSH1 0x20 ADD PUSH2 0xE43 PUSH2 0xEC6 JUMP JUMPDEST DUP2 MSTORE PUSH1 0x20 ADD PUSH2 0xE50 PUSH2 0xEC6 JUMP JUMPDEST DUP2 MSTORE PUSH1 0x20 ADD PUSH2 0xE5D PUSH2 0xEC6 JUMP JUMPDEST DUP2 MSTORE PUSH1 0x20 ADD PUSH1 0x60 DUP2 MSTORE POP SWAP1 JUMP JUMPDEST PUSH1 0x40 MLOAD DUP1 PUSH1 0x40 ADD PUSH1 0x40 MSTORE DUP1 PUSH0 DUP2 MSTORE PUSH1 0x20 ADD PUSH0 DUP2 MSTORE POP SWAP1 JUMP JUMPDEST PUSH1 0x40 MLOAD DUP1 PUSH1 0x60 ADD PUSH1 0x40 MSTORE DUP1 PUSH1 0x3 SWAP1 PUSH1 0x20 DUP3 MUL DUP1 CALLDATASIZE DUP4 CALLDATACOPY DUP1 DUP3 ADD SWAP2 POP POP SWAP1 POP POP SWAP1 JUMP JUMPDEST PUSH1 0x40 MLOAD DUP1 PUSH1 0x80 ADD PUSH1 0x40 MSTORE DUP1 PUSH1 0x4 SWAP1 PUSH1 0x20 DUP3 MUL DUP1 CALLDATASIZE DUP4 CALLDATACOPY DUP1 DUP3 ADD SWAP2 POP POP SWAP1 POP POP SWAP1 JUMP JUMPDEST PUSH1 0x40 MLOAD DUP1 PUSH1 0x40 ADD PUSH1 0x40 MSTORE DUP1 PUSH2 0xED9 PUSH2 0xF0E JUMP JUMPDEST DUP2 MSTORE PUSH1 0x20 ADD PUSH2 0xEE6 PUSH2 0xF0E JUMP JUMPDEST DUP2 MSTORE POP SWAP1 JUMP JUMPDEST PUSH1 0x40 MLOAD DUP1 PUSH1 0x20 ADD PUSH1 0x40 MSTORE DUP1 PUSH1 0x1 SWAP1 PUSH1 0x20 DUP3 MUL DUP1 CALLDATASIZE DUP4 CALLDATACOPY DUP1 DUP3 ADD SWAP2 POP POP SWAP1 POP POP SWAP1 JUMP JUMPDEST PUSH1 0x40 MLOAD DUP1 PUSH1 0x40 ADD PUSH1 0x40 MSTORE DUP1 PUSH1 0x2 SWAP1 PUSH1 0x20 DUP3 MUL DUP1 CALLDATASIZE DUP4 CALLDATACOPY DUP1 DUP3 ADD SWAP2 POP POP SWAP1 POP POP SWAP1 JUMP JUMPDEST PUSH0 PUSH1 0x40 MLOAD SWAP1 POP SWAP1 JUMP JUMPDEST PUSH0 DUP1 REVERT JUMPDEST PUSH0 DUP1 REVERT JUMPDEST PUSH0 PUSH1 0x1F NOT PUSH1 0x1F DUP4 ADD AND SWAP1 POP SWAP2 SWAP1 POP JUMP JUMPDEST PUSH32 0x4E487B7100000000000000000000000000000000000000000000000000000000 PUSH0 MSTORE PUSH1 0x41 PUSH1 0x4 MSTORE PUSH1 0x24 PUSH0 REVERT JUMPDEST PUSH2 0xF87 DUP3 PUSH2 0xF41 JUMP JUMPDEST DUP2 ADD DUP2 DUP2 LT PUSH8 0xFFFFFFFFFFFFFFFF DUP3 GT OR ISZERO PUSH2 0xFA6 JUMPI PUSH2 0xFA5 PUSH2 0xF51 JUMP JUMPDEST JUMPDEST DUP1 PUSH1 0x40 MSTORE POP POP POP JUMP JUMPDEST PUSH0 PUSH2 0xFB8 PUSH2 0xF30 JUMP JUMPDEST SWAP1 POP PUSH2 0xFC4 DUP3 DUP3 PUSH2 0xF7E JUMP JUMPDEST SWAP2 SWAP1 POP JUMP JUMPDEST PUSH0 DUP2 SWAP1 POP SWAP2 SWAP1 POP JUMP JUMPDEST PUSH2 0xFDB DUP2 PUSH2 0xFC9 JUMP JUMPDEST DUP2 EQ PUSH2 0xFE5 JUMPI PUSH0 DUP1 REVERT JUMPDEST POP JUMP JUMPDEST PUSH0 DUP2 CALLDATALOAD SWAP1 POP PUSH2 0xFF6 DUP2 PUSH2 0xFD2 JUMP JUMPDEST SWAP3 SWAP2 POP POP JUMP JUMPDEST PUSH0 PUSH1 0x40 DUP3 DUP5 SUB SLT ISZERO PUSH2 0x1011 JUMPI PUSH2 0x1010 PUSH2 0xF3D JUMP JUMPDEST JUMPDEST PUSH2 0x101B PUSH1 0x40 PUSH2 0xFAF JUMP JUMPDEST SWAP1 POP PUSH0 PUSH2 0x102A DUP5 DUP3 DUP6 ADD PUSH2 0xFE8 JUMP JUMPDEST PUSH0 DUP4 ADD MSTORE POP PUSH1 0x20 PUSH2 0x103D DUP5 DUP3 DUP6 ADD PUSH2 0xFE8 JUMP JUMPDEST PUSH1 0x20 DUP4 ADD MSTORE POP SWAP3 SWAP2 POP POP JUMP JUMPDEST PUSH0 DUP1 REVERT JUMPDEST PUSH0 PUSH8 0xFFFFFFFFFFFFFFFF DUP3 GT ISZERO PUSH2 0x1067 JUMPI PUSH2 0x1066 PUSH2 0xF51 JUMP JUMPDEST JUMPDEST PUSH1 0x20 DUP3 MUL SWAP1 POP SWAP2 SWAP1 POP JUMP JUMPDEST PUSH0 DUP1 REVERT JUMPDEST PUSH0 PUSH2 0x1088 PUSH2 0x1083 DUP5 PUSH2 0x104D JUMP JUMPDEST PUSH2 0xFAF JUMP JUMPDEST SWAP1 POP DUP1 PUSH1 0x20 DUP5 MUL DUP4 ADD DUP6 DUP2 GT ISZERO PUSH2 0x10A2 JUMPI PUSH2 0x10A1 PUSH2 0x1072 JUMP JUMPDEST JUMPDEST DUP4 JUMPDEST DUP2 DUP2 LT ISZERO PUSH2 0x10CB JUMPI DUP1 PUSH2 0x10B7 DUP9 DUP3 PUSH2 0xFE8 JUMP JUMPDEST DUP5 MSTORE PUSH1 0x20 DUP5 ADD SWAP4 POP POP PUSH1 0x20 DUP2 ADD SWAP1 POP PUSH2 0x10A4 JUMP JUMPDEST POP POP POP SWAP4 SWAP3 POP POP POP JUMP JUMPDEST PUSH0 DUP3 PUSH1 0x1F DUP4 ADD SLT PUSH2 0x10E9 JUMPI PUSH2 0x10E8 PUSH2 0x1049 JUMP JUMPDEST JUMPDEST PUSH1 0x2 PUSH2 0x10F6 DUP5 DUP3 DUP6 PUSH2 0x1076 JUMP JUMPDEST SWAP2 POP POP SWAP3 SWAP2 POP POP JUMP JUMPDEST PUSH0 PUSH1 0x80 DUP3 DUP5 SUB SLT ISZERO PUSH2 0x1114 JUMPI PUSH2 0x1113 PUSH2 0xF3D JUMP JUMPDEST JUMPDEST PUSH2 0x111E PUSH1 0x40 PUSH2 0xFAF JUMP JUMPDEST SWAP1 POP PUSH0 PUSH2 0x112D DUP5 DUP3 DUP6 ADD PUSH2 0x10D5 JUMP JUMPDEST PUSH0 DUP4 ADD MSTORE POP PUSH1 0x40 PUSH2 0x1140 DUP5 DUP3 DUP6 ADD PUSH2 0x10D5 JUMP JUMPDEST PUSH1 0x20 DUP4 ADD MSTORE POP SWAP3 SWAP2 POP POP JUMP JUMPDEST PUSH0 PUSH2 0x100 DUP3 DUP5 SUB SLT ISZERO PUSH2 0x1162 JUMPI PUSH2 0x1161 PUSH2 0xF3D JUMP JUMPDEST JUMPDEST PUSH2 0x116C PUSH1 0x60 PUSH2 0xFAF JUMP JUMPDEST SWAP1 POP PUSH0 PUSH2 0x117B DUP5 DUP3 DUP6 ADD PUSH2 0xFFC JUMP JUMPDEST PUSH0 DUP4 ADD MSTORE POP PUSH1 0x40 PUSH2 0x118E DUP5 DUP3 DUP6 ADD PUSH2 0x10FF JUMP JUMPDEST PUSH1 0x20 DUP4 ADD MSTORE POP PUSH1 0xC0 PUSH2 0x11A2 DUP5 DUP3 DUP6 ADD PUSH2 0xFFC JUMP JUMPDEST PUSH1 0x40 DUP4 ADD MSTORE POP SWAP3 SWAP2 POP POP JUMP JUMPDEST PUSH0 DUP1 PUSH2 0x140 DUP4 DUP6 SUB SLT ISZERO PUSH2 0x11C5 JUMPI PUSH2 0x11C4 PUSH2 0xF39 JUMP JUMPDEST JUMPDEST PUSH0 PUSH2 0x11D2 DUP6 DUP3 DUP7 ADD PUSH2 0x114C JUMP JUMPDEST SWAP3 POP POP PUSH2 0x100 PUSH2 0x11E4 DUP6 DUP3 DUP7 ADD PUSH2 0x10D5 JUMP JUMPDEST SWAP2 POP POP SWAP3 POP SWAP3 SWAP1 POP JUMP JUMPDEST PUSH0 DUP2 ISZERO ISZERO SWAP1 POP SWAP2 SWAP1 POP JUMP JUMPDEST PUSH2 0x1202 DUP2 PUSH2 0x11EE JUMP JUMPDEST DUP3 MSTORE POP POP JUMP JUMPDEST PUSH0 PUSH1 0x20 DUP3 ADD SWAP1 POP PUSH2 0x121B PUSH0 DUP4 ADD DUP5 PUSH2 0x11F9 JUMP JUMPDEST SWAP3 SWAP2 POP POP JUMP JUMPDEST PUSH32 0x4E487B7100000000000000000000000000000000000000000000000000000000 PUSH0 MSTORE PUSH1 0x32 PUSH1 0x4 MSTORE PUSH1 0x24 PUSH0 REVERT JUMPDEST PUSH32 0x4E487B7100000000000000000000000000000000000000000000000000000000 PUSH0 MSTORE PUSH1 0x11 PUSH1 0x4 MSTORE PUSH1 0x24 PUSH0 REVERT JUMPDEST PUSH0 PUSH2 0x1285 DUP3 PUSH2 0xFC9 JUMP JUMPDEST SWAP2 POP PUSH2 0x1290 DUP4 PUSH2 0xFC9 JUMP JUMPDEST SWAP3 POP DUP3 DUP3 ADD SWAP1 POP DUP1 DUP3 GT ISZERO PUSH2 0x12A8 JUMPI PUSH2 0x12A7 PUSH2 0x124E JUMP JUMPDEST JUMPDEST SWAP3 SWAP2 POP POP JUMP JUMPDEST PUSH32 0x4E487B7100000000000000000000000000000000000000000000000000000000 PUSH0 MSTORE PUSH1 0x12 PUSH1 0x4 MSTORE PUSH1 0x24 PUSH0 REVERT JUMPDEST PUSH0 PUSH2 0x12E5 DUP3 PUSH2 0xFC9 JUMP JUMPDEST SWAP2 POP PUSH2 0x12F0 DUP4 PUSH2 0xFC9 JUMP JUMPDEST SWAP3 POP DUP3 PUSH2 0x1300 JUMPI PUSH2 0x12FF PUSH2 0x12AE JUMP JUMPDEST JUMPDEST DUP3 DUP3 MOD SWAP1 POP SWAP3 SWAP2 POP POP JUMP JUMPDEST PUSH0 PUSH2 0x1315 DUP3 PUSH2 0xFC9 JUMP JUMPDEST SWAP2 POP PUSH2 0x1320 DUP4 PUSH2 0xFC9 JUMP JUMPDEST SWAP3 POP DUP3 DUP3 SUB SWAP1 POP DUP2 DUP2 GT ISZERO PUSH2 0x1338 JUMPI PUSH2 0x1337 PUSH2 0x124E JUMP JUMPDEST JUMPDEST SWAP3 SWAP2 POP POP JUMP JUMPDEST PUSH0 PUSH2 0x1348 DUP3 PUSH2 0xFC9 JUMP JUMPDEST SWAP2 POP PUSH2 0x1353 DUP4 PUSH2 0xFC9 JUMP JUMPDEST SWAP3 POP DUP3 DUP3 MUL PUSH2 0x1361 DUP2 PUSH2 0xFC9 JUMP JUMPDEST SWAP2 POP DUP3 DUP3 DIV DUP5 EQ DUP4 ISZERO OR PUSH2 0x1378 JUMPI PUSH2 0x1377 PUSH2 0x124E JUMP JUMPDEST JUMPDEST POP SWAP3 SWAP2 POP POP JUMP INVALID LOG2 PUSH5 0x6970667358 0x22 SLT KECCAK256 DUP4 PUSH25 0x3C3094FDBC3C22517A08A062E0FCCE4E3FC53F16150758618B BLOBBASEFEE REVERT DUP9 EQ SWAP8 PUSH5 0x736F6C6343 STOP ADDMOD BYTE STOP CALLER "
				},
				"gasEstimates": {
					"creation": {
						"codeDepositCost": "1009000",
						"executionCost": "1045",
						"totalCost": "1010045"
					},
					"external": {
						"verifyTx(((uint256,uint256),(uint256[2],uint256[2]),(uint256,uint256)),uint256[2])": "infinite"
					},
					"internal": {
						"verify(uint256[] memory,struct Verifier.Proof memory)": "infinite",
						"verifyingKey()": "infinite"
					}
				},
				"methodIdentifiers": {
					"verifyTx(((uint256,uint256),(uint256[2],uint256[2]),(uint256,uint256)),uint256[2])": "43cd76fc"
				}
			},
			"storageLayout": {
				"storage": [],
				"types": null
			},
			"userdoc": {
				"kind": "user",
				"methods": {},
				"version": 1
			}
		}
	}
}