{
	"/verifier.sol": {
		"Verifier": {
			"abi": [
				{
					"inputs": [
						{
							"components": [
								{
									"components": [
										{
											"internalType": "uint256",
											"name": "X",
											"type": "uint256"
										},
										{
											"internalType": "uint256",
											"name": "Y",
											"type": "uint256"
										}
									],
									"internalType": "struct Pairing.G1Point",
									"name": "a",
									"type": "tuple"
								},
								{
									"components": [
										{
											"internalType": "uint256[2]",
											"name": "X",
											"type": "uint256[2]"
										},
										{
											"internalType": "uint256[2]",
											"name": "Y",
											"type": "uint256[2]"
										}
									],
									"internalType": "struct Pairing.G2Point",
									"name": "b",
									"type": "tuple"
								},
								{
									"components": [
										{
											"internalType": "uint256",
											"name": "X",
											"type": "uint256"
										},
										{
											"internalType": "uint256",
											"name": "Y",
											"type": "uint256"
										}
									],
									"internalType": "struct Pairing.G1Point",
									"name": "c",
									"type": "tuple"
								}
							],
							"internalType": "struct Verifier.Proof",
							"name": "proof",
							"type": "tuple"
						},
						{
							"internalType": "uint256[1]",
							"name": "input",
							"type": "uint256[1]"
						}
					],
					"name": "verifyTx",
					"outputs": [
						{
							"internalType": "bool",
							"name": "r",
							"type": "bool"
						}
					],
					"stateMutability": "view",
					"type": "function"
				}
			],
			"devdoc": {
				"kind": "dev",
				"methods": {},
				"version": 1
			},
			"evm": {
				"assembly": "    /* \"/verifier.sol\":6234:9668  contract Verifier {... */\n  mstore(0x40, 0x80)\n  callvalue\n  dup1\n  iszero\n  tag_1\n  jumpi\n  0x00\n  dup1\n  revert\ntag_1:\n  pop\n  dataSize(sub_0)\n  dup1\n  dataOffset(sub_0)\n  0x00\n  codecopy\n  0x00\n  return\nstop\n\nsub_0: assembly {\n        /* \"/verifier.sol\":6234:9668  contract Verifier {... */\n      mstore(0x40, 0x80)\n      callvalue\n      dup1\n      iszero\n      tag_1\n      jumpi\n      0x00\n      dup1\n      revert\n    tag_1:\n      pop\n      jumpi(tag_2, lt(calldatasize, 0x04))\n      shr(0xe0, calldataload(0x00))\n      dup1\n      0xf48d7729\n      eq\n      tag_3\n      jumpi\n    tag_2:\n      0x00\n      dup1\n      revert\n        /* \"/verifier.sol\":9266:9666  function verifyTx(... */\n    tag_3:\n      tag_4\n      0x04\n      dup1\n      calldatasize\n      sub\n      dup2\n      add\n      swap1\n      tag_5\n      swap2\n      swap1\n      tag_6\n      jump\t// in\n    tag_5:\n      tag_7\n      jump\t// in\n    tag_4:\n      mload(0x40)\n      tag_8\n      swap2\n      swap1\n      tag_9\n      jump\t// in\n    tag_8:\n      mload(0x40)\n      dup1\n      swap2\n      sub\n      swap1\n      return\n    tag_7:\n        /* \"/verifier.sol\":9369:9375  bool r */\n      0x00\n        /* \"/verifier.sol\":9387:9412  uint[] memory inputValues */\n      dup1\n        /* \"/verifier.sol\":9426:9427  1 */\n      0x01\n        /* \"/verifier.sol\":9415:9428  new uint[](1) */\n      0xffffffffffffffff\n      dup2\n      gt\n      iszero\n      tag_11\n      jumpi\n      tag_12\n      tag_13\n      jump\t// in\n    tag_12:\n    tag_11:\n      mload(0x40)\n      swap1\n      dup1\n      dup3\n      mstore\n      dup1\n      0x20\n      mul\n      0x20\n      add\n      dup3\n      add\n      0x40\n      mstore\n      dup1\n      iszero\n      tag_14\n      jumpi\n      dup2\n      0x20\n      add\n      0x20\n      dup3\n      mul\n      dup1\n      calldatasize\n      dup4\n      calldatacopy\n      dup1\n      dup3\n      add\n      swap2\n      pop\n      pop\n      swap1\n      pop\n    tag_14:\n      pop\n        /* \"/verifier.sol\":9387:9428  uint[] memory inputValues = new uint[](1) */\n      swap1\n      pop\n        /* \"/verifier.sol\":9451:9457  uint i */\n      0x00\n        /* \"/verifier.sol\":9447:9535  for(uint i = 0; i < input.length; i++){... */\n    tag_15:\n        /* \"/verifier.sol\":9467:9479  input.length */\n      0x01\n        /* \"/verifier.sol\":9463:9464  i */\n      dup2\n        /* \"/verifier.sol\":9463:9479  i < input.length */\n      lt\n        /* \"/verifier.sol\":9447:9535  for(uint i = 0; i < input.length; i++){... */\n      iszero\n      tag_16\n      jumpi\n        /* \"/verifier.sol\":9516:9521  input */\n      dup4\n        /* \"/verifier.sol\":9522:9523  i */\n      dup2\n        /* \"/verifier.sol\":9516:9524  input[i] */\n      0x01\n      dup2\n      lt\n      tag_18\n      jumpi\n      tag_19\n      tag_20\n      jump\t// in\n    tag_19:\n    tag_18:\n      0x20\n      mul\n      add\n      mload\n        /* \"/verifier.sol\":9499:9510  inputValues */\n      dup3\n        /* \"/verifier.sol\":9511:9512  i */\n      dup3\n        /* \"/verifier.sol\":9499:9513  inputValues[i] */\n      dup2\n      mload\n      dup2\n      lt\n      tag_21\n      jumpi\n      tag_22\n      tag_20\n      jump\t// in\n    tag_22:\n    tag_21:\n      0x20\n      mul\n      0x20\n      add\n      add\n        /* \"/verifier.sol\":9499:9524  inputValues[i] = input[i] */\n      dup2\n      dup2\n      mstore\n      pop\n      pop\n        /* \"/verifier.sol\":9481:9484  i++ */\n      dup1\n      dup1\n      0x01\n      add\n      swap2\n      pop\n      pop\n        /* \"/verifier.sol\":9447:9535  for(uint i = 0; i < input.length; i++){... */\n      jump(tag_15)\n    tag_16:\n      pop\n        /* \"/verifier.sol\":9578:9579  0 */\n      0x00\n        /* \"/verifier.sol\":9548:9574  verify(inputValues, proof) */\n      tag_23\n        /* \"/verifier.sol\":9555:9566  inputValues */\n      dup3\n        /* \"/verifier.sol\":9568:9573  proof */\n      dup7\n        /* \"/verifier.sol\":9548:9554  verify */\n      tag_24\n        /* \"/verifier.sol\":9548:9574  verify(inputValues, proof) */\n      jump\t// in\n    tag_23:\n        /* \"/verifier.sol\":9548:9579  verify(inputValues, proof) == 0 */\n      sub\n        /* \"/verifier.sol\":9544:9660  if (verify(inputValues, proof) == 0) {... */\n      tag_25\n      jumpi\n        /* \"/verifier.sol\":9602:9606  true */\n      0x01\n        /* \"/verifier.sol\":9595:9606  return true */\n      swap2\n      pop\n      pop\n      jump(tag_10)\n        /* \"/verifier.sol\":9544:9660  if (verify(inputValues, proof) == 0) {... */\n    tag_25:\n        /* \"/verifier.sol\":9644:9649  false */\n      0x00\n        /* \"/verifier.sol\":9637:9649  return false */\n      swap2\n      pop\n      pop\n        /* \"/verifier.sol\":9266:9666  function verifyTx(... */\n    tag_10:\n      swap3\n      swap2\n      pop\n      pop\n      jump\t// out\n        /* \"/verifier.sol\":8340:9261  function verify(uint[] memory input, Proof memory proof) internal view returns (uint) {... */\n    tag_24:\n        /* \"/verifier.sol\":8420:8424  uint */\n      0x00\n        /* \"/verifier.sol\":8436:8462  uint256 snark_scalar_field */\n      dup1\n        /* \"/verifier.sol\":8465:8542  21888242871839275222246405745257275088548364400416034343698204186575808495617 */\n      0x30644e72e131a029b85045b68181585d2833e84879b9709143e1f593f0000001\n        /* \"/verifier.sol\":8436:8542  uint256 snark_scalar_field = 21888242871839275222246405745257275088548364400416034343698204186575808495617 */\n      swap1\n      pop\n        /* \"/verifier.sol\":8552:8574  VerifyingKey memory vk */\n      0x00\n        /* \"/verifier.sol\":8577:8591  verifyingKey() */\n      tag_28\n        /* \"/verifier.sol\":8577:8589  verifyingKey */\n      tag_29\n        /* \"/verifier.sol\":8577:8591  verifyingKey() */\n      jump\t// in\n    tag_28:\n        /* \"/verifier.sol\":8552:8591  VerifyingKey memory vk = verifyingKey() */\n      swap1\n      pop\n        /* \"/verifier.sol\":8629:8631  vk */\n      dup1\n        /* \"/verifier.sol\":8629:8641  vk.gamma_abc */\n      0x80\n      add\n      mload\n        /* \"/verifier.sol\":8629:8648  vk.gamma_abc.length */\n      mload\n        /* \"/verifier.sol\":8624:8625  1 */\n      0x01\n        /* \"/verifier.sol\":8609:8614  input */\n      dup7\n        /* \"/verifier.sol\":8609:8621  input.length */\n      mload\n        /* \"/verifier.sol\":8609:8625  input.length + 1 */\n      tag_30\n      swap2\n      swap1\n      tag_31\n      jump\t// in\n    tag_30:\n        /* \"/verifier.sol\":8609:8648  input.length + 1 == vk.gamma_abc.length */\n      eq\n        /* \"/verifier.sol\":8601:8649  require(input.length + 1 == vk.gamma_abc.length) */\n      tag_32\n      jumpi\n      0x00\n      dup1\n      revert\n    tag_32:\n        /* \"/verifier.sol\":8706:8733  Pairing.G1Point memory vk_x */\n      0x00\n        /* \"/verifier.sol\":8736:8757  Pairing.G1Point(0, 0) */\n      mload(0x40)\n      dup1\n      0x40\n      add\n      0x40\n      mstore\n      dup1\n        /* \"/verifier.sol\":8752:8753  0 */\n      0x00\n        /* \"/verifier.sol\":8736:8757  Pairing.G1Point(0, 0) */\n      dup2\n      mstore\n      0x20\n      add\n        /* \"/verifier.sol\":8755:8756  0 */\n      0x00\n        /* \"/verifier.sol\":8736:8757  Pairing.G1Point(0, 0) */\n      dup2\n      mstore\n      pop\n        /* \"/verifier.sol\":8706:8757  Pairing.G1Point memory vk_x = Pairing.G1Point(0, 0) */\n      swap1\n      pop\n        /* \"/verifier.sol\":8772:8778  uint i */\n      0x00\n        /* \"/verifier.sol\":8767:8964  for (uint i = 0; i < input.length; i++) {... */\n    tag_33:\n        /* \"/verifier.sol\":8788:8793  input */\n      dup7\n        /* \"/verifier.sol\":8788:8800  input.length */\n      mload\n        /* \"/verifier.sol\":8784:8785  i */\n      dup2\n        /* \"/verifier.sol\":8784:8800  i < input.length */\n      lt\n        /* \"/verifier.sol\":8767:8964  for (uint i = 0; i < input.length; i++) {... */\n      iszero\n      tag_34\n      jumpi\n        /* \"/verifier.sol\":8840:8858  snark_scalar_field */\n      dup4\n        /* \"/verifier.sol\":8829:8834  input */\n      dup8\n        /* \"/verifier.sol\":8835:8836  i */\n      dup3\n        /* \"/verifier.sol\":8829:8837  input[i] */\n      dup2\n      mload\n      dup2\n      lt\n      tag_36\n      jumpi\n      tag_37\n      tag_20\n      jump\t// in\n    tag_37:\n    tag_36:\n      0x20\n      mul\n      0x20\n      add\n      add\n      mload\n        /* \"/verifier.sol\":8829:8858  input[i] < snark_scalar_field */\n      lt\n        /* \"/verifier.sol\":8821:8859  require(input[i] < snark_scalar_field) */\n      tag_38\n      jumpi\n      0x00\n      dup1\n      revert\n    tag_38:\n        /* \"/verifier.sol\":8880:8953  Pairing.addition(vk_x, Pairing.scalar_mul(vk.gamma_abc[i + 1], input[i])) */\n      tag_39\n        /* \"/verifier.sol\":8897:8901  vk_x */\n      dup3\n        /* \"/verifier.sol\":8903:8952  Pairing.scalar_mul(vk.gamma_abc[i + 1], input[i]) */\n      tag_40\n        /* \"/verifier.sol\":8922:8924  vk */\n      dup6\n        /* \"/verifier.sol\":8922:8934  vk.gamma_abc */\n      0x80\n      add\n      mload\n        /* \"/verifier.sol\":8939:8940  1 */\n      0x01\n        /* \"/verifier.sol\":8935:8936  i */\n      dup6\n        /* \"/verifier.sol\":8935:8940  i + 1 */\n      tag_41\n      swap2\n      swap1\n      tag_31\n      jump\t// in\n    tag_41:\n        /* \"/verifier.sol\":8922:8941  vk.gamma_abc[i + 1] */\n      dup2\n      mload\n      dup2\n      lt\n      tag_42\n      jumpi\n      tag_43\n      tag_20\n      jump\t// in\n    tag_43:\n    tag_42:\n      0x20\n      mul\n      0x20\n      add\n      add\n      mload\n        /* \"/verifier.sol\":8943:8948  input */\n      dup11\n        /* \"/verifier.sol\":8949:8950  i */\n      dup6\n        /* \"/verifier.sol\":8943:8951  input[i] */\n      dup2\n      mload\n      dup2\n      lt\n      tag_44\n      jumpi\n      tag_45\n      tag_20\n      jump\t// in\n    tag_45:\n    tag_44:\n      0x20\n      mul\n      0x20\n      add\n      add\n      mload\n        /* \"/verifier.sol\":8903:8921  Pairing.scalar_mul */\n      tag_46\n        /* \"/verifier.sol\":8903:8952  Pairing.scalar_mul(vk.gamma_abc[i + 1], input[i]) */\n      jump\t// in\n    tag_40:\n        /* \"/verifier.sol\":8880:8896  Pairing.addition */\n      tag_47\n        /* \"/verifier.sol\":8880:8953  Pairing.addition(vk_x, Pairing.scalar_mul(vk.gamma_abc[i + 1], input[i])) */\n      jump\t// in\n    tag_39:\n        /* \"/verifier.sol\":8873:8953  vk_x = Pairing.addition(vk_x, Pairing.scalar_mul(vk.gamma_abc[i + 1], input[i])) */\n      swap2\n      pop\n        /* \"/verifier.sol\":8802:8805  i++ */\n      dup1\n      dup1\n      0x01\n      add\n      swap2\n      pop\n      pop\n        /* \"/verifier.sol\":8767:8964  for (uint i = 0; i < input.length; i++) {... */\n      jump(tag_33)\n    tag_34:\n      pop\n        /* \"/verifier.sol\":8980:9019  Pairing.addition(vk_x, vk.gamma_abc[0]) */\n      tag_48\n        /* \"/verifier.sol\":8997:9001  vk_x */\n      dup2\n        /* \"/verifier.sol\":9003:9005  vk */\n      dup4\n        /* \"/verifier.sol\":9003:9015  vk.gamma_abc */\n      0x80\n      add\n      mload\n        /* \"/verifier.sol\":9016:9017  0 */\n      0x00\n        /* \"/verifier.sol\":9003:9018  vk.gamma_abc[0] */\n      dup2\n      mload\n      dup2\n      lt\n      tag_49\n      jumpi\n      tag_50\n      tag_20\n      jump\t// in\n    tag_50:\n    tag_49:\n      0x20\n      mul\n      0x20\n      add\n      add\n      mload\n        /* \"/verifier.sol\":8980:8996  Pairing.addition */\n      tag_47\n        /* \"/verifier.sol\":8980:9019  Pairing.addition(vk_x, vk.gamma_abc[0]) */\n      jump\t// in\n    tag_48:\n        /* \"/verifier.sol\":8973:9019  vk_x = Pairing.addition(vk_x, vk.gamma_abc[0]) */\n      swap1\n      pop\n        /* \"/verifier.sol\":9033:9226  Pairing.pairingProd4(... */\n      tag_51\n        /* \"/verifier.sol\":9068:9073  proof */\n      dup6\n        /* \"/verifier.sol\":9068:9075  proof.a */\n      0x00\n      add\n      mload\n        /* \"/verifier.sol\":9077:9082  proof */\n      dup7\n        /* \"/verifier.sol\":9077:9084  proof.b */\n      0x20\n      add\n      mload\n        /* \"/verifier.sol\":9099:9119  Pairing.negate(vk_x) */\n      tag_52\n        /* \"/verifier.sol\":9114:9118  vk_x */\n      dup5\n        /* \"/verifier.sol\":9099:9113  Pairing.negate */\n      tag_53\n        /* \"/verifier.sol\":9099:9119  Pairing.negate(vk_x) */\n      jump\t// in\n    tag_52:\n        /* \"/verifier.sol\":9121:9123  vk */\n      dup6\n        /* \"/verifier.sol\":9121:9129  vk.gamma */\n      0x40\n      add\n      mload\n        /* \"/verifier.sol\":9144:9167  Pairing.negate(proof.c) */\n      tag_54\n        /* \"/verifier.sol\":9159:9164  proof */\n      dup11\n        /* \"/verifier.sol\":9159:9166  proof.c */\n      0x40\n      add\n      mload\n        /* \"/verifier.sol\":9144:9158  Pairing.negate */\n      tag_53\n        /* \"/verifier.sol\":9144:9167  Pairing.negate(proof.c) */\n      jump\t// in\n    tag_54:\n        /* \"/verifier.sol\":9169:9171  vk */\n      dup8\n        /* \"/verifier.sol\":9169:9177  vk.delta */\n      0x60\n      add\n      mload\n        /* \"/verifier.sol\":9192:9216  Pairing.negate(vk.alpha) */\n      tag_55\n        /* \"/verifier.sol\":9207:9209  vk */\n      dup10\n        /* \"/verifier.sol\":9207:9215  vk.alpha */\n      0x00\n      add\n      mload\n        /* \"/verifier.sol\":9192:9206  Pairing.negate */\n      tag_53\n        /* \"/verifier.sol\":9192:9216  Pairing.negate(vk.alpha) */\n      jump\t// in\n    tag_55:\n        /* \"/verifier.sol\":9218:9220  vk */\n      dup10\n        /* \"/verifier.sol\":9218:9225  vk.beta */\n      0x20\n      add\n      mload\n        /* \"/verifier.sol\":9033:9053  Pairing.pairingProd4 */\n      tag_56\n        /* \"/verifier.sol\":9033:9226  Pairing.pairingProd4(... */\n      jump\t// in\n    tag_51:\n        /* \"/verifier.sol\":9029:9236  if(!Pairing.pairingProd4(... */\n      tag_57\n      jumpi\n        /* \"/verifier.sol\":9235:9236  1 */\n      0x01\n        /* \"/verifier.sol\":9228:9236  return 1 */\n      swap4\n      pop\n      pop\n      pop\n      pop\n      jump(tag_27)\n        /* \"/verifier.sol\":9029:9236  if(!Pairing.pairingProd4(... */\n    tag_57:\n        /* \"/verifier.sol\":9253:9254  0 */\n      0x00\n        /* \"/verifier.sol\":9246:9254  return 0 */\n      swap4\n      pop\n      pop\n      pop\n      pop\n        /* \"/verifier.sol\":8340:9261  function verify(uint[] memory input, Proof memory proof) internal view returns (uint) {... */\n    tag_27:\n      swap3\n      swap2\n      pop\n      pop\n      jump\t// out\n        /* \"/verifier.sol\":6581:8335  function verifyingKey() pure internal returns (VerifyingKey memory vk) {... */\n    tag_29:\n        /* \"/verifier.sol\":6628:6650  VerifyingKey memory vk */\n      tag_58\n      tag_59\n      jump\t// in\n    tag_58:\n        /* \"/verifier.sol\":6673:6842  Pairing.G1Point(uint256(0x0f1b6d6179248c6bd45ece92c32f5e951a5e1f044cd7e8e0bf7b2ece953a658b), uint256(0x1bc88b60d250927ddbf51047bd3574f2c96b328af7850d1d9c6ca86bb2e79199)) */\n      mload(0x40)\n      dup1\n      0x40\n      add\n      0x40\n      mstore\n      dup1\n        /* \"/verifier.sol\":6697:6763  0x0f1b6d6179248c6bd45ece92c32f5e951a5e1f044cd7e8e0bf7b2ece953a658b */\n      0x0f1b6d6179248c6bd45ece92c32f5e951a5e1f044cd7e8e0bf7b2ece953a658b\n        /* \"/verifier.sol\":6673:6842  Pairing.G1Point(uint256(0x0f1b6d6179248c6bd45ece92c32f5e951a5e1f044cd7e8e0bf7b2ece953a658b), uint256(0x1bc88b60d250927ddbf51047bd3574f2c96b328af7850d1d9c6ca86bb2e79199)) */\n      dup2\n      mstore\n      0x20\n      add\n        /* \"/verifier.sol\":6774:6840  0x1bc88b60d250927ddbf51047bd3574f2c96b328af7850d1d9c6ca86bb2e79199 */\n      0x1bc88b60d250927ddbf51047bd3574f2c96b328af7850d1d9c6ca86bb2e79199\n        /* \"/verifier.sol\":6673:6842  Pairing.G1Point(uint256(0x0f1b6d6179248c6bd45ece92c32f5e951a5e1f044cd7e8e0bf7b2ece953a658b), uint256(0x1bc88b60d250927ddbf51047bd3574f2c96b328af7850d1d9c6ca86bb2e79199)) */\n      dup2\n      mstore\n      pop\n        /* \"/verifier.sol\":6662:6664  vk */\n      dup2\n        /* \"/verifier.sol\":6662:6670  vk.alpha */\n      0x00\n      add\n        /* \"/verifier.sol\":6662:6842  vk.alpha = Pairing.G1Point(uint256(0x0f1b6d6179248c6bd45ece92c32f5e951a5e1f044cd7e8e0bf7b2ece953a658b), uint256(0x1bc88b60d250927ddbf51047bd3574f2c96b328af7850d1d9c6ca86bb2e79199)) */\n      dup2\n      swap1\n      mstore\n      pop\n        /* \"/verifier.sol\":6862:7189  Pairing.G2Point([uint256(0x024c3773a74609212e203bd9fd4d35f4cce907574476f88223ec9a094b93de89), uint256(0x233775944152dd29451b269792941606804b0172fa4e8c2706dff6ba2d22e061)], [uint256(0x0ebbee173c7eafdd5ce56e7b2bec38554cfe53e0abde361748216b122471ad29), uint256(0x2dcf5f4cc2d0dc2afcbea24d154789106c6614dc67ecd538b2099828a6c9e240)]) */\n      mload(0x40)\n      dup1\n      0x40\n      add\n      0x40\n      mstore\n      dup1\n      mload(0x40)\n      dup1\n      0x40\n      add\n      0x40\n      mstore\n      dup1\n        /* \"/verifier.sol\":6887:6953  0x024c3773a74609212e203bd9fd4d35f4cce907574476f88223ec9a094b93de89 */\n      0x024c3773a74609212e203bd9fd4d35f4cce907574476f88223ec9a094b93de89\n        /* \"/verifier.sol\":6862:7189  Pairing.G2Point([uint256(0x024c3773a74609212e203bd9fd4d35f4cce907574476f88223ec9a094b93de89), uint256(0x233775944152dd29451b269792941606804b0172fa4e8c2706dff6ba2d22e061)], [uint256(0x0ebbee173c7eafdd5ce56e7b2bec38554cfe53e0abde361748216b122471ad29), uint256(0x2dcf5f4cc2d0dc2afcbea24d154789106c6614dc67ecd538b2099828a6c9e240)]) */\n      dup2\n      mstore\n      0x20\n      add\n        /* \"/verifier.sol\":6964:7030  0x233775944152dd29451b269792941606804b0172fa4e8c2706dff6ba2d22e061 */\n      0x233775944152dd29451b269792941606804b0172fa4e8c2706dff6ba2d22e061\n        /* \"/verifier.sol\":6862:7189  Pairing.G2Point([uint256(0x024c3773a74609212e203bd9fd4d35f4cce907574476f88223ec9a094b93de89), uint256(0x233775944152dd29451b269792941606804b0172fa4e8c2706dff6ba2d22e061)], [uint256(0x0ebbee173c7eafdd5ce56e7b2bec38554cfe53e0abde361748216b122471ad29), uint256(0x2dcf5f4cc2d0dc2afcbea24d154789106c6614dc67ecd538b2099828a6c9e240)]) */\n      dup2\n      mstore\n      pop\n      dup2\n      mstore\n      0x20\n      add\n      mload(0x40)\n      dup1\n      0x40\n      add\n      0x40\n      mstore\n      dup1\n        /* \"/verifier.sol\":7043:7109  0x0ebbee173c7eafdd5ce56e7b2bec38554cfe53e0abde361748216b122471ad29 */\n      0x0ebbee173c7eafdd5ce56e7b2bec38554cfe53e0abde361748216b122471ad29\n        /* \"/verifier.sol\":6862:7189  Pairing.G2Point([uint256(0x024c3773a74609212e203bd9fd4d35f4cce907574476f88223ec9a094b93de89), uint256(0x233775944152dd29451b269792941606804b0172fa4e8c2706dff6ba2d22e061)], [uint256(0x0ebbee173c7eafdd5ce56e7b2bec38554cfe53e0abde361748216b122471ad29), uint256(0x2dcf5f4cc2d0dc2afcbea24d154789106c6614dc67ecd538b2099828a6c9e240)]) */\n      dup2\n      mstore\n      0x20\n      add\n        /* \"/verifier.sol\":7120:7186  0x2dcf5f4cc2d0dc2afcbea24d154789106c6614dc67ecd538b2099828a6c9e240 */\n      0x2dcf5f4cc2d0dc2afcbea24d154789106c6614dc67ecd538b2099828a6c9e240\n        /* \"/verifier.sol\":6862:7189  Pairing.G2Point([uint256(0x024c3773a74609212e203bd9fd4d35f4cce907574476f88223ec9a094b93de89), uint256(0x233775944152dd29451b269792941606804b0172fa4e8c2706dff6ba2d22e061)], [uint256(0x0ebbee173c7eafdd5ce56e7b2bec38554cfe53e0abde361748216b122471ad29), uint256(0x2dcf5f4cc2d0dc2afcbea24d154789106c6614dc67ecd538b2099828a6c9e240)]) */\n      dup2\n      mstore\n      pop\n      dup2\n      mstore\n      pop\n        /* \"/verifier.sol\":6852:6854  vk */\n      dup2\n        /* \"/verifier.sol\":6852:6859  vk.beta */\n      0x20\n      add\n        /* \"/verifier.sol\":6852:7189  vk.beta = Pairing.G2Point([uint256(0x024c3773a74609212e203bd9fd4d35f4cce907574476f88223ec9a094b93de89), uint256(0x233775944152dd29451b269792941606804b0172fa4e8c2706dff6ba2d22e061)], [uint256(0x0ebbee173c7eafdd5ce56e7b2bec38554cfe53e0abde361748216b122471ad29), uint256(0x2dcf5f4cc2d0dc2afcbea24d154789106c6614dc67ecd538b2099828a6c9e240)]) */\n      dup2\n      swap1\n      mstore\n      pop\n        /* \"/verifier.sol\":7210:7537  Pairing.G2Point([uint256(0x2d35bcf62ebef92ec308c773a83735821885e684ab865e7e27d185a43b3e063b), uint256(0x099a97819409943069fcae33a672c517abe4f2597cc85319bdce1fecc6e9b113)], [uint256(0x2b839dfe5fc1b894f40fb02168af2568f62ed02f244c4c791a24d2b3ace6c811), uint256(0x2a064aeff8c23d6762979c8e44ae441117962fcae7c8497263910ded492ab8b5)]) */\n      mload(0x40)\n      dup1\n      0x40\n      add\n      0x40\n      mstore\n      dup1\n      mload(0x40)\n      dup1\n      0x40\n      add\n      0x40\n      mstore\n      dup1\n        /* \"/verifier.sol\":7235:7301  0x2d35bcf62ebef92ec308c773a83735821885e684ab865e7e27d185a43b3e063b */\n      0x2d35bcf62ebef92ec308c773a83735821885e684ab865e7e27d185a43b3e063b\n        /* \"/verifier.sol\":7210:7537  Pairing.G2Point([uint256(0x2d35bcf62ebef92ec308c773a83735821885e684ab865e7e27d185a43b3e063b), uint256(0x099a97819409943069fcae33a672c517abe4f2597cc85319bdce1fecc6e9b113)], [uint256(0x2b839dfe5fc1b894f40fb02168af2568f62ed02f244c4c791a24d2b3ace6c811), uint256(0x2a064aeff8c23d6762979c8e44ae441117962fcae7c8497263910ded492ab8b5)]) */\n      dup2\n      mstore\n      0x20\n      add\n        /* \"/verifier.sol\":7312:7378  0x099a97819409943069fcae33a672c517abe4f2597cc85319bdce1fecc6e9b113 */\n      0x099a97819409943069fcae33a672c517abe4f2597cc85319bdce1fecc6e9b113\n        /* \"/verifier.sol\":7210:7537  Pairing.G2Point([uint256(0x2d35bcf62ebef92ec308c773a83735821885e684ab865e7e27d185a43b3e063b), uint256(0x099a97819409943069fcae33a672c517abe4f2597cc85319bdce1fecc6e9b113)], [uint256(0x2b839dfe5fc1b894f40fb02168af2568f62ed02f244c4c791a24d2b3ace6c811), uint256(0x2a064aeff8c23d6762979c8e44ae441117962fcae7c8497263910ded492ab8b5)]) */\n      dup2\n      mstore\n      pop\n      dup2\n      mstore\n      0x20\n      add\n      mload(0x40)\n      dup1\n      0x40\n      add\n      0x40\n      mstore\n      dup1\n        /* \"/verifier.sol\":7391:7457  0x2b839dfe5fc1b894f40fb02168af2568f62ed02f244c4c791a24d2b3ace6c811 */\n      0x2b839dfe5fc1b894f40fb02168af2568f62ed02f244c4c791a24d2b3ace6c811\n        /* \"/verifier.sol\":7210:7537  Pairing.G2Point([uint256(0x2d35bcf62ebef92ec308c773a83735821885e684ab865e7e27d185a43b3e063b), uint256(0x099a97819409943069fcae33a672c517abe4f2597cc85319bdce1fecc6e9b113)], [uint256(0x2b839dfe5fc1b894f40fb02168af2568f62ed02f244c4c791a24d2b3ace6c811), uint256(0x2a064aeff8c23d6762979c8e44ae441117962fcae7c8497263910ded492ab8b5)]) */\n      dup2\n      mstore\n      0x20\n      add\n        /* \"/verifier.sol\":7468:7534  0x2a064aeff8c23d6762979c8e44ae441117962fcae7c8497263910ded492ab8b5 */\n      0x2a064aeff8c23d6762979c8e44ae441117962fcae7c8497263910ded492ab8b5\n        /* \"/verifier.sol\":7210:7537  Pairing.G2Point([uint256(0x2d35bcf62ebef92ec308c773a83735821885e684ab865e7e27d185a43b3e063b), uint256(0x099a97819409943069fcae33a672c517abe4f2597cc85319bdce1fecc6e9b113)], [uint256(0x2b839dfe5fc1b894f40fb02168af2568f62ed02f244c4c791a24d2b3ace6c811), uint256(0x2a064aeff8c23d6762979c8e44ae441117962fcae7c8497263910ded492ab8b5)]) */\n      dup2\n      mstore\n      pop\n      dup2\n      mstore\n      pop\n        /* \"/verifier.sol\":7199:7201  vk */\n      dup2\n        /* \"/verifier.sol\":7199:7207  vk.gamma */\n      0x40\n      add\n        /* \"/verifier.sol\":7199:7537  vk.gamma = Pairing.G2Point([uint256(0x2d35bcf62ebef92ec308c773a83735821885e684ab865e7e27d185a43b3e063b), uint256(0x099a97819409943069fcae33a672c517abe4f2597cc85319bdce1fecc6e9b113)], [uint256(0x2b839dfe5fc1b894f40fb02168af2568f62ed02f244c4c791a24d2b3ace6c811), uint256(0x2a064aeff8c23d6762979c8e44ae441117962fcae7c8497263910ded492ab8b5)]) */\n      dup2\n      swap1\n      mstore\n      pop\n        /* \"/verifier.sol\":7558:7885  Pairing.G2Point([uint256(0x23e89b5adf9400aa704c2c56f399175720aaf322a46bf6af042855225f7b0041), uint256(0x29d969840dc66c643dd144a09c114d44f9290b26b0464da721bb7b2a0969e1c6)], [uint256(0x00cf13f2d129cd69a01c4bf98a2fe1b817aeffd136b71c0d2478c14a8e79a877), uint256(0x232f939112948ff8b435964b772da57d1f41c85b09393234741b9b65fb14cc85)]) */\n      mload(0x40)\n      dup1\n      0x40\n      add\n      0x40\n      mstore\n      dup1\n      mload(0x40)\n      dup1\n      0x40\n      add\n      0x40\n      mstore\n      dup1\n        /* \"/verifier.sol\":7583:7649  0x23e89b5adf9400aa704c2c56f399175720aaf322a46bf6af042855225f7b0041 */\n      0x23e89b5adf9400aa704c2c56f399175720aaf322a46bf6af042855225f7b0041\n        /* \"/verifier.sol\":7558:7885  Pairing.G2Point([uint256(0x23e89b5adf9400aa704c2c56f399175720aaf322a46bf6af042855225f7b0041), uint256(0x29d969840dc66c643dd144a09c114d44f9290b26b0464da721bb7b2a0969e1c6)], [uint256(0x00cf13f2d129cd69a01c4bf98a2fe1b817aeffd136b71c0d2478c14a8e79a877), uint256(0x232f939112948ff8b435964b772da57d1f41c85b09393234741b9b65fb14cc85)]) */\n      dup2\n      mstore\n      0x20\n      add\n        /* \"/verifier.sol\":7660:7726  0x29d969840dc66c643dd144a09c114d44f9290b26b0464da721bb7b2a0969e1c6 */\n      0x29d969840dc66c643dd144a09c114d44f9290b26b0464da721bb7b2a0969e1c6\n        /* \"/verifier.sol\":7558:7885  Pairing.G2Point([uint256(0x23e89b5adf9400aa704c2c56f399175720aaf322a46bf6af042855225f7b0041), uint256(0x29d969840dc66c643dd144a09c114d44f9290b26b0464da721bb7b2a0969e1c6)], [uint256(0x00cf13f2d129cd69a01c4bf98a2fe1b817aeffd136b71c0d2478c14a8e79a877), uint256(0x232f939112948ff8b435964b772da57d1f41c85b09393234741b9b65fb14cc85)]) */\n      dup2\n      mstore\n      pop\n      dup2\n      mstore\n      0x20\n      add\n      mload(0x40)\n      dup1\n      0x40\n      add\n      0x40\n      mstore\n      dup1\n        /* \"/verifier.sol\":7739:7805  0x00cf13f2d129cd69a01c4bf98a2fe1b817aeffd136b71c0d2478c14a8e79a877 */\n      0xcf13f2d129cd69a01c4bf98a2fe1b817aeffd136b71c0d2478c14a8e79a877\n        /* \"/verifier.sol\":7558:7885  Pairing.G2Point([uint256(0x23e89b5adf9400aa704c2c56f399175720aaf322a46bf6af042855225f7b0041), uint256(0x29d969840dc66c643dd144a09c114d44f9290b26b0464da721bb7b2a0969e1c6)], [uint256(0x00cf13f2d129cd69a01c4bf98a2fe1b817aeffd136b71c0d2478c14a8e79a877), uint256(0x232f939112948ff8b435964b772da57d1f41c85b09393234741b9b65fb14cc85)]) */\n      dup2\n      mstore\n      0x20\n      add\n        /* \"/verifier.sol\":7816:7882  0x232f939112948ff8b435964b772da57d1f41c85b09393234741b9b65fb14cc85 */\n      0x232f939112948ff8b435964b772da57d1f41c85b09393234741b9b65fb14cc85\n        /* \"/verifier.sol\":7558:7885  Pairing.G2Point([uint256(0x23e89b5adf9400aa704c2c56f399175720aaf322a46bf6af042855225f7b0041), uint256(0x29d969840dc66c643dd144a09c114d44f9290b26b0464da721bb7b2a0969e1c6)], [uint256(0x00cf13f2d129cd69a01c4bf98a2fe1b817aeffd136b71c0d2478c14a8e79a877), uint256(0x232f939112948ff8b435964b772da57d1f41c85b09393234741b9b65fb14cc85)]) */\n      dup2\n      mstore\n      pop\n      dup2\n      mstore\n      pop\n        /* \"/verifier.sol\":7547:7549  vk */\n      dup2\n        /* \"/verifier.sol\":7547:7555  vk.delta */\n      0x60\n      add\n        /* \"/verifier.sol\":7547:7885  vk.delta = Pairing.G2Point([uint256(0x23e89b5adf9400aa704c2c56f399175720aaf322a46bf6af042855225f7b0041), uint256(0x29d969840dc66c643dd144a09c114d44f9290b26b0464da721bb7b2a0969e1c6)], [uint256(0x00cf13f2d129cd69a01c4bf98a2fe1b817aeffd136b71c0d2478c14a8e79a877), uint256(0x232f939112948ff8b435964b772da57d1f41c85b09393234741b9b65fb14cc85)]) */\n      dup2\n      swap1\n      mstore\n      pop\n        /* \"/verifier.sol\":7932:7933  2 */\n      0x02\n        /* \"/verifier.sol\":7910:7934  new Pairing.G1Point[](2) */\n      0xffffffffffffffff\n      dup2\n      gt\n      iszero\n      tag_61\n      jumpi\n      tag_62\n      tag_13\n      jump\t// in\n    tag_62:\n    tag_61:\n      mload(0x40)\n      swap1\n      dup1\n      dup3\n      mstore\n      dup1\n      0x20\n      mul\n      0x20\n      add\n      dup3\n      add\n      0x40\n      mstore\n      dup1\n      iszero\n      tag_63\n      jumpi\n      dup2\n      0x20\n      add\n    tag_64:\n      tag_65\n      tag_66\n      jump\t// in\n    tag_65:\n      dup2\n      mstore\n      0x20\n      add\n      swap1\n      0x01\n      swap1\n      sub\n      swap1\n      dup2\n      tag_64\n      jumpi\n      swap1\n      pop\n    tag_63:\n      pop\n        /* \"/verifier.sol\":7895:7897  vk */\n      dup2\n        /* \"/verifier.sol\":7895:7907  vk.gamma_abc */\n      0x80\n      add\n        /* \"/verifier.sol\":7895:7934  vk.gamma_abc = new Pairing.G1Point[](2) */\n      dup2\n      swap1\n      mstore\n      pop\n        /* \"/verifier.sol\":7962:8131  Pairing.G1Point(uint256(0x0141192f65e2706e652a67c8b60acd6064b4463f4a06d5969c520e84f9526035), uint256(0x2933b0c282a5ea69350ad943d98f135a837a3093d86e7255ba20f1234fcdcfe7)) */\n      mload(0x40)\n      dup1\n      0x40\n      add\n      0x40\n      mstore\n      dup1\n        /* \"/verifier.sol\":7986:8052  0x0141192f65e2706e652a67c8b60acd6064b4463f4a06d5969c520e84f9526035 */\n      0x0141192f65e2706e652a67c8b60acd6064b4463f4a06d5969c520e84f9526035\n        /* \"/verifier.sol\":7962:8131  Pairing.G1Point(uint256(0x0141192f65e2706e652a67c8b60acd6064b4463f4a06d5969c520e84f9526035), uint256(0x2933b0c282a5ea69350ad943d98f135a837a3093d86e7255ba20f1234fcdcfe7)) */\n      dup2\n      mstore\n      0x20\n      add\n        /* \"/verifier.sol\":8063:8129  0x2933b0c282a5ea69350ad943d98f135a837a3093d86e7255ba20f1234fcdcfe7 */\n      0x2933b0c282a5ea69350ad943d98f135a837a3093d86e7255ba20f1234fcdcfe7\n        /* \"/verifier.sol\":7962:8131  Pairing.G1Point(uint256(0x0141192f65e2706e652a67c8b60acd6064b4463f4a06d5969c520e84f9526035), uint256(0x2933b0c282a5ea69350ad943d98f135a837a3093d86e7255ba20f1234fcdcfe7)) */\n      dup2\n      mstore\n      pop\n        /* \"/verifier.sol\":7944:7946  vk */\n      dup2\n        /* \"/verifier.sol\":7944:7956  vk.gamma_abc */\n      0x80\n      add\n      mload\n        /* \"/verifier.sol\":7957:7958  0 */\n      0x00\n        /* \"/verifier.sol\":7944:7959  vk.gamma_abc[0] */\n      dup2\n      mload\n      dup2\n      lt\n      tag_67\n      jumpi\n      tag_68\n      tag_20\n      jump\t// in\n    tag_68:\n    tag_67:\n      0x20\n      mul\n      0x20\n      add\n      add\n        /* \"/verifier.sol\":7944:8131  vk.gamma_abc[0] = Pairing.G1Point(uint256(0x0141192f65e2706e652a67c8b60acd6064b4463f4a06d5969c520e84f9526035), uint256(0x2933b0c282a5ea69350ad943d98f135a837a3093d86e7255ba20f1234fcdcfe7)) */\n      dup2\n      swap1\n      mstore\n      pop\n        /* \"/verifier.sol\":8159:8328  Pairing.G1Point(uint256(0x0ef10e58b5af28515d5f3522cd21202938134ca5b069aa818135f12c81fa2ee0), uint256(0x01d72c53e0c7d578a85cdb16dace650926a087d574fdbdb3387aadee4a6096bb)) */\n      mload(0x40)\n      dup1\n      0x40\n      add\n      0x40\n      mstore\n      dup1\n        /* \"/verifier.sol\":8183:8249  0x0ef10e58b5af28515d5f3522cd21202938134ca5b069aa818135f12c81fa2ee0 */\n      0x0ef10e58b5af28515d5f3522cd21202938134ca5b069aa818135f12c81fa2ee0\n        /* \"/verifier.sol\":8159:8328  Pairing.G1Point(uint256(0x0ef10e58b5af28515d5f3522cd21202938134ca5b069aa818135f12c81fa2ee0), uint256(0x01d72c53e0c7d578a85cdb16dace650926a087d574fdbdb3387aadee4a6096bb)) */\n      dup2\n      mstore\n      0x20\n      add\n        /* \"/verifier.sol\":8260:8326  0x01d72c53e0c7d578a85cdb16dace650926a087d574fdbdb3387aadee4a6096bb */\n      0x01d72c53e0c7d578a85cdb16dace650926a087d574fdbdb3387aadee4a6096bb\n        /* \"/verifier.sol\":8159:8328  Pairing.G1Point(uint256(0x0ef10e58b5af28515d5f3522cd21202938134ca5b069aa818135f12c81fa2ee0), uint256(0x01d72c53e0c7d578a85cdb16dace650926a087d574fdbdb3387aadee4a6096bb)) */\n      dup2\n      mstore\n      pop\n        /* \"/verifier.sol\":8141:8143  vk */\n      dup2\n        /* \"/verifier.sol\":8141:8153  vk.gamma_abc */\n      0x80\n      add\n      mload\n        /* \"/verifier.sol\":8154:8155  1 */\n      0x01\n        /* \"/verifier.sol\":8141:8156  vk.gamma_abc[1] */\n      dup2\n      mload\n      dup2\n      lt\n      tag_69\n      jumpi\n      tag_70\n      tag_20\n      jump\t// in\n    tag_70:\n    tag_69:\n      0x20\n      mul\n      0x20\n      add\n      add\n        /* \"/verifier.sol\":8141:8328  vk.gamma_abc[1] = Pairing.G1Point(uint256(0x0ef10e58b5af28515d5f3522cd21202938134ca5b069aa818135f12c81fa2ee0), uint256(0x01d72c53e0c7d578a85cdb16dace650926a087d574fdbdb3387aadee4a6096bb)) */\n      dup2\n      swap1\n      mstore\n      pop\n        /* \"/verifier.sol\":6581:8335  function verifyingKey() pure internal returns (VerifyingKey memory vk) {... */\n      swap1\n      jump\t// out\n        /* \"/verifier.sol\":3082:3536  function scalar_mul(G1Point memory p, uint s) internal view returns (G1Point memory r) {... */\n    tag_46:\n        /* \"/verifier.sol\":3151:3167  G1Point memory r */\n      tag_71\n      tag_66\n      jump\t// in\n    tag_71:\n        /* \"/verifier.sol\":3179:3199  uint[3] memory input */\n      tag_73\n      tag_74\n      jump\t// in\n    tag_73:\n        /* \"/verifier.sol\":3220:3221  p */\n      dup4\n        /* \"/verifier.sol\":3220:3223  p.X */\n      0x00\n      add\n      mload\n        /* \"/verifier.sol\":3209:3214  input */\n      dup2\n        /* \"/verifier.sol\":3215:3216  0 */\n      0x00\n        /* \"/verifier.sol\":3209:3217  input[0] */\n      0x03\n      dup2\n      lt\n      tag_75\n      jumpi\n      tag_76\n      tag_20\n      jump\t// in\n    tag_76:\n    tag_75:\n      0x20\n      mul\n      add\n        /* \"/verifier.sol\":3209:3223  input[0] = p.X */\n      dup2\n      dup2\n      mstore\n      pop\n      pop\n        /* \"/verifier.sol\":3244:3245  p */\n      dup4\n        /* \"/verifier.sol\":3244:3247  p.Y */\n      0x20\n      add\n      mload\n        /* \"/verifier.sol\":3233:3238  input */\n      dup2\n        /* \"/verifier.sol\":3239:3240  1 */\n      0x01\n        /* \"/verifier.sol\":3233:3241  input[1] */\n      0x03\n      dup2\n      lt\n      tag_77\n      jumpi\n      tag_78\n      tag_20\n      jump\t// in\n    tag_78:\n    tag_77:\n      0x20\n      mul\n      add\n        /* \"/verifier.sol\":3233:3247  input[1] = p.Y */\n      dup2\n      dup2\n      mstore\n      pop\n      pop\n        /* \"/verifier.sol\":3268:3269  s */\n      dup3\n        /* \"/verifier.sol\":3257:3262  input */\n      dup2\n        /* \"/verifier.sol\":3263:3264  2 */\n      0x02\n        /* \"/verifier.sol\":3257:3265  input[2] */\n      0x03\n      dup2\n      lt\n      tag_79\n      jumpi\n      tag_80\n      tag_20\n      jump\t// in\n    tag_80:\n    tag_79:\n      0x20\n      mul\n      add\n        /* \"/verifier.sol\":3257:3269  input[2] = s */\n      dup2\n      dup2\n      mstore\n      pop\n      pop\n        /* \"/verifier.sol\":3279:3291  bool success */\n      0x00\n        /* \"/verifier.sol\":3383:3387  0x60 */\n      0x60\n        /* \"/verifier.sol\":3380:3381  r */\n      dup4\n        /* \"/verifier.sol\":3374:3378  0x80 */\n      0x80\n        /* \"/verifier.sol\":3367:3372  input */\n      dup5\n        /* \"/verifier.sol\":3364:3365  7 */\n      0x07\n        /* \"/verifier.sol\":3357:3361  2000 */\n      0x07d0\n        /* \"/verifier.sol\":3350:3355  gas() */\n      gas\n        /* \"/verifier.sol\":3346:3362  sub(gas(), 2000) */\n      sub\n        /* \"/verifier.sol\":3335:3388  staticcall(sub(gas(), 2000), 7, input, 0x80, r, 0x60) */\n      staticcall\n        /* \"/verifier.sol\":3324:3388  success := staticcall(sub(gas(), 2000), 7, input, 0x80, r, 0x60) */\n      swap1\n      pop\n        /* \"/verifier.sol\":3465:3472  success */\n      dup1\n        /* \"/verifier.sol\":3478:3479  0 */\n      0x00\n        /* \"/verifier.sol\":3473:3493  case 0 { invalid() } */\n      dup2\n      sub\n        /* \"/verifier.sol\":3458:3493  switch success case 0 { invalid() } */\n      tag_81\n        /* \"/verifier.sol\":3473:3493  case 0 { invalid() } */\n      jumpi\n        /* \"/verifier.sol\":3482:3491  invalid() */\n      invalid\n        /* \"/verifier.sol\":3458:3493  switch success case 0 { invalid() } */\n    tag_81:\n      pop\n        /* \"/verifier.sol\":3521:3528  success */\n      dup1\n        /* \"/verifier.sol\":3512:3529  require (success) */\n      tag_83\n      jumpi\n      0x00\n      dup1\n      revert\n    tag_83:\n        /* \"/verifier.sol\":3169:3536  {... */\n      pop\n      pop\n        /* \"/verifier.sol\":3082:3536  function scalar_mul(G1Point memory p, uint s) internal view returns (G1Point memory r) {... */\n      swap3\n      swap2\n      pop\n      pop\n      jump\t// out\n        /* \"/verifier.sol\":2432:2925  function addition(G1Point memory p1, G1Point memory p2) internal view returns (G1Point memory r) {... */\n    tag_47:\n        /* \"/verifier.sol\":2511:2527  G1Point memory r */\n      tag_84\n      tag_66\n      jump\t// in\n    tag_84:\n        /* \"/verifier.sol\":2539:2559  uint[4] memory input */\n      tag_86\n      tag_87\n      jump\t// in\n    tag_86:\n        /* \"/verifier.sol\":2580:2582  p1 */\n      dup4\n        /* \"/verifier.sol\":2580:2584  p1.X */\n      0x00\n      add\n      mload\n        /* \"/verifier.sol\":2569:2574  input */\n      dup2\n        /* \"/verifier.sol\":2575:2576  0 */\n      0x00\n        /* \"/verifier.sol\":2569:2577  input[0] */\n      0x04\n      dup2\n      lt\n      tag_88\n      jumpi\n      tag_89\n      tag_20\n      jump\t// in\n    tag_89:\n    tag_88:\n      0x20\n      mul\n      add\n        /* \"/verifier.sol\":2569:2584  input[0] = p1.X */\n      dup2\n      dup2\n      mstore\n      pop\n      pop\n        /* \"/verifier.sol\":2605:2607  p1 */\n      dup4\n        /* \"/verifier.sol\":2605:2609  p1.Y */\n      0x20\n      add\n      mload\n        /* \"/verifier.sol\":2594:2599  input */\n      dup2\n        /* \"/verifier.sol\":2600:2601  1 */\n      0x01\n        /* \"/verifier.sol\":2594:2602  input[1] */\n      0x04\n      dup2\n      lt\n      tag_90\n      jumpi\n      tag_91\n      tag_20\n      jump\t// in\n    tag_91:\n    tag_90:\n      0x20\n      mul\n      add\n        /* \"/verifier.sol\":2594:2609  input[1] = p1.Y */\n      dup2\n      dup2\n      mstore\n      pop\n      pop\n        /* \"/verifier.sol\":2630:2632  p2 */\n      dup3\n        /* \"/verifier.sol\":2630:2634  p2.X */\n      0x00\n      add\n      mload\n        /* \"/verifier.sol\":2619:2624  input */\n      dup2\n        /* \"/verifier.sol\":2625:2626  2 */\n      0x02\n        /* \"/verifier.sol\":2619:2627  input[2] */\n      0x04\n      dup2\n      lt\n      tag_92\n      jumpi\n      tag_93\n      tag_20\n      jump\t// in\n    tag_93:\n    tag_92:\n      0x20\n      mul\n      add\n        /* \"/verifier.sol\":2619:2634  input[2] = p2.X */\n      dup2\n      dup2\n      mstore\n      pop\n      pop\n        /* \"/verifier.sol\":2655:2657  p2 */\n      dup3\n        /* \"/verifier.sol\":2655:2659  p2.Y */\n      0x20\n      add\n      mload\n        /* \"/verifier.sol\":2644:2649  input */\n      dup2\n        /* \"/verifier.sol\":2650:2651  3 */\n      0x03\n        /* \"/verifier.sol\":2644:2652  input[3] */\n      0x04\n      dup2\n      lt\n      tag_94\n      jumpi\n      tag_95\n      tag_20\n      jump\t// in\n    tag_95:\n    tag_94:\n      0x20\n      mul\n      add\n        /* \"/verifier.sol\":2644:2659  input[3] = p2.Y */\n      dup2\n      dup2\n      mstore\n      pop\n      pop\n        /* \"/verifier.sol\":2669:2681  bool success */\n      0x00\n        /* \"/verifier.sol\":2773:2777  0x60 */\n      0x60\n        /* \"/verifier.sol\":2770:2771  r */\n      dup4\n        /* \"/verifier.sol\":2764:2768  0xc0 */\n      0xc0\n        /* \"/verifier.sol\":2757:2762  input */\n      dup5\n        /* \"/verifier.sol\":2754:2755  6 */\n      0x06\n        /* \"/verifier.sol\":2747:2751  2000 */\n      0x07d0\n        /* \"/verifier.sol\":2740:2745  gas() */\n      gas\n        /* \"/verifier.sol\":2736:2752  sub(gas(), 2000) */\n      sub\n        /* \"/verifier.sol\":2725:2778  staticcall(sub(gas(), 2000), 6, input, 0xc0, r, 0x60) */\n      staticcall\n        /* \"/verifier.sol\":2714:2778  success := staticcall(sub(gas(), 2000), 6, input, 0xc0, r, 0x60) */\n      swap1\n      pop\n        /* \"/verifier.sol\":2855:2862  success */\n      dup1\n        /* \"/verifier.sol\":2868:2869  0 */\n      0x00\n        /* \"/verifier.sol\":2863:2883  case 0 { invalid() } */\n      dup2\n      sub\n        /* \"/verifier.sol\":2848:2883  switch success case 0 { invalid() } */\n      tag_96\n        /* \"/verifier.sol\":2863:2883  case 0 { invalid() } */\n      jumpi\n        /* \"/verifier.sol\":2872:2881  invalid() */\n      invalid\n        /* \"/verifier.sol\":2848:2883  switch success case 0 { invalid() } */\n    tag_96:\n      pop\n        /* \"/verifier.sol\":2910:2917  success */\n      dup1\n        /* \"/verifier.sol\":2902:2918  require(success) */\n      tag_98\n      jumpi\n      0x00\n      dup1\n      revert\n    tag_98:\n        /* \"/verifier.sol\":2529:2925  {... */\n      pop\n      pop\n        /* \"/verifier.sol\":2432:2925  function addition(G1Point memory p1, G1Point memory p2) internal view returns (G1Point memory r) {... */\n      swap3\n      swap2\n      pop\n      pop\n      jump\t// out\n        /* \"/verifier.sol\":2041:2381  function negate(G1Point memory p) pure internal returns (G1Point memory) {... */\n    tag_53:\n        /* \"/verifier.sol\":2098:2112  G1Point memory */\n      tag_99\n      tag_66\n      jump\t// in\n    tag_99:\n        /* \"/verifier.sol\":2176:2182  uint q */\n      0x00\n        /* \"/verifier.sol\":2185:2262  21888242871839275222246405745257275088696311157297823662689037894645226208583 */\n      0x30644e72e131a029b85045b68181585d97816a916871ca8d3c208c16d87cfd47\n        /* \"/verifier.sol\":2176:2262  uint q = 21888242871839275222246405745257275088696311157297823662689037894645226208583 */\n      swap1\n      pop\n        /* \"/verifier.sol\":2283:2284  0 */\n      0x00\n        /* \"/verifier.sol\":2276:2277  p */\n      dup4\n        /* \"/verifier.sol\":2276:2279  p.X */\n      0x00\n      add\n      mload\n        /* \"/verifier.sol\":2276:2284  p.X == 0 */\n      eq\n        /* \"/verifier.sol\":2276:2296  p.X == 0 && p.Y == 0 */\n      dup1\n      iszero\n      tag_101\n      jumpi\n      pop\n        /* \"/verifier.sol\":2295:2296  0 */\n      0x00\n        /* \"/verifier.sol\":2288:2289  p */\n      dup4\n        /* \"/verifier.sol\":2288:2291  p.Y */\n      0x20\n      add\n      mload\n        /* \"/verifier.sol\":2288:2296  p.Y == 0 */\n      eq\n        /* \"/verifier.sol\":2276:2296  p.X == 0 && p.Y == 0 */\n    tag_101:\n        /* \"/verifier.sol\":2272:2330  if (p.X == 0 && p.Y == 0)... */\n      iszero\n      tag_102\n      jumpi\n        /* \"/verifier.sol\":2317:2330  G1Point(0, 0) */\n      mload(0x40)\n      dup1\n      0x40\n      add\n      0x40\n      mstore\n      dup1\n        /* \"/verifier.sol\":2325:2326  0 */\n      0x00\n        /* \"/verifier.sol\":2317:2330  G1Point(0, 0) */\n      dup2\n      mstore\n      0x20\n      add\n        /* \"/verifier.sol\":2328:2329  0 */\n      0x00\n        /* \"/verifier.sol\":2317:2330  G1Point(0, 0) */\n      dup2\n      mstore\n      pop\n        /* \"/verifier.sol\":2310:2330  return G1Point(0, 0) */\n      swap2\n      pop\n      pop\n      jump(tag_100)\n        /* \"/verifier.sol\":2272:2330  if (p.X == 0 && p.Y == 0)... */\n    tag_102:\n        /* \"/verifier.sol\":2347:2374  G1Point(p.X, q - (p.Y % q)) */\n      mload(0x40)\n      dup1\n      0x40\n      add\n      0x40\n      mstore\n      dup1\n        /* \"/verifier.sol\":2355:2356  p */\n      dup5\n        /* \"/verifier.sol\":2355:2358  p.X */\n      0x00\n      add\n      mload\n        /* \"/verifier.sol\":2347:2374  G1Point(p.X, q - (p.Y % q)) */\n      dup2\n      mstore\n      0x20\n      add\n        /* \"/verifier.sol\":2371:2372  q */\n      dup3\n        /* \"/verifier.sol\":2365:2366  p */\n      dup6\n        /* \"/verifier.sol\":2365:2368  p.Y */\n      0x20\n      add\n      mload\n        /* \"/verifier.sol\":2365:2372  p.Y % q */\n      tag_103\n      swap2\n      swap1\n      tag_104\n      jump\t// in\n    tag_103:\n        /* \"/verifier.sol\":2360:2361  q */\n      dup4\n        /* \"/verifier.sol\":2360:2373  q - (p.Y % q) */\n      tag_105\n      swap2\n      swap1\n      tag_106\n      jump\t// in\n    tag_105:\n        /* \"/verifier.sol\":2347:2374  G1Point(p.X, q - (p.Y % q)) */\n      dup2\n      mstore\n      pop\n        /* \"/verifier.sol\":2340:2374  return G1Point(p.X, q - (p.Y % q)) */\n      swap2\n      pop\n      pop\n        /* \"/verifier.sol\":2041:2381  function negate(G1Point memory p) pure internal returns (G1Point memory) {... */\n    tag_100:\n      swap2\n      swap1\n      pop\n      jump\t// out\n        /* \"/verifier.sol\":5678:6230  function pairingProd4(... */\n    tag_56:\n        /* \"/verifier.sol\":5929:5933  bool */\n      0x00\n        /* \"/verifier.sol\":5945:5964  G1Point[] memory p1 */\n      dup1\n        /* \"/verifier.sol\":5981:5982  4 */\n      0x04\n        /* \"/verifier.sol\":5967:5983  new G1Point[](4) */\n      0xffffffffffffffff\n      dup2\n      gt\n      iszero\n      tag_108\n      jumpi\n      tag_109\n      tag_13\n      jump\t// in\n    tag_109:\n    tag_108:\n      mload(0x40)\n      swap1\n      dup1\n      dup3\n      mstore\n      dup1\n      0x20\n      mul\n      0x20\n      add\n      dup3\n      add\n      0x40\n      mstore\n      dup1\n      iszero\n      tag_110\n      jumpi\n      dup2\n      0x20\n      add\n    tag_111:\n      tag_112\n      tag_66\n      jump\t// in\n    tag_112:\n      dup2\n      mstore\n      0x20\n      add\n      swap1\n      0x01\n      swap1\n      sub\n      swap1\n      dup2\n      tag_111\n      jumpi\n      swap1\n      pop\n    tag_110:\n      pop\n        /* \"/verifier.sol\":5945:5983  G1Point[] memory p1 = new G1Point[](4) */\n      swap1\n      pop\n        /* \"/verifier.sol\":5993:6012  G2Point[] memory p2 */\n      0x00\n        /* \"/verifier.sol\":6029:6030  4 */\n      0x04\n        /* \"/verifier.sol\":6015:6031  new G2Point[](4) */\n      0xffffffffffffffff\n      dup2\n      gt\n      iszero\n      tag_113\n      jumpi\n      tag_114\n      tag_13\n      jump\t// in\n    tag_114:\n    tag_113:\n      mload(0x40)\n      swap1\n      dup1\n      dup3\n      mstore\n      dup1\n      0x20\n      mul\n      0x20\n      add\n      dup3\n      add\n      0x40\n      mstore\n      dup1\n      iszero\n      tag_115\n      jumpi\n      dup2\n      0x20\n      add\n    tag_116:\n      tag_117\n      tag_118\n      jump\t// in\n    tag_117:\n      dup2\n      mstore\n      0x20\n      add\n      swap1\n      0x01\n      swap1\n      sub\n      swap1\n      dup2\n      tag_116\n      jumpi\n      swap1\n      pop\n    tag_115:\n      pop\n        /* \"/verifier.sol\":5993:6031  G2Point[] memory p2 = new G2Point[](4) */\n      swap1\n      pop\n        /* \"/verifier.sol\":6049:6051  a1 */\n      dup11\n        /* \"/verifier.sol\":6041:6043  p1 */\n      dup3\n        /* \"/verifier.sol\":6044:6045  0 */\n      0x00\n        /* \"/verifier.sol\":6041:6046  p1[0] */\n      dup2\n      mload\n      dup2\n      lt\n      tag_119\n      jumpi\n      tag_120\n      tag_20\n      jump\t// in\n    tag_120:\n    tag_119:\n      0x20\n      mul\n      0x20\n      add\n      add\n        /* \"/verifier.sol\":6041:6051  p1[0] = a1 */\n      dup2\n      swap1\n      mstore\n      pop\n        /* \"/verifier.sol\":6069:6071  b1 */\n      dup9\n        /* \"/verifier.sol\":6061:6063  p1 */\n      dup3\n        /* \"/verifier.sol\":6064:6065  1 */\n      0x01\n        /* \"/verifier.sol\":6061:6066  p1[1] */\n      dup2\n      mload\n      dup2\n      lt\n      tag_121\n      jumpi\n      tag_122\n      tag_20\n      jump\t// in\n    tag_122:\n    tag_121:\n      0x20\n      mul\n      0x20\n      add\n      add\n        /* \"/verifier.sol\":6061:6071  p1[1] = b1 */\n      dup2\n      swap1\n      mstore\n      pop\n        /* \"/verifier.sol\":6089:6091  c1 */\n      dup7\n        /* \"/verifier.sol\":6081:6083  p1 */\n      dup3\n        /* \"/verifier.sol\":6084:6085  2 */\n      0x02\n        /* \"/verifier.sol\":6081:6086  p1[2] */\n      dup2\n      mload\n      dup2\n      lt\n      tag_123\n      jumpi\n      tag_124\n      tag_20\n      jump\t// in\n    tag_124:\n    tag_123:\n      0x20\n      mul\n      0x20\n      add\n      add\n        /* \"/verifier.sol\":6081:6091  p1[2] = c1 */\n      dup2\n      swap1\n      mstore\n      pop\n        /* \"/verifier.sol\":6109:6111  d1 */\n      dup5\n        /* \"/verifier.sol\":6101:6103  p1 */\n      dup3\n        /* \"/verifier.sol\":6104:6105  3 */\n      0x03\n        /* \"/verifier.sol\":6101:6106  p1[3] */\n      dup2\n      mload\n      dup2\n      lt\n      tag_125\n      jumpi\n      tag_126\n      tag_20\n      jump\t// in\n    tag_126:\n    tag_125:\n      0x20\n      mul\n      0x20\n      add\n      add\n        /* \"/verifier.sol\":6101:6111  p1[3] = d1 */\n      dup2\n      swap1\n      mstore\n      pop\n        /* \"/verifier.sol\":6129:6131  a2 */\n      dup10\n        /* \"/verifier.sol\":6121:6123  p2 */\n      dup2\n        /* \"/verifier.sol\":6124:6125  0 */\n      0x00\n        /* \"/verifier.sol\":6121:6126  p2[0] */\n      dup2\n      mload\n      dup2\n      lt\n      tag_127\n      jumpi\n      tag_128\n      tag_20\n      jump\t// in\n    tag_128:\n    tag_127:\n      0x20\n      mul\n      0x20\n      add\n      add\n        /* \"/verifier.sol\":6121:6131  p2[0] = a2 */\n      dup2\n      swap1\n      mstore\n      pop\n        /* \"/verifier.sol\":6149:6151  b2 */\n      dup8\n        /* \"/verifier.sol\":6141:6143  p2 */\n      dup2\n        /* \"/verifier.sol\":6144:6145  1 */\n      0x01\n        /* \"/verifier.sol\":6141:6146  p2[1] */\n      dup2\n      mload\n      dup2\n      lt\n      tag_129\n      jumpi\n      tag_130\n      tag_20\n      jump\t// in\n    tag_130:\n    tag_129:\n      0x20\n      mul\n      0x20\n      add\n      add\n        /* \"/verifier.sol\":6141:6151  p2[1] = b2 */\n      dup2\n      swap1\n      mstore\n      pop\n        /* \"/verifier.sol\":6169:6171  c2 */\n      dup6\n        /* \"/verifier.sol\":6161:6163  p2 */\n      dup2\n        /* \"/verifier.sol\":6164:6165  2 */\n      0x02\n        /* \"/verifier.sol\":6161:6166  p2[2] */\n      dup2\n      mload\n      dup2\n      lt\n      tag_131\n      jumpi\n      tag_132\n      tag_20\n      jump\t// in\n    tag_132:\n    tag_131:\n      0x20\n      mul\n      0x20\n      add\n      add\n        /* \"/verifier.sol\":6161:6171  p2[2] = c2 */\n      dup2\n      swap1\n      mstore\n      pop\n        /* \"/verifier.sol\":6189:6191  d2 */\n      dup4\n        /* \"/verifier.sol\":6181:6183  p2 */\n      dup2\n        /* \"/verifier.sol\":6184:6185  3 */\n      0x03\n        /* \"/verifier.sol\":6181:6186  p2[3] */\n      dup2\n      mload\n      dup2\n      lt\n      tag_133\n      jumpi\n      tag_134\n      tag_20\n      jump\t// in\n    tag_134:\n    tag_133:\n      0x20\n      mul\n      0x20\n      add\n      add\n        /* \"/verifier.sol\":6181:6191  p2[3] = d2 */\n      dup2\n      swap1\n      mstore\n      pop\n        /* \"/verifier.sol\":6208:6223  pairing(p1, p2) */\n      tag_135\n        /* \"/verifier.sol\":6216:6218  p1 */\n      dup3\n        /* \"/verifier.sol\":6220:6222  p2 */\n      dup3\n        /* \"/verifier.sol\":6208:6215  pairing */\n      tag_136\n        /* \"/verifier.sol\":6208:6223  pairing(p1, p2) */\n      jump\t// in\n    tag_135:\n        /* \"/verifier.sol\":6201:6223  return pairing(p1, p2) */\n      swap3\n      pop\n      pop\n      pop\n        /* \"/verifier.sol\":5678:6230  function pairingProd4(... */\n      swap9\n      swap8\n      pop\n      pop\n      pop\n      pop\n      pop\n      pop\n      pop\n      pop\n      jump\t// out\n        /* \"/verifier.sol\":3747:4670  function pairing(G1Point[] memory p1, G2Point[] memory p2) internal view returns (bool) {... */\n    tag_136:\n        /* \"/verifier.sol\":3829:3833  bool */\n      0x00\n        /* \"/verifier.sol\":3866:3868  p2 */\n      dup2\n        /* \"/verifier.sol\":3866:3875  p2.length */\n      mload\n        /* \"/verifier.sol\":3853:3855  p1 */\n      dup4\n        /* \"/verifier.sol\":3853:3862  p1.length */\n      mload\n        /* \"/verifier.sol\":3853:3875  p1.length == p2.length */\n      eq\n        /* \"/verifier.sol\":3845:3876  require(p1.length == p2.length) */\n      tag_138\n      jumpi\n      0x00\n      dup1\n      revert\n    tag_138:\n        /* \"/verifier.sol\":3886:3899  uint elements */\n      0x00\n        /* \"/verifier.sol\":3902:3904  p1 */\n      dup4\n        /* \"/verifier.sol\":3902:3911  p1.length */\n      mload\n        /* \"/verifier.sol\":3886:3911  uint elements = p1.length */\n      swap1\n      pop\n        /* \"/verifier.sol\":3921:3935  uint inputSize */\n      0x00\n        /* \"/verifier.sol\":3949:3950  6 */\n      0x06\n        /* \"/verifier.sol\":3938:3946  elements */\n      dup3\n        /* \"/verifier.sol\":3938:3950  elements * 6 */\n      tag_139\n      swap2\n      swap1\n      tag_140\n      jump\t// in\n    tag_139:\n        /* \"/verifier.sol\":3921:3950  uint inputSize = elements * 6 */\n      swap1\n      pop\n        /* \"/verifier.sol\":3960:3979  uint[] memory input */\n      0x00\n        /* \"/verifier.sol\":3993:4002  inputSize */\n      dup2\n        /* \"/verifier.sol\":3982:4003  new uint[](inputSize) */\n      0xffffffffffffffff\n      dup2\n      gt\n      iszero\n      tag_141\n      jumpi\n      tag_142\n      tag_13\n      jump\t// in\n    tag_142:\n    tag_141:\n      mload(0x40)\n      swap1\n      dup1\n      dup3\n      mstore\n      dup1\n      0x20\n      mul\n      0x20\n      add\n      dup3\n      add\n      0x40\n      mstore\n      dup1\n      iszero\n      tag_143\n      jumpi\n      dup2\n      0x20\n      add\n      0x20\n      dup3\n      mul\n      dup1\n      calldatasize\n      dup4\n      calldatacopy\n      dup1\n      dup3\n      add\n      swap2\n      pop\n      pop\n      swap1\n      pop\n    tag_143:\n      pop\n        /* \"/verifier.sol\":3960:4003  uint[] memory input = new uint[](inputSize) */\n      swap1\n      pop\n        /* \"/verifier.sol\":4018:4024  uint i */\n      0x00\n        /* \"/verifier.sol\":4013:4320  for (uint i = 0; i < elements; i++)... */\n    tag_144:\n        /* \"/verifier.sol\":4034:4042  elements */\n      dup4\n        /* \"/verifier.sol\":4030:4031  i */\n      dup2\n        /* \"/verifier.sol\":4030:4042  i < elements */\n      lt\n        /* \"/verifier.sol\":4013:4320  for (uint i = 0; i < elements; i++)... */\n      iszero\n      tag_145\n      jumpi\n        /* \"/verifier.sol\":4090:4092  p1 */\n      dup7\n        /* \"/verifier.sol\":4093:4094  i */\n      dup2\n        /* \"/verifier.sol\":4090:4095  p1[i] */\n      dup2\n      mload\n      dup2\n      lt\n      tag_147\n      jumpi\n      tag_148\n      tag_20\n      jump\t// in\n    tag_148:\n    tag_147:\n      0x20\n      mul\n      0x20\n      add\n      add\n      mload\n        /* \"/verifier.sol\":4090:4097  p1[i].X */\n      0x00\n      add\n      mload\n        /* \"/verifier.sol\":4071:4076  input */\n      dup3\n        /* \"/verifier.sol\":4085:4086  0 */\n      0x00\n        /* \"/verifier.sol\":4081:4082  6 */\n      0x06\n        /* \"/verifier.sol\":4077:4078  i */\n      dup5\n        /* \"/verifier.sol\":4077:4082  i * 6 */\n      tag_149\n      swap2\n      swap1\n      tag_140\n      jump\t// in\n    tag_149:\n        /* \"/verifier.sol\":4077:4086  i * 6 + 0 */\n      tag_150\n      swap2\n      swap1\n      tag_31\n      jump\t// in\n    tag_150:\n        /* \"/verifier.sol\":4071:4087  input[i * 6 + 0] */\n      dup2\n      mload\n      dup2\n      lt\n      tag_151\n      jumpi\n      tag_152\n      tag_20\n      jump\t// in\n    tag_152:\n    tag_151:\n      0x20\n      mul\n      0x20\n      add\n      add\n        /* \"/verifier.sol\":4071:4097  input[i * 6 + 0] = p1[i].X */\n      dup2\n      dup2\n      mstore\n      pop\n      pop\n        /* \"/verifier.sol\":4130:4132  p1 */\n      dup7\n        /* \"/verifier.sol\":4133:4134  i */\n      dup2\n        /* \"/verifier.sol\":4130:4135  p1[i] */\n      dup2\n      mload\n      dup2\n      lt\n      tag_153\n      jumpi\n      tag_154\n      tag_20\n      jump\t// in\n    tag_154:\n    tag_153:\n      0x20\n      mul\n      0x20\n      add\n      add\n      mload\n        /* \"/verifier.sol\":4130:4137  p1[i].Y */\n      0x20\n      add\n      mload\n        /* \"/verifier.sol\":4111:4116  input */\n      dup3\n        /* \"/verifier.sol\":4125:4126  1 */\n      0x01\n        /* \"/verifier.sol\":4121:4122  6 */\n      0x06\n        /* \"/verifier.sol\":4117:4118  i */\n      dup5\n        /* \"/verifier.sol\":4117:4122  i * 6 */\n      tag_155\n      swap2\n      swap1\n      tag_140\n      jump\t// in\n    tag_155:\n        /* \"/verifier.sol\":4117:4126  i * 6 + 1 */\n      tag_156\n      swap2\n      swap1\n      tag_31\n      jump\t// in\n    tag_156:\n        /* \"/verifier.sol\":4111:4127  input[i * 6 + 1] */\n      dup2\n      mload\n      dup2\n      lt\n      tag_157\n      jumpi\n      tag_158\n      tag_20\n      jump\t// in\n    tag_158:\n    tag_157:\n      0x20\n      mul\n      0x20\n      add\n      add\n        /* \"/verifier.sol\":4111:4137  input[i * 6 + 1] = p1[i].Y */\n      dup2\n      dup2\n      mstore\n      pop\n      pop\n        /* \"/verifier.sol\":4170:4172  p2 */\n      dup6\n        /* \"/verifier.sol\":4173:4174  i */\n      dup2\n        /* \"/verifier.sol\":4170:4175  p2[i] */\n      dup2\n      mload\n      dup2\n      lt\n      tag_159\n      jumpi\n      tag_160\n      tag_20\n      jump\t// in\n    tag_160:\n    tag_159:\n      0x20\n      mul\n      0x20\n      add\n      add\n      mload\n        /* \"/verifier.sol\":4170:4177  p2[i].X */\n      0x00\n      add\n      mload\n        /* \"/verifier.sol\":4178:4179  1 */\n      0x01\n        /* \"/verifier.sol\":4170:4180  p2[i].X[1] */\n      0x02\n      dup2\n      lt\n      tag_161\n      jumpi\n      tag_162\n      tag_20\n      jump\t// in\n    tag_162:\n    tag_161:\n      0x20\n      mul\n      add\n      mload\n        /* \"/verifier.sol\":4151:4156  input */\n      dup3\n        /* \"/verifier.sol\":4165:4166  2 */\n      0x02\n        /* \"/verifier.sol\":4161:4162  6 */\n      0x06\n        /* \"/verifier.sol\":4157:4158  i */\n      dup5\n        /* \"/verifier.sol\":4157:4162  i * 6 */\n      tag_163\n      swap2\n      swap1\n      tag_140\n      jump\t// in\n    tag_163:\n        /* \"/verifier.sol\":4157:4166  i * 6 + 2 */\n      tag_164\n      swap2\n      swap1\n      tag_31\n      jump\t// in\n    tag_164:\n        /* \"/verifier.sol\":4151:4167  input[i * 6 + 2] */\n      dup2\n      mload\n      dup2\n      lt\n      tag_165\n      jumpi\n      tag_166\n      tag_20\n      jump\t// in\n    tag_166:\n    tag_165:\n      0x20\n      mul\n      0x20\n      add\n      add\n        /* \"/verifier.sol\":4151:4180  input[i * 6 + 2] = p2[i].X[1] */\n      dup2\n      dup2\n      mstore\n      pop\n      pop\n        /* \"/verifier.sol\":4213:4215  p2 */\n      dup6\n        /* \"/verifier.sol\":4216:4217  i */\n      dup2\n        /* \"/verifier.sol\":4213:4218  p2[i] */\n      dup2\n      mload\n      dup2\n      lt\n      tag_167\n      jumpi\n      tag_168\n      tag_20\n      jump\t// in\n    tag_168:\n    tag_167:\n      0x20\n      mul\n      0x20\n      add\n      add\n      mload\n        /* \"/verifier.sol\":4213:4220  p2[i].X */\n      0x00\n      add\n      mload\n        /* \"/verifier.sol\":4221:4222  0 */\n      0x00\n        /* \"/verifier.sol\":4213:4223  p2[i].X[0] */\n      0x02\n      dup2\n      lt\n      tag_169\n      jumpi\n      tag_170\n      tag_20\n      jump\t// in\n    tag_170:\n    tag_169:\n      0x20\n      mul\n      add\n      mload\n        /* \"/verifier.sol\":4194:4199  input */\n      dup3\n        /* \"/verifier.sol\":4208:4209  3 */\n      0x03\n        /* \"/verifier.sol\":4204:4205  6 */\n      0x06\n        /* \"/verifier.sol\":4200:4201  i */\n      dup5\n        /* \"/verifier.sol\":4200:4205  i * 6 */\n      tag_171\n      swap2\n      swap1\n      tag_140\n      jump\t// in\n    tag_171:\n        /* \"/verifier.sol\":4200:4209  i * 6 + 3 */\n      tag_172\n      swap2\n      swap1\n      tag_31\n      jump\t// in\n    tag_172:\n        /* \"/verifier.sol\":4194:4210  input[i * 6 + 3] */\n      dup2\n      mload\n      dup2\n      lt\n      tag_173\n      jumpi\n      tag_174\n      tag_20\n      jump\t// in\n    tag_174:\n    tag_173:\n      0x20\n      mul\n      0x20\n      add\n      add\n        /* \"/verifier.sol\":4194:4223  input[i * 6 + 3] = p2[i].X[0] */\n      dup2\n      dup2\n      mstore\n      pop\n      pop\n        /* \"/verifier.sol\":4256:4258  p2 */\n      dup6\n        /* \"/verifier.sol\":4259:4260  i */\n      dup2\n        /* \"/verifier.sol\":4256:4261  p2[i] */\n      dup2\n      mload\n      dup2\n      lt\n      tag_175\n      jumpi\n      tag_176\n      tag_20\n      jump\t// in\n    tag_176:\n    tag_175:\n      0x20\n      mul\n      0x20\n      add\n      add\n      mload\n        /* \"/verifier.sol\":4256:4263  p2[i].Y */\n      0x20\n      add\n      mload\n        /* \"/verifier.sol\":4264:4265  1 */\n      0x01\n        /* \"/verifier.sol\":4256:4266  p2[i].Y[1] */\n      0x02\n      dup2\n      lt\n      tag_177\n      jumpi\n      tag_178\n      tag_20\n      jump\t// in\n    tag_178:\n    tag_177:\n      0x20\n      mul\n      add\n      mload\n        /* \"/verifier.sol\":4237:4242  input */\n      dup3\n        /* \"/verifier.sol\":4251:4252  4 */\n      0x04\n        /* \"/verifier.sol\":4247:4248  6 */\n      0x06\n        /* \"/verifier.sol\":4243:4244  i */\n      dup5\n        /* \"/verifier.sol\":4243:4248  i * 6 */\n      tag_179\n      swap2\n      swap1\n      tag_140\n      jump\t// in\n    tag_179:\n        /* \"/verifier.sol\":4243:4252  i * 6 + 4 */\n      tag_180\n      swap2\n      swap1\n      tag_31\n      jump\t// in\n    tag_180:\n        /* \"/verifier.sol\":4237:4253  input[i * 6 + 4] */\n      dup2\n      mload\n      dup2\n      lt\n      tag_181\n      jumpi\n      tag_182\n      tag_20\n      jump\t// in\n    tag_182:\n    tag_181:\n      0x20\n      mul\n      0x20\n      add\n      add\n        /* \"/verifier.sol\":4237:4266  input[i * 6 + 4] = p2[i].Y[1] */\n      dup2\n      dup2\n      mstore\n      pop\n      pop\n        /* \"/verifier.sol\":4299:4301  p2 */\n      dup6\n        /* \"/verifier.sol\":4302:4303  i */\n      dup2\n        /* \"/verifier.sol\":4299:4304  p2[i] */\n      dup2\n      mload\n      dup2\n      lt\n      tag_183\n      jumpi\n      tag_184\n      tag_20\n      jump\t// in\n    tag_184:\n    tag_183:\n      0x20\n      mul\n      0x20\n      add\n      add\n      mload\n        /* \"/verifier.sol\":4299:4306  p2[i].Y */\n      0x20\n      add\n      mload\n        /* \"/verifier.sol\":4307:4308  0 */\n      0x00\n        /* \"/verifier.sol\":4299:4309  p2[i].Y[0] */\n      0x02\n      dup2\n      lt\n      tag_185\n      jumpi\n      tag_186\n      tag_20\n      jump\t// in\n    tag_186:\n    tag_185:\n      0x20\n      mul\n      add\n      mload\n        /* \"/verifier.sol\":4280:4285  input */\n      dup3\n        /* \"/verifier.sol\":4294:4295  5 */\n      0x05\n        /* \"/verifier.sol\":4290:4291  6 */\n      0x06\n        /* \"/verifier.sol\":4286:4287  i */\n      dup5\n        /* \"/verifier.sol\":4286:4291  i * 6 */\n      tag_187\n      swap2\n      swap1\n      tag_140\n      jump\t// in\n    tag_187:\n        /* \"/verifier.sol\":4286:4295  i * 6 + 5 */\n      tag_188\n      swap2\n      swap1\n      tag_31\n      jump\t// in\n    tag_188:\n        /* \"/verifier.sol\":4280:4296  input[i * 6 + 5] */\n      dup2\n      mload\n      dup2\n      lt\n      tag_189\n      jumpi\n      tag_190\n      tag_20\n      jump\t// in\n    tag_190:\n    tag_189:\n      0x20\n      mul\n      0x20\n      add\n      add\n        /* \"/verifier.sol\":4280:4309  input[i * 6 + 5] = p2[i].Y[0] */\n      dup2\n      dup2\n      mstore\n      pop\n      pop\n        /* \"/verifier.sol\":4044:4047  i++ */\n      dup1\n      dup1\n      0x01\n      add\n      swap2\n      pop\n      pop\n        /* \"/verifier.sol\":4013:4320  for (uint i = 0; i < elements; i++)... */\n      jump(tag_144)\n    tag_145:\n      pop\n        /* \"/verifier.sol\":4329:4347  uint[1] memory out */\n      tag_191\n      tag_192\n      jump\t// in\n    tag_191:\n        /* \"/verifier.sol\":4357:4369  bool success */\n      0x00\n        /* \"/verifier.sol\":4490:4494  0x20 */\n      0x20\n        /* \"/verifier.sol\":4485:4488  out */\n      dup3\n        /* \"/verifier.sol\":4478:4482  0x20 */\n      0x20\n        /* \"/verifier.sol\":4467:4476  inputSize */\n      dup7\n        /* \"/verifier.sol\":4463:4483  mul(inputSize, 0x20) */\n      mul\n        /* \"/verifier.sol\":4456:4460  0x20 */\n      0x20\n        /* \"/verifier.sol\":4449:4454  input */\n      dup7\n        /* \"/verifier.sol\":4445:4461  add(input, 0x20) */\n      add\n        /* \"/verifier.sol\":4442:4443  8 */\n      0x08\n        /* \"/verifier.sol\":4435:4439  2000 */\n      0x07d0\n        /* \"/verifier.sol\":4428:4433  gas() */\n      gas\n        /* \"/verifier.sol\":4424:4440  sub(gas(), 2000) */\n      sub\n        /* \"/verifier.sol\":4413:4495  staticcall(sub(gas(), 2000), 8, add(input, 0x20), mul(inputSize, 0x20), out, 0x20) */\n      staticcall\n        /* \"/verifier.sol\":4402:4495  success := staticcall(sub(gas(), 2000), 8, add(input, 0x20), mul(inputSize, 0x20), out, 0x20) */\n      swap1\n      pop\n        /* \"/verifier.sol\":4572:4579  success */\n      dup1\n        /* \"/verifier.sol\":4585:4586  0 */\n      0x00\n        /* \"/verifier.sol\":4580:4600  case 0 { invalid() } */\n      dup2\n      sub\n        /* \"/verifier.sol\":4565:4600  switch success case 0 { invalid() } */\n      tag_193\n        /* \"/verifier.sol\":4580:4600  case 0 { invalid() } */\n      jumpi\n        /* \"/verifier.sol\":4589:4598  invalid() */\n      invalid\n        /* \"/verifier.sol\":4565:4600  switch success case 0 { invalid() } */\n    tag_193:\n      pop\n        /* \"/verifier.sol\":4627:4634  success */\n      dup1\n        /* \"/verifier.sol\":4619:4635  require(success) */\n      tag_195\n      jumpi\n      0x00\n      dup1\n      revert\n    tag_195:\n        /* \"/verifier.sol\":4662:4663  0 */\n      0x00\n        /* \"/verifier.sol\":4652:4655  out */\n      dup3\n        /* \"/verifier.sol\":4656:4657  0 */\n      0x00\n        /* \"/verifier.sol\":4652:4658  out[0] */\n      0x01\n      dup2\n      lt\n      tag_196\n      jumpi\n      tag_197\n      tag_20\n      jump\t// in\n    tag_197:\n    tag_196:\n      0x20\n      mul\n      add\n      mload\n        /* \"/verifier.sol\":4652:4663  out[0] != 0 */\n      eq\n      iszero\n        /* \"/verifier.sol\":4645:4663  return out[0] != 0 */\n      swap6\n      pop\n      pop\n      pop\n      pop\n      pop\n      pop\n        /* \"/verifier.sol\":3747:4670  function pairing(G1Point[] memory p1, G2Point[] memory p2) internal view returns (bool) {... */\n      swap3\n      swap2\n      pop\n      pop\n      jump\t// out\n    tag_59:\n      mload(0x40)\n      dup1\n      0xa0\n      add\n      0x40\n      mstore\n      dup1\n      tag_198\n      tag_66\n      jump\t// in\n    tag_198:\n      dup2\n      mstore\n      0x20\n      add\n      tag_199\n      tag_118\n      jump\t// in\n    tag_199:\n      dup2\n      mstore\n      0x20\n      add\n      tag_200\n      tag_118\n      jump\t// in\n    tag_200:\n      dup2\n      mstore\n      0x20\n      add\n      tag_201\n      tag_118\n      jump\t// in\n    tag_201:\n      dup2\n      mstore\n      0x20\n      add\n      0x60\n      dup2\n      mstore\n      pop\n      swap1\n      jump\t// out\n    tag_66:\n      mload(0x40)\n      dup1\n      0x40\n      add\n      0x40\n      mstore\n      dup1\n      0x00\n      dup2\n      mstore\n      0x20\n      add\n      0x00\n      dup2\n      mstore\n      pop\n      swap1\n      jump\t// out\n    tag_74:\n      mload(0x40)\n      dup1\n      0x60\n      add\n      0x40\n      mstore\n      dup1\n      0x03\n      swap1\n      0x20\n      dup3\n      mul\n      dup1\n      calldatasize\n      dup4\n      calldatacopy\n      dup1\n      dup3\n      add\n      swap2\n      pop\n      pop\n      swap1\n      pop\n      pop\n      swap1\n      jump\t// out\n    tag_87:\n      mload(0x40)\n      dup1\n      0x80\n      add\n      0x40\n      mstore\n      dup1\n      0x04\n      swap1\n      0x20\n      dup3\n      mul\n      dup1\n      calldatasize\n      dup4\n      calldatacopy\n      dup1\n      dup3\n      add\n      swap2\n      pop\n      pop\n      swap1\n      pop\n      pop\n      swap1\n      jump\t// out\n    tag_118:\n      mload(0x40)\n      dup1\n      0x40\n      add\n      0x40\n      mstore\n      dup1\n      tag_202\n      tag_203\n      jump\t// in\n    tag_202:\n      dup2\n      mstore\n      0x20\n      add\n      tag_204\n      tag_203\n      jump\t// in\n    tag_204:\n      dup2\n      mstore\n      pop\n      swap1\n      jump\t// out\n    tag_192:\n      mload(0x40)\n      dup1\n      0x20\n      add\n      0x40\n      mstore\n      dup1\n      0x01\n      swap1\n      0x20\n      dup3\n      mul\n      dup1\n      calldatasize\n      dup4\n      calldatacopy\n      dup1\n      dup3\n      add\n      swap2\n      pop\n      pop\n      swap1\n      pop\n      pop\n      swap1\n      jump\t// out\n    tag_203:\n      mload(0x40)\n      dup1\n      0x40\n      add\n      0x40\n      mstore\n      dup1\n      0x02\n      swap1\n      0x20\n      dup3\n      mul\n      dup1\n      calldatasize\n      dup4\n      calldatacopy\n      dup1\n      dup3\n      add\n      swap2\n      pop\n      pop\n      swap1\n      pop\n      pop\n      swap1\n      jump\t// out\n        /* \"#utility.yul\":7:82   */\n    tag_205:\n        /* \"#utility.yul\":40:46   */\n      0x00\n        /* \"#utility.yul\":73:75   */\n      0x40\n        /* \"#utility.yul\":67:76   */\n      mload\n        /* \"#utility.yul\":57:76   */\n      swap1\n      pop\n        /* \"#utility.yul\":7:82   */\n      swap1\n      jump\t// out\n        /* \"#utility.yul\":88:205   */\n    tag_206:\n        /* \"#utility.yul\":197:198   */\n      0x00\n        /* \"#utility.yul\":194:195   */\n      dup1\n        /* \"#utility.yul\":187:199   */\n      revert\n        /* \"#utility.yul\":334:451   */\n    tag_208:\n        /* \"#utility.yul\":443:444   */\n      0x00\n        /* \"#utility.yul\":440:441   */\n      dup1\n        /* \"#utility.yul\":433:445   */\n      revert\n        /* \"#utility.yul\":457:559   */\n    tag_209:\n        /* \"#utility.yul\":498:504   */\n      0x00\n        /* \"#utility.yul\":549:551   */\n      0x1f\n        /* \"#utility.yul\":545:552   */\n      not\n        /* \"#utility.yul\":540:542   */\n      0x1f\n        /* \"#utility.yul\":533:538   */\n      dup4\n        /* \"#utility.yul\":529:543   */\n      add\n        /* \"#utility.yul\":525:553   */\n      and\n        /* \"#utility.yul\":515:553   */\n      swap1\n      pop\n        /* \"#utility.yul\":457:559   */\n      swap2\n      swap1\n      pop\n      jump\t// out\n        /* \"#utility.yul\":565:745   */\n    tag_13:\n        /* \"#utility.yul\":613:690   */\n      0x4e487b7100000000000000000000000000000000000000000000000000000000\n        /* \"#utility.yul\":610:611   */\n      0x00\n        /* \"#utility.yul\":603:691   */\n      mstore\n        /* \"#utility.yul\":710:714   */\n      0x41\n        /* \"#utility.yul\":707:708   */\n      0x04\n        /* \"#utility.yul\":700:715   */\n      mstore\n        /* \"#utility.yul\":734:738   */\n      0x24\n        /* \"#utility.yul\":731:732   */\n      0x00\n        /* \"#utility.yul\":724:739   */\n      revert\n        /* \"#utility.yul\":751:1032   */\n    tag_210:\n        /* \"#utility.yul\":834:861   */\n      tag_239\n        /* \"#utility.yul\":856:860   */\n      dup3\n        /* \"#utility.yul\":834:861   */\n      tag_209\n      jump\t// in\n    tag_239:\n        /* \"#utility.yul\":826:832   */\n      dup2\n        /* \"#utility.yul\":822:862   */\n      add\n        /* \"#utility.yul\":964:970   */\n      dup2\n        /* \"#utility.yul\":952:962   */\n      dup2\n        /* \"#utility.yul\":949:971   */\n      lt\n        /* \"#utility.yul\":928:946   */\n      0xffffffffffffffff\n        /* \"#utility.yul\":916:926   */\n      dup3\n        /* \"#utility.yul\":913:947   */\n      gt\n        /* \"#utility.yul\":910:972   */\n      or\n        /* \"#utility.yul\":907:995   */\n      iszero\n      tag_240\n      jumpi\n        /* \"#utility.yul\":975:993   */\n      tag_241\n      tag_13\n      jump\t// in\n    tag_241:\n        /* \"#utility.yul\":907:995   */\n    tag_240:\n        /* \"#utility.yul\":1015:1025   */\n      dup1\n        /* \"#utility.yul\":1011:1013   */\n      0x40\n        /* \"#utility.yul\":1004:1026   */\n      mstore\n        /* \"#utility.yul\":794:1032   */\n      pop\n        /* \"#utility.yul\":751:1032   */\n      pop\n      pop\n      jump\t// out\n        /* \"#utility.yul\":1038:1167   */\n    tag_211:\n        /* \"#utility.yul\":1072:1078   */\n      0x00\n        /* \"#utility.yul\":1099:1119   */\n      tag_243\n      tag_205\n      jump\t// in\n    tag_243:\n        /* \"#utility.yul\":1089:1119   */\n      swap1\n      pop\n        /* \"#utility.yul\":1128:1161   */\n      tag_244\n        /* \"#utility.yul\":1156:1160   */\n      dup3\n        /* \"#utility.yul\":1148:1154   */\n      dup3\n        /* \"#utility.yul\":1128:1161   */\n      tag_210\n      jump\t// in\n    tag_244:\n        /* \"#utility.yul\":1038:1167   */\n      swap2\n      swap1\n      pop\n      jump\t// out\n        /* \"#utility.yul\":1296:1373   */\n    tag_213:\n        /* \"#utility.yul\":1333:1340   */\n      0x00\n        /* \"#utility.yul\":1362:1367   */\n      dup2\n        /* \"#utility.yul\":1351:1367   */\n      swap1\n      pop\n        /* \"#utility.yul\":1296:1373   */\n      swap2\n      swap1\n      pop\n      jump\t// out\n        /* \"#utility.yul\":1379:1501   */\n    tag_214:\n        /* \"#utility.yul\":1452:1476   */\n      tag_248\n        /* \"#utility.yul\":1470:1475   */\n      dup2\n        /* \"#utility.yul\":1452:1476   */\n      tag_213\n      jump\t// in\n    tag_248:\n        /* \"#utility.yul\":1445:1450   */\n      dup2\n        /* \"#utility.yul\":1442:1477   */\n      eq\n        /* \"#utility.yul\":1432:1495   */\n      tag_249\n      jumpi\n        /* \"#utility.yul\":1491:1492   */\n      0x00\n        /* \"#utility.yul\":1488:1489   */\n      dup1\n        /* \"#utility.yul\":1481:1493   */\n      revert\n        /* \"#utility.yul\":1432:1495   */\n    tag_249:\n        /* \"#utility.yul\":1379:1501   */\n      pop\n      jump\t// out\n        /* \"#utility.yul\":1507:1646   */\n    tag_215:\n        /* \"#utility.yul\":1553:1558   */\n      0x00\n        /* \"#utility.yul\":1591:1597   */\n      dup2\n        /* \"#utility.yul\":1578:1598   */\n      calldataload\n        /* \"#utility.yul\":1569:1598   */\n      swap1\n      pop\n        /* \"#utility.yul\":1607:1640   */\n      tag_251\n        /* \"#utility.yul\":1634:1639   */\n      dup2\n        /* \"#utility.yul\":1607:1640   */\n      tag_214\n      jump\t// in\n    tag_251:\n        /* \"#utility.yul\":1507:1646   */\n      swap3\n      swap2\n      pop\n      pop\n      jump\t// out\n        /* \"#utility.yul\":1682:2247   */\n    tag_216:\n        /* \"#utility.yul\":1753:1758   */\n      0x00\n        /* \"#utility.yul\":1797:1801   */\n      0x40\n        /* \"#utility.yul\":1785:1794   */\n      dup3\n        /* \"#utility.yul\":1780:1783   */\n      dup5\n        /* \"#utility.yul\":1776:1795   */\n      sub\n        /* \"#utility.yul\":1772:1802   */\n      slt\n        /* \"#utility.yul\":1769:1886   */\n      iszero\n      tag_253\n      jumpi\n        /* \"#utility.yul\":1805:1884   */\n      tag_254\n      tag_208\n      jump\t// in\n    tag_254:\n        /* \"#utility.yul\":1769:1886   */\n    tag_253:\n        /* \"#utility.yul\":1904:1925   */\n      tag_255\n        /* \"#utility.yul\":1920:1924   */\n      0x40\n        /* \"#utility.yul\":1904:1925   */\n      tag_211\n      jump\t// in\n    tag_255:\n        /* \"#utility.yul\":1895:1925   */\n      swap1\n      pop\n        /* \"#utility.yul\":1981:1982   */\n      0x00\n        /* \"#utility.yul\":2021:2070   */\n      tag_256\n        /* \"#utility.yul\":2066:2069   */\n      dup5\n        /* \"#utility.yul\":2057:2063   */\n      dup3\n        /* \"#utility.yul\":2046:2055   */\n      dup6\n        /* \"#utility.yul\":2042:2064   */\n      add\n        /* \"#utility.yul\":2021:2070   */\n      tag_215\n      jump\t// in\n    tag_256:\n        /* \"#utility.yul\":2014:2018   */\n      0x00\n        /* \"#utility.yul\":2007:2012   */\n      dup4\n        /* \"#utility.yul\":2003:2019   */\n      add\n        /* \"#utility.yul\":1996:2071   */\n      mstore\n        /* \"#utility.yul\":1935:2082   */\n      pop\n        /* \"#utility.yul\":2138:2140   */\n      0x20\n        /* \"#utility.yul\":2179:2228   */\n      tag_257\n        /* \"#utility.yul\":2224:2227   */\n      dup5\n        /* \"#utility.yul\":2215:2221   */\n      dup3\n        /* \"#utility.yul\":2204:2213   */\n      dup6\n        /* \"#utility.yul\":2200:2222   */\n      add\n        /* \"#utility.yul\":2179:2228   */\n      tag_215\n      jump\t// in\n    tag_257:\n        /* \"#utility.yul\":2172:2176   */\n      0x20\n        /* \"#utility.yul\":2165:2170   */\n      dup4\n        /* \"#utility.yul\":2161:2177   */\n      add\n        /* \"#utility.yul\":2154:2229   */\n      mstore\n        /* \"#utility.yul\":2092:2240   */\n      pop\n        /* \"#utility.yul\":1682:2247   */\n      swap3\n      swap2\n      pop\n      pop\n      jump\t// out\n        /* \"#utility.yul\":2253:2370   */\n    tag_217:\n        /* \"#utility.yul\":2362:2363   */\n      0x00\n        /* \"#utility.yul\":2359:2360   */\n      dup1\n        /* \"#utility.yul\":2352:2364   */\n      revert\n        /* \"#utility.yul\":2376:2625   */\n    tag_218:\n        /* \"#utility.yul\":2451:2455   */\n      0x00\n        /* \"#utility.yul\":2541:2559   */\n      0xffffffffffffffff\n        /* \"#utility.yul\":2533:2539   */\n      dup3\n        /* \"#utility.yul\":2530:2560   */\n      gt\n        /* \"#utility.yul\":2527:2583   */\n      iszero\n      tag_260\n      jumpi\n        /* \"#utility.yul\":2563:2581   */\n      tag_261\n      tag_13\n      jump\t// in\n    tag_261:\n        /* \"#utility.yul\":2527:2583   */\n    tag_260:\n        /* \"#utility.yul\":2613:2617   */\n      0x20\n        /* \"#utility.yul\":2605:2611   */\n      dup3\n        /* \"#utility.yul\":2601:2618   */\n      mul\n        /* \"#utility.yul\":2593:2618   */\n      swap1\n      pop\n        /* \"#utility.yul\":2376:2625   */\n      swap2\n      swap1\n      pop\n      jump\t// out\n        /* \"#utility.yul\":2631:2748   */\n    tag_219:\n        /* \"#utility.yul\":2740:2741   */\n      0x00\n        /* \"#utility.yul\":2737:2738   */\n      dup1\n        /* \"#utility.yul\":2730:2742   */\n      revert\n        /* \"#utility.yul\":2772:3415   */\n    tag_220:\n        /* \"#utility.yul\":2866:2871   */\n      0x00\n        /* \"#utility.yul\":2891:2970   */\n      tag_264\n        /* \"#utility.yul\":2907:2969   */\n      tag_265\n        /* \"#utility.yul\":2962:2968   */\n      dup5\n        /* \"#utility.yul\":2907:2969   */\n      tag_218\n      jump\t// in\n    tag_265:\n        /* \"#utility.yul\":2891:2970   */\n      tag_211\n      jump\t// in\n    tag_264:\n        /* \"#utility.yul\":2882:2970   */\n      swap1\n      pop\n        /* \"#utility.yul\":2990:2995   */\n      dup1\n        /* \"#utility.yul\":3043:3047   */\n      0x20\n        /* \"#utility.yul\":3035:3041   */\n      dup5\n        /* \"#utility.yul\":3031:3048   */\n      mul\n        /* \"#utility.yul\":3023:3029   */\n      dup4\n        /* \"#utility.yul\":3019:3049   */\n      add\n        /* \"#utility.yul\":3072:3075   */\n      dup6\n        /* \"#utility.yul\":3064:3070   */\n      dup2\n        /* \"#utility.yul\":3061:3076   */\n      gt\n        /* \"#utility.yul\":3058:3180   */\n      iszero\n      tag_266\n      jumpi\n        /* \"#utility.yul\":3091:3170   */\n      tag_267\n      tag_219\n      jump\t// in\n    tag_267:\n        /* \"#utility.yul\":3058:3180   */\n    tag_266:\n        /* \"#utility.yul\":3206:3212   */\n      dup4\n        /* \"#utility.yul\":3189:3409   */\n    tag_268:\n        /* \"#utility.yul\":3223:3229   */\n      dup2\n        /* \"#utility.yul\":3218:3221   */\n      dup2\n        /* \"#utility.yul\":3215:3230   */\n      lt\n        /* \"#utility.yul\":3189:3409   */\n      iszero\n      tag_270\n      jumpi\n        /* \"#utility.yul\":3298:3301   */\n      dup1\n        /* \"#utility.yul\":3327:3364   */\n      tag_271\n        /* \"#utility.yul\":3360:3363   */\n      dup9\n        /* \"#utility.yul\":3348:3358   */\n      dup3\n        /* \"#utility.yul\":3327:3364   */\n      tag_215\n      jump\t// in\n    tag_271:\n        /* \"#utility.yul\":3322:3325   */\n      dup5\n        /* \"#utility.yul\":3315:3365   */\n      mstore\n        /* \"#utility.yul\":3394:3398   */\n      0x20\n        /* \"#utility.yul\":3389:3392   */\n      dup5\n        /* \"#utility.yul\":3385:3399   */\n      add\n        /* \"#utility.yul\":3378:3399   */\n      swap4\n      pop\n        /* \"#utility.yul\":3265:3409   */\n      pop\n        /* \"#utility.yul\":3249:3253   */\n      0x20\n        /* \"#utility.yul\":3244:3247   */\n      dup2\n        /* \"#utility.yul\":3240:3254   */\n      add\n        /* \"#utility.yul\":3233:3254   */\n      swap1\n      pop\n        /* \"#utility.yul\":3189:3409   */\n      jump(tag_268)\n    tag_270:\n        /* \"#utility.yul\":3193:3214   */\n      pop\n        /* \"#utility.yul\":2872:3415   */\n      pop\n      pop\n        /* \"#utility.yul\":2772:3415   */\n      swap4\n      swap3\n      pop\n      pop\n      pop\n      jump\t// out\n        /* \"#utility.yul\":3439:3778   */\n    tag_221:\n        /* \"#utility.yul\":3508:3513   */\n      0x00\n        /* \"#utility.yul\":3557:3560   */\n      dup3\n        /* \"#utility.yul\":3550:3554   */\n      0x1f\n        /* \"#utility.yul\":3542:3548   */\n      dup4\n        /* \"#utility.yul\":3538:3555   */\n      add\n        /* \"#utility.yul\":3534:3561   */\n      slt\n        /* \"#utility.yul\":3524:3646   */\n      tag_273\n      jumpi\n        /* \"#utility.yul\":3565:3644   */\n      tag_274\n      tag_217\n      jump\t// in\n    tag_274:\n        /* \"#utility.yul\":3524:3646   */\n    tag_273:\n        /* \"#utility.yul\":3669:3673   */\n      0x02\n        /* \"#utility.yul\":3691:3772   */\n      tag_275\n        /* \"#utility.yul\":3768:3771   */\n      dup5\n        /* \"#utility.yul\":3760:3766   */\n      dup3\n        /* \"#utility.yul\":3752:3758   */\n      dup6\n        /* \"#utility.yul\":3691:3772   */\n      tag_220\n      jump\t// in\n    tag_275:\n        /* \"#utility.yul\":3682:3772   */\n      swap2\n      pop\n        /* \"#utility.yul\":3514:3778   */\n      pop\n        /* \"#utility.yul\":3439:3778   */\n      swap3\n      swap2\n      pop\n      pop\n      jump\t// out\n        /* \"#utility.yul\":3814:4426   */\n    tag_222:\n        /* \"#utility.yul\":3886:3891   */\n      0x00\n        /* \"#utility.yul\":3930:3934   */\n      0x80\n        /* \"#utility.yul\":3918:3927   */\n      dup3\n        /* \"#utility.yul\":3913:3916   */\n      dup5\n        /* \"#utility.yul\":3909:3928   */\n      sub\n        /* \"#utility.yul\":3905:3935   */\n      slt\n        /* \"#utility.yul\":3902:4019   */\n      iszero\n      tag_277\n      jumpi\n        /* \"#utility.yul\":3938:4017   */\n      tag_278\n      tag_208\n      jump\t// in\n    tag_278:\n        /* \"#utility.yul\":3902:4019   */\n    tag_277:\n        /* \"#utility.yul\":4037:4058   */\n      tag_279\n        /* \"#utility.yul\":4053:4057   */\n      0x40\n        /* \"#utility.yul\":4037:4058   */\n      tag_211\n      jump\t// in\n    tag_279:\n        /* \"#utility.yul\":4028:4058   */\n      swap1\n      pop\n        /* \"#utility.yul\":4114:4115   */\n      0x00\n        /* \"#utility.yul\":4154:4226   */\n      tag_280\n        /* \"#utility.yul\":4222:4225   */\n      dup5\n        /* \"#utility.yul\":4213:4219   */\n      dup3\n        /* \"#utility.yul\":4202:4211   */\n      dup6\n        /* \"#utility.yul\":4198:4220   */\n      add\n        /* \"#utility.yul\":4154:4226   */\n      tag_221\n      jump\t// in\n    tag_280:\n        /* \"#utility.yul\":4147:4151   */\n      0x00\n        /* \"#utility.yul\":4140:4145   */\n      dup4\n        /* \"#utility.yul\":4136:4152   */\n      add\n        /* \"#utility.yul\":4129:4227   */\n      mstore\n        /* \"#utility.yul\":4068:4238   */\n      pop\n        /* \"#utility.yul\":4294:4296   */\n      0x40\n        /* \"#utility.yul\":4335:4407   */\n      tag_281\n        /* \"#utility.yul\":4403:4406   */\n      dup5\n        /* \"#utility.yul\":4394:4400   */\n      dup3\n        /* \"#utility.yul\":4383:4392   */\n      dup6\n        /* \"#utility.yul\":4379:4401   */\n      add\n        /* \"#utility.yul\":4335:4407   */\n      tag_221\n      jump\t// in\n    tag_281:\n        /* \"#utility.yul\":4328:4332   */\n      0x20\n        /* \"#utility.yul\":4321:4326   */\n      dup4\n        /* \"#utility.yul\":4317:4333   */\n      add\n        /* \"#utility.yul\":4310:4408   */\n      mstore\n        /* \"#utility.yul\":4248:4419   */\n      pop\n        /* \"#utility.yul\":3814:4426   */\n      swap3\n      swap2\n      pop\n      pop\n      jump\t// out\n        /* \"#utility.yul\":4461:5254   */\n    tag_223:\n        /* \"#utility.yul\":4532:4537   */\n      0x00\n        /* \"#utility.yul\":4576:4582   */\n      0x0100\n        /* \"#utility.yul\":4564:4573   */\n      dup3\n        /* \"#utility.yul\":4559:4562   */\n      dup5\n        /* \"#utility.yul\":4555:4574   */\n      sub\n        /* \"#utility.yul\":4551:4583   */\n      slt\n        /* \"#utility.yul\":4548:4667   */\n      iszero\n      tag_283\n      jumpi\n        /* \"#utility.yul\":4586:4665   */\n      tag_284\n      tag_208\n      jump\t// in\n    tag_284:\n        /* \"#utility.yul\":4548:4667   */\n    tag_283:\n        /* \"#utility.yul\":4685:4706   */\n      tag_285\n        /* \"#utility.yul\":4701:4705   */\n      0x60\n        /* \"#utility.yul\":4685:4706   */\n      tag_211\n      jump\t// in\n    tag_285:\n        /* \"#utility.yul\":4676:4706   */\n      swap1\n      pop\n        /* \"#utility.yul\":4762:4763   */\n      0x00\n        /* \"#utility.yul\":4802:4873   */\n      tag_286\n        /* \"#utility.yul\":4869:4872   */\n      dup5\n        /* \"#utility.yul\":4860:4866   */\n      dup3\n        /* \"#utility.yul\":4849:4858   */\n      dup6\n        /* \"#utility.yul\":4845:4867   */\n      add\n        /* \"#utility.yul\":4802:4873   */\n      tag_216\n      jump\t// in\n    tag_286:\n        /* \"#utility.yul\":4795:4799   */\n      0x00\n        /* \"#utility.yul\":4788:4793   */\n      dup4\n        /* \"#utility.yul\":4784:4800   */\n      add\n        /* \"#utility.yul\":4777:4874   */\n      mstore\n        /* \"#utility.yul\":4716:4885   */\n      pop\n        /* \"#utility.yul\":4941:4943   */\n      0x40\n        /* \"#utility.yul\":4982:5054   */\n      tag_287\n        /* \"#utility.yul\":5050:5053   */\n      dup5\n        /* \"#utility.yul\":5041:5047   */\n      dup3\n        /* \"#utility.yul\":5030:5039   */\n      dup6\n        /* \"#utility.yul\":5026:5048   */\n      add\n        /* \"#utility.yul\":4982:5054   */\n      tag_222\n      jump\t// in\n    tag_287:\n        /* \"#utility.yul\":4975:4979   */\n      0x20\n        /* \"#utility.yul\":4968:4973   */\n      dup4\n        /* \"#utility.yul\":4964:4980   */\n      add\n        /* \"#utility.yul\":4957:5055   */\n      mstore\n        /* \"#utility.yul\":4895:5066   */\n      pop\n        /* \"#utility.yul\":5122:5125   */\n      0xc0\n        /* \"#utility.yul\":5164:5235   */\n      tag_288\n        /* \"#utility.yul\":5231:5234   */\n      dup5\n        /* \"#utility.yul\":5222:5228   */\n      dup3\n        /* \"#utility.yul\":5211:5220   */\n      dup6\n        /* \"#utility.yul\":5207:5229   */\n      add\n        /* \"#utility.yul\":5164:5235   */\n      tag_216\n      jump\t// in\n    tag_288:\n        /* \"#utility.yul\":5157:5161   */\n      0x40\n        /* \"#utility.yul\":5150:5155   */\n      dup4\n        /* \"#utility.yul\":5146:5162   */\n      add\n        /* \"#utility.yul\":5139:5236   */\n      mstore\n        /* \"#utility.yul\":5076:5247   */\n      pop\n        /* \"#utility.yul\":4461:5254   */\n      swap3\n      swap2\n      pop\n      pop\n      jump\t// out\n        /* \"#utility.yul\":5260:5509   */\n    tag_224:\n        /* \"#utility.yul\":5335:5339   */\n      0x00\n        /* \"#utility.yul\":5425:5443   */\n      0xffffffffffffffff\n        /* \"#utility.yul\":5417:5423   */\n      dup3\n        /* \"#utility.yul\":5414:5444   */\n      gt\n        /* \"#utility.yul\":5411:5467   */\n      iszero\n      tag_290\n      jumpi\n        /* \"#utility.yul\":5447:5465   */\n      tag_291\n      tag_13\n      jump\t// in\n    tag_291:\n        /* \"#utility.yul\":5411:5467   */\n    tag_290:\n        /* \"#utility.yul\":5497:5501   */\n      0x20\n        /* \"#utility.yul\":5489:5495   */\n      dup3\n        /* \"#utility.yul\":5485:5502   */\n      mul\n        /* \"#utility.yul\":5477:5502   */\n      swap1\n      pop\n        /* \"#utility.yul\":5260:5509   */\n      swap2\n      swap1\n      pop\n      jump\t// out\n        /* \"#utility.yul\":5533:6176   */\n    tag_225:\n        /* \"#utility.yul\":5627:5632   */\n      0x00\n        /* \"#utility.yul\":5652:5731   */\n      tag_293\n        /* \"#utility.yul\":5668:5730   */\n      tag_294\n        /* \"#utility.yul\":5723:5729   */\n      dup5\n        /* \"#utility.yul\":5668:5730   */\n      tag_224\n      jump\t// in\n    tag_294:\n        /* \"#utility.yul\":5652:5731   */\n      tag_211\n      jump\t// in\n    tag_293:\n        /* \"#utility.yul\":5643:5731   */\n      swap1\n      pop\n        /* \"#utility.yul\":5751:5756   */\n      dup1\n        /* \"#utility.yul\":5804:5808   */\n      0x20\n        /* \"#utility.yul\":5796:5802   */\n      dup5\n        /* \"#utility.yul\":5792:5809   */\n      mul\n        /* \"#utility.yul\":5784:5790   */\n      dup4\n        /* \"#utility.yul\":5780:5810   */\n      add\n        /* \"#utility.yul\":5833:5836   */\n      dup6\n        /* \"#utility.yul\":5825:5831   */\n      dup2\n        /* \"#utility.yul\":5822:5837   */\n      gt\n        /* \"#utility.yul\":5819:5941   */\n      iszero\n      tag_295\n      jumpi\n        /* \"#utility.yul\":5852:5931   */\n      tag_296\n      tag_219\n      jump\t// in\n    tag_296:\n        /* \"#utility.yul\":5819:5941   */\n    tag_295:\n        /* \"#utility.yul\":5967:5973   */\n      dup4\n        /* \"#utility.yul\":5950:6170   */\n    tag_297:\n        /* \"#utility.yul\":5984:5990   */\n      dup2\n        /* \"#utility.yul\":5979:5982   */\n      dup2\n        /* \"#utility.yul\":5976:5991   */\n      lt\n        /* \"#utility.yul\":5950:6170   */\n      iszero\n      tag_299\n      jumpi\n        /* \"#utility.yul\":6059:6062   */\n      dup1\n        /* \"#utility.yul\":6088:6125   */\n      tag_300\n        /* \"#utility.yul\":6121:6124   */\n      dup9\n        /* \"#utility.yul\":6109:6119   */\n      dup3\n        /* \"#utility.yul\":6088:6125   */\n      tag_215\n      jump\t// in\n    tag_300:\n        /* \"#utility.yul\":6083:6086   */\n      dup5\n        /* \"#utility.yul\":6076:6126   */\n      mstore\n        /* \"#utility.yul\":6155:6159   */\n      0x20\n        /* \"#utility.yul\":6150:6153   */\n      dup5\n        /* \"#utility.yul\":6146:6160   */\n      add\n        /* \"#utility.yul\":6139:6160   */\n      swap4\n      pop\n        /* \"#utility.yul\":6026:6170   */\n      pop\n        /* \"#utility.yul\":6010:6014   */\n      0x20\n        /* \"#utility.yul\":6005:6008   */\n      dup2\n        /* \"#utility.yul\":6001:6015   */\n      add\n        /* \"#utility.yul\":5994:6015   */\n      swap1\n      pop\n        /* \"#utility.yul\":5950:6170   */\n      jump(tag_297)\n    tag_299:\n        /* \"#utility.yul\":5954:5975   */\n      pop\n        /* \"#utility.yul\":5633:6176   */\n      pop\n      pop\n        /* \"#utility.yul\":5533:6176   */\n      swap4\n      swap3\n      pop\n      pop\n      pop\n      jump\t// out\n        /* \"#utility.yul\":6200:6539   */\n    tag_226:\n        /* \"#utility.yul\":6269:6274   */\n      0x00\n        /* \"#utility.yul\":6318:6321   */\n      dup3\n        /* \"#utility.yul\":6311:6315   */\n      0x1f\n        /* \"#utility.yul\":6303:6309   */\n      dup4\n        /* \"#utility.yul\":6299:6316   */\n      add\n        /* \"#utility.yul\":6295:6322   */\n      slt\n        /* \"#utility.yul\":6285:6407   */\n      tag_302\n      jumpi\n        /* \"#utility.yul\":6326:6405   */\n      tag_303\n      tag_217\n      jump\t// in\n    tag_303:\n        /* \"#utility.yul\":6285:6407   */\n    tag_302:\n        /* \"#utility.yul\":6430:6434   */\n      0x01\n        /* \"#utility.yul\":6452:6533   */\n      tag_304\n        /* \"#utility.yul\":6529:6532   */\n      dup5\n        /* \"#utility.yul\":6521:6527   */\n      dup3\n        /* \"#utility.yul\":6513:6519   */\n      dup6\n        /* \"#utility.yul\":6452:6533   */\n      tag_225\n      jump\t// in\n    tag_304:\n        /* \"#utility.yul\":6443:6533   */\n      swap2\n      pop\n        /* \"#utility.yul\":6275:6539   */\n      pop\n        /* \"#utility.yul\":6200:6539   */\n      swap3\n      swap2\n      pop\n      pop\n      jump\t// out\n        /* \"#utility.yul\":6545:7111   */\n    tag_6:\n        /* \"#utility.yul\":6658:6664   */\n      0x00\n        /* \"#utility.yul\":6666:6672   */\n      dup1\n        /* \"#utility.yul\":6715:6718   */\n      0x0120\n        /* \"#utility.yul\":6703:6712   */\n      dup4\n        /* \"#utility.yul\":6694:6701   */\n      dup6\n        /* \"#utility.yul\":6690:6713   */\n      sub\n        /* \"#utility.yul\":6686:6719   */\n      slt\n        /* \"#utility.yul\":6683:6803   */\n      iszero\n      tag_306\n      jumpi\n        /* \"#utility.yul\":6722:6801   */\n      tag_307\n      tag_206\n      jump\t// in\n    tag_307:\n        /* \"#utility.yul\":6683:6803   */\n    tag_306:\n        /* \"#utility.yul\":6842:6843   */\n      0x00\n        /* \"#utility.yul\":6867:6942   */\n      tag_308\n        /* \"#utility.yul\":6934:6941   */\n      dup6\n        /* \"#utility.yul\":6925:6931   */\n      dup3\n        /* \"#utility.yul\":6914:6923   */\n      dup7\n        /* \"#utility.yul\":6910:6932   */\n      add\n        /* \"#utility.yul\":6867:6942   */\n      tag_223\n      jump\t// in\n    tag_308:\n        /* \"#utility.yul\":6857:6942   */\n      swap3\n      pop\n        /* \"#utility.yul\":6813:6952   */\n      pop\n        /* \"#utility.yul\":6991:6994   */\n      0x0100\n        /* \"#utility.yul\":7018:7094   */\n      tag_309\n        /* \"#utility.yul\":7086:7093   */\n      dup6\n        /* \"#utility.yul\":7077:7083   */\n      dup3\n        /* \"#utility.yul\":7066:7075   */\n      dup7\n        /* \"#utility.yul\":7062:7084   */\n      add\n        /* \"#utility.yul\":7018:7094   */\n      tag_226\n      jump\t// in\n    tag_309:\n        /* \"#utility.yul\":7008:7094   */\n      swap2\n      pop\n        /* \"#utility.yul\":6962:7104   */\n      pop\n        /* \"#utility.yul\":6545:7111   */\n      swap3\n      pop\n      swap3\n      swap1\n      pop\n      jump\t// out\n        /* \"#utility.yul\":7117:7207   */\n    tag_227:\n        /* \"#utility.yul\":7151:7158   */\n      0x00\n        /* \"#utility.yul\":7194:7199   */\n      dup2\n        /* \"#utility.yul\":7187:7200   */\n      iszero\n        /* \"#utility.yul\":7180:7201   */\n      iszero\n        /* \"#utility.yul\":7169:7201   */\n      swap1\n      pop\n        /* \"#utility.yul\":7117:7207   */\n      swap2\n      swap1\n      pop\n      jump\t// out\n        /* \"#utility.yul\":7213:7322   */\n    tag_228:\n        /* \"#utility.yul\":7294:7315   */\n      tag_312\n        /* \"#utility.yul\":7309:7314   */\n      dup2\n        /* \"#utility.yul\":7294:7315   */\n      tag_227\n      jump\t// in\n    tag_312:\n        /* \"#utility.yul\":7289:7292   */\n      dup3\n        /* \"#utility.yul\":7282:7316   */\n      mstore\n        /* \"#utility.yul\":7213:7322   */\n      pop\n      pop\n      jump\t// out\n        /* \"#utility.yul\":7328:7538   */\n    tag_9:\n        /* \"#utility.yul\":7415:7419   */\n      0x00\n        /* \"#utility.yul\":7453:7455   */\n      0x20\n        /* \"#utility.yul\":7442:7451   */\n      dup3\n        /* \"#utility.yul\":7438:7456   */\n      add\n        /* \"#utility.yul\":7430:7456   */\n      swap1\n      pop\n        /* \"#utility.yul\":7466:7531   */\n      tag_314\n        /* \"#utility.yul\":7528:7529   */\n      0x00\n        /* \"#utility.yul\":7517:7526   */\n      dup4\n        /* \"#utility.yul\":7513:7530   */\n      add\n        /* \"#utility.yul\":7504:7510   */\n      dup5\n        /* \"#utility.yul\":7466:7531   */\n      tag_228\n      jump\t// in\n    tag_314:\n        /* \"#utility.yul\":7328:7538   */\n      swap3\n      swap2\n      pop\n      pop\n      jump\t// out\n        /* \"#utility.yul\":7544:7724   */\n    tag_20:\n        /* \"#utility.yul\":7592:7669   */\n      0x4e487b7100000000000000000000000000000000000000000000000000000000\n        /* \"#utility.yul\":7589:7590   */\n      0x00\n        /* \"#utility.yul\":7582:7670   */\n      mstore\n        /* \"#utility.yul\":7689:7693   */\n      0x32\n        /* \"#utility.yul\":7686:7687   */\n      0x04\n        /* \"#utility.yul\":7679:7694   */\n      mstore\n        /* \"#utility.yul\":7713:7717   */\n      0x24\n        /* \"#utility.yul\":7710:7711   */\n      0x00\n        /* \"#utility.yul\":7703:7718   */\n      revert\n        /* \"#utility.yul\":7730:7910   */\n    tag_229:\n        /* \"#utility.yul\":7778:7855   */\n      0x4e487b7100000000000000000000000000000000000000000000000000000000\n        /* \"#utility.yul\":7775:7776   */\n      0x00\n        /* \"#utility.yul\":7768:7856   */\n      mstore\n        /* \"#utility.yul\":7875:7879   */\n      0x11\n        /* \"#utility.yul\":7872:7873   */\n      0x04\n        /* \"#utility.yul\":7865:7880   */\n      mstore\n        /* \"#utility.yul\":7899:7903   */\n      0x24\n        /* \"#utility.yul\":7896:7897   */\n      0x00\n        /* \"#utility.yul\":7889:7904   */\n      revert\n        /* \"#utility.yul\":7916:8107   */\n    tag_31:\n        /* \"#utility.yul\":7956:7959   */\n      0x00\n        /* \"#utility.yul\":7975:7995   */\n      tag_318\n        /* \"#utility.yul\":7993:7994   */\n      dup3\n        /* \"#utility.yul\":7975:7995   */\n      tag_213\n      jump\t// in\n    tag_318:\n        /* \"#utility.yul\":7970:7995   */\n      swap2\n      pop\n        /* \"#utility.yul\":8009:8029   */\n      tag_319\n        /* \"#utility.yul\":8027:8028   */\n      dup4\n        /* \"#utility.yul\":8009:8029   */\n      tag_213\n      jump\t// in\n    tag_319:\n        /* \"#utility.yul\":8004:8029   */\n      swap3\n      pop\n        /* \"#utility.yul\":8052:8053   */\n      dup3\n        /* \"#utility.yul\":8049:8050   */\n      dup3\n        /* \"#utility.yul\":8045:8054   */\n      add\n        /* \"#utility.yul\":8038:8054   */\n      swap1\n      pop\n        /* \"#utility.yul\":8073:8076   */\n      dup1\n        /* \"#utility.yul\":8070:8071   */\n      dup3\n        /* \"#utility.yul\":8067:8077   */\n      gt\n        /* \"#utility.yul\":8064:8100   */\n      iszero\n      tag_320\n      jumpi\n        /* \"#utility.yul\":8080:8098   */\n      tag_321\n      tag_229\n      jump\t// in\n    tag_321:\n        /* \"#utility.yul\":8064:8100   */\n    tag_320:\n        /* \"#utility.yul\":7916:8107   */\n      swap3\n      swap2\n      pop\n      pop\n      jump\t// out\n        /* \"#utility.yul\":8113:8293   */\n    tag_230:\n        /* \"#utility.yul\":8161:8238   */\n      0x4e487b7100000000000000000000000000000000000000000000000000000000\n        /* \"#utility.yul\":8158:8159   */\n      0x00\n        /* \"#utility.yul\":8151:8239   */\n      mstore\n        /* \"#utility.yul\":8258:8262   */\n      0x12\n        /* \"#utility.yul\":8255:8256   */\n      0x04\n        /* \"#utility.yul\":8248:8263   */\n      mstore\n        /* \"#utility.yul\":8282:8286   */\n      0x24\n        /* \"#utility.yul\":8279:8280   */\n      0x00\n        /* \"#utility.yul\":8272:8287   */\n      revert\n        /* \"#utility.yul\":8299:8475   */\n    tag_104:\n        /* \"#utility.yul\":8331:8332   */\n      0x00\n        /* \"#utility.yul\":8348:8368   */\n      tag_324\n        /* \"#utility.yul\":8366:8367   */\n      dup3\n        /* \"#utility.yul\":8348:8368   */\n      tag_213\n      jump\t// in\n    tag_324:\n        /* \"#utility.yul\":8343:8368   */\n      swap2\n      pop\n        /* \"#utility.yul\":8382:8402   */\n      tag_325\n        /* \"#utility.yul\":8400:8401   */\n      dup4\n        /* \"#utility.yul\":8382:8402   */\n      tag_213\n      jump\t// in\n    tag_325:\n        /* \"#utility.yul\":8377:8402   */\n      swap3\n      pop\n        /* \"#utility.yul\":8421:8422   */\n      dup3\n        /* \"#utility.yul\":8411:8446   */\n      tag_326\n      jumpi\n        /* \"#utility.yul\":8426:8444   */\n      tag_327\n      tag_230\n      jump\t// in\n    tag_327:\n        /* \"#utility.yul\":8411:8446   */\n    tag_326:\n        /* \"#utility.yul\":8467:8468   */\n      dup3\n        /* \"#utility.yul\":8464:8465   */\n      dup3\n        /* \"#utility.yul\":8460:8469   */\n      mod\n        /* \"#utility.yul\":8455:8469   */\n      swap1\n      pop\n        /* \"#utility.yul\":8299:8475   */\n      swap3\n      swap2\n      pop\n      pop\n      jump\t// out\n        /* \"#utility.yul\":8481:8675   */\n    tag_106:\n        /* \"#utility.yul\":8521:8525   */\n      0x00\n        /* \"#utility.yul\":8541:8561   */\n      tag_329\n        /* \"#utility.yul\":8559:8560   */\n      dup3\n        /* \"#utility.yul\":8541:8561   */\n      tag_213\n      jump\t// in\n    tag_329:\n        /* \"#utility.yul\":8536:8561   */\n      swap2\n      pop\n        /* \"#utility.yul\":8575:8595   */\n      tag_330\n        /* \"#utility.yul\":8593:8594   */\n      dup4\n        /* \"#utility.yul\":8575:8595   */\n      tag_213\n      jump\t// in\n    tag_330:\n        /* \"#utility.yul\":8570:8595   */\n      swap3\n      pop\n        /* \"#utility.yul\":8619:8620   */\n      dup3\n        /* \"#utility.yul\":8616:8617   */\n      dup3\n        /* \"#utility.yul\":8612:8621   */\n      sub\n        /* \"#utility.yul\":8604:8621   */\n      swap1\n      pop\n        /* \"#utility.yul\":8643:8644   */\n      dup2\n        /* \"#utility.yul\":8637:8641   */\n      dup2\n        /* \"#utility.yul\":8634:8645   */\n      gt\n        /* \"#utility.yul\":8631:8668   */\n      iszero\n      tag_331\n      jumpi\n        /* \"#utility.yul\":8648:8666   */\n      tag_332\n      tag_229\n      jump\t// in\n    tag_332:\n        /* \"#utility.yul\":8631:8668   */\n    tag_331:\n        /* \"#utility.yul\":8481:8675   */\n      swap3\n      swap2\n      pop\n      pop\n      jump\t// out\n        /* \"#utility.yul\":8681:9091   */\n    tag_140:\n        /* \"#utility.yul\":8721:8728   */\n      0x00\n        /* \"#utility.yul\":8744:8764   */\n      tag_334\n        /* \"#utility.yul\":8762:8763   */\n      dup3\n        /* \"#utility.yul\":8744:8764   */\n      tag_213\n      jump\t// in\n    tag_334:\n        /* \"#utility.yul\":8739:8764   */\n      swap2\n      pop\n        /* \"#utility.yul\":8778:8798   */\n      tag_335\n        /* \"#utility.yul\":8796:8797   */\n      dup4\n        /* \"#utility.yul\":8778:8798   */\n      tag_213\n      jump\t// in\n    tag_335:\n        /* \"#utility.yul\":8773:8798   */\n      swap3\n      pop\n        /* \"#utility.yul\":8833:8834   */\n      dup3\n        /* \"#utility.yul\":8830:8831   */\n      dup3\n        /* \"#utility.yul\":8826:8835   */\n      mul\n        /* \"#utility.yul\":8855:8885   */\n      tag_336\n        /* \"#utility.yul\":8873:8884   */\n      dup2\n        /* \"#utility.yul\":8855:8885   */\n      tag_213\n      jump\t// in\n    tag_336:\n        /* \"#utility.yul\":8844:8885   */\n      swap2\n      pop\n        /* \"#utility.yul\":9034:9035   */\n      dup3\n        /* \"#utility.yul\":9025:9032   */\n      dup3\n        /* \"#utility.yul\":9021:9036   */\n      div\n        /* \"#utility.yul\":9018:9019   */\n      dup5\n        /* \"#utility.yul\":9015:9037   */\n      eq\n        /* \"#utility.yul\":8995:8996   */\n      dup4\n        /* \"#utility.yul\":8988:8997   */\n      iszero\n        /* \"#utility.yul\":8968:9051   */\n      or\n        /* \"#utility.yul\":8945:9084   */\n      tag_337\n      jumpi\n        /* \"#utility.yul\":9064:9082   */\n      tag_338\n      tag_229\n      jump\t// in\n    tag_338:\n        /* \"#utility.yul\":8945:9084   */\n    tag_337:\n        /* \"#utility.yul\":8729:9091   */\n      pop\n        /* \"#utility.yul\":8681:9091   */\n      swap3\n      swap2\n      pop\n      pop\n      jump\t// out\n\n    auxdata: 0xa2646970667358221220b328db51d5bc25e9d51339272f992f739cf2cf2d669597267ef1a9f569cf9f7764736f6c634300081a0033\n}\n",
				"bytecode": {
					"linkReferences": {},
					"object": "6080604052348015600e575f80fd5b506113eb8061001c5f395ff3fe608060405234801561000f575f80fd5b5060043610610029575f3560e01c8063f48d77291461002d575b5f80fd5b610047600480360381019061004291906111e4565b61005d565b604051610054919061123e565b60405180910390f35b5f80600167ffffffffffffffff81111561007a57610079610ed9565b5b6040519080825280602002602001820160405280156100a85781602001602082028036833780820191505090505b5090505f5b60018110156100fa578381600181106100c9576100c8611257565b5b60200201518282815181106100e1576100e0611257565b5b60200260200101818152505080806001019150506100ad565b505f6101068286610120565b0361011557600191505061011a565b5f9150505b92915050565b5f807f30644e72e131a029b85045b68181585d2833e84879b9709143e1f593f000000190505f61014e6102a5565b90508060800151516001865161016491906112b1565b1461016d575f80fd5b5f60405180604001604052805f81526020015f81525090505f5b865181101561021b57838782815181106101a4576101a3611257565b5b6020026020010151106101b5575f80fd5b61020c8261020785608001516001856101ce91906112b1565b815181106101df576101de611257565b5b60200260200101518a85815181106101fa576101f9611257565b5b60200260200101516106a6565b610743565b91508080600101915050610187565b506102448183608001515f8151811061023757610236611257565b5b6020026020010151610743565b9050610288855f0151866020015161025b84610805565b856040015161026d8a60400151610805565b876060015161027e895f0151610805565b89602001516108a3565b610298576001935050505061029f565b5f93505050505b92915050565b6102ad610dab565b60405180604001604052807f0f1b6d6179248c6bd45ece92c32f5e951a5e1f044cd7e8e0bf7b2ece953a658b81526020017f1bc88b60d250927ddbf51047bd3574f2c96b328af7850d1d9c6ca86bb2e79199815250815f0181905250604051806040016040528060405180604001604052807f024c3773a74609212e203bd9fd4d35f4cce907574476f88223ec9a094b93de8981526020017f233775944152dd29451b269792941606804b0172fa4e8c2706dff6ba2d22e061815250815260200160405180604001604052807f0ebbee173c7eafdd5ce56e7b2bec38554cfe53e0abde361748216b122471ad2981526020017f2dcf5f4cc2d0dc2afcbea24d154789106c6614dc67ecd538b2099828a6c9e2408152508152508160200181905250604051806040016040528060405180604001604052807f2d35bcf62ebef92ec308c773a83735821885e684ab865e7e27d185a43b3e063b81526020017f099a97819409943069fcae33a672c517abe4f2597cc85319bdce1fecc6e9b113815250815260200160405180604001604052807f2b839dfe5fc1b894f40fb02168af2568f62ed02f244c4c791a24d2b3ace6c81181526020017f2a064aeff8c23d6762979c8e44ae441117962fcae7c8497263910ded492ab8b58152508152508160400181905250604051806040016040528060405180604001604052807f23e89b5adf9400aa704c2c56f399175720aaf322a46bf6af042855225f7b004181526020017f29d969840dc66c643dd144a09c114d44f9290b26b0464da721bb7b2a0969e1c6815250815260200160405180604001604052807ecf13f2d129cd69a01c4bf98a2fe1b817aeffd136b71c0d2478c14a8e79a87781526020017f232f939112948ff8b435964b772da57d1f41c85b09393234741b9b65fb14cc858152508152508160600181905250600267ffffffffffffffff81111561057257610571610ed9565b5b6040519080825280602002602001820160405280156105ab57816020015b610598610df2565b8152602001906001900390816105905790505b50816080018190525060405180604001604052807f0141192f65e2706e652a67c8b60acd6064b4463f4a06d5969c520e84f952603581526020017f2933b0c282a5ea69350ad943d98f135a837a3093d86e7255ba20f1234fcdcfe781525081608001515f815181106106205761061f611257565b5b602002602001018190525060405180604001604052807f0ef10e58b5af28515d5f3522cd21202938134ca5b069aa818135f12c81fa2ee081526020017f01d72c53e0c7d578a85cdb16dace650926a087d574fdbdb3387aadee4a6096bb815250816080015160018151811061069857610697611257565b5b602002602001018190525090565b6106ae610df2565b6106b6610e0a565b835f0151815f600381106106cd576106cc611257565b5b6020020181815250508360200151816001600381106106ef576106ee611257565b5b602002018181525050828160026003811061070d5761070c611257565b5b6020020181815250505f60608360808460076107d05a03fa9050805f810361073157fe5b508061073b575f80fd5b505092915050565b61074b610df2565b610753610e2c565b835f0151815f6004811061076a57610769611257565b5b60200201818152505083602001518160016004811061078c5761078b611257565b5b602002018181525050825f0151816002600481106107ad576107ac611257565b5b6020020181815250508260200151816003600481106107cf576107ce611257565b5b6020020181815250505f60608360c08460066107d05a03fa9050805f81036107f357fe5b50806107fd575f80fd5b505092915050565b61080d610df2565b5f7f30644e72e131a029b85045b68181585d97816a916871ca8d3c208c16d87cfd4790505f835f015114801561084657505f8360200151145b156108685760405180604001604052805f81526020015f81525091505061089e565b6040518060400160405280845f0151815260200182856020015161088c9190611311565b836108979190611341565b8152509150505b919050565b5f80600467ffffffffffffffff8111156108c0576108bf610ed9565b5b6040519080825280602002602001820160405280156108f957816020015b6108e6610df2565b8152602001906001900390816108de5790505b5090505f600467ffffffffffffffff81111561091857610917610ed9565b5b60405190808252806020026020018201604052801561095157816020015b61093e610e4e565b8152602001906001900390816109365790505b5090508a825f8151811061096857610967611257565b5b6020026020010181905250888260018151811061098857610987611257565b5b602002602001018190525086826002815181106109a8576109a7611257565b5b602002602001018190525084826003815181106109c8576109c7611257565b5b602002602001018190525089815f815181106109e7576109e6611257565b5b60200260200101819052508781600181518110610a0757610a06611257565b5b60200260200101819052508581600281518110610a2757610a26611257565b5b60200260200101819052508381600381518110610a4757610a46611257565b5b6020026020010181905250610a5c8282610a6c565b9250505098975050505050505050565b5f8151835114610a7a575f80fd5b5f835190505f600682610a8d9190611374565b90505f8167ffffffffffffffff811115610aaa57610aa9610ed9565b5b604051908082528060200260200182016040528015610ad85781602001602082028036833780820191505090505b5090505f5b83811015610d5057868181518110610af857610af7611257565b5b60200260200101515f0151825f600684610b129190611374565b610b1c91906112b1565b81518110610b2d57610b2c611257565b5b602002602001018181525050868181518110610b4c57610b4b611257565b5b602002602001015160200151826001600684610b689190611374565b610b7291906112b1565b81518110610b8357610b82611257565b5b602002602001018181525050858181518110610ba257610ba1611257565b5b60200260200101515f0151600160028110610bc057610bbf611257565b5b6020020151826002600684610bd59190611374565b610bdf91906112b1565b81518110610bf057610bef611257565b5b602002602001018181525050858181518110610c0f57610c0e611257565b5b60200260200101515f01515f60028110610c2c57610c2b611257565b5b6020020151826003600684610c419190611374565b610c4b91906112b1565b81518110610c5c57610c5b611257565b5b602002602001018181525050858181518110610c7b57610c7a611257565b5b602002602001015160200151600160028110610c9a57610c99611257565b5b6020020151826004600684610caf9190611374565b610cb991906112b1565b81518110610cca57610cc9611257565b5b602002602001018181525050858181518110610ce957610ce8611257565b5b6020026020010151602001515f60028110610d0757610d06611257565b5b6020020151826005600684610d1c9190611374565b610d2691906112b1565b81518110610d3757610d36611257565b5b6020026020010181815250508080600101915050610add565b50610d59610e74565b5f602082602086026020860160086107d05a03fa9050805f8103610d7957fe5b5080610d83575f80fd5b5f825f60018110610d9757610d96611257565b5b602002015114159550505050505092915050565b6040518060a00160405280610dbe610df2565b8152602001610dcb610e4e565b8152602001610dd8610e4e565b8152602001610de5610e4e565b8152602001606081525090565b60405180604001604052805f81526020015f81525090565b6040518060600160405280600390602082028036833780820191505090505090565b6040518060800160405280600490602082028036833780820191505090505090565b6040518060400160405280610e61610e96565b8152602001610e6e610e96565b81525090565b6040518060200160405280600190602082028036833780820191505090505090565b6040518060400160405280600290602082028036833780820191505090505090565b5f604051905090565b5f80fd5b5f80fd5b5f601f19601f8301169050919050565b7f4e487b71000000000000000000000000000000000000000000000000000000005f52604160045260245ffd5b610f0f82610ec9565b810181811067ffffffffffffffff82111715610f2e57610f2d610ed9565b5b80604052505050565b5f610f40610eb8565b9050610f4c8282610f06565b919050565b5f819050919050565b610f6381610f51565b8114610f6d575f80fd5b50565b5f81359050610f7e81610f5a565b92915050565b5f60408284031215610f9957610f98610ec5565b5b610fa36040610f37565b90505f610fb284828501610f70565b5f830152506020610fc584828501610f70565b60208301525092915050565b5f80fd5b5f67ffffffffffffffff821115610fef57610fee610ed9565b5b602082029050919050565b5f80fd5b5f61101061100b84610fd5565b610f37565b9050806020840283018581111561102a57611029610ffa565b5b835b81811015611053578061103f8882610f70565b84526020840193505060208101905061102c565b5050509392505050565b5f82601f83011261107157611070610fd1565b5b600261107e848285610ffe565b91505092915050565b5f6080828403121561109c5761109b610ec5565b5b6110a66040610f37565b90505f6110b58482850161105d565b5f8301525060406110c88482850161105d565b60208301525092915050565b5f61010082840312156110ea576110e9610ec5565b5b6110f46060610f37565b90505f61110384828501610f84565b5f83015250604061111684828501611087565b60208301525060c061112a84828501610f84565b60408301525092915050565b5f67ffffffffffffffff8211156111505761114f610ed9565b5b602082029050919050565b5f61116d61116884611136565b610f37565b9050806020840283018581111561118757611186610ffa565b5b835b818110156111b0578061119c8882610f70565b845260208401935050602081019050611189565b5050509392505050565b5f82601f8301126111ce576111cd610fd1565b5b60016111db84828561115b565b91505092915050565b5f8061012083850312156111fb576111fa610ec1565b5b5f611208858286016110d4565b92505061010061121a858286016111ba565b9150509250929050565b5f8115159050919050565b61123881611224565b82525050565b5f6020820190506112515f83018461122f565b92915050565b7f4e487b71000000000000000000000000000000000000000000000000000000005f52603260045260245ffd5b7f4e487b71000000000000000000000000000000000000000000000000000000005f52601160045260245ffd5b5f6112bb82610f51565b91506112c683610f51565b92508282019050808211156112de576112dd611284565b5b92915050565b7f4e487b71000000000000000000000000000000000000000000000000000000005f52601260045260245ffd5b5f61131b82610f51565b915061132683610f51565b925082611336576113356112e4565b5b828206905092915050565b5f61134b82610f51565b915061135683610f51565b925082820390508181111561136e5761136d611284565b5b92915050565b5f61137e82610f51565b915061138983610f51565b925082820261139781610f51565b915082820484148315176113ae576113ad611284565b5b509291505056fea2646970667358221220b328db51d5bc25e9d51339272f992f739cf2cf2d669597267ef1a9f569cf9f7764736f6c634300081a0033",
					"opcodes": "PUSH1 0x80 PUSH1 0x40 MSTORE CALLVALUE DUP1 ISZERO PUSH1 0xE JUMPI PUSH0 DUP1 REVERT JUMPDEST POP PUSH2 0x13EB DUP1 PUSH2 0x1C PUSH0 CODECOPY PUSH0 RETURN INVALID PUSH1 0x80 PUSH1 0x40 MSTORE CALLVALUE DUP1 ISZERO PUSH2 0xF JUMPI PUSH0 DUP1 REVERT JUMPDEST POP PUSH1 0x4 CALLDATASIZE LT PUSH2 0x29 JUMPI PUSH0 CALLDATALOAD PUSH1 0xE0 SHR DUP1 PUSH4 0xF48D7729 EQ PUSH2 0x2D JUMPI JUMPDEST PUSH0 DUP1 REVERT JUMPDEST PUSH2 0x47 PUSH1 0x4 DUP1 CALLDATASIZE SUB DUP2 ADD SWAP1 PUSH2 0x42 SWAP2 SWAP1 PUSH2 0x11E4 JUMP JUMPDEST PUSH2 0x5D JUMP JUMPDEST PUSH1 0x40 MLOAD PUSH2 0x54 SWAP2 SWAP1 PUSH2 0x123E JUMP JUMPDEST PUSH1 0x40 MLOAD DUP1 SWAP2 SUB SWAP1 RETURN JUMPDEST PUSH0 DUP1 PUSH1 0x1 PUSH8 0xFFFFFFFFFFFFFFFF DUP2 GT ISZERO PUSH2 0x7A JUMPI PUSH2 0x79 PUSH2 0xED9 JUMP JUMPDEST JUMPDEST PUSH1 0x40 MLOAD SWAP1 DUP1 DUP3 MSTORE DUP1 PUSH1 0x20 MUL PUSH1 0x20 ADD DUP3 ADD PUSH1 0x40 MSTORE DUP1 ISZERO PUSH2 0xA8 JUMPI DUP2 PUSH1 0x20 ADD PUSH1 0x20 DUP3 MUL DUP1 CALLDATASIZE DUP4 CALLDATACOPY DUP1 DUP3 ADD SWAP2 POP POP SWAP1 POP JUMPDEST POP SWAP1 POP PUSH0 JUMPDEST PUSH1 0x1 DUP2 LT ISZERO PUSH2 0xFA JUMPI DUP4 DUP2 PUSH1 0x1 DUP2 LT PUSH2 0xC9 JUMPI PUSH2 0xC8 PUSH2 0x1257 JUMP JUMPDEST JUMPDEST PUSH1 0x20 MUL ADD MLOAD DUP3 DUP3 DUP2 MLOAD DUP2 LT PUSH2 0xE1 JUMPI PUSH2 0xE0 PUSH2 0x1257 JUMP JUMPDEST JUMPDEST PUSH1 0x20 MUL PUSH1 0x20 ADD ADD DUP2 DUP2 MSTORE POP POP DUP1 DUP1 PUSH1 0x1 ADD SWAP2 POP POP PUSH2 0xAD JUMP JUMPDEST POP PUSH0 PUSH2 0x106 DUP3 DUP7 PUSH2 0x120 JUMP JUMPDEST SUB PUSH2 0x115 JUMPI PUSH1 0x1 SWAP2 POP POP PUSH2 0x11A JUMP JUMPDEST PUSH0 SWAP2 POP POP JUMPDEST SWAP3 SWAP2 POP POP JUMP JUMPDEST PUSH0 DUP1 PUSH32 0x30644E72E131A029B85045B68181585D2833E84879B9709143E1F593F0000001 SWAP1 POP PUSH0 PUSH2 0x14E PUSH2 0x2A5 JUMP JUMPDEST SWAP1 POP DUP1 PUSH1 0x80 ADD MLOAD MLOAD PUSH1 0x1 DUP7 MLOAD PUSH2 0x164 SWAP2 SWAP1 PUSH2 0x12B1 JUMP JUMPDEST EQ PUSH2 0x16D JUMPI PUSH0 DUP1 REVERT JUMPDEST PUSH0 PUSH1 0x40 MLOAD DUP1 PUSH1 0x40 ADD PUSH1 0x40 MSTORE DUP1 PUSH0 DUP2 MSTORE PUSH1 0x20 ADD PUSH0 DUP2 MSTORE POP SWAP1 POP PUSH0 JUMPDEST DUP7 MLOAD DUP2 LT ISZERO PUSH2 0x21B JUMPI DUP4 DUP8 DUP3 DUP2 MLOAD DUP2 LT PUSH2 0x1A4 JUMPI PUSH2 0x1A3 PUSH2 0x1257 JUMP JUMPDEST JUMPDEST PUSH1 0x20 MUL PUSH1 0x20 ADD ADD MLOAD LT PUSH2 0x1B5 JUMPI PUSH0 DUP1 REVERT JUMPDEST PUSH2 0x20C DUP3 PUSH2 0x207 DUP6 PUSH1 0x80 ADD MLOAD PUSH1 0x1 DUP6 PUSH2 0x1CE SWAP2 SWAP1 PUSH2 0x12B1 JUMP JUMPDEST DUP2 MLOAD DUP2 LT PUSH2 0x1DF JUMPI PUSH2 0x1DE PUSH2 0x1257 JUMP JUMPDEST JUMPDEST PUSH1 0x20 MUL PUSH1 0x20 ADD ADD MLOAD DUP11 DUP6 DUP2 MLOAD DUP2 LT PUSH2 0x1FA JUMPI PUSH2 0x1F9 PUSH2 0x1257 JUMP JUMPDEST JUMPDEST PUSH1 0x20 MUL PUSH1 0x20 ADD ADD MLOAD PUSH2 0x6A6 JUMP JUMPDEST PUSH2 0x743 JUMP JUMPDEST SWAP2 POP DUP1 DUP1 PUSH1 0x1 ADD SWAP2 POP POP PUSH2 0x187 JUMP JUMPDEST POP PUSH2 0x244 DUP2 DUP4 PUSH1 0x80 ADD MLOAD PUSH0 DUP2 MLOAD DUP2 LT PUSH2 0x237 JUMPI PUSH2 0x236 PUSH2 0x1257 JUMP JUMPDEST JUMPDEST PUSH1 0x20 MUL PUSH1 0x20 ADD ADD MLOAD PUSH2 0x743 JUMP JUMPDEST SWAP1 POP PUSH2 0x288 DUP6 PUSH0 ADD MLOAD DUP7 PUSH1 0x20 ADD MLOAD PUSH2 0x25B DUP5 PUSH2 0x805 JUMP JUMPDEST DUP6 PUSH1 0x40 ADD MLOAD PUSH2 0x26D DUP11 PUSH1 0x40 ADD MLOAD PUSH2 0x805 JUMP JUMPDEST DUP8 PUSH1 0x60 ADD MLOAD PUSH2 0x27E DUP10 PUSH0 ADD MLOAD PUSH2 0x805 JUMP JUMPDEST DUP10 PUSH1 0x20 ADD MLOAD PUSH2 0x8A3 JUMP JUMPDEST PUSH2 0x298 JUMPI PUSH1 0x1 SWAP4 POP POP POP POP PUSH2 0x29F JUMP JUMPDEST PUSH0 SWAP4 POP POP POP POP JUMPDEST SWAP3 SWAP2 POP POP JUMP JUMPDEST PUSH2 0x2AD PUSH2 0xDAB JUMP JUMPDEST PUSH1 0x40 MLOAD DUP1 PUSH1 0x40 ADD PUSH1 0x40 MSTORE DUP1 PUSH32 0xF1B6D6179248C6BD45ECE92C32F5E951A5E1F044CD7E8E0BF7B2ECE953A658B DUP2 MSTORE PUSH1 0x20 ADD PUSH32 0x1BC88B60D250927DDBF51047BD3574F2C96B328AF7850D1D9C6CA86BB2E79199 DUP2 MSTORE POP DUP2 PUSH0 ADD DUP2 SWAP1 MSTORE POP PUSH1 0x40 MLOAD DUP1 PUSH1 0x40 ADD PUSH1 0x40 MSTORE DUP1 PUSH1 0x40 MLOAD DUP1 PUSH1 0x40 ADD PUSH1 0x40 MSTORE DUP1 PUSH32 0x24C3773A74609212E203BD9FD4D35F4CCE907574476F88223EC9A094B93DE89 DUP2 MSTORE PUSH1 0x20 ADD PUSH32 0x233775944152DD29451B269792941606804B0172FA4E8C2706DFF6BA2D22E061 DUP2 MSTORE POP DUP2 MSTORE PUSH1 0x20 ADD PUSH1 0x40 MLOAD DUP1 PUSH1 0x40 ADD PUSH1 0x40 MSTORE DUP1 PUSH32 0xEBBEE173C7EAFDD5CE56E7B2BEC38554CFE53E0ABDE361748216B122471AD29 DUP2 MSTORE PUSH1 0x20 ADD PUSH32 0x2DCF5F4CC2D0DC2AFCBEA24D154789106C6614DC67ECD538B2099828A6C9E240 DUP2 MSTORE POP DUP2 MSTORE POP DUP2 PUSH1 0x20 ADD DUP2 SWAP1 MSTORE POP PUSH1 0x40 MLOAD DUP1 PUSH1 0x40 ADD PUSH1 0x40 MSTORE DUP1 PUSH1 0x40 MLOAD DUP1 PUSH1 0x40 ADD PUSH1 0x40 MSTORE DUP1 PUSH32 0x2D35BCF62EBEF92EC308C773A83735821885E684AB865E7E27D185A43B3E063B DUP2 MSTORE PUSH1 0x20 ADD PUSH32 0x99A97819409943069FCAE33A672C517ABE4F2597CC85319BDCE1FECC6E9B113 DUP2 MSTORE POP DUP2 MSTORE PUSH1 0x20 ADD PUSH1 0x40 MLOAD DUP1 PUSH1 0x40 ADD PUSH1 0x40 MSTORE DUP1 PUSH32 0x2B839DFE5FC1B894F40FB02168AF2568F62ED02F244C4C791A24D2B3ACE6C811 DUP2 MSTORE PUSH1 0x20 ADD PUSH32 0x2A064AEFF8C23D6762979C8E44AE441117962FCAE7C8497263910DED492AB8B5 DUP2 MSTORE POP DUP2 MSTORE POP DUP2 PUSH1 0x40 ADD DUP2 SWAP1 MSTORE POP PUSH1 0x40 MLOAD DUP1 PUSH1 0x40 ADD PUSH1 0x40 MSTORE DUP1 PUSH1 0x40 MLOAD DUP1 PUSH1 0x40 ADD PUSH1 0x40 MSTORE DUP1 PUSH32 0x23E89B5ADF9400AA704C2C56F399175720AAF322A46BF6AF042855225F7B0041 DUP2 MSTORE PUSH1 0x20 ADD PUSH32 0x29D969840DC66C643DD144A09C114D44F9290B26B0464DA721BB7B2A0969E1C6 DUP2 MSTORE POP DUP2 MSTORE PUSH1 0x20 ADD PUSH1 0x40 MLOAD DUP1 PUSH1 0x40 ADD PUSH1 0x40 MSTORE DUP1 PUSH31 0xCF13F2D129CD69A01C4BF98A2FE1B817AEFFD136B71C0D2478C14A8E79A877 DUP2 MSTORE PUSH1 0x20 ADD PUSH32 0x232F939112948FF8B435964B772DA57D1F41C85B09393234741B9B65FB14CC85 DUP2 MSTORE POP DUP2 MSTORE POP DUP2 PUSH1 0x60 ADD DUP2 SWAP1 MSTORE POP PUSH1 0x2 PUSH8 0xFFFFFFFFFFFFFFFF DUP2 GT ISZERO PUSH2 0x572 JUMPI PUSH2 0x571 PUSH2 0xED9 JUMP JUMPDEST JUMPDEST PUSH1 0x40 MLOAD SWAP1 DUP1 DUP3 MSTORE DUP1 PUSH1 0x20 MUL PUSH1 0x20 ADD DUP3 ADD PUSH1 0x40 MSTORE DUP1 ISZERO PUSH2 0x5AB JUMPI DUP2 PUSH1 0x20 ADD JUMPDEST PUSH2 0x598 PUSH2 0xDF2 JUMP JUMPDEST DUP2 MSTORE PUSH1 0x20 ADD SWAP1 PUSH1 0x1 SWAP1 SUB SWAP1 DUP2 PUSH2 0x590 JUMPI SWAP1 POP JUMPDEST POP DUP2 PUSH1 0x80 ADD DUP2 SWAP1 MSTORE POP PUSH1 0x40 MLOAD DUP1 PUSH1 0x40 ADD PUSH1 0x40 MSTORE DUP1 PUSH32 0x141192F65E2706E652A67C8B60ACD6064B4463F4A06D5969C520E84F9526035 DUP2 MSTORE PUSH1 0x20 ADD PUSH32 0x2933B0C282A5EA69350AD943D98F135A837A3093D86E7255BA20F1234FCDCFE7 DUP2 MSTORE POP DUP2 PUSH1 0x80 ADD MLOAD PUSH0 DUP2 MLOAD DUP2 LT PUSH2 0x620 JUMPI PUSH2 0x61F PUSH2 0x1257 JUMP JUMPDEST JUMPDEST PUSH1 0x20 MUL PUSH1 0x20 ADD ADD DUP2 SWAP1 MSTORE POP PUSH1 0x40 MLOAD DUP1 PUSH1 0x40 ADD PUSH1 0x40 MSTORE DUP1 PUSH32 0xEF10E58B5AF28515D5F3522CD21202938134CA5B069AA818135F12C81FA2EE0 DUP2 MSTORE PUSH1 0x20 ADD PUSH32 0x1D72C53E0C7D578A85CDB16DACE650926A087D574FDBDB3387AADEE4A6096BB DUP2 MSTORE POP DUP2 PUSH1 0x80 ADD MLOAD PUSH1 0x1 DUP2 MLOAD DUP2 LT PUSH2 0x698 JUMPI PUSH2 0x697 PUSH2 0x1257 JUMP JUMPDEST JUMPDEST PUSH1 0x20 MUL PUSH1 0x20 ADD ADD DUP2 SWAP1 MSTORE POP SWAP1 JUMP JUMPDEST PUSH2 0x6AE PUSH2 0xDF2 JUMP JUMPDEST PUSH2 0x6B6 PUSH2 0xE0A JUMP JUMPDEST DUP4 PUSH0 ADD MLOAD DUP2 PUSH0 PUSH1 0x3 DUP2 LT PUSH2 0x6CD JUMPI PUSH2 0x6CC PUSH2 0x1257 JUMP JUMPDEST JUMPDEST PUSH1 0x20 MUL ADD DUP2 DUP2 MSTORE POP POP DUP4 PUSH1 0x20 ADD MLOAD DUP2 PUSH1 0x1 PUSH1 0x3 DUP2 LT PUSH2 0x6EF JUMPI PUSH2 0x6EE PUSH2 0x1257 JUMP JUMPDEST JUMPDEST PUSH1 0x20 MUL ADD DUP2 DUP2 MSTORE POP POP DUP3 DUP2 PUSH1 0x2 PUSH1 0x3 DUP2 LT PUSH2 0x70D JUMPI PUSH2 0x70C PUSH2 0x1257 JUMP JUMPDEST JUMPDEST PUSH1 0x20 MUL ADD DUP2 DUP2 MSTORE POP POP PUSH0 PUSH1 0x60 DUP4 PUSH1 0x80 DUP5 PUSH1 0x7 PUSH2 0x7D0 GAS SUB STATICCALL SWAP1 POP DUP1 PUSH0 DUP2 SUB PUSH2 0x731 JUMPI INVALID JUMPDEST POP DUP1 PUSH2 0x73B JUMPI PUSH0 DUP1 REVERT JUMPDEST POP POP SWAP3 SWAP2 POP POP JUMP JUMPDEST PUSH2 0x74B PUSH2 0xDF2 JUMP JUMPDEST PUSH2 0x753 PUSH2 0xE2C JUMP JUMPDEST DUP4 PUSH0 ADD MLOAD DUP2 PUSH0 PUSH1 0x4 DUP2 LT PUSH2 0x76A JUMPI PUSH2 0x769 PUSH2 0x1257 JUMP JUMPDEST JUMPDEST PUSH1 0x20 MUL ADD DUP2 DUP2 MSTORE POP POP DUP4 PUSH1 0x20 ADD MLOAD DUP2 PUSH1 0x1 PUSH1 0x4 DUP2 LT PUSH2 0x78C JUMPI PUSH2 0x78B PUSH2 0x1257 JUMP JUMPDEST JUMPDEST PUSH1 0x20 MUL ADD DUP2 DUP2 MSTORE POP POP DUP3 PUSH0 ADD MLOAD DUP2 PUSH1 0x2 PUSH1 0x4 DUP2 LT PUSH2 0x7AD JUMPI PUSH2 0x7AC PUSH2 0x1257 JUMP JUMPDEST JUMPDEST PUSH1 0x20 MUL ADD DUP2 DUP2 MSTORE POP POP DUP3 PUSH1 0x20 ADD MLOAD DUP2 PUSH1 0x3 PUSH1 0x4 DUP2 LT PUSH2 0x7CF JUMPI PUSH2 0x7CE PUSH2 0x1257 JUMP JUMPDEST JUMPDEST PUSH1 0x20 MUL ADD DUP2 DUP2 MSTORE POP POP PUSH0 PUSH1 0x60 DUP4 PUSH1 0xC0 DUP5 PUSH1 0x6 PUSH2 0x7D0 GAS SUB STATICCALL SWAP1 POP DUP1 PUSH0 DUP2 SUB PUSH2 0x7F3 JUMPI INVALID JUMPDEST POP DUP1 PUSH2 0x7FD JUMPI PUSH0 DUP1 REVERT JUMPDEST POP POP SWAP3 SWAP2 POP POP JUMP JUMPDEST PUSH2 0x80D PUSH2 0xDF2 JUMP JUMPDEST PUSH0 PUSH32 0x30644E72E131A029B85045B68181585D97816A916871CA8D3C208C16D87CFD47 SWAP1 POP PUSH0 DUP4 PUSH0 ADD MLOAD EQ DUP1 ISZERO PUSH2 0x846 JUMPI POP PUSH0 DUP4 PUSH1 0x20 ADD MLOAD EQ JUMPDEST ISZERO PUSH2 0x868 JUMPI PUSH1 0x40 MLOAD DUP1 PUSH1 0x40 ADD PUSH1 0x40 MSTORE DUP1 PUSH0 DUP2 MSTORE PUSH1 0x20 ADD PUSH0 DUP2 MSTORE POP SWAP2 POP POP PUSH2 0x89E JUMP JUMPDEST PUSH1 0x40 MLOAD DUP1 PUSH1 0x40 ADD PUSH1 0x40 MSTORE DUP1 DUP5 PUSH0 ADD MLOAD DUP2 MSTORE PUSH1 0x20 ADD DUP3 DUP6 PUSH1 0x20 ADD MLOAD PUSH2 0x88C SWAP2 SWAP1 PUSH2 0x1311 JUMP JUMPDEST DUP4 PUSH2 0x897 SWAP2 SWAP1 PUSH2 0x1341 JUMP JUMPDEST DUP2 MSTORE POP SWAP2 POP POP JUMPDEST SWAP2 SWAP1 POP JUMP JUMPDEST PUSH0 DUP1 PUSH1 0x4 PUSH8 0xFFFFFFFFFFFFFFFF DUP2 GT ISZERO PUSH2 0x8C0 JUMPI PUSH2 0x8BF PUSH2 0xED9 JUMP JUMPDEST JUMPDEST PUSH1 0x40 MLOAD SWAP1 DUP1 DUP3 MSTORE DUP1 PUSH1 0x20 MUL PUSH1 0x20 ADD DUP3 ADD PUSH1 0x40 MSTORE DUP1 ISZERO PUSH2 0x8F9 JUMPI DUP2 PUSH1 0x20 ADD JUMPDEST PUSH2 0x8E6 PUSH2 0xDF2 JUMP JUMPDEST DUP2 MSTORE PUSH1 0x20 ADD SWAP1 PUSH1 0x1 SWAP1 SUB SWAP1 DUP2 PUSH2 0x8DE JUMPI SWAP1 POP JUMPDEST POP SWAP1 POP PUSH0 PUSH1 0x4 PUSH8 0xFFFFFFFFFFFFFFFF DUP2 GT ISZERO PUSH2 0x918 JUMPI PUSH2 0x917 PUSH2 0xED9 JUMP JUMPDEST JUMPDEST PUSH1 0x40 MLOAD SWAP1 DUP1 DUP3 MSTORE DUP1 PUSH1 0x20 MUL PUSH1 0x20 ADD DUP3 ADD PUSH1 0x40 MSTORE DUP1 ISZERO PUSH2 0x951 JUMPI DUP2 PUSH1 0x20 ADD JUMPDEST PUSH2 0x93E PUSH2 0xE4E JUMP JUMPDEST DUP2 MSTORE PUSH1 0x20 ADD SWAP1 PUSH1 0x1 SWAP1 SUB SWAP1 DUP2 PUSH2 0x936 JUMPI SWAP1 POP JUMPDEST POP SWAP1 POP DUP11 DUP3 PUSH0 DUP2 MLOAD DUP2 LT PUSH2 0x968 JUMPI PUSH2 0x967 PUSH2 0x1257 JUMP JUMPDEST JUMPDEST PUSH1 0x20 MUL PUSH1 0x20 ADD ADD DUP2 SWAP1 MSTORE POP DUP9 DUP3 PUSH1 0x1 DUP2 MLOAD DUP2 LT PUSH2 0x988 JUMPI PUSH2 0x987 PUSH2 0x1257 JUMP JUMPDEST JUMPDEST PUSH1 0x20 MUL PUSH1 0x20 ADD ADD DUP2 SWAP1 MSTORE POP DUP7 DUP3 PUSH1 0x2 DUP2 MLOAD DUP2 LT PUSH2 0x9A8 JUMPI PUSH2 0x9A7 PUSH2 0x1257 JUMP JUMPDEST JUMPDEST PUSH1 0x20 MUL PUSH1 0x20 ADD ADD DUP2 SWAP1 MSTORE POP DUP5 DUP3 PUSH1 0x3 DUP2 MLOAD DUP2 LT PUSH2 0x9C8 JUMPI PUSH2 0x9C7 PUSH2 0x1257 JUMP JUMPDEST JUMPDEST PUSH1 0x20 MUL PUSH1 0x20 ADD ADD DUP2 SWAP1 MSTORE POP DUP10 DUP2 PUSH0 DUP2 MLOAD DUP2 LT PUSH2 0x9E7 JUMPI PUSH2 0x9E6 PUSH2 0x1257 JUMP JUMPDEST JUMPDEST PUSH1 0x20 MUL PUSH1 0x20 ADD ADD DUP2 SWAP1 MSTORE POP DUP8 DUP2 PUSH1 0x1 DUP2 MLOAD DUP2 LT PUSH2 0xA07 JUMPI PUSH2 0xA06 PUSH2 0x1257 JUMP JUMPDEST JUMPDEST PUSH1 0x20 MUL PUSH1 0x20 ADD ADD DUP2 SWAP1 MSTORE POP DUP6 DUP2 PUSH1 0x2 DUP2 MLOAD DUP2 LT PUSH2 0xA27 JUMPI PUSH2 0xA26 PUSH2 0x1257 JUMP JUMPDEST JUMPDEST PUSH1 0x20 MUL PUSH1 0x20 ADD ADD DUP2 SWAP1 MSTORE POP DUP4 DUP2 PUSH1 0x3 DUP2 MLOAD DUP2 LT PUSH2 0xA47 JUMPI PUSH2 0xA46 PUSH2 0x1257 JUMP JUMPDEST JUMPDEST PUSH1 0x20 MUL PUSH1 0x20 ADD ADD DUP2 SWAP1 MSTORE POP PUSH2 0xA5C DUP3 DUP3 PUSH2 0xA6C JUMP JUMPDEST SWAP3 POP POP POP SWAP9 SWAP8 POP POP POP POP POP POP POP POP JUMP JUMPDEST PUSH0 DUP2 MLOAD DUP4 MLOAD EQ PUSH2 0xA7A JUMPI PUSH0 DUP1 REVERT JUMPDEST PUSH0 DUP4 MLOAD SWAP1 POP PUSH0 PUSH1 0x6 DUP3 PUSH2 0xA8D SWAP2 SWAP1 PUSH2 0x1374 JUMP JUMPDEST SWAP1 POP PUSH0 DUP2 PUSH8 0xFFFFFFFFFFFFFFFF DUP2 GT ISZERO PUSH2 0xAAA JUMPI PUSH2 0xAA9 PUSH2 0xED9 JUMP JUMPDEST JUMPDEST PUSH1 0x40 MLOAD SWAP1 DUP1 DUP3 MSTORE DUP1 PUSH1 0x20 MUL PUSH1 0x20 ADD DUP3 ADD PUSH1 0x40 MSTORE DUP1 ISZERO PUSH2 0xAD8 JUMPI DUP2 PUSH1 0x20 ADD PUSH1 0x20 DUP3 MUL DUP1 CALLDATASIZE DUP4 CALLDATACOPY DUP1 DUP3 ADD SWAP2 POP POP SWAP1 POP JUMPDEST POP SWAP1 POP PUSH0 JUMPDEST DUP4 DUP2 LT ISZERO PUSH2 0xD50 JUMPI DUP7 DUP2 DUP2 MLOAD DUP2 LT PUSH2 0xAF8 JUMPI PUSH2 0xAF7 PUSH2 0x1257 JUMP JUMPDEST JUMPDEST PUSH1 0x20 MUL PUSH1 0x20 ADD ADD MLOAD PUSH0 ADD MLOAD DUP3 PUSH0 PUSH1 0x6 DUP5 PUSH2 0xB12 SWAP2 SWAP1 PUSH2 0x1374 JUMP JUMPDEST PUSH2 0xB1C SWAP2 SWAP1 PUSH2 0x12B1 JUMP JUMPDEST DUP2 MLOAD DUP2 LT PUSH2 0xB2D JUMPI PUSH2 0xB2C PUSH2 0x1257 JUMP JUMPDEST JUMPDEST PUSH1 0x20 MUL PUSH1 0x20 ADD ADD DUP2 DUP2 MSTORE POP POP DUP7 DUP2 DUP2 MLOAD DUP2 LT PUSH2 0xB4C JUMPI PUSH2 0xB4B PUSH2 0x1257 JUMP JUMPDEST JUMPDEST PUSH1 0x20 MUL PUSH1 0x20 ADD ADD MLOAD PUSH1 0x20 ADD MLOAD DUP3 PUSH1 0x1 PUSH1 0x6 DUP5 PUSH2 0xB68 SWAP2 SWAP1 PUSH2 0x1374 JUMP JUMPDEST PUSH2 0xB72 SWAP2 SWAP1 PUSH2 0x12B1 JUMP JUMPDEST DUP2 MLOAD DUP2 LT PUSH2 0xB83 JUMPI PUSH2 0xB82 PUSH2 0x1257 JUMP JUMPDEST JUMPDEST PUSH1 0x20 MUL PUSH1 0x20 ADD ADD DUP2 DUP2 MSTORE POP POP DUP6 DUP2 DUP2 MLOAD DUP2 LT PUSH2 0xBA2 JUMPI PUSH2 0xBA1 PUSH2 0x1257 JUMP JUMPDEST JUMPDEST PUSH1 0x20 MUL PUSH1 0x20 ADD ADD MLOAD PUSH0 ADD MLOAD PUSH1 0x1 PUSH1 0x2 DUP2 LT PUSH2 0xBC0 JUMPI PUSH2 0xBBF PUSH2 0x1257 JUMP JUMPDEST JUMPDEST PUSH1 0x20 MUL ADD MLOAD DUP3 PUSH1 0x2 PUSH1 0x6 DUP5 PUSH2 0xBD5 SWAP2 SWAP1 PUSH2 0x1374 JUMP JUMPDEST PUSH2 0xBDF SWAP2 SWAP1 PUSH2 0x12B1 JUMP JUMPDEST DUP2 MLOAD DUP2 LT PUSH2 0xBF0 JUMPI PUSH2 0xBEF PUSH2 0x1257 JUMP JUMPDEST JUMPDEST PUSH1 0x20 MUL PUSH1 0x20 ADD ADD DUP2 DUP2 MSTORE POP POP DUP6 DUP2 DUP2 MLOAD DUP2 LT PUSH2 0xC0F JUMPI PUSH2 0xC0E PUSH2 0x1257 JUMP JUMPDEST JUMPDEST PUSH1 0x20 MUL PUSH1 0x20 ADD ADD MLOAD PUSH0 ADD MLOAD PUSH0 PUSH1 0x2 DUP2 LT PUSH2 0xC2C JUMPI PUSH2 0xC2B PUSH2 0x1257 JUMP JUMPDEST JUMPDEST PUSH1 0x20 MUL ADD MLOAD DUP3 PUSH1 0x3 PUSH1 0x6 DUP5 PUSH2 0xC41 SWAP2 SWAP1 PUSH2 0x1374 JUMP JUMPDEST PUSH2 0xC4B SWAP2 SWAP1 PUSH2 0x12B1 JUMP JUMPDEST DUP2 MLOAD DUP2 LT PUSH2 0xC5C JUMPI PUSH2 0xC5B PUSH2 0x1257 JUMP JUMPDEST JUMPDEST PUSH1 0x20 MUL PUSH1 0x20 ADD ADD DUP2 DUP2 MSTORE POP POP DUP6 DUP2 DUP2 MLOAD DUP2 LT PUSH2 0xC7B JUMPI PUSH2 0xC7A PUSH2 0x1257 JUMP JUMPDEST JUMPDEST PUSH1 0x20 MUL PUSH1 0x20 ADD ADD MLOAD PUSH1 0x20 ADD MLOAD PUSH1 0x1 PUSH1 0x2 DUP2 LT PUSH2 0xC9A JUMPI PUSH2 0xC99 PUSH2 0x1257 JUMP JUMPDEST JUMPDEST PUSH1 0x20 MUL ADD MLOAD DUP3 PUSH1 0x4 PUSH1 0x6 DUP5 PUSH2 0xCAF SWAP2 SWAP1 PUSH2 0x1374 JUMP JUMPDEST PUSH2 0xCB9 SWAP2 SWAP1 PUSH2 0x12B1 JUMP JUMPDEST DUP2 MLOAD DUP2 LT PUSH2 0xCCA JUMPI PUSH2 0xCC9 PUSH2 0x1257 JUMP JUMPDEST JUMPDEST PUSH1 0x20 MUL PUSH1 0x20 ADD ADD DUP2 DUP2 MSTORE POP POP DUP6 DUP2 DUP2 MLOAD DUP2 LT PUSH2 0xCE9 JUMPI PUSH2 0xCE8 PUSH2 0x1257 JUMP JUMPDEST JUMPDEST PUSH1 0x20 MUL PUSH1 0x20 ADD ADD MLOAD PUSH1 0x20 ADD MLOAD PUSH0 PUSH1 0x2 DUP2 LT PUSH2 0xD07 JUMPI PUSH2 0xD06 PUSH2 0x1257 JUMP JUMPDEST JUMPDEST PUSH1 0x20 MUL ADD MLOAD DUP3 PUSH1 0x5 PUSH1 0x6 DUP5 PUSH2 0xD1C SWAP2 SWAP1 PUSH2 0x1374 JUMP JUMPDEST PUSH2 0xD26 SWAP2 SWAP1 PUSH2 0x12B1 JUMP JUMPDEST DUP2 MLOAD DUP2 LT PUSH2 0xD37 JUMPI PUSH2 0xD36 PUSH2 0x1257 JUMP JUMPDEST JUMPDEST PUSH1 0x20 MUL PUSH1 0x20 ADD ADD DUP2 DUP2 MSTORE POP POP DUP1 DUP1 PUSH1 0x1 ADD SWAP2 POP POP PUSH2 0xADD JUMP JUMPDEST POP PUSH2 0xD59 PUSH2 0xE74 JUMP JUMPDEST PUSH0 PUSH1 0x20 DUP3 PUSH1 0x20 DUP7 MUL PUSH1 0x20 DUP7 ADD PUSH1 0x8 PUSH2 0x7D0 GAS SUB STATICCALL SWAP1 POP DUP1 PUSH0 DUP2 SUB PUSH2 0xD79 JUMPI INVALID JUMPDEST POP DUP1 PUSH2 0xD83 JUMPI PUSH0 DUP1 REVERT JUMPDEST PUSH0 DUP3 PUSH0 PUSH1 0x1 DUP2 LT PUSH2 0xD97 JUMPI PUSH2 0xD96 PUSH2 0x1257 JUMP JUMPDEST JUMPDEST PUSH1 0x20 MUL ADD MLOAD EQ ISZERO SWAP6 POP POP POP POP POP POP SWAP3 SWAP2 POP POP JUMP JUMPDEST PUSH1 0x40 MLOAD DUP1 PUSH1 0xA0 ADD PUSH1 0x40 MSTORE DUP1 PUSH2 0xDBE PUSH2 0xDF2 JUMP JUMPDEST DUP2 MSTORE PUSH1 0x20 ADD PUSH2 0xDCB PUSH2 0xE4E JUMP JUMPDEST DUP2 MSTORE PUSH1 0x20 ADD PUSH2 0xDD8 PUSH2 0xE4E JUMP JUMPDEST DUP2 MSTORE PUSH1 0x20 ADD PUSH2 0xDE5 PUSH2 0xE4E JUMP JUMPDEST DUP2 MSTORE PUSH1 0x20 ADD PUSH1 0x60 DUP2 MSTORE POP SWAP1 JUMP JUMPDEST PUSH1 0x40 MLOAD DUP1 PUSH1 0x40 ADD PUSH1 0x40 MSTORE DUP1 PUSH0 DUP2 MSTORE PUSH1 0x20 ADD PUSH0 DUP2 MSTORE POP SWAP1 JUMP JUMPDEST PUSH1 0x40 MLOAD DUP1 PUSH1 0x60 ADD PUSH1 0x40 MSTORE DUP1 PUSH1 0x3 SWAP1 PUSH1 0x20 DUP3 MUL DUP1 CALLDATASIZE DUP4 CALLDATACOPY DUP1 DUP3 ADD SWAP2 POP POP SWAP1 POP POP SWAP1 JUMP JUMPDEST PUSH1 0x40 MLOAD DUP1 PUSH1 0x80 ADD PUSH1 0x40 MSTORE DUP1 PUSH1 0x4 SWAP1 PUSH1 0x20 DUP3 MUL DUP1 CALLDATASIZE DUP4 CALLDATACOPY DUP1 DUP3 ADD SWAP2 POP POP SWAP1 POP POP SWAP1 JUMP JUMPDEST PUSH1 0x40 MLOAD DUP1 PUSH1 0x40 ADD PUSH1 0x40 MSTORE DUP1 PUSH2 0xE61 PUSH2 0xE96 JUMP JUMPDEST DUP2 MSTORE PUSH1 0x20 ADD PUSH2 0xE6E PUSH2 0xE96 JUMP JUMPDEST DUP2 MSTORE POP SWAP1 JUMP JUMPDEST PUSH1 0x40 MLOAD DUP1 PUSH1 0x20 ADD PUSH1 0x40 MSTORE DUP1 PUSH1 0x1 SWAP1 PUSH1 0x20 DUP3 MUL DUP1 CALLDATASIZE DUP4 CALLDATACOPY DUP1 DUP3 ADD SWAP2 POP POP SWAP1 POP POP SWAP1 JUMP JUMPDEST PUSH1 0x40 MLOAD DUP1 PUSH1 0x40 ADD PUSH1 0x40 MSTORE DUP1 PUSH1 0x2 SWAP1 PUSH1 0x20 DUP3 MUL DUP1 CALLDATASIZE DUP4 CALLDATACOPY DUP1 DUP3 ADD SWAP2 POP POP SWAP1 POP POP SWAP1 JUMP JUMPDEST PUSH0 PUSH1 0x40 MLOAD SWAP1 POP SWAP1 JUMP JUMPDEST PUSH0 DUP1 REVERT JUMPDEST PUSH0 DUP1 REVERT JUMPDEST PUSH0 PUSH1 0x1F NOT PUSH1 0x1F DUP4 ADD AND SWAP1 POP SWAP2 SWAP1 POP JUMP JUMPDEST PUSH32 0x4E487B7100000000000000000000000000000000000000000000000000000000 PUSH0 MSTORE PUSH1 0x41 PUSH1 0x4 MSTORE PUSH1 0x24 PUSH0 REVERT JUMPDEST PUSH2 0xF0F DUP3 PUSH2 0xEC9 JUMP JUMPDEST DUP2 ADD DUP2 DUP2 LT PUSH8 0xFFFFFFFFFFFFFFFF DUP3 GT OR ISZERO PUSH2 0xF2E JUMPI PUSH2 0xF2D PUSH2 0xED9 JUMP JUMPDEST JUMPDEST DUP1 PUSH1 0x40 MSTORE POP POP POP JUMP JUMPDEST PUSH0 PUSH2 0xF40 PUSH2 0xEB8 JUMP JUMPDEST SWAP1 POP PUSH2 0xF4C DUP3 DUP3 PUSH2 0xF06 JUMP JUMPDEST SWAP2 SWAP1 POP JUMP JUMPDEST PUSH0 DUP2 SWAP1 POP SWAP2 SWAP1 POP JUMP JUMPDEST PUSH2 0xF63 DUP2 PUSH2 0xF51 JUMP JUMPDEST DUP2 EQ PUSH2 0xF6D JUMPI PUSH0 DUP1 REVERT JUMPDEST POP JUMP JUMPDEST PUSH0 DUP2 CALLDATALOAD SWAP1 POP PUSH2 0xF7E DUP2 PUSH2 0xF5A JUMP JUMPDEST SWAP3 SWAP2 POP POP JUMP JUMPDEST PUSH0 PUSH1 0x40 DUP3 DUP5 SUB SLT ISZERO PUSH2 0xF99 JUMPI PUSH2 0xF98 PUSH2 0xEC5 JUMP JUMPDEST JUMPDEST PUSH2 0xFA3 PUSH1 0x40 PUSH2 0xF37 JUMP JUMPDEST SWAP1 POP PUSH0 PUSH2 0xFB2 DUP5 DUP3 DUP6 ADD PUSH2 0xF70 JUMP JUMPDEST PUSH0 DUP4 ADD MSTORE POP PUSH1 0x20 PUSH2 0xFC5 DUP5 DUP3 DUP6 ADD PUSH2 0xF70 JUMP JUMPDEST PUSH1 0x20 DUP4 ADD MSTORE POP SWAP3 SWAP2 POP POP JUMP JUMPDEST PUSH0 DUP1 REVERT JUMPDEST PUSH0 PUSH8 0xFFFFFFFFFFFFFFFF DUP3 GT ISZERO PUSH2 0xFEF JUMPI PUSH2 0xFEE PUSH2 0xED9 JUMP JUMPDEST JUMPDEST PUSH1 0x20 DUP3 MUL SWAP1 POP SWAP2 SWAP1 POP JUMP JUMPDEST PUSH0 DUP1 REVERT JUMPDEST PUSH0 PUSH2 0x1010 PUSH2 0x100B DUP5 PUSH2 0xFD5 JUMP JUMPDEST PUSH2 0xF37 JUMP JUMPDEST SWAP1 POP DUP1 PUSH1 0x20 DUP5 MUL DUP4 ADD DUP6 DUP2 GT ISZERO PUSH2 0x102A JUMPI PUSH2 0x1029 PUSH2 0xFFA JUMP JUMPDEST JUMPDEST DUP4 JUMPDEST DUP2 DUP2 LT ISZERO PUSH2 0x1053 JUMPI DUP1 PUSH2 0x103F DUP9 DUP3 PUSH2 0xF70 JUMP JUMPDEST DUP5 MSTORE PUSH1 0x20 DUP5 ADD SWAP4 POP POP PUSH1 0x20 DUP2 ADD SWAP1 POP PUSH2 0x102C JUMP JUMPDEST POP POP POP SWAP4 SWAP3 POP POP POP JUMP JUMPDEST PUSH0 DUP3 PUSH1 0x1F DUP4 ADD SLT PUSH2 0x1071 JUMPI PUSH2 0x1070 PUSH2 0xFD1 JUMP JUMPDEST JUMPDEST PUSH1 0x2 PUSH2 0x107E DUP5 DUP3 DUP6 PUSH2 0xFFE JUMP JUMPDEST SWAP2 POP POP SWAP3 SWAP2 POP POP JUMP JUMPDEST PUSH0 PUSH1 0x80 DUP3 DUP5 SUB SLT ISZERO PUSH2 0x109C JUMPI PUSH2 0x109B PUSH2 0xEC5 JUMP JUMPDEST JUMPDEST PUSH2 0x10A6 PUSH1 0x40 PUSH2 0xF37 JUMP JUMPDEST SWAP1 POP PUSH0 PUSH2 0x10B5 DUP5 DUP3 DUP6 ADD PUSH2 0x105D JUMP JUMPDEST PUSH0 DUP4 ADD MSTORE POP PUSH1 0x40 PUSH2 0x10C8 DUP5 DUP3 DUP6 ADD PUSH2 0x105D JUMP JUMPDEST PUSH1 0x20 DUP4 ADD MSTORE POP SWAP3 SWAP2 POP POP JUMP JUMPDEST PUSH0 PUSH2 0x100 DUP3 DUP5 SUB SLT ISZERO PUSH2 0x10EA JUMPI PUSH2 0x10E9 PUSH2 0xEC5 JUMP JUMPDEST JUMPDEST PUSH2 0x10F4 PUSH1 0x60 PUSH2 0xF37 JUMP JUMPDEST SWAP1 POP PUSH0 PUSH2 0x1103 DUP5 DUP3 DUP6 ADD PUSH2 0xF84 JUMP JUMPDEST PUSH0 DUP4 ADD MSTORE POP PUSH1 0x40 PUSH2 0x1116 DUP5 DUP3 DUP6 ADD PUSH2 0x1087 JUMP JUMPDEST PUSH1 0x20 DUP4 ADD MSTORE POP PUSH1 0xC0 PUSH2 0x112A DUP5 DUP3 DUP6 ADD PUSH2 0xF84 JUMP JUMPDEST PUSH1 0x40 DUP4 ADD MSTORE POP SWAP3 SWAP2 POP POP JUMP JUMPDEST PUSH0 PUSH8 0xFFFFFFFFFFFFFFFF DUP3 GT ISZERO PUSH2 0x1150 JUMPI PUSH2 0x114F PUSH2 0xED9 JUMP JUMPDEST JUMPDEST PUSH1 0x20 DUP3 MUL SWAP1 POP SWAP2 SWAP1 POP JUMP JUMPDEST PUSH0 PUSH2 0x116D PUSH2 0x1168 DUP5 PUSH2 0x1136 JUMP JUMPDEST PUSH2 0xF37 JUMP JUMPDEST SWAP1 POP DUP1 PUSH1 0x20 DUP5 MUL DUP4 ADD DUP6 DUP2 GT ISZERO PUSH2 0x1187 JUMPI PUSH2 0x1186 PUSH2 0xFFA JUMP JUMPDEST JUMPDEST DUP4 JUMPDEST DUP2 DUP2 LT ISZERO PUSH2 0x11B0 JUMPI DUP1 PUSH2 0x119C DUP9 DUP3 PUSH2 0xF70 JUMP JUMPDEST DUP5 MSTORE PUSH1 0x20 DUP5 ADD SWAP4 POP POP PUSH1 0x20 DUP2 ADD SWAP1 POP PUSH2 0x1189 JUMP JUMPDEST POP POP POP SWAP4 SWAP3 POP POP POP JUMP JUMPDEST PUSH0 DUP3 PUSH1 0x1F DUP4 ADD SLT PUSH2 0x11CE JUMPI PUSH2 0x11CD PUSH2 0xFD1 JUMP JUMPDEST JUMPDEST PUSH1 0x1 PUSH2 0x11DB DUP5 DUP3 DUP6 PUSH2 0x115B JUMP JUMPDEST SWAP2 POP POP SWAP3 SWAP2 POP POP JUMP JUMPDEST PUSH0 DUP1 PUSH2 0x120 DUP4 DUP6 SUB SLT ISZERO PUSH2 0x11FB JUMPI PUSH2 0x11FA PUSH2 0xEC1 JUMP JUMPDEST JUMPDEST PUSH0 PUSH2 0x1208 DUP6 DUP3 DUP7 ADD PUSH2 0x10D4 JUMP JUMPDEST SWAP3 POP POP PUSH2 0x100 PUSH2 0x121A DUP6 DUP3 DUP7 ADD PUSH2 0x11BA JUMP JUMPDEST SWAP2 POP POP SWAP3 POP SWAP3 SWAP1 POP JUMP JUMPDEST PUSH0 DUP2 ISZERO ISZERO SWAP1 POP SWAP2 SWAP1 POP JUMP JUMPDEST PUSH2 0x1238 DUP2 PUSH2 0x1224 JUMP JUMPDEST DUP3 MSTORE POP POP JUMP JUMPDEST PUSH0 PUSH1 0x20 DUP3 ADD SWAP1 POP PUSH2 0x1251 PUSH0 DUP4 ADD DUP5 PUSH2 0x122F JUMP JUMPDEST SWAP3 SWAP2 POP POP JUMP JUMPDEST PUSH32 0x4E487B7100000000000000000000000000000000000000000000000000000000 PUSH0 MSTORE PUSH1 0x32 PUSH1 0x4 MSTORE PUSH1 0x24 PUSH0 REVERT JUMPDEST PUSH32 0x4E487B7100000000000000000000000000000000000000000000000000000000 PUSH0 MSTORE PUSH1 0x11 PUSH1 0x4 MSTORE PUSH1 0x24 PUSH0 REVERT JUMPDEST PUSH0 PUSH2 0x12BB DUP3 PUSH2 0xF51 JUMP JUMPDEST SWAP2 POP PUSH2 0x12C6 DUP4 PUSH2 0xF51 JUMP JUMPDEST SWAP3 POP DUP3 DUP3 ADD SWAP1 POP DUP1 DUP3 GT ISZERO PUSH2 0x12DE JUMPI PUSH2 0x12DD PUSH2 0x1284 JUMP JUMPDEST JUMPDEST SWAP3 SWAP2 POP POP JUMP JUMPDEST PUSH32 0x4E487B7100000000000000000000000000000000000000000000000000000000 PUSH0 MSTORE PUSH1 0x12 PUSH1 0x4 MSTORE PUSH1 0x24 PUSH0 REVERT JUMPDEST PUSH0 PUSH2 0x131B DUP3 PUSH2 0xF51 JUMP JUMPDEST SWAP2 POP PUSH2 0x1326 DUP4 PUSH2 0xF51 JUMP JUMPDEST SWAP3 POP DUP3 PUSH2 0x1336 JUMPI PUSH2 0x1335 PUSH2 0x12E4 JUMP JUMPDEST JUMPDEST DUP3 DUP3 MOD SWAP1 POP SWAP3 SWAP2 POP POP JUMP JUMPDEST PUSH0 PUSH2 0x134B DUP3 PUSH2 0xF51 JUMP JUMPDEST SWAP2 POP PUSH2 0x1356 DUP4 PUSH2 0xF51 JUMP JUMPDEST SWAP3 POP DUP3 DUP3 SUB SWAP1 POP DUP2 DUP2 GT ISZERO PUSH2 0x136E JUMPI PUSH2 0x136D PUSH2 0x1284 JUMP JUMPDEST JUMPDEST SWAP3 SWAP2 POP POP JUMP JUMPDEST PUSH0 PUSH2 0x137E DUP3 PUSH2 0xF51 JUMP JUMPDEST SWAP2 POP PUSH2 0x1389 DUP4 PUSH2 0xF51 JUMP JUMPDEST SWAP3 POP DUP3 DUP3 MUL PUSH2 0x1397 DUP2 PUSH2 0xF51 JUMP JUMPDEST SWAP2 POP DUP3 DUP3 DIV DUP5 EQ DUP4 ISZERO OR PUSH2 0x13AE JUMPI PUSH2 0x13AD PUSH2 0x1284 JUMP JUMPDEST JUMPDEST POP SWAP3 SWAP2 POP POP JUMP INVALID LOG2 PUSH5 0x6970667358 0x22 SLT KECCAK256 0xB3 0x28 0xDB MLOAD 0xD5 0xBC 0x25 0xE9 0xD5 SGT CODECOPY 0x27 0x2F SWAP10 0x2F PUSH20 0x9CF2CF2D669597267EF1A9F569CF9F7764736F6C PUSH4 0x4300081A STOP CALLER "
				},
				"gasEstimates": {
					"creation": {
						"codeDepositCost": "1019800",
						"executionCost": "1059",
						"totalCost": "1020859"
					},
					"external": {
						"verifyTx(((uint256,uint256),(uint256[2],uint256[2]),(uint256,uint256)),uint256[1])": "infinite"
					},
					"internal": {
						"verify(uint256[] memory,struct Verifier.Proof memory)": "infinite",
						"verifyingKey()": "infinite"
					}
				},
				"methodIdentifiers": {
					"verifyTx(((uint256,uint256),(uint256[2],uint256[2]),(uint256,uint256)),uint256[1])": "f48d7729"
				}
			},
			"storageLayout": {
				"storage": [],
				"types": null
			},
			"userdoc": {
				"kind": "user",
				"methods": {},
				"version": 1
			}
		}
	}
}