{
	"data": {
		"bytecode": {
			"linkReferences": {},
			"object": "6080604052348015600e575f80fd5b506113b58061001c5f395ff3fe608060405234801561000f575f80fd5b5060043610610029575f3560e01c806343cd76fc1461002d575b5f80fd5b610047600480360381019061004291906111ae565b61005d565b6040516100549190611208565b60405180910390f35b5f80600267ffffffffffffffff81111561007a57610079610f51565b5b6040519080825280602002602001820160405280156100a85781602001602082028036833780820191505090505b5090505f5b60028110156100fa578381600281106100c9576100c8611221565b5b60200201518282815181106100e1576100e0611221565b5b60200260200101818152505080806001019150506100ad565b505f6101068286610120565b0361011557600191505061011a565b5f9150505b92915050565b5f807f30644e72e131a029b85045b68181585d2833e84879b9709143e1f593f000000190505f61014e6102a5565b905080608001515160018651610164919061127b565b1461016d575f80fd5b5f60405180604001604052805f81526020015f81525090505f5b865181101561021b57838782815181106101a4576101a3611221565b5b6020026020010151106101b5575f80fd5b61020c8261020785608001516001856101ce919061127b565b815181106101df576101de611221565b5b60200260200101518a85815181106101fa576101f9611221565b5b602002602001015161071e565b6107bb565b91508080600101915050610187565b506102448183608001515f8151811061023757610236611221565b5b60200260200101516107bb565b9050610288855f0151866020015161025b8461087d565b856040015161026d8a6040015161087d565b876060015161027e895f015161087d565b896020015161091b565b610298576001935050505061029f565b5f93505050505b92915050565b6102ad610e23565b60405180604001604052807f2e23cf962a714c88fe2697b8bd53a81522dc936be85fab3b99ad5a884e78ce2781526020017f1efa1467d8858e888e76f3eb614ca106474c1c50380f05935323e9f72d9e5e1b815250815f0181905250604051806040016040528060405180604001604052807e5c7f883a61502494e40015f58e17c48094500b04e7941ce9f68ea8c790697881526020017f2d98a4bb8910fc573f810f01786ce6b224e9ccb97d667072d2cb59629a214969815250815260200160405180604001604052807f1951de5a57308a0b71fefe663facf6be79322dd32ce61b64ec1d8b7f120818e881526020017f1a008832fcc3f5451c789ff1639628044b504cfadc63ec3fa854f586b56d3e4b8152508152508160200181905250604051806040016040528060405180604001604052807f1361d9d731eeec91751cc369b697b108ced3b1077df9bb182aa0974a0b6ef0f981526020017f07f1c5fdfad661a57c0e641b54545593cf8ba4e8683a6f7e81fe4cd72190077e815250815260200160405180604001604052807f0db46703dfacf9e83f55ade015689594c8e2275827e7a8a5f157870bbbb04b4a81526020017f0b708fa395fa8d90123fa172aa911630a463d17559fb957fa90823bb775e33a88152508152508160400181905250604051806040016040528060405180604001604052807f25af7d14214b3c9dc94bbee803715806e2e50dc56df3a93dba84089e5159725381526020017f18e7219decbf0690912c454e1a493d3b69fe9c8e39409c65e7856762b72d6304815250815260200160405180604001604052807f0bac8a5e3fd8bde6f8d11900bd7163c2f7094903831015212b758932e6298ba081526020017f247f70c8a46acb0be4d1db37027821e7a698028734ba710409ed73375d8c9be48152508152508160600181905250600367ffffffffffffffff81111561057257610571610f51565b5b6040519080825280602002602001820160405280156105ab57816020015b610598610e6a565b8152602001906001900390816105905790505b50816080018190525060405180604001604052807f197e5a889ab9337d5d3d61771e19b89dfc1d021d835341190b89b9a94e32b85381526020017f1e031975124b84cb5ab3ebb1d64711886f3bd9e0763e7527544bf003892daf9d81525081608001515f815181106106205761061f611221565b5b602002602001018190525060405180604001604052807f21f785c8d4e5e8e9aaf4c4a928705818da42e3e57b686821d0ac0315e5eaf6aa81526020017f2958d19bb5dc2adcc82645a45c29a5bd8561d22b04688f0f782a0d46b3e9dcfa815250816080015160018151811061069857610697611221565b5b602002602001018190525060405180604001604052807f1d2ae606edcc168034c5cfaaf2d1620dca2ffee5c2a05eb5df35936bc3af650b81526020017f201603903fec7acc62ec945cb29440220bcd80b6a7c6e094d00a27bc595f3e9181525081608001516002815181106107105761070f611221565b5b602002602001018190525090565b610726610e6a565b61072e610e82565b835f0151815f6003811061074557610744611221565b5b60200201818152505083602001518160016003811061076757610766611221565b5b602002018181525050828160026003811061078557610784611221565b5b6020020181815250505f60608360808460076107d05a03fa9050805f81036107a957fe5b50806107b3575f80fd5b505092915050565b6107c3610e6a565b6107cb610ea4565b835f0151815f600481106107e2576107e1611221565b5b60200201818152505083602001518160016004811061080457610803611221565b5b602002018181525050825f01518160026004811061082557610824611221565b5b60200201818152505082602001518160036004811061084757610846611221565b5b6020020181815250505f60608360c08460066107d05a03fa9050805f810361086b57fe5b5080610875575f80fd5b505092915050565b610885610e6a565b5f7f30644e72e131a029b85045b68181585d97816a916871ca8d3c208c16d87cfd4790505f835f01511480156108be57505f8360200151145b156108e05760405180604001604052805f81526020015f815250915050610916565b6040518060400160405280845f0151815260200182856020015161090491906112db565b8361090f919061130b565b8152509150505b919050565b5f80600467ffffffffffffffff81111561093857610937610f51565b5b60405190808252806020026020018201604052801561097157816020015b61095e610e6a565b8152602001906001900390816109565790505b5090505f600467ffffffffffffffff8111156109905761098f610f51565b5b6040519080825280602002602001820160405280156109c957816020015b6109b6610ec6565b8152602001906001900390816109ae5790505b5090508a825f815181106109e0576109df611221565b5b60200260200101819052508882600181518110610a00576109ff611221565b5b60200260200101819052508682600281518110610a2057610a1f611221565b5b60200260200101819052508482600381518110610a4057610a3f611221565b5b602002602001018190525089815f81518110610a5f57610a5e611221565b5b60200260200101819052508781600181518110610a7f57610a7e611221565b5b60200260200101819052508581600281518110610a9f57610a9e611221565b5b60200260200101819052508381600381518110610abf57610abe611221565b5b6020026020010181905250610ad48282610ae4565b9250505098975050505050505050565b5f8151835114610af2575f80fd5b5f835190505f600682610b05919061133e565b90505f8167ffffffffffffffff811115610b2257610b21610f51565b5b604051908082528060200260200182016040528015610b505781602001602082028036833780820191505090505b5090505f5b83811015610dc857868181518110610b7057610b6f611221565b5b60200260200101515f0151825f600684610b8a919061133e565b610b94919061127b565b81518110610ba557610ba4611221565b5b602002602001018181525050868181518110610bc457610bc3611221565b5b602002602001015160200151826001600684610be0919061133e565b610bea919061127b565b81518110610bfb57610bfa611221565b5b602002602001018181525050858181518110610c1a57610c19611221565b5b60200260200101515f0151600160028110610c3857610c37611221565b5b6020020151826002600684610c4d919061133e565b610c57919061127b565b81518110610c6857610c67611221565b5b602002602001018181525050858181518110610c8757610c86611221565b5b60200260200101515f01515f60028110610ca457610ca3611221565b5b6020020151826003600684610cb9919061133e565b610cc3919061127b565b81518110610cd457610cd3611221565b5b602002602001018181525050858181518110610cf357610cf2611221565b5b602002602001015160200151600160028110610d1257610d11611221565b5b6020020151826004600684610d27919061133e565b610d31919061127b565b81518110610d4257610d41611221565b5b602002602001018181525050858181518110610d6157610d60611221565b5b6020026020010151602001515f60028110610d7f57610d7e611221565b5b6020020151826005600684610d94919061133e565b610d9e919061127b565b81518110610daf57610dae611221565b5b6020026020010181815250508080600101915050610b55565b50610dd1610eec565b5f602082602086026020860160086107d05a03fa9050805f8103610df157fe5b5080610dfb575f80fd5b5f825f60018110610e0f57610e0e611221565b5b602002015114159550505050505092915050565b6040518060a00160405280610e36610e6a565b8152602001610e43610ec6565b8152602001610e50610ec6565b8152602001610e5d610ec6565b8152602001606081525090565b60405180604001604052805f81526020015f81525090565b6040518060600160405280600390602082028036833780820191505090505090565b6040518060800160405280600490602082028036833780820191505090505090565b6040518060400160405280610ed9610f0e565b8152602001610ee6610f0e565b81525090565b6040518060200160405280600190602082028036833780820191505090505090565b6040518060400160405280600290602082028036833780820191505090505090565b5f604051905090565b5f80fd5b5f80fd5b5f601f19601f8301169050919050565b7f4e487b71000000000000000000000000000000000000000000000000000000005f52604160045260245ffd5b610f8782610f41565b810181811067ffffffffffffffff82111715610fa657610fa5610f51565b5b80604052505050565b5f610fb8610f30565b9050610fc48282610f7e565b919050565b5f819050919050565b610fdb81610fc9565b8114610fe5575f80fd5b50565b5f81359050610ff681610fd2565b92915050565b5f6040828403121561101157611010610f3d565b5b61101b6040610faf565b90505f61102a84828501610fe8565b5f83015250602061103d84828501610fe8565b60208301525092915050565b5f80fd5b5f67ffffffffffffffff82111561106757611066610f51565b5b602082029050919050565b5f80fd5b5f6110886110838461104d565b610faf565b905080602084028301858111156110a2576110a1611072565b5b835b818110156110cb57806110b78882610fe8565b8452602084019350506020810190506110a4565b5050509392505050565b5f82601f8301126110e9576110e8611049565b5b60026110f6848285611076565b91505092915050565b5f6080828403121561111457611113610f3d565b5b61111e6040610faf565b90505f61112d848285016110d5565b5f830152506040611140848285016110d5565b60208301525092915050565b5f610100828403121561116257611161610f3d565b5b61116c6060610faf565b90505f61117b84828501610ffc565b5f83015250604061118e848285016110ff565b60208301525060c06111a284828501610ffc565b60408301525092915050565b5f8061014083850312156111c5576111c4610f39565b5b5f6111d28582860161114c565b9250506101006111e4858286016110d5565b9150509250929050565b5f8115159050919050565b611202816111ee565b82525050565b5f60208201905061121b5f8301846111f9565b92915050565b7f4e487b71000000000000000000000000000000000000000000000000000000005f52603260045260245ffd5b7f4e487b71000000000000000000000000000000000000000000000000000000005f52601160045260245ffd5b5f61128582610fc9565b915061129083610fc9565b92508282019050808211156112a8576112a761124e565b5b92915050565b7f4e487b71000000000000000000000000000000000000000000000000000000005f52601260045260245ffd5b5f6112e582610fc9565b91506112f083610fc9565b925082611300576112ff6112ae565b5b828206905092915050565b5f61131582610fc9565b915061132083610fc9565b92508282039050818111156113385761133761124e565b5b92915050565b5f61134882610fc9565b915061135383610fc9565b925082820261136181610fc9565b915082820484148315176113785761137761124e565b5b509291505056fea264697066735822122083783c3094fdbc3c22517a08a062e0fcce4e3fc53f16150758618b4afd88149764736f6c634300081a0033",
			"opcodes": "PUSH1 0x80 PUSH1 0x40 MSTORE CALLVALUE DUP1 ISZERO PUSH1 0xE JUMPI PUSH0 DUP1 REVERT JUMPDEST POP PUSH2 0x13B5 DUP1 PUSH2 0x1C PUSH0 CODECOPY PUSH0 RETURN INVALID PUSH1 0x80 PUSH1 0x40 MSTORE CALLVALUE DUP1 ISZERO PUSH2 0xF JUMPI PUSH0 DUP1 REVERT JUMPDEST POP PUSH1 0x4 CALLDATASIZE LT PUSH2 0x29 JUMPI PUSH0 CALLDATALOAD PUSH1 0xE0 SHR DUP1 PUSH4 0x43CD76FC EQ PUSH2 0x2D JUMPI JUMPDEST PUSH0 DUP1 REVERT JUMPDEST PUSH2 0x47 PUSH1 0x4 DUP1 CALLDATASIZE SUB DUP2 ADD SWAP1 PUSH2 0x42 SWAP2 SWAP1 PUSH2 0x11AE JUMP JUMPDEST PUSH2 0x5D JUMP JUMPDEST PUSH1 0x40 MLOAD PUSH2 0x54 SWAP2 SWAP1 PUSH2 0x1208 JUMP JUMPDEST PUSH1 0x40 MLOAD DUP1 SWAP2 SUB SWAP1 RETURN JUMPDEST PUSH0 DUP1 PUSH1 0x2 PUSH8 0xFFFFFFFFFFFFFFFF DUP2 GT ISZERO PUSH2 0x7A JUMPI PUSH2 0x79 PUSH2 0xF51 JUMP JUMPDEST JUMPDEST PUSH1 0x40 MLOAD SWAP1 DUP1 DUP3 MSTORE DUP1 PUSH1 0x20 MUL PUSH1 0x20 ADD DUP3 ADD PUSH1 0x40 MSTORE DUP1 ISZERO PUSH2 0xA8 JUMPI DUP2 PUSH1 0x20 ADD PUSH1 0x20 DUP3 MUL DUP1 CALLDATASIZE DUP4 CALLDATACOPY DUP1 DUP3 ADD SWAP2 POP POP SWAP1 POP JUMPDEST POP SWAP1 POP PUSH0 JUMPDEST PUSH1 0x2 DUP2 LT ISZERO PUSH2 0xFA JUMPI DUP4 DUP2 PUSH1 0x2 DUP2 LT PUSH2 0xC9 JUMPI PUSH2 0xC8 PUSH2 0x1221 JUMP JUMPDEST JUMPDEST PUSH1 0x20 MUL ADD MLOAD DUP3 DUP3 DUP2 MLOAD DUP2 LT PUSH2 0xE1 JUMPI PUSH2 0xE0 PUSH2 0x1221 JUMP JUMPDEST JUMPDEST PUSH1 0x20 MUL PUSH1 0x20 ADD ADD DUP2 DUP2 MSTORE POP POP DUP1 DUP1 PUSH1 0x1 ADD SWAP2 POP POP PUSH2 0xAD JUMP JUMPDEST POP PUSH0 PUSH2 0x106 DUP3 DUP7 PUSH2 0x120 JUMP JUMPDEST SUB PUSH2 0x115 JUMPI PUSH1 0x1 SWAP2 POP POP PUSH2 0x11A JUMP JUMPDEST PUSH0 SWAP2 POP POP JUMPDEST SWAP3 SWAP2 POP POP JUMP JUMPDEST PUSH0 DUP1 PUSH32 0x30644E72E131A029B85045B68181585D2833E84879B9709143E1F593F0000001 SWAP1 POP PUSH0 PUSH2 0x14E PUSH2 0x2A5 JUMP JUMPDEST SWAP1 POP DUP1 PUSH1 0x80 ADD MLOAD MLOAD PUSH1 0x1 DUP7 MLOAD PUSH2 0x164 SWAP2 SWAP1 PUSH2 0x127B JUMP JUMPDEST EQ PUSH2 0x16D JUMPI PUSH0 DUP1 REVERT JUMPDEST PUSH0 PUSH1 0x40 MLOAD DUP1 PUSH1 0x40 ADD PUSH1 0x40 MSTORE DUP1 PUSH0 DUP2 MSTORE PUSH1 0x20 ADD PUSH0 DUP2 MSTORE POP SWAP1 POP PUSH0 JUMPDEST DUP7 MLOAD DUP2 LT ISZERO PUSH2 0x21B JUMPI DUP4 DUP8 DUP3 DUP2 MLOAD DUP2 LT PUSH2 0x1A4 JUMPI PUSH2 0x1A3 PUSH2 0x1221 JUMP JUMPDEST JUMPDEST PUSH1 0x20 MUL PUSH1 0x20 ADD ADD MLOAD LT PUSH2 0x1B5 JUMPI PUSH0 DUP1 REVERT JUMPDEST PUSH2 0x20C DUP3 PUSH2 0x207 DUP6 PUSH1 0x80 ADD MLOAD PUSH1 0x1 DUP6 PUSH2 0x1CE SWAP2 SWAP1 PUSH2 0x127B JUMP JUMPDEST DUP2 MLOAD DUP2 LT PUSH2 0x1DF JUMPI PUSH2 0x1DE PUSH2 0x1221 JUMP JUMPDEST JUMPDEST PUSH1 0x20 MUL PUSH1 0x20 ADD ADD MLOAD DUP11 DUP6 DUP2 MLOAD DUP2 LT PUSH2 0x1FA JUMPI PUSH2 0x1F9 PUSH2 0x1221 JUMP JUMPDEST JUMPDEST PUSH1 0x20 MUL PUSH1 0x20 ADD ADD MLOAD PUSH2 0x71E JUMP JUMPDEST PUSH2 0x7BB JUMP JUMPDEST SWAP2 POP DUP1 DUP1 PUSH1 0x1 ADD SWAP2 POP POP PUSH2 0x187 JUMP JUMPDEST POP PUSH2 0x244 DUP2 DUP4 PUSH1 0x80 ADD MLOAD PUSH0 DUP2 MLOAD DUP2 LT PUSH2 0x237 JUMPI PUSH2 0x236 PUSH2 0x1221 JUMP JUMPDEST JUMPDEST PUSH1 0x20 MUL PUSH1 0x20 ADD ADD MLOAD PUSH2 0x7BB JUMP JUMPDEST SWAP1 POP PUSH2 0x288 DUP6 PUSH0 ADD MLOAD DUP7 PUSH1 0x20 ADD MLOAD PUSH2 0x25B DUP5 PUSH2 0x87D JUMP JUMPDEST DUP6 PUSH1 0x40 ADD MLOAD PUSH2 0x26D DUP11 PUSH1 0x40 ADD MLOAD PUSH2 0x87D JUMP JUMPDEST DUP8 PUSH1 0x60 ADD MLOAD PUSH2 0x27E DUP10 PUSH0 ADD MLOAD PUSH2 0x87D JUMP JUMPDEST DUP10 PUSH1 0x20 ADD MLOAD PUSH2 0x91B JUMP JUMPDEST PUSH2 0x298 JUMPI PUSH1 0x1 SWAP4 POP POP POP POP PUSH2 0x29F JUMP JUMPDEST PUSH0 SWAP4 POP POP POP POP JUMPDEST SWAP3 SWAP2 POP POP JUMP JUMPDEST PUSH2 0x2AD PUSH2 0xE23 JUMP JUMPDEST PUSH1 0x40 MLOAD DUP1 PUSH1 0x40 ADD PUSH1 0x40 MSTORE DUP1 PUSH32 0x2E23CF962A714C88FE2697B8BD53A81522DC936BE85FAB3B99AD5A884E78CE27 DUP2 MSTORE PUSH1 0x20 ADD PUSH32 0x1EFA1467D8858E888E76F3EB614CA106474C1C50380F05935323E9F72D9E5E1B DUP2 MSTORE POP DUP2 PUSH0 ADD DUP2 SWAP1 MSTORE POP PUSH1 0x40 MLOAD DUP1 PUSH1 0x40 ADD PUSH1 0x40 MSTORE DUP1 PUSH1 0x40 MLOAD DUP1 PUSH1 0x40 ADD PUSH1 0x40 MSTORE DUP1 PUSH31 0x5C7F883A61502494E40015F58E17C48094500B04E7941CE9F68EA8C7906978 DUP2 MSTORE PUSH1 0x20 ADD PUSH32 0x2D98A4BB8910FC573F810F01786CE6B224E9CCB97D667072D2CB59629A214969 DUP2 MSTORE POP DUP2 MSTORE PUSH1 0x20 ADD PUSH1 0x40 MLOAD DUP1 PUSH1 0x40 ADD PUSH1 0x40 MSTORE DUP1 PUSH32 0x1951DE5A57308A0B71FEFE663FACF6BE79322DD32CE61B64EC1D8B7F120818E8 DUP2 MSTORE PUSH1 0x20 ADD PUSH32 0x1A008832FCC3F5451C789FF1639628044B504CFADC63EC3FA854F586B56D3E4B DUP2 MSTORE POP DUP2 MSTORE POP DUP2 PUSH1 0x20 ADD DUP2 SWAP1 MSTORE POP PUSH1 0x40 MLOAD DUP1 PUSH1 0x40 ADD PUSH1 0x40 MSTORE DUP1 PUSH1 0x40 MLOAD DUP1 PUSH1 0x40 ADD PUSH1 0x40 MSTORE DUP1 PUSH32 0x1361D9D731EEEC91751CC369B697B108CED3B1077DF9BB182AA0974A0B6EF0F9 DUP2 MSTORE PUSH1 0x20 ADD PUSH32 0x7F1C5FDFAD661A57C0E641B54545593CF8BA4E8683A6F7E81FE4CD72190077E DUP2 MSTORE POP DUP2 MSTORE PUSH1 0x20 ADD PUSH1 0x40 MLOAD DUP1 PUSH1 0x40 ADD PUSH1 0x40 MSTORE DUP1 PUSH32 0xDB46703DFACF9E83F55ADE015689594C8E2275827E7A8A5F157870BBBB04B4A DUP2 MSTORE PUSH1 0x20 ADD PUSH32 0xB708FA395FA8D90123FA172AA911630A463D17559FB957FA90823BB775E33A8 DUP2 MSTORE POP DUP2 MSTORE POP DUP2 PUSH1 0x40 ADD DUP2 SWAP1 MSTORE POP PUSH1 0x40 MLOAD DUP1 PUSH1 0x40 ADD PUSH1 0x40 MSTORE DUP1 PUSH1 0x40 MLOAD DUP1 PUSH1 0x40 ADD PUSH1 0x40 MSTORE DUP1 PUSH32 0x25AF7D14214B3C9DC94BBEE803715806E2E50DC56DF3A93DBA84089E51597253 DUP2 MSTORE PUSH1 0x20 ADD PUSH32 0x18E7219DECBF0690912C454E1A493D3B69FE9C8E39409C65E7856762B72D6304 DUP2 MSTORE POP DUP2 MSTORE PUSH1 0x20 ADD PUSH1 0x40 MLOAD DUP1 PUSH1 0x40 ADD PUSH1 0x40 MSTORE DUP1 PUSH32 0xBAC8A5E3FD8BDE6F8D11900BD7163C2F7094903831015212B758932E6298BA0 DUP2 MSTORE PUSH1 0x20 ADD PUSH32 0x247F70C8A46ACB0BE4D1DB37027821E7A698028734BA710409ED73375D8C9BE4 DUP2 MSTORE POP DUP2 MSTORE POP DUP2 PUSH1 0x60 ADD DUP2 SWAP1 MSTORE POP PUSH1 0x3 PUSH8 0xFFFFFFFFFFFFFFFF DUP2 GT ISZERO PUSH2 0x572 JUMPI PUSH2 0x571 PUSH2 0xF51 JUMP JUMPDEST JUMPDEST PUSH1 0x40 MLOAD SWAP1 DUP1 DUP3 MSTORE DUP1 PUSH1 0x20 MUL PUSH1 0x20 ADD DUP3 ADD PUSH1 0x40 MSTORE DUP1 ISZERO PUSH2 0x5AB JUMPI DUP2 PUSH1 0x20 ADD JUMPDEST PUSH2 0x598 PUSH2 0xE6A JUMP JUMPDEST DUP2 MSTORE PUSH1 0x20 ADD SWAP1 PUSH1 0x1 SWAP1 SUB SWAP1 DUP2 PUSH2 0x590 JUMPI SWAP1 POP JUMPDEST POP DUP2 PUSH1 0x80 ADD DUP2 SWAP1 MSTORE POP PUSH1 0x40 MLOAD DUP1 PUSH1 0x40 ADD PUSH1 0x40 MSTORE DUP1 PUSH32 0x197E5A889AB9337D5D3D61771E19B89DFC1D021D835341190B89B9A94E32B853 DUP2 MSTORE PUSH1 0x20 ADD PUSH32 0x1E031975124B84CB5AB3EBB1D64711886F3BD9E0763E7527544BF003892DAF9D DUP2 MSTORE POP DUP2 PUSH1 0x80 ADD MLOAD PUSH0 DUP2 MLOAD DUP2 LT PUSH2 0x620 JUMPI PUSH2 0x61F PUSH2 0x1221 JUMP JUMPDEST JUMPDEST PUSH1 0x20 MUL PUSH1 0x20 ADD ADD DUP2 SWAP1 MSTORE POP PUSH1 0x40 MLOAD DUP1 PUSH1 0x40 ADD PUSH1 0x40 MSTORE DUP1 PUSH32 0x21F785C8D4E5E8E9AAF4C4A928705818DA42E3E57B686821D0AC0315E5EAF6AA DUP2 MSTORE PUSH1 0x20 ADD PUSH32 0x2958D19BB5DC2ADCC82645A45C29A5BD8561D22B04688F0F782A0D46B3E9DCFA DUP2 MSTORE POP DUP2 PUSH1 0x80 ADD MLOAD PUSH1 0x1 DUP2 MLOAD DUP2 LT PUSH2 0x698 JUMPI PUSH2 0x697 PUSH2 0x1221 JUMP JUMPDEST JUMPDEST PUSH1 0x20 MUL PUSH1 0x20 ADD ADD DUP2 SWAP1 MSTORE POP PUSH1 0x40 MLOAD DUP1 PUSH1 0x40 ADD PUSH1 0x40 MSTORE DUP1 PUSH32 0x1D2AE606EDCC168034C5CFAAF2D1620DCA2FFEE5C2A05EB5DF35936BC3AF650B DUP2 MSTORE PUSH1 0x20 ADD PUSH32 0x201603903FEC7ACC62EC945CB29440220BCD80B6A7C6E094D00A27BC595F3E91 DUP2 MSTORE POP DUP2 PUSH1 0x80 ADD MLOAD PUSH1 0x2 DUP2 MLOAD DUP2 LT PUSH2 0x710 JUMPI PUSH2 0x70F PUSH2 0x1221 JUMP JUMPDEST JUMPDEST PUSH1 0x20 MUL PUSH1 0x20 ADD ADD DUP2 SWAP1 MSTORE POP SWAP1 JUMP JUMPDEST PUSH2 0x726 PUSH2 0xE6A JUMP JUMPDEST PUSH2 0x72E PUSH2 0xE82 JUMP JUMPDEST DUP4 PUSH0 ADD MLOAD DUP2 PUSH0 PUSH1 0x3 DUP2 LT PUSH2 0x745 JUMPI PUSH2 0x744 PUSH2 0x1221 JUMP JUMPDEST JUMPDEST PUSH1 0x20 MUL ADD DUP2 DUP2 MSTORE POP POP DUP4 PUSH1 0x20 ADD MLOAD DUP2 PUSH1 0x1 PUSH1 0x3 DUP2 LT PUSH2 0x767 JUMPI PUSH2 0x766 PUSH2 0x1221 JUMP JUMPDEST JUMPDEST PUSH1 0x20 MUL ADD DUP2 DUP2 MSTORE POP POP DUP3 DUP2 PUSH1 0x2 PUSH1 0x3 DUP2 LT PUSH2 0x785 JUMPI PUSH2 0x784 PUSH2 0x1221 JUMP JUMPDEST JUMPDEST PUSH1 0x20 MUL ADD DUP2 DUP2 MSTORE POP POP PUSH0 PUSH1 0x60 DUP4 PUSH1 0x80 DUP5 PUSH1 0x7 PUSH2 0x7D0 GAS SUB STATICCALL SWAP1 POP DUP1 PUSH0 DUP2 SUB PUSH2 0x7A9 JUMPI INVALID JUMPDEST POP DUP1 PUSH2 0x7B3 JUMPI PUSH0 DUP1 REVERT JUMPDEST POP POP SWAP3 SWAP2 POP POP JUMP JUMPDEST PUSH2 0x7C3 PUSH2 0xE6A JUMP JUMPDEST PUSH2 0x7CB PUSH2 0xEA4 JUMP JUMPDEST DUP4 PUSH0 ADD MLOAD DUP2 PUSH0 PUSH1 0x4 DUP2 LT PUSH2 0x7E2 JUMPI PUSH2 0x7E1 PUSH2 0x1221 JUMP JUMPDEST JUMPDEST PUSH1 0x20 MUL ADD DUP2 DUP2 MSTORE POP POP DUP4 PUSH1 0x20 ADD MLOAD DUP2 PUSH1 0x1 PUSH1 0x4 DUP2 LT PUSH2 0x804 JUMPI PUSH2 0x803 PUSH2 0x1221 JUMP JUMPDEST JUMPDEST PUSH1 0x20 MUL ADD DUP2 DUP2 MSTORE POP POP DUP3 PUSH0 ADD MLOAD DUP2 PUSH1 0x2 PUSH1 0x4 DUP2 LT PUSH2 0x825 JUMPI PUSH2 0x824 PUSH2 0x1221 JUMP JUMPDEST JUMPDEST PUSH1 0x20 MUL ADD DUP2 DUP2 MSTORE POP POP DUP3 PUSH1 0x20 ADD MLOAD DUP2 PUSH1 0x3 PUSH1 0x4 DUP2 LT PUSH2 0x847 JUMPI PUSH2 0x846 PUSH2 0x1221 JUMP JUMPDEST JUMPDEST PUSH1 0x20 MUL ADD DUP2 DUP2 MSTORE POP POP PUSH0 PUSH1 0x60 DUP4 PUSH1 0xC0 DUP5 PUSH1 0x6 PUSH2 0x7D0 GAS SUB STATICCALL SWAP1 POP DUP1 PUSH0 DUP2 SUB PUSH2 0x86B JUMPI INVALID JUMPDEST POP DUP1 PUSH2 0x875 JUMPI PUSH0 DUP1 REVERT JUMPDEST POP POP SWAP3 SWAP2 POP POP JUMP JUMPDEST PUSH2 0x885 PUSH2 0xE6A JUMP JUMPDEST PUSH0 PUSH32 0x30644E72E131A029B85045B68181585D97816A916871CA8D3C208C16D87CFD47 SWAP1 POP PUSH0 DUP4 PUSH0 ADD MLOAD EQ DUP1 ISZERO PUSH2 0x8BE JUMPI POP PUSH0 DUP4 PUSH1 0x20 ADD MLOAD EQ JUMPDEST ISZERO PUSH2 0x8E0 JUMPI PUSH1 0x40 MLOAD DUP1 PUSH1 0x40 ADD PUSH1 0x40 MSTORE DUP1 PUSH0 DUP2 MSTORE PUSH1 0x20 ADD PUSH0 DUP2 MSTORE POP SWAP2 POP POP PUSH2 0x916 JUMP JUMPDEST PUSH1 0x40 MLOAD DUP1 PUSH1 0x40 ADD PUSH1 0x40 MSTORE DUP1 DUP5 PUSH0 ADD MLOAD DUP2 MSTORE PUSH1 0x20 ADD DUP3 DUP6 PUSH1 0x20 ADD MLOAD PUSH2 0x904 SWAP2 SWAP1 PUSH2 0x12DB JUMP JUMPDEST DUP4 PUSH2 0x90F SWAP2 SWAP1 PUSH2 0x130B JUMP JUMPDEST DUP2 MSTORE POP SWAP2 POP POP JUMPDEST SWAP2 SWAP1 POP JUMP JUMPDEST PUSH0 DUP1 PUSH1 0x4 PUSH8 0xFFFFFFFFFFFFFFFF DUP2 GT ISZERO PUSH2 0x938 JUMPI PUSH2 0x937 PUSH2 0xF51 JUMP JUMPDEST JUMPDEST PUSH1 0x40 MLOAD SWAP1 DUP1 DUP3 MSTORE DUP1 PUSH1 0x20 MUL PUSH1 0x20 ADD DUP3 ADD PUSH1 0x40 MSTORE DUP1 ISZERO PUSH2 0x971 JUMPI DUP2 PUSH1 0x20 ADD JUMPDEST PUSH2 0x95E PUSH2 0xE6A JUMP JUMPDEST DUP2 MSTORE PUSH1 0x20 ADD SWAP1 PUSH1 0x1 SWAP1 SUB SWAP1 DUP2 PUSH2 0x956 JUMPI SWAP1 POP JUMPDEST POP SWAP1 POP PUSH0 PUSH1 0x4 PUSH8 0xFFFFFFFFFFFFFFFF DUP2 GT ISZERO PUSH2 0x990 JUMPI PUSH2 0x98F PUSH2 0xF51 JUMP JUMPDEST JUMPDEST PUSH1 0x40 MLOAD SWAP1 DUP1 DUP3 MSTORE DUP1 PUSH1 0x20 MUL PUSH1 0x20 ADD DUP3 ADD PUSH1 0x40 MSTORE DUP1 ISZERO PUSH2 0x9C9 JUMPI DUP2 PUSH1 0x20 ADD JUMPDEST PUSH2 0x9B6 PUSH2 0xEC6 JUMP JUMPDEST DUP2 MSTORE PUSH1 0x20 ADD SWAP1 PUSH1 0x1 SWAP1 SUB SWAP1 DUP2 PUSH2 0x9AE JUMPI SWAP1 POP JUMPDEST POP SWAP1 POP DUP11 DUP3 PUSH0 DUP2 MLOAD DUP2 LT PUSH2 0x9E0 JUMPI PUSH2 0x9DF PUSH2 0x1221 JUMP JUMPDEST JUMPDEST PUSH1 0x20 MUL PUSH1 0x20 ADD ADD DUP2 SWAP1 MSTORE POP DUP9 DUP3 PUSH1 0x1 DUP2 MLOAD DUP2 LT PUSH2 0xA00 JUMPI PUSH2 0x9FF PUSH2 0x1221 JUMP JUMPDEST JUMPDEST PUSH1 0x20 MUL PUSH1 0x20 ADD ADD DUP2 SWAP1 MSTORE POP DUP7 DUP3 PUSH1 0x2 DUP2 MLOAD DUP2 LT PUSH2 0xA20 JUMPI PUSH2 0xA1F PUSH2 0x1221 JUMP JUMPDEST JUMPDEST PUSH1 0x20 MUL PUSH1 0x20 ADD ADD DUP2 SWAP1 MSTORE POP DUP5 DUP3 PUSH1 0x3 DUP2 MLOAD DUP2 LT PUSH2 0xA40 JUMPI PUSH2 0xA3F PUSH2 0x1221 JUMP JUMPDEST JUMPDEST PUSH1 0x20 MUL PUSH1 0x20 ADD ADD DUP2 SWAP1 MSTORE POP DUP10 DUP2 PUSH0 DUP2 MLOAD DUP2 LT PUSH2 0xA5F JUMPI PUSH2 0xA5E PUSH2 0x1221 JUMP JUMPDEST JUMPDEST PUSH1 0x20 MUL PUSH1 0x20 ADD ADD DUP2 SWAP1 MSTORE POP DUP8 DUP2 PUSH1 0x1 DUP2 MLOAD DUP2 LT PUSH2 0xA7F JUMPI PUSH2 0xA7E PUSH2 0x1221 JUMP JUMPDEST JUMPDEST PUSH1 0x20 MUL PUSH1 0x20 ADD ADD DUP2 SWAP1 MSTORE POP DUP6 DUP2 PUSH1 0x2 DUP2 MLOAD DUP2 LT PUSH2 0xA9F JUMPI PUSH2 0xA9E PUSH2 0x1221 JUMP JUMPDEST JUMPDEST PUSH1 0x20 MUL PUSH1 0x20 ADD ADD DUP2 SWAP1 MSTORE POP DUP4 DUP2 PUSH1 0x3 DUP2 MLOAD DUP2 LT PUSH2 0xABF JUMPI PUSH2 0xABE PUSH2 0x1221 JUMP JUMPDEST JUMPDEST PUSH1 0x20 MUL PUSH1 0x20 ADD ADD DUP2 SWAP1 MSTORE POP PUSH2 0xAD4 DUP3 DUP3 PUSH2 0xAE4 JUMP JUMPDEST SWAP3 POP POP POP SWAP9 SWAP8 POP POP POP POP POP POP POP POP JUMP JUMPDEST PUSH0 DUP2 MLOAD DUP4 MLOAD EQ PUSH2 0xAF2 JUMPI PUSH0 DUP1 REVERT JUMPDEST PUSH0 DUP4 MLOAD SWAP1 POP PUSH0 PUSH1 0x6 DUP3 PUSH2 0xB05 SWAP2 SWAP1 PUSH2 0x133E JUMP JUMPDEST SWAP1 POP PUSH0 DUP2 PUSH8 0xFFFFFFFFFFFFFFFF DUP2 GT ISZERO PUSH2 0xB22 JUMPI PUSH2 0xB21 PUSH2 0xF51 JUMP JUMPDEST JUMPDEST PUSH1 0x40 MLOAD SWAP1 DUP1 DUP3 MSTORE DUP1 PUSH1 0x20 MUL PUSH1 0x20 ADD DUP3 ADD PUSH1 0x40 MSTORE DUP1 ISZERO PUSH2 0xB50 JUMPI DUP2 PUSH1 0x20 ADD PUSH1 0x20 DUP3 MUL DUP1 CALLDATASIZE DUP4 CALLDATACOPY DUP1 DUP3 ADD SWAP2 POP POP SWAP1 POP JUMPDEST POP SWAP1 POP PUSH0 JUMPDEST DUP4 DUP2 LT ISZERO PUSH2 0xDC8 JUMPI DUP7 DUP2 DUP2 MLOAD DUP2 LT PUSH2 0xB70 JUMPI PUSH2 0xB6F PUSH2 0x1221 JUMP JUMPDEST JUMPDEST PUSH1 0x20 MUL PUSH1 0x20 ADD ADD MLOAD PUSH0 ADD MLOAD DUP3 PUSH0 PUSH1 0x6 DUP5 PUSH2 0xB8A SWAP2 SWAP1 PUSH2 0x133E JUMP JUMPDEST PUSH2 0xB94 SWAP2 SWAP1 PUSH2 0x127B JUMP JUMPDEST DUP2 MLOAD DUP2 LT PUSH2 0xBA5 JUMPI PUSH2 0xBA4 PUSH2 0x1221 JUMP JUMPDEST JUMPDEST PUSH1 0x20 MUL PUSH1 0x20 ADD ADD DUP2 DUP2 MSTORE POP POP DUP7 DUP2 DUP2 MLOAD DUP2 LT PUSH2 0xBC4 JUMPI PUSH2 0xBC3 PUSH2 0x1221 JUMP JUMPDEST JUMPDEST PUSH1 0x20 MUL PUSH1 0x20 ADD ADD MLOAD PUSH1 0x20 ADD MLOAD DUP3 PUSH1 0x1 PUSH1 0x6 DUP5 PUSH2 0xBE0 SWAP2 SWAP1 PUSH2 0x133E JUMP JUMPDEST PUSH2 0xBEA SWAP2 SWAP1 PUSH2 0x127B JUMP JUMPDEST DUP2 MLOAD DUP2 LT PUSH2 0xBFB JUMPI PUSH2 0xBFA PUSH2 0x1221 JUMP JUMPDEST JUMPDEST PUSH1 0x20 MUL PUSH1 0x20 ADD ADD DUP2 DUP2 MSTORE POP POP DUP6 DUP2 DUP2 MLOAD DUP2 LT PUSH2 0xC1A JUMPI PUSH2 0xC19 PUSH2 0x1221 JUMP JUMPDEST JUMPDEST PUSH1 0x20 MUL PUSH1 0x20 ADD ADD MLOAD PUSH0 ADD MLOAD PUSH1 0x1 PUSH1 0x2 DUP2 LT PUSH2 0xC38 JUMPI PUSH2 0xC37 PUSH2 0x1221 JUMP JUMPDEST JUMPDEST PUSH1 0x20 MUL ADD MLOAD DUP3 PUSH1 0x2 PUSH1 0x6 DUP5 PUSH2 0xC4D SWAP2 SWAP1 PUSH2 0x133E JUMP JUMPDEST PUSH2 0xC57 SWAP2 SWAP1 PUSH2 0x127B JUMP JUMPDEST DUP2 MLOAD DUP2 LT PUSH2 0xC68 JUMPI PUSH2 0xC67 PUSH2 0x1221 JUMP JUMPDEST JUMPDEST PUSH1 0x20 MUL PUSH1 0x20 ADD ADD DUP2 DUP2 MSTORE POP POP DUP6 DUP2 DUP2 MLOAD DUP2 LT PUSH2 0xC87 JUMPI PUSH2 0xC86 PUSH2 0x1221 JUMP JUMPDEST JUMPDEST PUSH1 0x20 MUL PUSH1 0x20 ADD ADD MLOAD PUSH0 ADD MLOAD PUSH0 PUSH1 0x2 DUP2 LT PUSH2 0xCA4 JUMPI PUSH2 0xCA3 PUSH2 0x1221 JUMP JUMPDEST JUMPDEST PUSH1 0x20 MUL ADD MLOAD DUP3 PUSH1 0x3 PUSH1 0x6 DUP5 PUSH2 0xCB9 SWAP2 SWAP1 PUSH2 0x133E JUMP JUMPDEST PUSH2 0xCC3 SWAP2 SWAP1 PUSH2 0x127B JUMP JUMPDEST DUP2 MLOAD DUP2 LT PUSH2 0xCD4 JUMPI PUSH2 0xCD3 PUSH2 0x1221 JUMP JUMPDEST JUMPDEST PUSH1 0x20 MUL PUSH1 0x20 ADD ADD DUP2 DUP2 MSTORE POP POP DUP6 DUP2 DUP2 MLOAD DUP2 LT PUSH2 0xCF3 JUMPI PUSH2 0xCF2 PUSH2 0x1221 JUMP JUMPDEST JUMPDEST PUSH1 0x20 MUL PUSH1 0x20 ADD ADD MLOAD PUSH1 0x20 ADD MLOAD PUSH1 0x1 PUSH1 0x2 DUP2 LT PUSH2 0xD12 JUMPI PUSH2 0xD11 PUSH2 0x1221 JUMP JUMPDEST JUMPDEST PUSH1 0x20 MUL ADD MLOAD DUP3 PUSH1 0x4 PUSH1 0x6 DUP5 PUSH2 0xD27 SWAP2 SWAP1 PUSH2 0x133E JUMP JUMPDEST PUSH2 0xD31 SWAP2 SWAP1 PUSH2 0x127B JUMP JUMPDEST DUP2 MLOAD DUP2 LT PUSH2 0xD42 JUMPI PUSH2 0xD41 PUSH2 0x1221 JUMP JUMPDEST JUMPDEST PUSH1 0x20 MUL PUSH1 0x20 ADD ADD DUP2 DUP2 MSTORE POP POP DUP6 DUP2 DUP2 MLOAD DUP2 LT PUSH2 0xD61 JUMPI PUSH2 0xD60 PUSH2 0x1221 JUMP JUMPDEST JUMPDEST PUSH1 0x20 MUL PUSH1 0x20 ADD ADD MLOAD PUSH1 0x20 ADD MLOAD PUSH0 PUSH1 0x2 DUP2 LT PUSH2 0xD7F JUMPI PUSH2 0xD7E PUSH2 0x1221 JUMP JUMPDEST JUMPDEST PUSH1 0x20 MUL ADD MLOAD DUP3 PUSH1 0x5 PUSH1 0x6 DUP5 PUSH2 0xD94 SWAP2 SWAP1 PUSH2 0x133E JUMP JUMPDEST PUSH2 0xD9E SWAP2 SWAP1 PUSH2 0x127B JUMP JUMPDEST DUP2 MLOAD DUP2 LT PUSH2 0xDAF JUMPI PUSH2 0xDAE PUSH2 0x1221 JUMP JUMPDEST JUMPDEST PUSH1 0x20 MUL PUSH1 0x20 ADD ADD DUP2 DUP2 MSTORE POP POP DUP1 DUP1 PUSH1 0x1 ADD SWAP2 POP POP PUSH2 0xB55 JUMP JUMPDEST POP PUSH2 0xDD1 PUSH2 0xEEC JUMP JUMPDEST PUSH0 PUSH1 0x20 DUP3 PUSH1 0x20 DUP7 MUL PUSH1 0x20 DUP7 ADD PUSH1 0x8 PUSH2 0x7D0 GAS SUB STATICCALL SWAP1 POP DUP1 PUSH0 DUP2 SUB PUSH2 0xDF1 JUMPI INVALID JUMPDEST POP DUP1 PUSH2 0xDFB JUMPI PUSH0 DUP1 REVERT JUMPDEST PUSH0 DUP3 PUSH0 PUSH1 0x1 DUP2 LT PUSH2 0xE0F JUMPI PUSH2 0xE0E PUSH2 0x1221 JUMP JUMPDEST JUMPDEST PUSH1 0x20 MUL ADD MLOAD EQ ISZERO SWAP6 POP POP POP POP POP POP SWAP3 SWAP2 POP POP JUMP JUMPDEST PUSH1 0x40 MLOAD DUP1 PUSH1 0xA0 ADD PUSH1 0x40 MSTORE DUP1 PUSH2 0xE36 PUSH2 0xE6A JUMP JUMPDEST DUP2 MSTORE PUSH1 0x20 ADD PUSH2 0xE43 PUSH2 0xEC6 JUMP JUMPDEST DUP2 MSTORE PUSH1 0x20 ADD PUSH2 0xE50 PUSH2 0xEC6 JUMP JUMPDEST DUP2 MSTORE PUSH1 0x20 ADD PUSH2 0xE5D PUSH2 0xEC6 JUMP JUMPDEST DUP2 MSTORE PUSH1 0x20 ADD PUSH1 0x60 DUP2 MSTORE POP SWAP1 JUMP JUMPDEST PUSH1 0x40 MLOAD DUP1 PUSH1 0x40 ADD PUSH1 0x40 MSTORE DUP1 PUSH0 DUP2 MSTORE PUSH1 0x20 ADD PUSH0 DUP2 MSTORE POP SWAP1 JUMP JUMPDEST PUSH1 0x40 MLOAD DUP1 PUSH1 0x60 ADD PUSH1 0x40 MSTORE DUP1 PUSH1 0x3 SWAP1 PUSH1 0x20 DUP3 MUL DUP1 CALLDATASIZE DUP4 CALLDATACOPY DUP1 DUP3 ADD SWAP2 POP POP SWAP1 POP POP SWAP1 JUMP JUMPDEST PUSH1 0x40 MLOAD DUP1 PUSH1 0x80 ADD PUSH1 0x40 MSTORE DUP1 PUSH1 0x4 SWAP1 PUSH1 0x20 DUP3 MUL DUP1 CALLDATASIZE DUP4 CALLDATACOPY DUP1 DUP3 ADD SWAP2 POP POP SWAP1 POP POP SWAP1 JUMP JUMPDEST PUSH1 0x40 MLOAD DUP1 PUSH1 0x40 ADD PUSH1 0x40 MSTORE DUP1 PUSH2 0xED9 PUSH2 0xF0E JUMP JUMPDEST DUP2 MSTORE PUSH1 0x20 ADD PUSH2 0xEE6 PUSH2 0xF0E JUMP JUMPDEST DUP2 MSTORE POP SWAP1 JUMP JUMPDEST PUSH1 0x40 MLOAD DUP1 PUSH1 0x20 ADD PUSH1 0x40 MSTORE DUP1 PUSH1 0x1 SWAP1 PUSH1 0x20 DUP3 MUL DUP1 CALLDATASIZE DUP4 CALLDATACOPY DUP1 DUP3 ADD SWAP2 POP POP SWAP1 POP POP SWAP1 JUMP JUMPDEST PUSH1 0x40 MLOAD DUP1 PUSH1 0x40 ADD PUSH1 0x40 MSTORE DUP1 PUSH1 0x2 SWAP1 PUSH1 0x20 DUP3 MUL DUP1 CALLDATASIZE DUP4 CALLDATACOPY DUP1 DUP3 ADD SWAP2 POP POP SWAP1 POP POP SWAP1 JUMP JUMPDEST PUSH0 PUSH1 0x40 MLOAD SWAP1 POP SWAP1 JUMP JUMPDEST PUSH0 DUP1 REVERT JUMPDEST PUSH0 DUP1 REVERT JUMPDEST PUSH0 PUSH1 0x1F NOT PUSH1 0x1F DUP4 ADD AND SWAP1 POP SWAP2 SWAP1 POP JUMP JUMPDEST PUSH32 0x4E487B7100000000000000000000000000000000000000000000000000000000 PUSH0 MSTORE PUSH1 0x41 PUSH1 0x4 MSTORE PUSH1 0x24 PUSH0 REVERT JUMPDEST PUSH2 0xF87 DUP3 PUSH2 0xF41 JUMP JUMPDEST DUP2 ADD DUP2 DUP2 LT PUSH8 0xFFFFFFFFFFFFFFFF DUP3 GT OR ISZERO PUSH2 0xFA6 JUMPI PUSH2 0xFA5 PUSH2 0xF51 JUMP JUMPDEST JUMPDEST DUP1 PUSH1 0x40 MSTORE POP POP POP JUMP JUMPDEST PUSH0 PUSH2 0xFB8 PUSH2 0xF30 JUMP JUMPDEST SWAP1 POP PUSH2 0xFC4 DUP3 DUP3 PUSH2 0xF7E JUMP JUMPDEST SWAP2 SWAP1 POP JUMP JUMPDEST PUSH0 DUP2 SWAP1 POP SWAP2 SWAP1 POP JUMP JUMPDEST PUSH2 0xFDB DUP2 PUSH2 0xFC9 JUMP JUMPDEST DUP2 EQ PUSH2 0xFE5 JUMPI PUSH0 DUP1 REVERT JUMPDEST POP JUMP JUMPDEST PUSH0 DUP2 CALLDATALOAD SWAP1 POP PUSH2 0xFF6 DUP2 PUSH2 0xFD2 JUMP JUMPDEST SWAP3 SWAP2 POP POP JUMP JUMPDEST PUSH0 PUSH1 0x40 DUP3 DUP5 SUB SLT ISZERO PUSH2 0x1011 JUMPI PUSH2 0x1010 PUSH2 0xF3D JUMP JUMPDEST JUMPDEST PUSH2 0x101B PUSH1 0x40 PUSH2 0xFAF JUMP JUMPDEST SWAP1 POP PUSH0 PUSH2 0x102A DUP5 DUP3 DUP6 ADD PUSH2 0xFE8 JUMP JUMPDEST PUSH0 DUP4 ADD MSTORE POP PUSH1 0x20 PUSH2 0x103D DUP5 DUP3 DUP6 ADD PUSH2 0xFE8 JUMP JUMPDEST PUSH1 0x20 DUP4 ADD MSTORE POP SWAP3 SWAP2 POP POP JUMP JUMPDEST PUSH0 DUP1 REVERT JUMPDEST PUSH0 PUSH8 0xFFFFFFFFFFFFFFFF DUP3 GT ISZERO PUSH2 0x1067 JUMPI PUSH2 0x1066 PUSH2 0xF51 JUMP JUMPDEST JUMPDEST PUSH1 0x20 DUP3 MUL SWAP1 POP SWAP2 SWAP1 POP JUMP JUMPDEST PUSH0 DUP1 REVERT JUMPDEST PUSH0 PUSH2 0x1088 PUSH2 0x1083 DUP5 PUSH2 0x104D JUMP JUMPDEST PUSH2 0xFAF JUMP JUMPDEST SWAP1 POP DUP1 PUSH1 0x20 DUP5 MUL DUP4 ADD DUP6 DUP2 GT ISZERO PUSH2 0x10A2 JUMPI PUSH2 0x10A1 PUSH2 0x1072 JUMP JUMPDEST JUMPDEST DUP4 JUMPDEST DUP2 DUP2 LT ISZERO PUSH2 0x10CB JUMPI DUP1 PUSH2 0x10B7 DUP9 DUP3 PUSH2 0xFE8 JUMP JUMPDEST DUP5 MSTORE PUSH1 0x20 DUP5 ADD SWAP4 POP POP PUSH1 0x20 DUP2 ADD SWAP1 POP PUSH2 0x10A4 JUMP JUMPDEST POP POP POP SWAP4 SWAP3 POP POP POP JUMP JUMPDEST PUSH0 DUP3 PUSH1 0x1F DUP4 ADD SLT PUSH2 0x10E9 JUMPI PUSH2 0x10E8 PUSH2 0x1049 JUMP JUMPDEST JUMPDEST PUSH1 0x2 PUSH2 0x10F6 DUP5 DUP3 DUP6 PUSH2 0x1076 JUMP JUMPDEST SWAP2 POP POP SWAP3 SWAP2 POP POP JUMP JUMPDEST PUSH0 PUSH1 0x80 DUP3 DUP5 SUB SLT ISZERO PUSH2 0x1114 JUMPI PUSH2 0x1113 PUSH2 0xF3D JUMP JUMPDEST JUMPDEST PUSH2 0x111E PUSH1 0x40 PUSH2 0xFAF JUMP JUMPDEST SWAP1 POP PUSH0 PUSH2 0x112D DUP5 DUP3 DUP6 ADD PUSH2 0x10D5 JUMP JUMPDEST PUSH0 DUP4 ADD MSTORE POP PUSH1 0x40 PUSH2 0x1140 DUP5 DUP3 DUP6 ADD PUSH2 0x10D5 JUMP JUMPDEST PUSH1 0x20 DUP4 ADD MSTORE POP SWAP3 SWAP2 POP POP JUMP JUMPDEST PUSH0 PUSH2 0x100 DUP3 DUP5 SUB SLT ISZERO PUSH2 0x1162 JUMPI PUSH2 0x1161 PUSH2 0xF3D JUMP JUMPDEST JUMPDEST PUSH2 0x116C PUSH1 0x60 PUSH2 0xFAF JUMP JUMPDEST SWAP1 POP PUSH0 PUSH2 0x117B DUP5 DUP3 DUP6 ADD PUSH2 0xFFC JUMP JUMPDEST PUSH0 DUP4 ADD MSTORE POP PUSH1 0x40 PUSH2 0x118E DUP5 DUP3 DUP6 ADD PUSH2 0x10FF JUMP JUMPDEST PUSH1 0x20 DUP4 ADD MSTORE POP PUSH1 0xC0 PUSH2 0x11A2 DUP5 DUP3 DUP6 ADD PUSH2 0xFFC JUMP JUMPDEST PUSH1 0x40 DUP4 ADD MSTORE POP SWAP3 SWAP2 POP POP JUMP JUMPDEST PUSH0 DUP1 PUSH2 0x140 DUP4 DUP6 SUB SLT ISZERO PUSH2 0x11C5 JUMPI PUSH2 0x11C4 PUSH2 0xF39 JUMP JUMPDEST JUMPDEST PUSH0 PUSH2 0x11D2 DUP6 DUP3 DUP7 ADD PUSH2 0x114C JUMP JUMPDEST SWAP3 POP POP PUSH2 0x100 PUSH2 0x11E4 DUP6 DUP3 DUP7 ADD PUSH2 0x10D5 JUMP JUMPDEST SWAP2 POP POP SWAP3 POP SWAP3 SWAP1 POP JUMP JUMPDEST PUSH0 DUP2 ISZERO ISZERO SWAP1 POP SWAP2 SWAP1 POP JUMP JUMPDEST PUSH2 0x1202 DUP2 PUSH2 0x11EE JUMP JUMPDEST DUP3 MSTORE POP POP JUMP JUMPDEST PUSH0 PUSH1 0x20 DUP3 ADD SWAP1 POP PUSH2 0x121B PUSH0 DUP4 ADD DUP5 PUSH2 0x11F9 JUMP JUMPDEST SWAP3 SWAP2 POP POP JUMP JUMPDEST PUSH32 0x4E487B7100000000000000000000000000000000000000000000000000000000 PUSH0 MSTORE PUSH1 0x32 PUSH1 0x4 MSTORE PUSH1 0x24 PUSH0 REVERT JUMPDEST PUSH32 0x4E487B7100000000000000000000000000000000000000000000000000000000 PUSH0 MSTORE PUSH1 0x11 PUSH1 0x4 MSTORE PUSH1 0x24 PUSH0 REVERT JUMPDEST PUSH0 PUSH2 0x1285 DUP3 PUSH2 0xFC9 JUMP JUMPDEST SWAP2 POP PUSH2 0x1290 DUP4 PUSH2 0xFC9 JUMP JUMPDEST SWAP3 POP DUP3 DUP3 ADD SWAP1 POP DUP1 DUP3 GT ISZERO PUSH2 0x12A8 JUMPI PUSH2 0x12A7 PUSH2 0x124E JUMP JUMPDEST JUMPDEST SWAP3 SWAP2 POP POP JUMP JUMPDEST PUSH32 0x4E487B7100000000000000000000000000000000000000000000000000000000 PUSH0 MSTORE PUSH1 0x12 PUSH1 0x4 MSTORE PUSH1 0x24 PUSH0 REVERT JUMPDEST PUSH0 PUSH2 0x12E5 DUP3 PUSH2 0xFC9 JUMP JUMPDEST SWAP2 POP PUSH2 0x12F0 DUP4 PUSH2 0xFC9 JUMP JUMPDEST SWAP3 POP DUP3 PUSH2 0x1300 JUMPI PUSH2 0x12FF PUSH2 0x12AE JUMP JUMPDEST JUMPDEST DUP3 DUP3 MOD SWAP1 POP SWAP3 SWAP2 POP POP JUMP JUMPDEST PUSH0 PUSH2 0x1315 DUP3 PUSH2 0xFC9 JUMP JUMPDEST SWAP2 POP PUSH2 0x1320 DUP4 PUSH2 0xFC9 JUMP JUMPDEST SWAP3 POP DUP3 DUP3 SUB SWAP1 POP DUP2 DUP2 GT ISZERO PUSH2 0x1338 JUMPI PUSH2 0x1337 PUSH2 0x124E JUMP JUMPDEST JUMPDEST SWAP3 SWAP2 POP POP JUMP JUMPDEST PUSH0 PUSH2 0x1348 DUP3 PUSH2 0xFC9 JUMP JUMPDEST SWAP2 POP PUSH2 0x1353 DUP4 PUSH2 0xFC9 JUMP JUMPDEST SWAP3 POP DUP3 DUP3 MUL PUSH2 0x1361 DUP2 PUSH2 0xFC9 JUMP JUMPDEST SWAP2 POP DUP3 DUP3 DIV DUP5 EQ DUP4 ISZERO OR PUSH2 0x1378 JUMPI PUSH2 0x1377 PUSH2 0x124E JUMP JUMPDEST JUMPDEST POP SWAP3 SWAP2 POP POP JUMP INVALID LOG2 PUSH5 0x6970667358 0x22 SLT KECCAK256 DUP4 PUSH25 0x3C3094FDBC3C22517A08A062E0FCCE4E3FC53F16150758618B BLOBBASEFEE REVERT DUP9 EQ SWAP8 PUSH5 0x736F6C6343 STOP ADDMOD BYTE STOP CALLER "
		},
		"gasEstimates": {
			"creation": {
				"codeDepositCost": "1009000",
				"executionCost": "1045",
				"totalCost": "1010045"
			},
			"external": {
				"verifyTx(((uint256,uint256),(uint256[2],uint256[2]),(uint256,uint256)),uint256[2])": "infinite"
			},
			"internal": {
				"verify(uint256[] memory,struct Verifier.Proof memory)": "infinite",
				"verifyingKey()": "infinite"
			}
		},
		"methodIdentifiers": {
			"verifyTx(((uint256,uint256),(uint256[2],uint256[2]),(uint256,uint256)),uint256[2])": "43cd76fc"
		}
	},
	"abi": [
		{
			"inputs": [
				{
					"components": [
						{
							"components": [
								{
									"internalType": "uint256",
									"name": "X",
									"type": "uint256"
								},
								{
									"internalType": "uint256",
									"name": "Y",
									"type": "uint256"
								}
							],
							"internalType": "struct Pairing.G1Point",
							"name": "a",
							"type": "tuple"
						},
						{
							"components": [
								{
									"internalType": "uint256[2]",
									"name": "X",
									"type": "uint256[2]"
								},
								{
									"internalType": "uint256[2]",
									"name": "Y",
									"type": "uint256[2]"
								}
							],
							"internalType": "struct Pairing.G2Point",
							"name": "b",
							"type": "tuple"
						},
						{
							"components": [
								{
									"internalType": "uint256",
									"name": "X",
									"type": "uint256"
								},
								{
									"internalType": "uint256",
									"name": "Y",
									"type": "uint256"
								}
							],
							"internalType": "struct Pairing.G1Point",
							"name": "c",
							"type": "tuple"
						}
					],
					"internalType": "struct Verifier.Proof",
					"name": "proof",
					"type": "tuple"
				},
				{
					"internalType": "uint256[2]",
					"name": "input",
					"type": "uint256[2]"
				}
			],
			"name": "verifyTx",
			"outputs": [
				{
					"internalType": "bool",
					"name": "r",
					"type": "bool"
				}
			],
			"stateMutability": "view",
			"type": "function"
		}
	]
}