{
	"data": {
		"bytecode": {
			"linkReferences": {},
			"object": "60806040527f310000000000000000000000000000000000000000000000000000000000000060601c60015f6101000a81548173ffffffffffffffffffffffffffffffffffffffff021916908373ffffffffffffffffffffffffffffffffffffffff1602179055503480156071575f80fd5b506109ab8061007f5f395ff3fe608060405234801561000f575f80fd5b5060043610610055575f3560e01c8063092af1ae14610059578063317da8bd14610089578063804aba3b146100a75780638865fb75146100c3578063ba0ef4e3146100e1575b5f80fd5b610073600480360381019061006e9190610552565b6100fd565b6040516100809190610597565b60405180910390f35b6100916102c4565b60405161009e91906105c8565b60405180910390f35b6100c160048036038101906100bc9190610602565b6102c9565b005b6100cb610466565b6040516100d891906106a6565b60405180910390f35b6100fb60048036038101906100f691906106e9565b61048b565b005b5f8060025f9054906101000a900473ffffffffffffffffffffffffffffffffffffffff1673ffffffffffffffffffffffffffffffffffffffff1663799afa766003856040518363ffffffff1660e01b815260040161015c9291906108ca565b602060405180830381865afa158015610177573d5f803e3d5ffd5b505050506040513d601f19601f8201168201806040525081019061019b919061091d565b90507f310000000000000000000000000000000000000000000000000000000000000060601c60015f6101000a81548173ffffffffffffffffffffffffffffffffffffffff021916908373ffffffffffffffffffffffffffffffffffffffff1602179055508015610263577fecc65fe29615a0fae62cfbc6809fc8720d95cb2e3ae31657ba7b0e46b1b8c5b760015f9054906101000a900473ffffffffffffffffffffffffffffffffffffffff1660405161025691906106a6565b60405180910390a16102bb565b7ec371d42b5ffb70adcefd5644c0b22a88fc7ac29e3490f29844058e0cd60c3e60015f9054906101000a900473ffffffffffffffffffffffffffffffffffffffff166040516102b291906106a6565b60405180910390a15b80915050919050565b5f5481565b60405180606001604052806040518060400160405280875f600281106102f2576102f1610948565b5b60200201358152602001876001600281106103105761030f610948565b5b6020020135815250815260200160405180604001604052808660028060200260405190810160405280929190826002602002808284375f81840152601f19601f82011690508083019250505050505081526020018560028060200260405190810160405280929190826002602002808284375f81840152601f19601f82011690508083019250505050505081525081526020016040518060400160405280845f600281106103c1576103c0610948565b5b60200201358152602001846001600281106103df576103de610948565b5b602002013581525081525060035f820151815f015f820151815f01556020820151816001015550506020820151816002015f820151815f019060026104259291906104ce565b5060208201518160020190600261043d9291906104ce565b5050506040820151816006015f820151815f015560208201518160010155505090505050505050565b60015f9054906101000a900473ffffffffffffffffffffffffffffffffffffffff1681565b8060015f6101000a81548173ffffffffffffffffffffffffffffffffffffffff021916908373ffffffffffffffffffffffffffffffffffffffff16021790555050565b82600281019282156104fd579160200282015b828111156104fc5782518255916020019190600101906104e1565b5b50905061050a919061050e565b5090565b5b80821115610525575f815f90555060010161050f565b5090565b5f80fd5b5f80fd5b5f8190508260206004028201111561054c5761054b61052d565b5b92915050565b5f6080828403121561056757610566610529565b5b5f61057484828501610531565b91505092915050565b5f8115159050919050565b6105918161057d565b82525050565b5f6020820190506105aa5f830184610588565b92915050565b5f819050919050565b6105c2816105b0565b82525050565b5f6020820190506105db5f8301846105b9565b92915050565b5f819050826020600202820111156105fc576105fb61052d565b5b92915050565b5f805f80610100858703121561061b5761061a610529565b5b5f610628878288016105e1565b9450506040610639878288016105e1565b935050608061064a878288016105e1565b92505060c061065b878288016105e1565b91505092959194509250565b5f73ffffffffffffffffffffffffffffffffffffffff82169050919050565b5f61069082610667565b9050919050565b6106a081610686565b82525050565b5f6020820190506106b95f830184610697565b92915050565b6106c881610686565b81146106d2575f80fd5b50565b5f813590506106e3816106bf565b92915050565b5f602082840312156106fe576106fd610529565b5b5f61070b848285016106d5565b91505092915050565b5f815f1c9050919050565b5f819050919050565b5f61073a61073583610714565b61071f565b9050919050565b61074a816105b0565b82525050565b604082015f80830154905061076481610728565b6107705f860182610741565b506001830154905061078181610728565b61078e6020860182610741565b5050505050565b5f60029050919050565b5f81905092915050565b5f819050919050565b5f6107bd8383610741565b60208301905092915050565b5f6107d48254610728565b9050919050565b5f600182019050919050565b6107f081610795565b6107fa818461079f565b9250610805826107a9565b805f5b8381101561083c57610819826107c9565b61082387826107b2565b965061082e836107db565b925050600181019050610808565b505050505050565b608082015f8083016108585f8601826107e7565b506002830161086a60408601826107e7565b5050505050565b61010082015f8083016108865f860182610750565b50600283016108986040860182610844565b50600683016108aa60c0860182610750565b5050505050565b82818337505050565b6108c6608083836108b1565b5050565b5f610180820190506108de5f830185610871565b6108ec6101008301846108ba565b9392505050565b6108fc8161057d565b8114610906575f80fd5b50565b5f81519050610917816108f3565b92915050565b5f6020828403121561093257610931610529565b5b5f61093f84828501610909565b91505092915050565b7f4e487b71000000000000000000000000000000000000000000000000000000005f52603260045260245ffdfea264697066735822122045a6fdd4fa287692cc92755a283c465cb64eb36486b4f2a92cc9bf0dff1a9edf64736f6c634300081a0033",
			"opcodes": "PUSH1 0x80 PUSH1 0x40 MSTORE PUSH32 0x3100000000000000000000000000000000000000000000000000000000000000 PUSH1 0x60 SHR PUSH1 0x1 PUSH0 PUSH2 0x100 EXP DUP2 SLOAD DUP2 PUSH20 0xFFFFFFFFFFFFFFFFFFFFFFFFFFFFFFFFFFFFFFFF MUL NOT AND SWAP1 DUP4 PUSH20 0xFFFFFFFFFFFFFFFFFFFFFFFFFFFFFFFFFFFFFFFF AND MUL OR SWAP1 SSTORE POP CALLVALUE DUP1 ISZERO PUSH1 0x71 JUMPI PUSH0 DUP1 REVERT JUMPDEST POP PUSH2 0x9AB DUP1 PUSH2 0x7F PUSH0 CODECOPY PUSH0 RETURN INVALID PUSH1 0x80 PUSH1 0x40 MSTORE CALLVALUE DUP1 ISZERO PUSH2 0xF JUMPI PUSH0 DUP1 REVERT JUMPDEST POP PUSH1 0x4 CALLDATASIZE LT PUSH2 0x55 JUMPI PUSH0 CALLDATALOAD PUSH1 0xE0 SHR DUP1 PUSH4 0x92AF1AE EQ PUSH2 0x59 JUMPI DUP1 PUSH4 0x317DA8BD EQ PUSH2 0x89 JUMPI DUP1 PUSH4 0x804ABA3B EQ PUSH2 0xA7 JUMPI DUP1 PUSH4 0x8865FB75 EQ PUSH2 0xC3 JUMPI DUP1 PUSH4 0xBA0EF4E3 EQ PUSH2 0xE1 JUMPI JUMPDEST PUSH0 DUP1 REVERT JUMPDEST PUSH2 0x73 PUSH1 0x4 DUP1 CALLDATASIZE SUB DUP2 ADD SWAP1 PUSH2 0x6E SWAP2 SWAP1 PUSH2 0x552 JUMP JUMPDEST PUSH2 0xFD JUMP JUMPDEST PUSH1 0x40 MLOAD PUSH2 0x80 SWAP2 SWAP1 PUSH2 0x597 JUMP JUMPDEST PUSH1 0x40 MLOAD DUP1 SWAP2 SUB SWAP1 RETURN JUMPDEST PUSH2 0x91 PUSH2 0x2C4 JUMP JUMPDEST PUSH1 0x40 MLOAD PUSH2 0x9E SWAP2 SWAP1 PUSH2 0x5C8 JUMP JUMPDEST PUSH1 0x40 MLOAD DUP1 SWAP2 SUB SWAP1 RETURN JUMPDEST PUSH2 0xC1 PUSH1 0x4 DUP1 CALLDATASIZE SUB DUP2 ADD SWAP1 PUSH2 0xBC SWAP2 SWAP1 PUSH2 0x602 JUMP JUMPDEST PUSH2 0x2C9 JUMP JUMPDEST STOP JUMPDEST PUSH2 0xCB PUSH2 0x466 JUMP JUMPDEST PUSH1 0x40 MLOAD PUSH2 0xD8 SWAP2 SWAP1 PUSH2 0x6A6 JUMP JUMPDEST PUSH1 0x40 MLOAD DUP1 SWAP2 SUB SWAP1 RETURN JUMPDEST PUSH2 0xFB PUSH1 0x4 DUP1 CALLDATASIZE SUB DUP2 ADD SWAP1 PUSH2 0xF6 SWAP2 SWAP1 PUSH2 0x6E9 JUMP JUMPDEST PUSH2 0x48B JUMP JUMPDEST STOP JUMPDEST PUSH0 DUP1 PUSH1 0x2 PUSH0 SWAP1 SLOAD SWAP1 PUSH2 0x100 EXP SWAP1 DIV PUSH20 0xFFFFFFFFFFFFFFFFFFFFFFFFFFFFFFFFFFFFFFFF AND PUSH20 0xFFFFFFFFFFFFFFFFFFFFFFFFFFFFFFFFFFFFFFFF AND PUSH4 0x799AFA76 PUSH1 0x3 DUP6 PUSH1 0x40 MLOAD DUP4 PUSH4 0xFFFFFFFF AND PUSH1 0xE0 SHL DUP2 MSTORE PUSH1 0x4 ADD PUSH2 0x15C SWAP3 SWAP2 SWAP1 PUSH2 0x8CA JUMP JUMPDEST PUSH1 0x20 PUSH1 0x40 MLOAD DUP1 DUP4 SUB DUP2 DUP7 GAS STATICCALL ISZERO DUP1 ISZERO PUSH2 0x177 JUMPI RETURNDATASIZE PUSH0 DUP1 RETURNDATACOPY RETURNDATASIZE PUSH0 REVERT JUMPDEST POP POP POP POP PUSH1 0x40 MLOAD RETURNDATASIZE PUSH1 0x1F NOT PUSH1 0x1F DUP3 ADD AND DUP3 ADD DUP1 PUSH1 0x40 MSTORE POP DUP2 ADD SWAP1 PUSH2 0x19B SWAP2 SWAP1 PUSH2 0x91D JUMP JUMPDEST SWAP1 POP PUSH32 0x3100000000000000000000000000000000000000000000000000000000000000 PUSH1 0x60 SHR PUSH1 0x1 PUSH0 PUSH2 0x100 EXP DUP2 SLOAD DUP2 PUSH20 0xFFFFFFFFFFFFFFFFFFFFFFFFFFFFFFFFFFFFFFFF MUL NOT AND SWAP1 DUP4 PUSH20 0xFFFFFFFFFFFFFFFFFFFFFFFFFFFFFFFFFFFFFFFF AND MUL OR SWAP1 SSTORE POP DUP1 ISZERO PUSH2 0x263 JUMPI PUSH32 0xECC65FE29615A0FAE62CFBC6809FC8720D95CB2E3AE31657BA7B0E46B1B8C5B7 PUSH1 0x1 PUSH0 SWAP1 SLOAD SWAP1 PUSH2 0x100 EXP SWAP1 DIV PUSH20 0xFFFFFFFFFFFFFFFFFFFFFFFFFFFFFFFFFFFFFFFF AND PUSH1 0x40 MLOAD PUSH2 0x256 SWAP2 SWAP1 PUSH2 0x6A6 JUMP JUMPDEST PUSH1 0x40 MLOAD DUP1 SWAP2 SUB SWAP1 LOG1 PUSH2 0x2BB JUMP JUMPDEST PUSH31 0xC371D42B5FFB70ADCEFD5644C0B22A88FC7AC29E3490F29844058E0CD60C3E PUSH1 0x1 PUSH0 SWAP1 SLOAD SWAP1 PUSH2 0x100 EXP SWAP1 DIV PUSH20 0xFFFFFFFFFFFFFFFFFFFFFFFFFFFFFFFFFFFFFFFF AND PUSH1 0x40 MLOAD PUSH2 0x2B2 SWAP2 SWAP1 PUSH2 0x6A6 JUMP JUMPDEST PUSH1 0x40 MLOAD DUP1 SWAP2 SUB SWAP1 LOG1 JUMPDEST DUP1 SWAP2 POP POP SWAP2 SWAP1 POP JUMP JUMPDEST PUSH0 SLOAD DUP2 JUMP JUMPDEST PUSH1 0x40 MLOAD DUP1 PUSH1 0x60 ADD PUSH1 0x40 MSTORE DUP1 PUSH1 0x40 MLOAD DUP1 PUSH1 0x40 ADD PUSH1 0x40 MSTORE DUP1 DUP8 PUSH0 PUSH1 0x2 DUP2 LT PUSH2 0x2F2 JUMPI PUSH2 0x2F1 PUSH2 0x948 JUMP JUMPDEST JUMPDEST PUSH1 0x20 MUL ADD CALLDATALOAD DUP2 MSTORE PUSH1 0x20 ADD DUP8 PUSH1 0x1 PUSH1 0x2 DUP2 LT PUSH2 0x310 JUMPI PUSH2 0x30F PUSH2 0x948 JUMP JUMPDEST JUMPDEST PUSH1 0x20 MUL ADD CALLDATALOAD DUP2 MSTORE POP DUP2 MSTORE PUSH1 0x20 ADD PUSH1 0x40 MLOAD DUP1 PUSH1 0x40 ADD PUSH1 0x40 MSTORE DUP1 DUP7 PUSH1 0x2 DUP1 PUSH1 0x20 MUL PUSH1 0x40 MLOAD SWAP1 DUP2 ADD PUSH1 0x40 MSTORE DUP1 SWAP3 SWAP2 SWAP1 DUP3 PUSH1 0x2 PUSH1 0x20 MUL DUP1 DUP3 DUP5 CALLDATACOPY PUSH0 DUP2 DUP5 ADD MSTORE PUSH1 0x1F NOT PUSH1 0x1F DUP3 ADD AND SWAP1 POP DUP1 DUP4 ADD SWAP3 POP POP POP POP POP POP DUP2 MSTORE PUSH1 0x20 ADD DUP6 PUSH1 0x2 DUP1 PUSH1 0x20 MUL PUSH1 0x40 MLOAD SWAP1 DUP2 ADD PUSH1 0x40 MSTORE DUP1 SWAP3 SWAP2 SWAP1 DUP3 PUSH1 0x2 PUSH1 0x20 MUL DUP1 DUP3 DUP5 CALLDATACOPY PUSH0 DUP2 DUP5 ADD MSTORE PUSH1 0x1F NOT PUSH1 0x1F DUP3 ADD AND SWAP1 POP DUP1 DUP4 ADD SWAP3 POP POP POP POP POP POP DUP2 MSTORE POP DUP2 MSTORE PUSH1 0x20 ADD PUSH1 0x40 MLOAD DUP1 PUSH1 0x40 ADD PUSH1 0x40 MSTORE DUP1 DUP5 PUSH0 PUSH1 0x2 DUP2 LT PUSH2 0x3C1 JUMPI PUSH2 0x3C0 PUSH2 0x948 JUMP JUMPDEST JUMPDEST PUSH1 0x20 MUL ADD CALLDATALOAD DUP2 MSTORE PUSH1 0x20 ADD DUP5 PUSH1 0x1 PUSH1 0x2 DUP2 LT PUSH2 0x3DF JUMPI PUSH2 0x3DE PUSH2 0x948 JUMP JUMPDEST JUMPDEST PUSH1 0x20 MUL ADD CALLDATALOAD DUP2 MSTORE POP DUP2 MSTORE POP PUSH1 0x3 PUSH0 DUP3 ADD MLOAD DUP2 PUSH0 ADD PUSH0 DUP3 ADD MLOAD DUP2 PUSH0 ADD SSTORE PUSH1 0x20 DUP3 ADD MLOAD DUP2 PUSH1 0x1 ADD SSTORE POP POP PUSH1 0x20 DUP3 ADD MLOAD DUP2 PUSH1 0x2 ADD PUSH0 DUP3 ADD MLOAD DUP2 PUSH0 ADD SWAP1 PUSH1 0x2 PUSH2 0x425 SWAP3 SWAP2 SWAP1 PUSH2 0x4CE JUMP JUMPDEST POP PUSH1 0x20 DUP3 ADD MLOAD DUP2 PUSH1 0x2 ADD SWAP1 PUSH1 0x2 PUSH2 0x43D SWAP3 SWAP2 SWAP1 PUSH2 0x4CE JUMP JUMPDEST POP POP POP PUSH1 0x40 DUP3 ADD MLOAD DUP2 PUSH1 0x6 ADD PUSH0 DUP3 ADD MLOAD DUP2 PUSH0 ADD SSTORE PUSH1 0x20 DUP3 ADD MLOAD DUP2 PUSH1 0x1 ADD SSTORE POP POP SWAP1 POP POP POP POP POP POP JUMP JUMPDEST PUSH1 0x1 PUSH0 SWAP1 SLOAD SWAP1 PUSH2 0x100 EXP SWAP1 DIV PUSH20 0xFFFFFFFFFFFFFFFFFFFFFFFFFFFFFFFFFFFFFFFF AND DUP2 JUMP JUMPDEST DUP1 PUSH1 0x1 PUSH0 PUSH2 0x100 EXP DUP2 SLOAD DUP2 PUSH20 0xFFFFFFFFFFFFFFFFFFFFFFFFFFFFFFFFFFFFFFFF MUL NOT AND SWAP1 DUP4 PUSH20 0xFFFFFFFFFFFFFFFFFFFFFFFFFFFFFFFFFFFFFFFF AND MUL OR SWAP1 SSTORE POP POP JUMP JUMPDEST DUP3 PUSH1 0x2 DUP2 ADD SWAP3 DUP3 ISZERO PUSH2 0x4FD JUMPI SWAP2 PUSH1 0x20 MUL DUP3 ADD JUMPDEST DUP3 DUP2 GT ISZERO PUSH2 0x4FC JUMPI DUP3 MLOAD DUP3 SSTORE SWAP2 PUSH1 0x20 ADD SWAP2 SWAP1 PUSH1 0x1 ADD SWAP1 PUSH2 0x4E1 JUMP JUMPDEST JUMPDEST POP SWAP1 POP PUSH2 0x50A SWAP2 SWAP1 PUSH2 0x50E JUMP JUMPDEST POP SWAP1 JUMP JUMPDEST JUMPDEST DUP1 DUP3 GT ISZERO PUSH2 0x525 JUMPI PUSH0 DUP2 PUSH0 SWAP1 SSTORE POP PUSH1 0x1 ADD PUSH2 0x50F JUMP JUMPDEST POP SWAP1 JUMP JUMPDEST PUSH0 DUP1 REVERT JUMPDEST PUSH0 DUP1 REVERT JUMPDEST PUSH0 DUP2 SWAP1 POP DUP3 PUSH1 0x20 PUSH1 0x4 MUL DUP3 ADD GT ISZERO PUSH2 0x54C JUMPI PUSH2 0x54B PUSH2 0x52D JUMP JUMPDEST JUMPDEST SWAP3 SWAP2 POP POP JUMP JUMPDEST PUSH0 PUSH1 0x80 DUP3 DUP5 SUB SLT ISZERO PUSH2 0x567 JUMPI PUSH2 0x566 PUSH2 0x529 JUMP JUMPDEST JUMPDEST PUSH0 PUSH2 0x574 DUP5 DUP3 DUP6 ADD PUSH2 0x531 JUMP JUMPDEST SWAP2 POP POP SWAP3 SWAP2 POP POP JUMP JUMPDEST PUSH0 DUP2 ISZERO ISZERO SWAP1 POP SWAP2 SWAP1 POP JUMP JUMPDEST PUSH2 0x591 DUP2 PUSH2 0x57D JUMP JUMPDEST DUP3 MSTORE POP POP JUMP JUMPDEST PUSH0 PUSH1 0x20 DUP3 ADD SWAP1 POP PUSH2 0x5AA PUSH0 DUP4 ADD DUP5 PUSH2 0x588 JUMP JUMPDEST SWAP3 SWAP2 POP POP JUMP JUMPDEST PUSH0 DUP2 SWAP1 POP SWAP2 SWAP1 POP JUMP JUMPDEST PUSH2 0x5C2 DUP2 PUSH2 0x5B0 JUMP JUMPDEST DUP3 MSTORE POP POP JUMP JUMPDEST PUSH0 PUSH1 0x20 DUP3 ADD SWAP1 POP PUSH2 0x5DB PUSH0 DUP4 ADD DUP5 PUSH2 0x5B9 JUMP JUMPDEST SWAP3 SWAP2 POP POP JUMP JUMPDEST PUSH0 DUP2 SWAP1 POP DUP3 PUSH1 0x20 PUSH1 0x2 MUL DUP3 ADD GT ISZERO PUSH2 0x5FC JUMPI PUSH2 0x5FB PUSH2 0x52D JUMP JUMPDEST JUMPDEST SWAP3 SWAP2 POP POP JUMP JUMPDEST PUSH0 DUP1 PUSH0 DUP1 PUSH2 0x100 DUP6 DUP8 SUB SLT ISZERO PUSH2 0x61B JUMPI PUSH2 0x61A PUSH2 0x529 JUMP JUMPDEST JUMPDEST PUSH0 PUSH2 0x628 DUP8 DUP3 DUP9 ADD PUSH2 0x5E1 JUMP JUMPDEST SWAP5 POP POP PUSH1 0x40 PUSH2 0x639 DUP8 DUP3 DUP9 ADD PUSH2 0x5E1 JUMP JUMPDEST SWAP4 POP POP PUSH1 0x80 PUSH2 0x64A DUP8 DUP3 DUP9 ADD PUSH2 0x5E1 JUMP JUMPDEST SWAP3 POP POP PUSH1 0xC0 PUSH2 0x65B DUP8 DUP3 DUP9 ADD PUSH2 0x5E1 JUMP JUMPDEST SWAP2 POP POP SWAP3 SWAP6 SWAP2 SWAP5 POP SWAP3 POP JUMP JUMPDEST PUSH0 PUSH20 0xFFFFFFFFFFFFFFFFFFFFFFFFFFFFFFFFFFFFFFFF DUP3 AND SWAP1 POP SWAP2 SWAP1 POP JUMP JUMPDEST PUSH0 PUSH2 0x690 DUP3 PUSH2 0x667 JUMP JUMPDEST SWAP1 POP SWAP2 SWAP1 POP JUMP JUMPDEST PUSH2 0x6A0 DUP2 PUSH2 0x686 JUMP JUMPDEST DUP3 MSTORE POP POP JUMP JUMPDEST PUSH0 PUSH1 0x20 DUP3 ADD SWAP1 POP PUSH2 0x6B9 PUSH0 DUP4 ADD DUP5 PUSH2 0x697 JUMP JUMPDEST SWAP3 SWAP2 POP POP JUMP JUMPDEST PUSH2 0x6C8 DUP2 PUSH2 0x686 JUMP JUMPDEST DUP2 EQ PUSH2 0x6D2 JUMPI PUSH0 DUP1 REVERT JUMPDEST POP JUMP JUMPDEST PUSH0 DUP2 CALLDATALOAD SWAP1 POP PUSH2 0x6E3 DUP2 PUSH2 0x6BF JUMP JUMPDEST SWAP3 SWAP2 POP POP JUMP JUMPDEST PUSH0 PUSH1 0x20 DUP3 DUP5 SUB SLT ISZERO PUSH2 0x6FE JUMPI PUSH2 0x6FD PUSH2 0x529 JUMP JUMPDEST JUMPDEST PUSH0 PUSH2 0x70B DUP5 DUP3 DUP6 ADD PUSH2 0x6D5 JUMP JUMPDEST SWAP2 POP POP SWAP3 SWAP2 POP POP JUMP JUMPDEST PUSH0 DUP2 PUSH0 SHR SWAP1 POP SWAP2 SWAP1 POP JUMP JUMPDEST PUSH0 DUP2 SWAP1 POP SWAP2 SWAP1 POP JUMP JUMPDEST PUSH0 PUSH2 0x73A PUSH2 0x735 DUP4 PUSH2 0x714 JUMP JUMPDEST PUSH2 0x71F JUMP JUMPDEST SWAP1 POP SWAP2 SWAP1 POP JUMP JUMPDEST PUSH2 0x74A DUP2 PUSH2 0x5B0 JUMP JUMPDEST DUP3 MSTORE POP POP JUMP JUMPDEST PUSH1 0x40 DUP3 ADD PUSH0 DUP1 DUP4 ADD SLOAD SWAP1 POP PUSH2 0x764 DUP2 PUSH2 0x728 JUMP JUMPDEST PUSH2 0x770 PUSH0 DUP7 ADD DUP3 PUSH2 0x741 JUMP JUMPDEST POP PUSH1 0x1 DUP4 ADD SLOAD SWAP1 POP PUSH2 0x781 DUP2 PUSH2 0x728 JUMP JUMPDEST PUSH2 0x78E PUSH1 0x20 DUP7 ADD DUP3 PUSH2 0x741 JUMP JUMPDEST POP POP POP POP POP JUMP JUMPDEST PUSH0 PUSH1 0x2 SWAP1 POP SWAP2 SWAP1 POP JUMP JUMPDEST PUSH0 DUP2 SWAP1 POP SWAP3 SWAP2 POP POP JUMP JUMPDEST PUSH0 DUP2 SWAP1 POP SWAP2 SWAP1 POP JUMP JUMPDEST PUSH0 PUSH2 0x7BD DUP4 DUP4 PUSH2 0x741 JUMP JUMPDEST PUSH1 0x20 DUP4 ADD SWAP1 POP SWAP3 SWAP2 POP POP JUMP JUMPDEST PUSH0 PUSH2 0x7D4 DUP3 SLOAD PUSH2 0x728 JUMP JUMPDEST SWAP1 POP SWAP2 SWAP1 POP JUMP JUMPDEST PUSH0 PUSH1 0x1 DUP3 ADD SWAP1 POP SWAP2 SWAP1 POP JUMP JUMPDEST PUSH2 0x7F0 DUP2 PUSH2 0x795 JUMP JUMPDEST PUSH2 0x7FA DUP2 DUP5 PUSH2 0x79F JUMP JUMPDEST SWAP3 POP PUSH2 0x805 DUP3 PUSH2 0x7A9 JUMP JUMPDEST DUP1 PUSH0 JUMPDEST DUP4 DUP2 LT ISZERO PUSH2 0x83C JUMPI PUSH2 0x819 DUP3 PUSH2 0x7C9 JUMP JUMPDEST PUSH2 0x823 DUP8 DUP3 PUSH2 0x7B2 JUMP JUMPDEST SWAP7 POP PUSH2 0x82E DUP4 PUSH2 0x7DB JUMP JUMPDEST SWAP3 POP POP PUSH1 0x1 DUP2 ADD SWAP1 POP PUSH2 0x808 JUMP JUMPDEST POP POP POP POP POP POP JUMP JUMPDEST PUSH1 0x80 DUP3 ADD PUSH0 DUP1 DUP4 ADD PUSH2 0x858 PUSH0 DUP7 ADD DUP3 PUSH2 0x7E7 JUMP JUMPDEST POP PUSH1 0x2 DUP4 ADD PUSH2 0x86A PUSH1 0x40 DUP7 ADD DUP3 PUSH2 0x7E7 JUMP JUMPDEST POP POP POP POP POP JUMP JUMPDEST PUSH2 0x100 DUP3 ADD PUSH0 DUP1 DUP4 ADD PUSH2 0x886 PUSH0 DUP7 ADD DUP3 PUSH2 0x750 JUMP JUMPDEST POP PUSH1 0x2 DUP4 ADD PUSH2 0x898 PUSH1 0x40 DUP7 ADD DUP3 PUSH2 0x844 JUMP JUMPDEST POP PUSH1 0x6 DUP4 ADD PUSH2 0x8AA PUSH1 0xC0 DUP7 ADD DUP3 PUSH2 0x750 JUMP JUMPDEST POP POP POP POP POP JUMP JUMPDEST DUP3 DUP2 DUP4 CALLDATACOPY POP POP POP JUMP JUMPDEST PUSH2 0x8C6 PUSH1 0x80 DUP4 DUP4 PUSH2 0x8B1 JUMP JUMPDEST POP POP JUMP JUMPDEST PUSH0 PUSH2 0x180 DUP3 ADD SWAP1 POP PUSH2 0x8DE PUSH0 DUP4 ADD DUP6 PUSH2 0x871 JUMP JUMPDEST PUSH2 0x8EC PUSH2 0x100 DUP4 ADD DUP5 PUSH2 0x8BA JUMP JUMPDEST SWAP4 SWAP3 POP POP POP JUMP JUMPDEST PUSH2 0x8FC DUP2 PUSH2 0x57D JUMP JUMPDEST DUP2 EQ PUSH2 0x906 JUMPI PUSH0 DUP1 REVERT JUMPDEST POP JUMP JUMPDEST PUSH0 DUP2 MLOAD SWAP1 POP PUSH2 0x917 DUP2 PUSH2 0x8F3 JUMP JUMPDEST SWAP3 SWAP2 POP POP JUMP JUMPDEST PUSH0 PUSH1 0x20 DUP3 DUP5 SUB SLT ISZERO PUSH2 0x932 JUMPI PUSH2 0x931 PUSH2 0x529 JUMP JUMPDEST JUMPDEST PUSH0 PUSH2 0x93F DUP5 DUP3 DUP6 ADD PUSH2 0x909 JUMP JUMPDEST SWAP2 POP POP SWAP3 SWAP2 POP POP JUMP JUMPDEST PUSH32 0x4E487B7100000000000000000000000000000000000000000000000000000000 PUSH0 MSTORE PUSH1 0x32 PUSH1 0x4 MSTORE PUSH1 0x24 PUSH0 REVERT INVALID LOG2 PUSH5 0x6970667358 0x22 SLT KECCAK256 GASLIMIT 0xA6 REVERT 0xD4 STATICCALL 0x28 PUSH23 0x92CC92755A283C465CB64EB36486B4F2A92CC9BF0DFF1A SWAP15 0xDF PUSH5 0x736F6C6343 STOP ADDMOD BYTE STOP CALLER "
		},
		"gasEstimates": {
			"creation": {
				"codeDepositCost": "495000",
				"executionCost": "24800",
				"totalCost": "519800"
			},
			"external": {
				"SetProof(uint256[2],uint256[2],uint256[2],uint256[2])": "infinite",
				"SetUserID(address)": "24781",
				"Verify(uint256[4])": "infinite",
				"_userID()": "2552",
				"merlke_root()": "2424"
			},
			"internal": {
				"SetMerkleRoot(uint256)": "infinite"
			}
		},
		"methodIdentifiers": {
			"SetProof(uint256[2],uint256[2],uint256[2],uint256[2])": "804aba3b",
			"SetUserID(address)": "ba0ef4e3",
			"Verify(uint256[4])": "092af1ae",
			"_userID()": "8865fb75",
			"merlke_root()": "317da8bd"
		}
	},
	"abi": [
		{
			"anonymous": false,
			"inputs": [
				{
					"indexed": false,
					"internalType": "address",
					"name": "UserID",
					"type": "address"
				},
				{
					"indexed": false,
					"internalType": "bool",
					"name": "Success",
					"type": "bool"
				}
			],
			"name": "AttemptOfVerification",
			"type": "event"
		},
		{
			"anonymous": false,
			"inputs": [
				{
					"indexed": false,
					"internalType": "address",
					"name": "UserID",
					"type": "address"
				}
			],
			"name": "FailVerification",
			"type": "event"
		},
		{
			"anonymous": false,
			"inputs": [
				{
					"indexed": false,
					"internalType": "address",
					"name": "UserID",
					"type": "address"
				}
			],
			"name": "SuccessfullVerification",
			"type": "event"
		},
		{
			"inputs": [
				{
					"internalType": "uint256[2]",
					"name": "arrForG1Points1",
					"type": "uint256[2]"
				},
				{
					"internalType": "uint256[2]",
					"name": "arrForG2Points2_1",
					"type": "uint256[2]"
				},
				{
					"internalType": "uint256[2]",
					"name": "arrForG2Points2_2",
					"type": "uint256[2]"
				},
				{
					"internalType": "uint256[2]",
					"name": "arrForG1Points3",
					"type": "uint256[2]"
				}
			],
			"name": "SetProof",
			"outputs": [],
			"stateMutability": "nonpayable",
			"type": "function"
		},
		{
			"inputs": [
				{
					"internalType": "address",
					"name": "UserId",
					"type": "address"
				}
			],
			"name": "SetUserID",
			"outputs": [],
			"stateMutability": "nonpayable",
			"type": "function"
		},
		{
			"inputs": [
				{
					"internalType": "uint256[4]",
					"name": "m_root",
					"type": "uint256[4]"
				}
			],
			"name": "Verify",
			"outputs": [
				{
					"internalType": "bool",
					"name": "",
					"type": "bool"
				}
			],
			"stateMutability": "nonpayable",
			"type": "function"
		},
		{
			"inputs": [],
			"name": "_userID",
			"outputs": [
				{
					"internalType": "address",
					"name": "",
					"type": "address"
				}
			],
			"stateMutability": "view",
			"type": "function"
		},
		{
			"inputs": [],
			"name": "merlke_root",
			"outputs": [
				{
					"internalType": "uint256",
					"name": "",
					"type": "uint256"
				}
			],
			"stateMutability": "view",
			"type": "function"
		}
	]
}