{
	"data": {
		"bytecode": {
			"linkReferences": {},
			"object": "6080604052348015600e575f80fd5b506107828061001c5f395ff3fe608060405234801561000f575f80fd5b506004361061003f575f3560e01c8063215ba7b614610043578063317da8bd14610073578063d9cca5de14610091575b5f80fd5b61005d600480360381019061005891906103fc565b6100ad565b60405161006a9190610441565b60405180910390f35b61007b610151565b6040516100889190610472565b60405180910390f35b6100ab60048036038101906100a691906104ac565b610156565b005b5f60015f9054906101000a900473ffffffffffffffffffffffffffffffffffffffff1673ffffffffffffffffffffffffffffffffffffffff1663f48d77296002846040518363ffffffff1660e01b815260040161010b9291906106a1565b602060405180830381865afa158015610126573d5f803e3d5ffd5b505050506040513d601f19601f8201168201806040525081019061014a91906106f4565b9050919050565b5f5481565b60405180606001604052806040518060400160405280855f6002811061017f5761017e61071f565b5b604002015f600281106101955761019461071f565b5b60200201358152602001855f600281106101b2576101b161071f565b5b604002016001600281106101c9576101c861071f565b5b602002013581525081526020016040518060400160405280845f600281106101f4576101f361071f565b5b6040020160028060200260405190810160405280929190826002602002808284375f81840152601f19601f8201169050808301925050505050508152602001846001600281106102475761024661071f565b5b6040020160028060200260405190810160405280929190826002602002808284375f81840152601f19601f82011690508083019250505050505081525081526020016040518060400160405280856001600281106102a8576102a761071f565b5b604002015f600281106102be576102bd61071f565b5b60200201358152602001856001600281106102dc576102db61071f565b5b604002016001600281106102f3576102f261071f565b5b602002013581525081525060025f820151815f015f820151815f01556020820151816001015550506020820151816002015f820151815f01906002610339929190610378565b50602082015181600201906002610351929190610378565b5050506040820151816006015f820151815f01556020820151816001015550509050505050565b82600281019282156103a7579160200282015b828111156103a657825182559160200191906001019061038b565b5b5090506103b491906103b8565b5090565b5b808211156103cf575f815f9055506001016103b9565b5090565b5f80fd5b5f80fd5b5f819050826020600102820111156103f6576103f56103d7565b5b92915050565b5f60208284031215610411576104106103d3565b5b5f61041e848285016103db565b91505092915050565b5f8115159050919050565b61043b81610427565b82525050565b5f6020820190506104545f830184610432565b92915050565b5f819050919050565b61046c8161045a565b82525050565b5f6020820190506104855f830184610463565b92915050565b5f819050826040600202820111156104a6576104a56103d7565b5b92915050565b5f8061010083850312156104c3576104c26103d3565b5b5f6104d08582860161048b565b92505060806104e18582860161048b565b9150509250929050565b5f815f1c9050919050565b5f819050919050565b5f61051161050c836104eb565b6104f6565b9050919050565b6105218161045a565b82525050565b604082015f80830154905061053b816104ff565b6105475f860182610518565b5060018301549050610558816104ff565b6105656020860182610518565b5050505050565b5f60029050919050565b5f81905092915050565b5f819050919050565b5f6105948383610518565b60208301905092915050565b5f6105ab82546104ff565b9050919050565b5f600182019050919050565b6105c78161056c565b6105d18184610576565b92506105dc82610580565b805f5b83811015610613576105f0826105a0565b6105fa8782610589565b9650610605836105b2565b9250506001810190506105df565b505050505050565b608082015f80830161062f5f8601826105be565b506002830161064160408601826105be565b5050505050565b61010082015f80830161065d5f860182610527565b506002830161066f604086018261061b565b506006830161068160c0860182610527565b5050505050565b82818337505050565b61069d60208383610688565b5050565b5f610120820190506106b55f830185610648565b6106c3610100830184610691565b9392505050565b6106d381610427565b81146106dd575f80fd5b50565b5f815190506106ee816106ca565b92915050565b5f60208284031215610709576107086103d3565b5b5f610716848285016106e0565b91505092915050565b7f4e487b71000000000000000000000000000000000000000000000000000000005f52603260045260245ffdfea2646970667358221220b3c3e8a8bd7704560d8df2fee958edec692e3f878b06cce3c9e9907f81975e1c64736f6c634300081a0033",
			"opcodes": "PUSH1 0x80 PUSH1 0x40 MSTORE CALLVALUE DUP1 ISZERO PUSH1 0xE JUMPI PUSH0 DUP1 REVERT JUMPDEST POP PUSH2 0x782 DUP1 PUSH2 0x1C PUSH0 CODECOPY PUSH0 RETURN INVALID PUSH1 0x80 PUSH1 0x40 MSTORE CALLVALUE DUP1 ISZERO PUSH2 0xF JUMPI PUSH0 DUP1 REVERT JUMPDEST POP PUSH1 0x4 CALLDATASIZE LT PUSH2 0x3F JUMPI PUSH0 CALLDATALOAD PUSH1 0xE0 SHR DUP1 PUSH4 0x215BA7B6 EQ PUSH2 0x43 JUMPI DUP1 PUSH4 0x317DA8BD EQ PUSH2 0x73 JUMPI DUP1 PUSH4 0xD9CCA5DE EQ PUSH2 0x91 JUMPI JUMPDEST PUSH0 DUP1 REVERT JUMPDEST PUSH2 0x5D PUSH1 0x4 DUP1 CALLDATASIZE SUB DUP2 ADD SWAP1 PUSH2 0x58 SWAP2 SWAP1 PUSH2 0x3FC JUMP JUMPDEST PUSH2 0xAD JUMP JUMPDEST PUSH1 0x40 MLOAD PUSH2 0x6A SWAP2 SWAP1 PUSH2 0x441 JUMP JUMPDEST PUSH1 0x40 MLOAD DUP1 SWAP2 SUB SWAP1 RETURN JUMPDEST PUSH2 0x7B PUSH2 0x151 JUMP JUMPDEST PUSH1 0x40 MLOAD PUSH2 0x88 SWAP2 SWAP1 PUSH2 0x472 JUMP JUMPDEST PUSH1 0x40 MLOAD DUP1 SWAP2 SUB SWAP1 RETURN JUMPDEST PUSH2 0xAB PUSH1 0x4 DUP1 CALLDATASIZE SUB DUP2 ADD SWAP1 PUSH2 0xA6 SWAP2 SWAP1 PUSH2 0x4AC JUMP JUMPDEST PUSH2 0x156 JUMP JUMPDEST STOP JUMPDEST PUSH0 PUSH1 0x1 PUSH0 SWAP1 SLOAD SWAP1 PUSH2 0x100 EXP SWAP1 DIV PUSH20 0xFFFFFFFFFFFFFFFFFFFFFFFFFFFFFFFFFFFFFFFF AND PUSH20 0xFFFFFFFFFFFFFFFFFFFFFFFFFFFFFFFFFFFFFFFF AND PUSH4 0xF48D7729 PUSH1 0x2 DUP5 PUSH1 0x40 MLOAD DUP4 PUSH4 0xFFFFFFFF AND PUSH1 0xE0 SHL DUP2 MSTORE PUSH1 0x4 ADD PUSH2 0x10B SWAP3 SWAP2 SWAP1 PUSH2 0x6A1 JUMP JUMPDEST PUSH1 0x20 PUSH1 0x40 MLOAD DUP1 DUP4 SUB DUP2 DUP7 GAS STATICCALL ISZERO DUP1 ISZERO PUSH2 0x126 JUMPI RETURNDATASIZE PUSH0 DUP1 RETURNDATACOPY RETURNDATASIZE PUSH0 REVERT JUMPDEST POP POP POP POP PUSH1 0x40 MLOAD RETURNDATASIZE PUSH1 0x1F NOT PUSH1 0x1F DUP3 ADD AND DUP3 ADD DUP1 PUSH1 0x40 MSTORE POP DUP2 ADD SWAP1 PUSH2 0x14A SWAP2 SWAP1 PUSH2 0x6F4 JUMP JUMPDEST SWAP1 POP SWAP2 SWAP1 POP JUMP JUMPDEST PUSH0 SLOAD DUP2 JUMP JUMPDEST PUSH1 0x40 MLOAD DUP1 PUSH1 0x60 ADD PUSH1 0x40 MSTORE DUP1 PUSH1 0x40 MLOAD DUP1 PUSH1 0x40 ADD PUSH1 0x40 MSTORE DUP1 DUP6 PUSH0 PUSH1 0x2 DUP2 LT PUSH2 0x17F JUMPI PUSH2 0x17E PUSH2 0x71F JUMP JUMPDEST JUMPDEST PUSH1 0x40 MUL ADD PUSH0 PUSH1 0x2 DUP2 LT PUSH2 0x195 JUMPI PUSH2 0x194 PUSH2 0x71F JUMP JUMPDEST JUMPDEST PUSH1 0x20 MUL ADD CALLDATALOAD DUP2 MSTORE PUSH1 0x20 ADD DUP6 PUSH0 PUSH1 0x2 DUP2 LT PUSH2 0x1B2 JUMPI PUSH2 0x1B1 PUSH2 0x71F JUMP JUMPDEST JUMPDEST PUSH1 0x40 MUL ADD PUSH1 0x1 PUSH1 0x2 DUP2 LT PUSH2 0x1C9 JUMPI PUSH2 0x1C8 PUSH2 0x71F JUMP JUMPDEST JUMPDEST PUSH1 0x20 MUL ADD CALLDATALOAD DUP2 MSTORE POP DUP2 MSTORE PUSH1 0x20 ADD PUSH1 0x40 MLOAD DUP1 PUSH1 0x40 ADD PUSH1 0x40 MSTORE DUP1 DUP5 PUSH0 PUSH1 0x2 DUP2 LT PUSH2 0x1F4 JUMPI PUSH2 0x1F3 PUSH2 0x71F JUMP JUMPDEST JUMPDEST PUSH1 0x40 MUL ADD PUSH1 0x2 DUP1 PUSH1 0x20 MUL PUSH1 0x40 MLOAD SWAP1 DUP2 ADD PUSH1 0x40 MSTORE DUP1 SWAP3 SWAP2 SWAP1 DUP3 PUSH1 0x2 PUSH1 0x20 MUL DUP1 DUP3 DUP5 CALLDATACOPY PUSH0 DUP2 DUP5 ADD MSTORE PUSH1 0x1F NOT PUSH1 0x1F DUP3 ADD AND SWAP1 POP DUP1 DUP4 ADD SWAP3 POP POP POP POP POP POP DUP2 MSTORE PUSH1 0x20 ADD DUP5 PUSH1 0x1 PUSH1 0x2 DUP2 LT PUSH2 0x247 JUMPI PUSH2 0x246 PUSH2 0x71F JUMP JUMPDEST JUMPDEST PUSH1 0x40 MUL ADD PUSH1 0x2 DUP1 PUSH1 0x20 MUL PUSH1 0x40 MLOAD SWAP1 DUP2 ADD PUSH1 0x40 MSTORE DUP1 SWAP3 SWAP2 SWAP1 DUP3 PUSH1 0x2 PUSH1 0x20 MUL DUP1 DUP3 DUP5 CALLDATACOPY PUSH0 DUP2 DUP5 ADD MSTORE PUSH1 0x1F NOT PUSH1 0x1F DUP3 ADD AND SWAP1 POP DUP1 DUP4 ADD SWAP3 POP POP POP POP POP POP DUP2 MSTORE POP DUP2 MSTORE PUSH1 0x20 ADD PUSH1 0x40 MLOAD DUP1 PUSH1 0x40 ADD PUSH1 0x40 MSTORE DUP1 DUP6 PUSH1 0x1 PUSH1 0x2 DUP2 LT PUSH2 0x2A8 JUMPI PUSH2 0x2A7 PUSH2 0x71F JUMP JUMPDEST JUMPDEST PUSH1 0x40 MUL ADD PUSH0 PUSH1 0x2 DUP2 LT PUSH2 0x2BE JUMPI PUSH2 0x2BD PUSH2 0x71F JUMP JUMPDEST JUMPDEST PUSH1 0x20 MUL ADD CALLDATALOAD DUP2 MSTORE PUSH1 0x20 ADD DUP6 PUSH1 0x1 PUSH1 0x2 DUP2 LT PUSH2 0x2DC JUMPI PUSH2 0x2DB PUSH2 0x71F JUMP JUMPDEST JUMPDEST PUSH1 0x40 MUL ADD PUSH1 0x1 PUSH1 0x2 DUP2 LT PUSH2 0x2F3 JUMPI PUSH2 0x2F2 PUSH2 0x71F JUMP JUMPDEST JUMPDEST PUSH1 0x20 MUL ADD CALLDATALOAD DUP2 MSTORE POP DUP2 MSTORE POP PUSH1 0x2 PUSH0 DUP3 ADD MLOAD DUP2 PUSH0 ADD PUSH0 DUP3 ADD MLOAD DUP2 PUSH0 ADD SSTORE PUSH1 0x20 DUP3 ADD MLOAD DUP2 PUSH1 0x1 ADD SSTORE POP POP PUSH1 0x20 DUP3 ADD MLOAD DUP2 PUSH1 0x2 ADD PUSH0 DUP3 ADD MLOAD DUP2 PUSH0 ADD SWAP1 PUSH1 0x2 PUSH2 0x339 SWAP3 SWAP2 SWAP1 PUSH2 0x378 JUMP JUMPDEST POP PUSH1 0x20 DUP3 ADD MLOAD DUP2 PUSH1 0x2 ADD SWAP1 PUSH1 0x2 PUSH2 0x351 SWAP3 SWAP2 SWAP1 PUSH2 0x378 JUMP JUMPDEST POP POP POP PUSH1 0x40 DUP3 ADD MLOAD DUP2 PUSH1 0x6 ADD PUSH0 DUP3 ADD MLOAD DUP2 PUSH0 ADD SSTORE PUSH1 0x20 DUP3 ADD MLOAD DUP2 PUSH1 0x1 ADD SSTORE POP POP SWAP1 POP POP POP POP JUMP JUMPDEST DUP3 PUSH1 0x2 DUP2 ADD SWAP3 DUP3 ISZERO PUSH2 0x3A7 JUMPI SWAP2 PUSH1 0x20 MUL DUP3 ADD JUMPDEST DUP3 DUP2 GT ISZERO PUSH2 0x3A6 JUMPI DUP3 MLOAD DUP3 SSTORE SWAP2 PUSH1 0x20 ADD SWAP2 SWAP1 PUSH1 0x1 ADD SWAP1 PUSH2 0x38B JUMP JUMPDEST JUMPDEST POP SWAP1 POP PUSH2 0x3B4 SWAP2 SWAP1 PUSH2 0x3B8 JUMP JUMPDEST POP SWAP1 JUMP JUMPDEST JUMPDEST DUP1 DUP3 GT ISZERO PUSH2 0x3CF JUMPI PUSH0 DUP2 PUSH0 SWAP1 SSTORE POP PUSH1 0x1 ADD PUSH2 0x3B9 JUMP JUMPDEST POP SWAP1 JUMP JUMPDEST PUSH0 DUP1 REVERT JUMPDEST PUSH0 DUP1 REVERT JUMPDEST PUSH0 DUP2 SWAP1 POP DUP3 PUSH1 0x20 PUSH1 0x1 MUL DUP3 ADD GT ISZERO PUSH2 0x3F6 JUMPI PUSH2 0x3F5 PUSH2 0x3D7 JUMP JUMPDEST JUMPDEST SWAP3 SWAP2 POP POP JUMP JUMPDEST PUSH0 PUSH1 0x20 DUP3 DUP5 SUB SLT ISZERO PUSH2 0x411 JUMPI PUSH2 0x410 PUSH2 0x3D3 JUMP JUMPDEST JUMPDEST PUSH0 PUSH2 0x41E DUP5 DUP3 DUP6 ADD PUSH2 0x3DB JUMP JUMPDEST SWAP2 POP POP SWAP3 SWAP2 POP POP JUMP JUMPDEST PUSH0 DUP2 ISZERO ISZERO SWAP1 POP SWAP2 SWAP1 POP JUMP JUMPDEST PUSH2 0x43B DUP2 PUSH2 0x427 JUMP JUMPDEST DUP3 MSTORE POP POP JUMP JUMPDEST PUSH0 PUSH1 0x20 DUP3 ADD SWAP1 POP PUSH2 0x454 PUSH0 DUP4 ADD DUP5 PUSH2 0x432 JUMP JUMPDEST SWAP3 SWAP2 POP POP JUMP JUMPDEST PUSH0 DUP2 SWAP1 POP SWAP2 SWAP1 POP JUMP JUMPDEST PUSH2 0x46C DUP2 PUSH2 0x45A JUMP JUMPDEST DUP3 MSTORE POP POP JUMP JUMPDEST PUSH0 PUSH1 0x20 DUP3 ADD SWAP1 POP PUSH2 0x485 PUSH0 DUP4 ADD DUP5 PUSH2 0x463 JUMP JUMPDEST SWAP3 SWAP2 POP POP JUMP JUMPDEST PUSH0 DUP2 SWAP1 POP DUP3 PUSH1 0x40 PUSH1 0x2 MUL DUP3 ADD GT ISZERO PUSH2 0x4A6 JUMPI PUSH2 0x4A5 PUSH2 0x3D7 JUMP JUMPDEST JUMPDEST SWAP3 SWAP2 POP POP JUMP JUMPDEST PUSH0 DUP1 PUSH2 0x100 DUP4 DUP6 SUB SLT ISZERO PUSH2 0x4C3 JUMPI PUSH2 0x4C2 PUSH2 0x3D3 JUMP JUMPDEST JUMPDEST PUSH0 PUSH2 0x4D0 DUP6 DUP3 DUP7 ADD PUSH2 0x48B JUMP JUMPDEST SWAP3 POP POP PUSH1 0x80 PUSH2 0x4E1 DUP6 DUP3 DUP7 ADD PUSH2 0x48B JUMP JUMPDEST SWAP2 POP POP SWAP3 POP SWAP3 SWAP1 POP JUMP JUMPDEST PUSH0 DUP2 PUSH0 SHR SWAP1 POP SWAP2 SWAP1 POP JUMP JUMPDEST PUSH0 DUP2 SWAP1 POP SWAP2 SWAP1 POP JUMP JUMPDEST PUSH0 PUSH2 0x511 PUSH2 0x50C DUP4 PUSH2 0x4EB JUMP JUMPDEST PUSH2 0x4F6 JUMP JUMPDEST SWAP1 POP SWAP2 SWAP1 POP JUMP JUMPDEST PUSH2 0x521 DUP2 PUSH2 0x45A JUMP JUMPDEST DUP3 MSTORE POP POP JUMP JUMPDEST PUSH1 0x40 DUP3 ADD PUSH0 DUP1 DUP4 ADD SLOAD SWAP1 POP PUSH2 0x53B DUP2 PUSH2 0x4FF JUMP JUMPDEST PUSH2 0x547 PUSH0 DUP7 ADD DUP3 PUSH2 0x518 JUMP JUMPDEST POP PUSH1 0x1 DUP4 ADD SLOAD SWAP1 POP PUSH2 0x558 DUP2 PUSH2 0x4FF JUMP JUMPDEST PUSH2 0x565 PUSH1 0x20 DUP7 ADD DUP3 PUSH2 0x518 JUMP JUMPDEST POP POP POP POP POP JUMP JUMPDEST PUSH0 PUSH1 0x2 SWAP1 POP SWAP2 SWAP1 POP JUMP JUMPDEST PUSH0 DUP2 SWAP1 POP SWAP3 SWAP2 POP POP JUMP JUMPDEST PUSH0 DUP2 SWAP1 POP SWAP2 SWAP1 POP JUMP JUMPDEST PUSH0 PUSH2 0x594 DUP4 DUP4 PUSH2 0x518 JUMP JUMPDEST PUSH1 0x20 DUP4 ADD SWAP1 POP SWAP3 SWAP2 POP POP JUMP JUMPDEST PUSH0 PUSH2 0x5AB DUP3 SLOAD PUSH2 0x4FF JUMP JUMPDEST SWAP1 POP SWAP2 SWAP1 POP JUMP JUMPDEST PUSH0 PUSH1 0x1 DUP3 ADD SWAP1 POP SWAP2 SWAP1 POP JUMP JUMPDEST PUSH2 0x5C7 DUP2 PUSH2 0x56C JUMP JUMPDEST PUSH2 0x5D1 DUP2 DUP5 PUSH2 0x576 JUMP JUMPDEST SWAP3 POP PUSH2 0x5DC DUP3 PUSH2 0x580 JUMP JUMPDEST DUP1 PUSH0 JUMPDEST DUP4 DUP2 LT ISZERO PUSH2 0x613 JUMPI PUSH2 0x5F0 DUP3 PUSH2 0x5A0 JUMP JUMPDEST PUSH2 0x5FA DUP8 DUP3 PUSH2 0x589 JUMP JUMPDEST SWAP7 POP PUSH2 0x605 DUP4 PUSH2 0x5B2 JUMP JUMPDEST SWAP3 POP POP PUSH1 0x1 DUP2 ADD SWAP1 POP PUSH2 0x5DF JUMP JUMPDEST POP POP POP POP POP POP JUMP JUMPDEST PUSH1 0x80 DUP3 ADD PUSH0 DUP1 DUP4 ADD PUSH2 0x62F PUSH0 DUP7 ADD DUP3 PUSH2 0x5BE JUMP JUMPDEST POP PUSH1 0x2 DUP4 ADD PUSH2 0x641 PUSH1 0x40 DUP7 ADD DUP3 PUSH2 0x5BE JUMP JUMPDEST POP POP POP POP POP JUMP JUMPDEST PUSH2 0x100 DUP3 ADD PUSH0 DUP1 DUP4 ADD PUSH2 0x65D PUSH0 DUP7 ADD DUP3 PUSH2 0x527 JUMP JUMPDEST POP PUSH1 0x2 DUP4 ADD PUSH2 0x66F PUSH1 0x40 DUP7 ADD DUP3 PUSH2 0x61B JUMP JUMPDEST POP PUSH1 0x6 DUP4 ADD PUSH2 0x681 PUSH1 0xC0 DUP7 ADD DUP3 PUSH2 0x527 JUMP JUMPDEST POP POP POP POP POP JUMP JUMPDEST DUP3 DUP2 DUP4 CALLDATACOPY POP POP POP JUMP JUMPDEST PUSH2 0x69D PUSH1 0x20 DUP4 DUP4 PUSH2 0x688 JUMP JUMPDEST POP POP JUMP JUMPDEST PUSH0 PUSH2 0x120 DUP3 ADD SWAP1 POP PUSH2 0x6B5 PUSH0 DUP4 ADD DUP6 PUSH2 0x648 JUMP JUMPDEST PUSH2 0x6C3 PUSH2 0x100 DUP4 ADD DUP5 PUSH2 0x691 JUMP JUMPDEST SWAP4 SWAP3 POP POP POP JUMP JUMPDEST PUSH2 0x6D3 DUP2 PUSH2 0x427 JUMP JUMPDEST DUP2 EQ PUSH2 0x6DD JUMPI PUSH0 DUP1 REVERT JUMPDEST POP JUMP JUMPDEST PUSH0 DUP2 MLOAD SWAP1 POP PUSH2 0x6EE DUP2 PUSH2 0x6CA JUMP JUMPDEST SWAP3 SWAP2 POP POP JUMP JUMPDEST PUSH0 PUSH1 0x20 DUP3 DUP5 SUB SLT ISZERO PUSH2 0x709 JUMPI PUSH2 0x708 PUSH2 0x3D3 JUMP JUMPDEST JUMPDEST PUSH0 PUSH2 0x716 DUP5 DUP3 DUP6 ADD PUSH2 0x6E0 JUMP JUMPDEST SWAP2 POP POP SWAP3 SWAP2 POP POP JUMP JUMPDEST PUSH32 0x4E487B7100000000000000000000000000000000000000000000000000000000 PUSH0 MSTORE PUSH1 0x32 PUSH1 0x4 MSTORE PUSH1 0x24 PUSH0 REVERT INVALID LOG2 PUSH5 0x6970667358 0x22 SLT KECCAK256 0xB3 0xC3 0xE8 0xA8 0xBD PUSH24 0x4560D8DF2FEE958EDEC692E3F878B06CCE3C9E9907F8197 MCOPY SHR PUSH5 0x736F6C6343 STOP ADDMOD BYTE STOP CALLER "
		},
		"gasEstimates": {
			"creation": {
				"codeDepositCost": "384400",
				"executionCost": "422",
				"totalCost": "384822"
			},
			"external": {
				"SetProof(uint256[2][2],uint256[2][2])": "infinite",
				"Verify(uint256[1])": "infinite",
				"merlke_root()": "2424"
			}
		},
		"methodIdentifiers": {
			"SetProof(uint256[2][2],uint256[2][2])": "d9cca5de",
			"Verify(uint256[1])": "215ba7b6",
			"merlke_root()": "317da8bd"
		}
	},
	"abi": [
		{
			"inputs": [
				{
					"internalType": "uint256[2][2]",
					"name": "arrForG1Points",
					"type": "uint256[2][2]"
				},
				{
					"internalType": "uint256[2][2]",
					"name": "arrForG2Point",
					"type": "uint256[2][2]"
				}
			],
			"name": "SetProof",
			"outputs": [],
			"stateMutability": "nonpayable",
			"type": "function"
		},
		{
			"inputs": [
				{
					"internalType": "uint256[1]",
					"name": "m_root",
					"type": "uint256[1]"
				}
			],
			"name": "Verify",
			"outputs": [
				{
					"internalType": "bool",
					"name": "",
					"type": "bool"
				}
			],
			"stateMutability": "view",
			"type": "function"
		},
		{
			"inputs": [],
			"name": "merlke_root",
			"outputs": [
				{
					"internalType": "uint256",
					"name": "",
					"type": "uint256"
				}
			],
			"stateMutability": "view",
			"type": "function"
		}
	]
}